{
  "contractName": "AddressWhiteList",
  "abi": [
    {
      "constant": true,
      "inputs": [
        {
          "name": "",
          "type": "uint256"
        }
      ],
      "name": "whiteList",
      "outputs": [
        {
          "name": "",
          "type": "address"
        }
      ],
      "payable": false,
      "stateMutability": "view",
      "type": "function"
    },
    {
      "constant": false,
      "inputs": [],
      "name": "renounceOwnership",
      "outputs": [],
      "payable": false,
      "stateMutability": "nonpayable",
      "type": "function"
    },
    {
      "constant": true,
      "inputs": [],
      "name": "owner",
      "outputs": [
        {
          "name": "",
          "type": "address"
        }
      ],
      "payable": false,
      "stateMutability": "view",
      "type": "function"
    },
    {
      "constant": true,
      "inputs": [],
      "name": "isOwner",
      "outputs": [
        {
          "name": "",
          "type": "bool"
        }
      ],
      "payable": false,
      "stateMutability": "view",
      "type": "function"
    },
    {
      "constant": false,
      "inputs": [
        {
          "name": "newOwner",
          "type": "address"
        }
      ],
      "name": "transferOwnership",
      "outputs": [],
      "payable": false,
      "stateMutability": "nonpayable",
      "type": "function"
    },
    {
      "anonymous": false,
      "inputs": [
        {
          "indexed": true,
          "name": "previousOwner",
          "type": "address"
        },
        {
          "indexed": true,
          "name": "newOwner",
          "type": "address"
        }
      ],
      "name": "OwnershipTransferred",
      "type": "event"
    },
    {
      "constant": false,
      "inputs": [
        {
          "name": "addAddress",
          "type": "address"
        }
      ],
      "name": "addWhiteList",
      "outputs": [],
      "payable": false,
      "stateMutability": "nonpayable",
      "type": "function"
    },
    {
      "constant": false,
      "inputs": [
        {
          "name": "removeAddress",
          "type": "address"
        }
      ],
      "name": "removeWhiteList",
      "outputs": [],
      "payable": false,
      "stateMutability": "nonpayable",
      "type": "function"
    },
    {
      "constant": true,
      "inputs": [],
      "name": "getWhiteList",
      "outputs": [
        {
          "name": "",
          "type": "address[]"
        }
      ],
      "payable": false,
      "stateMutability": "view",
      "type": "function"
    },
    {
      "constant": true,
      "inputs": [
        {
          "name": "tmpAddress",
          "type": "address"
        }
      ],
      "name": "isEligibleAddress",
      "outputs": [
        {
          "name": "",
          "type": "bool"
        }
      ],
      "payable": false,
      "stateMutability": "view",
      "type": "function"
    }
  ],
  "bytecode": "0x6080604081905260008054600160a060020a0319163317808255600160a060020a0316917f8be0079c531659141344cd1fd0a4f28419497f9722a3daafe3b4186f6b6457e0908290a361074a806100576000396000f3006080604052600436106100985763ffffffff7c010000000000000000000000000000000000000000000000000000000060003504166309a9d76c811461009d5780632042e5c2146101025780635c475d4214610125578063715018a614610159578063817bf86d1461016e5780638da5cb5b146101a35780638f32d59b146101b8578063e7cd4a04146101cd578063f2fde38b146101ee575b600080fd5b3480156100a957600080fd5b506100b261020f565b60408051602080825283518183015283519192839290830191858101910280838360005b838110156100ee5781810151838201526020016100d6565b505050509050019250505060405180910390f35b34801561010e57600080fd5b50610123600160a060020a0360043516610272565b005b34801561013157600080fd5b5061013d600435610363565b60408051600160a060020a039092168252519081900360200190f35b34801561016557600080fd5b5061012361038b565b34801561017a57600080fd5b5061018f600160a060020a036004351661042e565b604080519115158252519081900360200190f35b3480156101af57600080fd5b5061013d610445565b3480156101c457600080fd5b5061018f610454565b3480156101d957600080fd5b50610123600160a060020a0360043516610465565b3480156101fa57600080fd5b50610123600160a060020a0360043516610526565b6060600180548060200260200160405190810160405280929190818152602001828054801561026757602002820191906000526020600020905b8154600160a060020a03168152600190910190602001808311610249575b505050505090505b90565b600061027c610454565b15156102c0576040805160e560020a62461bcd02815260206004820181905260248201526000805160206106ff833981519152604482015290519081900360640190fd5b6102c98261057e565b60015490915081101561035f5760015460001901811461034a576001805460001981019081106102f557fe5b60009182526020909120015460018054600160a060020a03909216918390811061031b57fe5b9060005260206000200160006101000a815481600160a060020a030219169083600160a060020a031602179055505b600180549061035d9060001983016106c1565b505b5050565b600180548290811061037157fe5b600091825260209091200154600160a060020a0316905081565b610393610454565b15156103d7576040805160e560020a62461bcd02815260206004820181905260248201526000805160206106ff833981519152604482015290519081900360640190fd5b60008054604051600160a060020a03909116907f8be0079c531659141344cd1fd0a4f28419497f9722a3daafe3b4186f6b6457e0908390a36000805473ffffffffffffffffffffffffffffffffffffffff19169055565b60008061043a8361057e565b600154119392505050565b600054600160a060020a031690565b600054600160a060020a0316331490565b600061046f610454565b15156104b3576040805160e560020a62461bcd02815260206004820181905260248201526000805160206106ff833981519152604482015290519081900360640190fd5b6104bc8261057e565b60015490915081141561035f576001805480820182556000919091527fb10e2d527612073b26eecdfd717e6a320cf44b4afac2b0732d9fcbe2b7fa0cf6018054600160a060020a03841673ffffffffffffffffffffffffffffffffffffffff199091161790555050565b61052e610454565b1515610572576040805160e560020a62461bcd02815260206004820181905260248201526000805160206106ff833981519152604482015290519081900360640190fd5b61057b816105d3565b50565b6000805b6001548110156105cd5782600160a060020a03166001828154811015156105a557fe5b600091825260209091200154600160a060020a031614156105c5576105cd565b600101610582565b92915050565b600160a060020a0381161515610659576040805160e560020a62461bcd02815260206004820152602660248201527f4f776e61626c653a206e6577206f776e657220697320746865207a65726f206160448201527f6464726573730000000000000000000000000000000000000000000000000000606482015290519081900360840190fd5b60008054604051600160a060020a03808516939216917f8be0079c531659141344cd1fd0a4f28419497f9722a3daafe3b4186f6b6457e091a36000805473ffffffffffffffffffffffffffffffffffffffff1916600160a060020a0392909216919091179055565b81548183558181111561035d5760008381526020902061035d91810190830161026f91905b808211156106fa57600081556001016106e6565b509056004f776e61626c653a2063616c6c6572206973206e6f7420746865206f776e6572a165627a7a72305820bef1b0e0fac7f948735bb1b2665297da6ba64fd6b6dd2bc6f4fa6df552a8bd570029",
  "source": "pragma solidity ^0.4.26;\r\nimport \"./Ownable.sol\";\r\n    /**\r\n     * @dev Implementation of a whitelist filters a eligible address.\r\n     */\r\ncontract AddressWhiteList is Ownable {\r\n\r\n    // The eligible adress list\r\n    address[] public whiteList;\r\n    /**\r\n     * @dev Implementation of add an eligible address into the whitelist.\r\n     * @param addAddress new eligible address.\r\n     */\r\n    function addWhiteList(address addAddress)public onlyOwner{\r\n        uint256 index = _getEligibleAddressIndex(addAddress);\r\n        if (index==whiteList.length){\r\n            whiteList.push(addAddress);\r\n        }\r\n    }\r\n    /**\r\n     * @dev Implementation of revoke an invalid address from the whitelist.\r\n     * @param removeAddress revoked address.\r\n     */\r\n    function removeWhiteList(address removeAddress)public onlyOwner{\r\n        uint256 index = _getEligibleAddressIndex(removeAddress);\r\n        if (index<whiteList.length){\r\n            if (index!=whiteList.length-1) {\r\n                whiteList[index] = whiteList[whiteList.length-1];\r\n            }\r\n            whiteList.length--;\r\n        }\r\n    }\r\n    /**\r\n     * @dev Implementation of getting the eligible whitelist.\r\n     */\r\n    function getWhiteList()public view returns (address[]){\r\n        return whiteList;\r\n    }\r\n    /**\r\n     * @dev Implementation of testing whether the input address is eligible.\r\n     * @param tmpAddress input address for testing.\r\n     */    \r\n    function isEligibleAddress(address tmpAddress) public view returns (bool){\r\n        uint256 index = _getEligibleAddressIndex(tmpAddress);\r\n        return index<whiteList.length;\r\n    }\r\n    function _getEligibleAddressIndex(address tmpAddress) internal view returns (uint256){\r\n        for (uint256 i=0;i<whiteList.length;i++){\r\n            if (whiteList[i] == tmpAddress)\r\n                break;\r\n        }\r\n        return i;\r\n    }\r\n}",
  "sourcePath": "C:\\work\\solidity\\OptionsContract\\contracts\\AddressWhiteList.sol",
  "compiler": {
    "name": "solc",
    "version": "0.4.26+commit.4563c3fc.Emscripten.clang"
  },
  "schemaVersion": "3.1.0",
  "updatedAt": "2020-07-02T06:06:02.571Z",
  "devdoc": {
    "methods": {
      "addWhiteList(address)": {
        "details": "Implementation of add an eligible address into the whitelist.\r",
        "params": {
          "addAddress": "new eligible address.\r"
        }
      },
      "getWhiteList()": {
        "details": "Implementation of getting the eligible whitelist.\r"
      },
      "isEligibleAddress(address)": {
        "details": "Implementation of testing whether the input address is eligible.\r",
        "params": {
          "tmpAddress": "input address for testing.\r"
        }
      },
      "isOwner()": {
        "details": "Returns true if the caller is the current owner."
      },
      "owner()": {
        "details": "Returns the address of the current owner."
      },
      "removeWhiteList(address)": {
        "details": "Implementation of revoke an invalid address from the whitelist.\r",
        "params": {
          "removeAddress": "revoked address.\r"
        }
      },
      "renounceOwnership()": {
        "details": "Leaves the contract without owner. It will not be possible to call `onlyOwner` functions anymore. Can only be called by the current owner.     * NOTE: Renouncing ownership will leave the contract without an owner, thereby removing any functionality that is only available to the owner."
      },
      "transferOwnership(address)": {
        "details": "Transfers ownership of the contract to a new account (`newOwner`). Can only be called by the current owner."
      }
    }
  },
  "userdoc": {
    "methods": {}
  }
}