{
  "contractName": "CompoundOracle",
  "abi": [
    {
      "constant": true,
      "inputs": [],
      "name": "ValidUntil",
      "outputs": [
        {
          "name": "",
          "type": "uint256"
        }
      ],
      "payable": false,
      "stateMutability": "view",
      "type": "function"
    },
    {
      "constant": false,
      "inputs": [],
      "name": "renounceOwnership",
      "outputs": [],
      "payable": false,
      "stateMutability": "nonpayable",
      "type": "function"
    },
    {
      "constant": true,
      "inputs": [],
      "name": "owner",
      "outputs": [
        {
          "name": "",
          "type": "address"
        }
      ],
      "payable": false,
      "stateMutability": "view",
      "type": "function"
    },
    {
      "constant": true,
      "inputs": [],
      "name": "isOwner",
      "outputs": [
        {
          "name": "",
          "type": "bool"
        }
      ],
      "payable": false,
      "stateMutability": "view",
      "type": "function"
    },
    {
      "constant": false,
      "inputs": [
        {
          "name": "newOwner",
          "type": "address"
        }
      ],
      "name": "transferOwnership",
      "outputs": [],
      "payable": false,
      "stateMutability": "nonpayable",
      "type": "function"
    },
    {
      "anonymous": false,
      "inputs": [
        {
          "indexed": true,
          "name": "previousOwner",
          "type": "address"
        },
        {
          "indexed": true,
          "name": "newOwner",
          "type": "address"
        }
      ],
      "name": "OwnershipTransferred",
      "type": "event"
    },
    {
      "constant": false,
      "inputs": [
        {
          "name": "timeLimit",
          "type": "uint256"
        }
      ],
      "name": "setValidUntil",
      "outputs": [],
      "payable": false,
      "stateMutability": "nonpayable",
      "type": "function"
    },
    {
      "constant": false,
      "inputs": [
        {
          "name": "asset",
          "type": "address"
        },
        {
          "name": "price",
          "type": "uint256"
        }
      ],
      "name": "setPrice",
      "outputs": [],
      "payable": false,
      "stateMutability": "nonpayable",
      "type": "function"
    },
    {
      "constant": false,
      "inputs": [
        {
          "name": "underlying",
          "type": "uint256"
        },
        {
          "name": "price",
          "type": "uint256"
        }
      ],
      "name": "setUnderlyingPrice",
      "outputs": [],
      "payable": false,
      "stateMutability": "nonpayable",
      "type": "function"
    },
    {
      "constant": false,
      "inputs": [
        {
          "name": "assets",
          "type": "address[]"
        },
        {
          "name": "assetPrices",
          "type": "uint256[]"
        },
        {
          "name": "underlyings",
          "type": "uint256[]"
        },
        {
          "name": "ulPrices",
          "type": "uint256[]"
        }
      ],
      "name": "setPriceAndUnderlyingPrice",
      "outputs": [],
      "payable": false,
      "stateMutability": "nonpayable",
      "type": "function"
    },
    {
      "constant": false,
      "inputs": [
        {
          "name": "optoken",
          "type": "address"
        },
        {
          "name": "price",
          "type": "uint256"
        }
      ],
      "name": "setSellOptionsPrice",
      "outputs": [],
      "payable": false,
      "stateMutability": "nonpayable",
      "type": "function"
    },
    {
      "constant": false,
      "inputs": [
        {
          "name": "optoken",
          "type": "address"
        },
        {
          "name": "price",
          "type": "uint256"
        }
      ],
      "name": "setBuyOptionsPrice",
      "outputs": [],
      "payable": false,
      "stateMutability": "nonpayable",
      "type": "function"
    },
    {
      "constant": false,
      "inputs": [
        {
          "name": "optokens",
          "type": "address[]"
        },
        {
          "name": "buyPrices",
          "type": "uint256[]"
        },
        {
          "name": "SellPrices",
          "type": "uint256[]"
        }
      ],
      "name": "setOptionsBuyAndSellPrice",
      "outputs": [],
      "payable": false,
      "stateMutability": "nonpayable",
      "type": "function"
    },
    {
      "constant": true,
      "inputs": [
        {
          "name": "asset",
          "type": "address"
        }
      ],
      "name": "getPrice",
      "outputs": [
        {
          "name": "",
          "type": "uint256"
        }
      ],
      "payable": false,
      "stateMutability": "view",
      "type": "function"
    },
    {
      "constant": true,
      "inputs": [
        {
          "name": "underlying",
          "type": "uint256"
        }
      ],
      "name": "getUnderlyingPrice",
      "outputs": [
        {
          "name": "",
          "type": "uint256"
        }
      ],
      "payable": false,
      "stateMutability": "view",
      "type": "function"
    },
    {
      "constant": true,
      "inputs": [
        {
          "name": "oToken",
          "type": "address"
        }
      ],
      "name": "getSellOptionsPrice",
      "outputs": [
        {
          "name": "",
          "type": "uint256"
        }
      ],
      "payable": false,
      "stateMutability": "view",
      "type": "function"
    },
    {
      "constant": true,
      "inputs": [
        {
          "name": "oToken",
          "type": "address"
        }
      ],
      "name": "getBuyOptionsPrice",
      "outputs": [
        {
          "name": "",
          "type": "uint256"
        }
      ],
      "payable": false,
      "stateMutability": "view",
      "type": "function"
    },
    {
      "constant": true,
      "inputs": [
        {
          "name": "asset",
          "type": "address"
        }
      ],
      "name": "getPriceDetail",
      "outputs": [
        {
          "name": "",
          "type": "uint256"
        },
        {
          "name": "",
          "type": "uint256"
        }
      ],
      "payable": false,
      "stateMutability": "view",
      "type": "function"
    },
    {
      "constant": true,
      "inputs": [
        {
          "name": "underlying",
          "type": "uint256"
        }
      ],
      "name": "getUnderlyingPriceDetail",
      "outputs": [
        {
          "name": "",
          "type": "uint256"
        },
        {
          "name": "",
          "type": "uint256"
        }
      ],
      "payable": false,
      "stateMutability": "view",
      "type": "function"
    },
    {
      "constant": true,
      "inputs": [
        {
          "name": "oToken",
          "type": "address"
        }
      ],
      "name": "getSellOptionsPriceDetail",
      "outputs": [
        {
          "name": "",
          "type": "uint256"
        },
        {
          "name": "",
          "type": "uint256"
        }
      ],
      "payable": false,
      "stateMutability": "view",
      "type": "function"
    },
    {
      "constant": true,
      "inputs": [
        {
          "name": "oToken",
          "type": "address"
        }
      ],
      "name": "getBuyOptionsPriceDetail",
      "outputs": [
        {
          "name": "",
          "type": "uint256"
        },
        {
          "name": "",
          "type": "uint256"
        }
      ],
      "payable": false,
      "stateMutability": "view",
      "type": "function"
    }
  ],
  "bytecode": "0x6080604081905261025860015560008054600160a060020a0319163317808255600160a060020a0316917f8be0079c531659141344cd1fd0a4f28419497f9722a3daafe3b4186f6b6457e0908290a36110aa8061005d6000396000f3006080604052600436106101105763ffffffff7c0100000000000000000000000000000000000000000000000000000000600035041662e4768b81146101155780631410fa851461013b5780631639f0fe1461023b57806341976e091461027557806349b7482b146102a85780634af5b1e21461036f5780635fe1b45614610384578063634099cc146103a8578063715018a6146103c057806383532667146103d55780638618b1d8146103f0578063861f4d19146104115780638da5cb5b146104355780638f32d59b146104665780639c6621231461048f578063ba5215fb146104b0578063cd75e52c146104d1578063cdad8beb146104f2578063da6632571461050a578063f2fde38b14610522575b600080fd5b34801561012157600080fd5b50610139600160a060020a0360043516602435610543565b005b34801561014757600080fd5b506040805160206004803580820135838102808601850190965280855261013995369593946024949385019291829185019084908082843750506040805187358901803560208181028481018201909552818452989b9a998901989297509082019550935083925085019084908082843750506040805187358901803560208181028481018201909552818452989b9a998901989297509082019550935083925085019084908082843750506040805187358901803560208181028481018201909552818452989b9a9989019892975090820195509350839250850190849080828437509497506105b59650505050505050565b34801561024757600080fd5b5061025c600160a060020a0360043516610830565b6040805192835260208301919091528051918290030190f35b34801561028157600080fd5b50610296600160a060020a036004351661084e565b60408051918252519081900360200190f35b3480156102b457600080fd5b506040805160206004803580820135838102808601850190965280855261013995369593946024949385019291829185019084908082843750506040805187358901803560208181028481018201909552818452989b9a998901989297509082019550935083925085019084908082843750506040805187358901803560208181028481018201909552818452989b9a9989019892975090820195509350839250850190849080828437509497506108689650505050505050565b34801561037b57600080fd5b50610296610aa9565b34801561039057600080fd5b50610139600160a060020a0360043516602435610aaf565b3480156103b457600080fd5b50610139600435610b2a565b3480156103cc57600080fd5b50610139610b7b565b3480156103e157600080fd5b50610139600435602435610c1e565b3480156103fc57600080fd5b50610296600160a060020a0360043516610cde565b34801561041d57600080fd5b50610139600160a060020a0360043516602435610d00565b34801561044157600080fd5b5061044a610d7f565b60408051600160a060020a039092168252519081900360200190f35b34801561047257600080fd5b5061047b610d8e565b604080519115158252519081900360200190f35b34801561049b57600080fd5b5061025c600160a060020a0360043516610d9f565b3480156104bc57600080fd5b5061025c600160a060020a0360043516610dc5565b3480156104dd57600080fd5b50610296600160a060020a0360043516610de1565b3480156104fe57600080fd5b5061025c600435610dfc565b34801561051657600080fd5b50610296600435610e08565b34801561052e57600080fd5b50610139600160a060020a0360043516610e13565b61054b610d8e565b151561058f576040805160e560020a62461bcd028152602060048201819052602482015260008051602061105f833981519152604482015290519081900360640190fd5b600160a060020a0390911660009081526002602052604090206001810191909155429055565b60006105bf610d8e565b1515610603576040805160e560020a62461bcd028152602060048201819052602482015260008051602061105f833981519152604482015290519081900360640190fd5b8351855114610682576040805160e560020a62461bcd02815260206004820152603160248201527f61737365747320616e6420617373657450726963657320617265206e6f74206f60448201527f66207468652073616d65206c656e677468000000000000000000000000000000606482015290519081900360840190fd5b8151835114610701576040805160e560020a62461bcd02815260206004820152603360248201527f756e6465726c79696e677320616e6420756c50726963657320617265206e6f7460448201527f206f66207468652073616d65206c656e67746800000000000000000000000000606482015290519081900360840190fd5b5060005b845181101561079e57838181518110151561071c57fe5b9060200190602002015160026000878481518110151561073857fe5b90602001906020020151600160a060020a03168152602001908152602001600020600101819055504260026000878481518110151561077357fe5b6020908102909101810151600160a060020a0316825281019190915260400160002055600101610705565b5060005b82518110156108295781818151811015156107b957fe5b906020019060200201516002600085848151811015156107d557fe5b906020019060200201518152602001908152602001600020600101819055504260026000858481518110151561080757fe5b60209081029091018101518252810191909152604001600020556001016107a2565b5050505050565b60008061084583600160a060020a0316610e6b565b91509150915091565b600061086282600160a060020a0316610e84565b92915050565b6000806000610875610d8e565b15156108b9576040805160e560020a62461bcd028152602060048201819052602482015260008051602061105f833981519152604482015290519081900360640190fd5b8451865114610938576040805160e560020a62461bcd02815260206004820152603160248201527f6f70746f6b656e7320616e642062757950726963657320617265206e6f74206f60448201527f66207468652073616d65206c656e677468000000000000000000000000000000606482015290519081900360840190fd5b83518651146109b7576040805160e560020a62461bcd02815260206004820152603260248201527f6f70746f6b656e7320616e642053656c6c50726963657320617265206e6f742060448201527f6f66207468652073616d65206c656e6774680000000000000000000000000000606482015290519081900360840190fd5b600092505b8551831015610a2c5785838151811015156109d357fe5b90602001906020020151600160a060020a0316600a02600101915083838151811015156109fc57fe5b602090810290910181015160008481526002909252604090912060018082019290925542905592909201916109bc565b600092505b8551831015610aa1578583815181101515610a4857fe5b90602001906020020151600160a060020a0316600a0260020190508483815181101515610a7157fe5b60209081029091018101516000838152600290925260409091206001808201929092554290559290920191610a31565b505050505050565b60015481565b6000610ab9610d8e565b1515610afd576040805160e560020a62461bcd028152602060048201819052602482015260008051602061105f833981519152604482015290519081900360640190fd5b506001600a600160a060020a03909316929092028201600090815260026020526040902091820155429055565b610b32610d8e565b1515610b76576040805160e560020a62461bcd028152602060048201819052602482015260008051602061105f833981519152604482015290519081900360640190fd5b600155565b610b83610d8e565b1515610bc7576040805160e560020a62461bcd028152602060048201819052602482015260008051602061105f833981519152604482015290519081900360640190fd5b60008054604051600160a060020a03909116907f8be0079c531659141344cd1fd0a4f28419497f9722a3daafe3b4186f6b6457e0908390a36000805473ffffffffffffffffffffffffffffffffffffffff19169055565b610c26610d8e565b1515610c6a576040805160e560020a62461bcd028152602060048201819052602482015260008051602061105f833981519152604482015290519081900360640190fd5b60008211610cc2576040805160e560020a62461bcd02815260206004820152601960248201527f756e6465726c79696e672063616e6e6f74206265207a65726f00000000000000604482015290519081900360640190fd5b6000918252600260205260409091206001810191909155429055565b60006002600a600160a060020a0384160201610cf981610e84565b9392505050565b6000610d0a610d8e565b1515610d4e576040805160e560020a62461bcd028152602060048201819052602482015260008051602061105f833981519152604482015290519081900360640190fd5b50600160a060020a0391909116600a0260029081016000908152602091909152604090206001810191909155429055565b600054600160a060020a031690565b600054600160a060020a0316331490565b6000806001600a600160a060020a0385160201610dbb81610e6b565b9250925050915091565b6000806002600a600160a060020a0385160201610dbb81610e6b565b60006001600a600160a060020a0384160201610cf981610e84565b60008061084583610e6b565b600061086282610e84565b610e1b610d8e565b1515610e5f576040805160e560020a62461bcd028152602060048201819052602482015260008051602061105f833981519152604482015290519081900360640190fd5b610e6881610f13565b50565b6000908152600260205260409020600181015490549091565b6000818152600260205260408120546001544291610ea8919063ffffffff61100116565b11610efd576040805160e560020a62461bcd02815260206004820152601960248201527f50726963652076616c6964697479206973206578706972656400000000000000604482015290519081900360640190fd5b5060009081526002602052604090206001015490565b600160a060020a0381161515610f99576040805160e560020a62461bcd02815260206004820152602660248201527f4f776e61626c653a206e6577206f776e657220697320746865207a65726f206160448201527f6464726573730000000000000000000000000000000000000000000000000000606482015290519081900360840190fd5b60008054604051600160a060020a03808516939216917f8be0079c531659141344cd1fd0a4f28419497f9722a3daafe3b4186f6b6457e091a36000805473ffffffffffffffffffffffffffffffffffffffff1916600160a060020a0392909216919091179055565b600082820183811015610cf9576040805160e560020a62461bcd02815260206004820152601b60248201527f536166654d6174683a206164646974696f6e206f766572666c6f770000000000604482015290519081900360640190fd004f776e61626c653a2063616c6c6572206973206e6f7420746865206f776e6572a165627a7a723058200f5d7abcb4ec940cd5b995172a9a2fb1a876605453201c18b5c3856741f72eac0029",
  "source": "pragma solidity ^0.4.26;\r\nimport \"./CompoundOracleInterface.sol\";\r\nimport \"./Ownable.sol\";\r\nimport \"./SafeMath.sol\";\r\ncontract CompoundOracle is ICompoundOracle,Ownable {\r\n    using SafeMath for uint256;\r\n    uint256 public ValidUntil = 600;\r\n    struct priceInfo {\r\n        uint256 inptutTime;\r\n        uint256 price;\r\n    }\r\n    mapping(uint256 => priceInfo) private priceMap;\r\n    function setValidUntil(uint256 timeLimit) public onlyOwner {\r\n        ValidUntil = timeLimit;\r\n    }\r\n    /**\r\n      * @notice set price of an asset\r\n      * @dev function to set price for an asset\r\n      * @param asset Asset for which to set the price\r\n      * @param price the Asset's price\r\n      */    \r\n    function setPrice(address asset,uint256 price) public onlyOwner {\r\n        priceMap[uint256(asset)].price = price;\r\n        priceMap[uint256(asset)].inptutTime = now;\r\n    }\r\n    /**\r\n      * @notice set price of an underlying\r\n      * @dev function to set price for an underlying\r\n      * @param underlying underlying for which to set the price\r\n      * @param price the underlying's price\r\n      */  \r\n    function setUnderlyingPrice(uint256 underlying,uint256 price) public onlyOwner {\r\n        require(underlying>0 , \"underlying cannot be zero\");\r\n        priceMap[underlying].price = price;\r\n        priceMap[underlying].inptutTime = now;\r\n    }\r\n    /**\r\n    * @notice set a group of prices for assets and a group of prices for underlying\r\n    * @dev function to set a group of prices for assets and a group of prices for underlying\r\n    * @param assets a set of asset for which to set the price\r\n    * @param assetPrices  a set of the Asset's price\r\n    * @param underlyings a set of underlyings for which to set the price\r\n    * @param ulPrices  a set of the underlyings's price\r\n    */    \r\n    function setPriceAndUnderlyingPrice(address[] assets,uint256[] assetPrices,uint256[] underlyings,uint256[] ulPrices) public onlyOwner {\r\n        require(assets.length == assetPrices.length,\"assets and assetPrices are not of the same length\");\r\n        require(underlyings.length == ulPrices.length,\"underlyings and ulPrices are not of the same length\");\r\n        for (uint i = 0;i<assets.length;i++) {\r\n            priceMap[uint256(assets[i])].price = assetPrices[i];\r\n            priceMap[uint256(assets[i])].inptutTime = now;\r\n        }\r\n        for (i = 0;i<underlyings.length;i++) {\r\n            priceMap[underlyings[i]].price = ulPrices[i];\r\n            priceMap[underlyings[i]].inptutTime = now;\r\n        }\r\n    }\r\n    /**\r\n      * @notice set price of an options token sell price\r\n      * @dev function to set an options token sell price\r\n      * @param optoken options token for which to set the sell price\r\n      * @param price the options token sell price\r\n      */     \r\n    function setSellOptionsPrice(address optoken,uint256 price) public onlyOwner {\r\n        uint256 key = uint256(optoken)*10+1;\r\n        priceMap[key].price = price;\r\n        priceMap[key].inptutTime = now;\r\n    }\r\n    /**\r\n      * @notice set price of an options token buy price\r\n      * @dev function to set an options token buy price\r\n      * @param optoken options token for which to set the buy price\r\n      * @param price the options token buy price\r\n      */      \r\n    function setBuyOptionsPrice(address optoken,uint256 price) public onlyOwner {\r\n        uint256 key = uint256(optoken)*10+2;\r\n        priceMap[key].price = price;\r\n        priceMap[key].inptutTime = now;\r\n    }\r\n    /**\r\n      * @notice set price of a group of option tokens buy and sell prices\r\n      * @dev function to set price of a group of option tokens buy and sell prices\r\n      * @param optokens a group of option tokens for which to set the buy and sell price\r\n      * @param buyPrices a group of buy prices\r\n      * @param SellPrices a group of sell prices\r\n      */    \r\n    function setOptionsBuyAndSellPrice(address[] optokens,uint256[] buyPrices,uint256[] SellPrices) public onlyOwner {\r\n        require(optokens.length == buyPrices.length,\"optokens and buyPrices are not of the same length\");\r\n        require(optokens.length == SellPrices.length,\"optokens and SellPrices are not of the same length\");\r\n        for (uint i=0; i<optokens.length; i++) {\r\n            uint256 sellkey = uint256(optokens[i])*10+1;\r\n            priceMap[sellkey].price = SellPrices[i];\r\n            priceMap[sellkey].inptutTime = now;\r\n        }\r\n        for (i=0; i<optokens.length; i++) {\r\n            uint256 buykey = uint256(optokens[i])*10+2;\r\n            priceMap[buykey].price = buyPrices[i];\r\n            priceMap[buykey].inptutTime = now;\r\n        }\r\n    }\r\n    /**\r\n  * @notice retrieves price of an asset\r\n  * @dev function to get price for an asset\r\n  * @param asset Asset for which to get the price\r\n  * @return uint mantissa of asset price (scaled by 1e18) or zero if unset or contract paused\r\n  */\r\n    function getPrice(address asset) public view returns (uint256) {\r\n        return _getPriceInfo(uint256(asset));\r\n    }\r\n    function getUnderlyingPrice(uint256 underlying) public view returns (uint256) {\r\n        return _getPriceInfo(underlying);\r\n    }\r\n\r\n    function getSellOptionsPrice(address oToken) public view returns (uint256) {\r\n        uint256 key = uint256(oToken)*10+1;\r\n        return _getPriceInfo(key);\r\n\r\n    }\r\n    function getBuyOptionsPrice(address oToken) public view returns (uint256) {\r\n        uint256 key = uint256(oToken)*10+2;\r\n        return _getPriceInfo(key);\r\n    }\r\n    function _getPriceInfo(uint256 key) internal view returns (uint256) {\r\n        require(ValidUntil.add(priceMap[key].inptutTime)>now,\"Price validity is expired\");\r\n        return priceMap[key].price;\r\n    }\r\n\r\n\r\n    function getPriceDetail(address asset) public view returns (uint256,uint256) {\r\n        return _getPriceDetail(uint256(asset));\r\n    }\r\n    function getUnderlyingPriceDetail(uint256 underlying) public view returns (uint256,uint256) {\r\n        return _getPriceDetail(underlying);\r\n    }\r\n\r\n    function getSellOptionsPriceDetail(address oToken) public view returns (uint256,uint256) {\r\n        uint256 key = uint256(oToken)*10+1;\r\n        return _getPriceDetail(key);\r\n\r\n    }\r\n    function getBuyOptionsPriceDetail(address oToken) public view returns (uint256,uint256) {\r\n        uint256 key = uint256(oToken)*10+2;\r\n        return _getPriceDetail(key);\r\n    }\r\n    function _getPriceDetail(uint256 key) internal view returns (uint256,uint256) {\r\n        return (priceMap[key].price,priceMap[key].inptutTime);\r\n    }\r\n}\r\n",
  "sourcePath": "C:\\work\\solidity\\OptionsContract\\contracts\\CompoundOracle.sol",
  "compiler": {
    "name": "solc",
    "version": "0.4.26+commit.4563c3fc.Emscripten.clang"
  },
  "schemaVersion": "3.1.0",
  "updatedAt": "2020-07-04T15:17:54.708Z",
  "devdoc": {
    "methods": {
      "getPrice(address)": {
        "details": "function to get price for an asset\r",
        "params": {
          "asset": "Asset for which to get the price\r"
        },
        "return": "uint mantissa of asset price (scaled by 1e18) or zero if unset or contract paused\r"
      },
      "isOwner()": {
        "details": "Returns true if the caller is the current owner."
      },
      "owner()": {
        "details": "Returns the address of the current owner."
      },
      "renounceOwnership()": {
        "details": "Leaves the contract without owner. It will not be possible to call `onlyOwner` functions anymore. Can only be called by the current owner.     * NOTE: Renouncing ownership will leave the contract without an owner, thereby removing any functionality that is only available to the owner."
      },
      "setBuyOptionsPrice(address,uint256)": {
        "details": "function to set an options token buy price\r",
        "params": {
          "optoken": "options token for which to set the buy price\r",
          "price": "the options token buy price\r"
        }
      },
      "setOptionsBuyAndSellPrice(address[],uint256[],uint256[])": {
        "details": "function to set price of a group of option tokens buy and sell prices\r",
        "params": {
          "SellPrices": "a group of sell prices\r",
          "buyPrices": "a group of buy prices\r",
          "optokens": "a group of option tokens for which to set the buy and sell price\r"
        }
      },
      "setPrice(address,uint256)": {
        "details": "function to set price for an asset\r",
        "params": {
          "asset": "Asset for which to set the price\r",
          "price": "the Asset's price\r"
        }
      },
      "setPriceAndUnderlyingPrice(address[],uint256[],uint256[],uint256[])": {
        "details": "function to set a group of prices for assets and a group of prices for underlying\r",
        "params": {
          "assetPrices": "a set of the Asset's price\r",
          "assets": "a set of asset for which to set the price\r",
          "ulPrices": "a set of the underlyings's price\r",
          "underlyings": "a set of underlyings for which to set the price\r"
        }
      },
      "setSellOptionsPrice(address,uint256)": {
        "details": "function to set an options token sell price\r",
        "params": {
          "optoken": "options token for which to set the sell price\r",
          "price": "the options token sell price\r"
        }
      },
      "setUnderlyingPrice(uint256,uint256)": {
        "details": "function to set price for an underlying\r",
        "params": {
          "price": "the underlying's price\r",
          "underlying": "underlying for which to set the price\r"
        }
      },
      "transferOwnership(address)": {
        "details": "Transfers ownership of the contract to a new account (`newOwner`). Can only be called by the current owner."
      }
    }
  },
  "userdoc": {
    "methods": {
      "getPrice(address)": {
        "notice": "retrieves price of an asset\r"
      },
      "setBuyOptionsPrice(address,uint256)": {
        "notice": "set price of an options token buy price\r"
      },
      "setOptionsBuyAndSellPrice(address[],uint256[],uint256[])": {
        "notice": "set price of a group of option tokens buy and sell prices\r"
      },
      "setPrice(address,uint256)": {
        "notice": "set price of an asset\r"
      },
      "setPriceAndUnderlyingPrice(address[],uint256[],uint256[],uint256[])": {
        "notice": "set a group of prices for assets and a group of prices for underlying\r"
      },
      "setSellOptionsPrice(address,uint256)": {
        "notice": "set price of an options token sell price\r"
      },
      "setUnderlyingPrice(uint256,uint256)": {
        "notice": "set price of an underlying\r"
      }
    }
  }
}