{
  "contractName": "Expration",
  "abi": [
    {
      "constant": false,
      "inputs": [],
      "name": "renounceOwnership",
      "outputs": [],
      "payable": false,
      "stateMutability": "nonpayable",
      "type": "function"
    },
    {
      "constant": true,
      "inputs": [],
      "name": "owner",
      "outputs": [
        {
          "name": "",
          "type": "address"
        }
      ],
      "payable": false,
      "stateMutability": "view",
      "type": "function"
    },
    {
      "constant": true,
      "inputs": [],
      "name": "isOwner",
      "outputs": [
        {
          "name": "",
          "type": "bool"
        }
      ],
      "payable": false,
      "stateMutability": "view",
      "type": "function"
    },
    {
      "constant": false,
      "inputs": [
        {
          "name": "newOwner",
          "type": "address"
        }
      ],
      "name": "transferOwnership",
      "outputs": [],
      "payable": false,
      "stateMutability": "nonpayable",
      "type": "function"
    },
    {
      "anonymous": false,
      "inputs": [
        {
          "indexed": true,
          "name": "previousOwner",
          "type": "address"
        },
        {
          "indexed": true,
          "name": "newOwner",
          "type": "address"
        }
      ],
      "name": "OwnershipTransferred",
      "type": "event"
    },
    {
      "constant": false,
      "inputs": [
        {
          "name": "expiration",
          "type": "uint256"
        }
      ],
      "name": "setExpration",
      "outputs": [],
      "payable": false,
      "stateMutability": "nonpayable",
      "type": "function"
    },
    {
      "constant": true,
      "inputs": [],
      "name": "getExpration",
      "outputs": [
        {
          "name": "",
          "type": "uint256"
        }
      ],
      "payable": false,
      "stateMutability": "view",
      "type": "function"
    }
  ],
  "bytecode": "0x6080604081905260008054600160a060020a0319163317808255600160a060020a0316917f8be0079c531659141344cd1fd0a4f28419497f9722a3daafe3b4186f6b6457e0908290a361040f806100576000396000f3006080604052600436106100775763ffffffff7c0100000000000000000000000000000000000000000000000000000000600035041663715018a6811461007c57806386a8a503146100935780638da5cb5b146100ba5780638f32d59b146100eb578063e2eea0ba14610114578063f2fde38b1461012c575b600080fd5b34801561008857600080fd5b5061009161014d565b005b34801561009f57600080fd5b506100a8610202565b60408051918252519081900360200190f35b3480156100c657600080fd5b506100cf610208565b60408051600160a060020a039092168252519081900360200190f35b3480156100f757600080fd5b50610100610217565b604080519115158252519081900360200190f35b34801561012057600080fd5b50610091600435610228565b34801561013857600080fd5b50610091600160a060020a036004351661028b565b610155610217565b15156101ab576040805160e560020a62461bcd02815260206004820181905260248201527f4f776e61626c653a2063616c6c6572206973206e6f7420746865206f776e6572604482015290519081900360640190fd5b60008054604051600160a060020a03909116907f8be0079c531659141344cd1fd0a4f28419497f9722a3daafe3b4186f6b6457e0908390a36000805473ffffffffffffffffffffffffffffffffffffffff19169055565b60015490565b600054600160a060020a031690565b600054600160a060020a0316331490565b610230610217565b1515610286576040805160e560020a62461bcd02815260206004820181905260248201527f4f776e61626c653a2063616c6c6572206973206e6f7420746865206f776e6572604482015290519081900360640190fd5b600155565b610293610217565b15156102e9576040805160e560020a62461bcd02815260206004820181905260248201527f4f776e61626c653a2063616c6c6572206973206e6f7420746865206f776e6572604482015290519081900360640190fd5b6102f2816102f5565b50565b600160a060020a038116151561037b576040805160e560020a62461bcd02815260206004820152602660248201527f4f776e61626c653a206e6577206f776e657220697320746865207a65726f206160448201527f6464726573730000000000000000000000000000000000000000000000000000606482015290519081900360840190fd5b60008054604051600160a060020a03808516939216917f8be0079c531659141344cd1fd0a4f28419497f9722a3daafe3b4186f6b6457e091a36000805473ffffffffffffffffffffffffffffffffffffffff1916600160a060020a03929092169190911790555600a165627a7a723058206d319cb5534d906521b4ecf7e14101f3e44ef65ef07f0d7eeda1b87fea8cb3af0029",
  "source": "pragma solidity ^0.4.26;\r\nimport \"./Ownable.sol\";\r\nimport \"./IERC20.sol\";\r\nimport \"./SafeMath.sol\";\r\nimport \"./IIterableToken.sol\";\r\ncontract BalanceMapping is IIterableToken\r\n{\r\n    itmap internal _balances;\r\n    struct itmap\r\n    {\r\n        mapping(address => IndexValue) data;\r\n        KeyFlag[] keys;\r\n        uint size;\r\n    }\r\n    struct IndexValue { uint keyIndex; uint256 value; }\r\n    struct KeyFlag { address key; bool deleted; }\r\n    function insert(address key, uint256 value) internal returns (bool)\r\n    {\r\n        uint keyIndex = _balances.data[key].keyIndex;\r\n        _balances.data[key].value = value;\r\n        if (keyIndex > 0)\r\n           return true;\r\n        else\r\n        {\r\n            keyIndex = _balances.keys.length++;\r\n            _balances.data[key].keyIndex = keyIndex + 1;\r\n            _balances.keys[keyIndex].key = key;\r\n            _balances.size++;\r\n            return false;\r\n        }\r\n    }\r\n    function remove(address key)internal returns (bool)\r\n    {\r\n        uint keyIndex = _balances.data[key].keyIndex;\r\n        if (keyIndex == 0)\r\n            return false;\r\n        delete _balances.data[key];\r\n        _balances.keys[keyIndex - 1].deleted = true;\r\n        _balances.size --;\r\n        return true;\r\n    }\r\n    function getAccountsAndBalances()public view returns (address[],uint256[]){\r\n        address[] memory accounts = new address[](_balances.size);\r\n        uint256[] memory balances = new uint256[](_balances.size);\r\n        uint256 keyIndex = 0;\r\n        for (uint256 i=0;i<_balances.keys.length;i++){\r\n            if(_balances.keys[i].deleted){\r\n                continue;\r\n            }\r\n            accounts[keyIndex] = _balances.keys[i].key;\r\n            balances[keyIndex] = _balances.data[accounts[keyIndex]].value;\r\n            keyIndex++;\r\n        }\r\n        return (accounts,balances);\r\n    } \r\n    function contains(address key)public view returns (bool)\r\n    {\r\n        return _balances.data[key].keyIndex > 0;\r\n    }\r\n    function iterate_balance_start()public view returns (uint)\r\n    {\r\n        uint keyIndex = uint(-1);\r\n        return iterate_balance_next(keyIndex);\r\n    }\r\n    function iterate_balance_valid(uint keyIndex)public view returns (bool)\r\n    {\r\n        return keyIndex < _balances.keys.length;\r\n    }\r\n    function iterate_balance_next(uint keyIndex)public view returns (uint)\r\n    {\r\n        keyIndex++;\r\n        while (keyIndex < _balances.keys.length && _balances.keys[keyIndex].deleted)\r\n            keyIndex++;\r\n        return keyIndex;\r\n    }\r\n    function iterate_balance_get(uint keyIndex)public view returns (address key, uint256 value)\r\n    {\r\n        key = _balances.keys[keyIndex].key;\r\n        value = _balances.data[key].value;\r\n    }\r\n}\r\ncontract Expration is Ownable {\r\n\r\n    uint256  private _expiration;\r\n\r\n    modifier notExpired() {\r\n        require(now < _expiration,\"Token is Expired\");\r\n        _;\r\n    }\r\n\r\n    modifier isExpired() {\r\n        require(now >= _expiration,\"Token is not Expired\");\r\n        _;\r\n    }\r\n\r\n    /// @notice function Emergency situation that requires\r\n    /// @notice contribution period to stop or not.\r\n    function setExpration(uint256 expiration)\r\n    public\r\n    onlyOwner\r\n    {\r\n        _expiration = expiration;\r\n    }\r\n    function getExpration()public view returns (uint256) {\r\n        return _expiration;\r\n    }\r\n}\r\ncontract Managerable is Expration {\r\n\r\n    address private _managerAddress;\r\n\r\n    modifier onlyManager() {\r\n        require(_managerAddress == msg.sender,\"Managerable: caller is not the Manager\");\r\n        _;\r\n    }\r\n    /// @notice function Emergency situation that requires\r\n    /// @notice contribution period to stop or not.\r\n    function setManager(address managerAddress)\r\n    public\r\n    onlyOwner\r\n    {\r\n        _managerAddress = managerAddress;\r\n    }\r\n    function getManager()public view returns (address) {\r\n        return _managerAddress;\r\n    }\r\n}\r\n/**\r\n * @dev Implementation of the {IERC20} interface.\r\n *\r\n * This implementation is agnostic to the way tokens are created. This means\r\n * that a supply mechanism has to be added in a derived contract using {_mint}.\r\n * For a generic mechanism see {ERC20Mintable}.\r\n *\r\n * TIP: For a detailed writeup see our guide\r\n * https://forum.zeppelin.solutions/t/how-to-implement-erc20-supply-mechanisms/226[How\r\n * to implement supply mechanisms].\r\n *\r\n * We have followed general OpenZeppelin guidelines: functions revert instead\r\n * of returning `false` on failure. This behavior is nonetheless conventional\r\n * and does not conflict with the expectations of ERC20 applications.\r\n *\r\n * Additionally, an {Approval} event is emitted on calls to {transferFrom}.\r\n * This allows applications to reconstruct the allowance for all accounts just\r\n * by listening to said events. Other implementations of the EIP may not emit\r\n * these events, as it isn't required by the specification.\r\n *\r\n * Finally, the non-standard {decreaseAllowance} and {increaseAllowance}\r\n * functions have been added to mitigate the well-known issues around setting\r\n * allowances. See {IERC20-approve}.\r\n */\r\ncontract OptionsToken is Managerable, IERC20,BalanceMapping {\r\n    using SafeMath for uint256;\r\n    string public name = \"OptionsToken\";\r\n    string public symbol = \"OptionsToken\";\r\n    uint8 public constant decimals = 18;\r\n    \r\n\r\n\r\n    mapping (address => mapping (address => uint256)) private _allowances;\r\n\r\n    uint256 private _totalSupply = 0;\r\n\r\n    constructor (uint256 expiration,string tokenName) public{\r\n        setExpration(expiration);\r\n        setManager(msg.sender);\r\n        name = tokenName;\r\n    }\r\n\r\n    function isContract(address addr) private view returns (bool) {\r\n\t\tuint len;\r\n\t\tassembly {\r\n\t\t\tlen := extcodesize(addr)\r\n\t\t}\r\n\t\treturn (len > 0);\r\n\t}\r\n    /**\r\n     * @dev See {IERC20-totalSupply}.\r\n     */\r\n    function totalSupply() public view returns (uint256) {\r\n        return _totalSupply;\r\n    }\r\n\r\n\r\n    /**\r\n     * @dev See {IERC20-balanceOf}.\r\n     */\r\n    function balanceOf(address account) public view returns (uint256) {\r\n        return _balances.data[account].value;\r\n    }\r\n    /**\r\n     * @dev See {IERC20-transfer}.\r\n     *\r\n     * Requirements:\r\n     *\r\n     * - `recipient` cannot be the zero address.\r\n     * - the caller must have a balance of at least `amount`.\r\n     */\r\n    function transfer(address recipient, uint256 amount)\r\n    public\r\n    notExpired\r\n    returns (bool)\r\n    {\r\n        _transfer(msg.sender, recipient, amount);\r\n        return true;\r\n    }\r\n\r\n    /**\r\n     * @dev See {IERC20-allowance}.\r\n     */\r\n    function allowance(address owner, address spender) public view returns (uint256) {\r\n        return _allowances[owner][spender];\r\n    }\r\n\r\n    /**\r\n     * @dev See {IERC20-approve}.\r\n     *\r\n     * Requirements:\r\n     *\r\n     * - `spender` cannot be the zero address.\r\n     */\r\n    function approve(address spender, uint256 amount)\r\n    public\r\n    notExpired\r\n    returns (bool) {\r\n        _approve(msg.sender, spender, amount);\r\n        return true;\r\n    }\r\n\r\n    /**\r\n     * @dev See {IERC20-transferFrom}.\r\n     *\r\n     * Emits an {Approval} event indicating the updated allowance. This is not\r\n     * required by the EIP. See the note at the beginning of {ERC20};\r\n     *\r\n     * Requirements:\r\n     * - `sender` and `recipient` cannot be the zero address.\r\n     * - `sender` must have a balance of at least `amount`.\r\n     * - the caller must have allowance for `sender`'s tokens of at least\r\n     * `amount`.\r\n     */\r\n    function transferFrom(address sender, address recipient, uint256 amount)\r\n    public\r\n    notExpired\r\n    returns (bool) {\r\n        _transfer(sender, recipient, amount);\r\n        _approve(sender, msg.sender, _allowances[sender][msg.sender].sub(amount, \"ERC20: transfer amount exceeds allowance\"));\r\n        return true;\r\n    }\r\n\r\n    /**\r\n     * @dev Atomically increases the allowance granted to `spender` by the caller.\r\n     *\r\n     * This is an alternative to {approve} that can be used as a mitigation for\r\n     * problems described in {IERC20-approve}.\r\n     *\r\n     * Emits an {Approval} event indicating the updated allowance.\r\n     *\r\n     * Requirements:\r\n     *\r\n     * - `spender` cannot be the zero address.\r\n     */\r\n    function increaseAllowance(address spender, uint256 addedValue)\r\n    public\r\n    notExpired\r\n    returns (bool) {\r\n        _approve(msg.sender, spender, _allowances[msg.sender][spender].add(addedValue));\r\n        return true;\r\n    }\r\n\r\n    /**\r\n     * @dev Atomically decreases the allowance granted to `spender` by the caller.\r\n     *\r\n     * This is an alternative to {approve} that can be used as a mitigation for\r\n     * problems described in {IERC20-approve}.\r\n     *\r\n     * Emits an {Approval} event indicating the updated allowance.\r\n     *\r\n     * Requirements:\r\n     *\r\n     * - `spender` cannot be the zero address.\r\n     * - `spender` must have allowance for the caller of at least\r\n     * `subtractedValue`.\r\n     */\r\n    function decreaseAllowance(address spender, uint256 subtractedValue)\r\n    public\r\n    notExpired\r\n    returns (bool) {\r\n        _approve(msg.sender, spender, _allowances[msg.sender][spender].sub(subtractedValue, \"ERC20: decreased allowance below zero\"));\r\n        return true;\r\n    }\r\n\r\n    function burn(uint256 amount) public notExpired onlyManager returns (bool){\r\n        _burn(msg.sender, amount);\r\n        return true;\r\n    }\r\n    function mint(address account,uint256 amount) public notExpired onlyManager returns (bool){\r\n        _mint(account,amount);\r\n        return true;\r\n    }\r\n    /**\r\n     * @dev add `recipient`'s balance to iterable mapping balances.\r\n     */\r\n    function _addBalance(address recipient, uint256 amount) internal {\r\n        require(recipient != address(0), \"ERC20: transfer to the zero address\");\r\n\r\n        uint256 balance = _balances.data[recipient].value;\r\n        balance = balance.add(amount);\r\n\r\n        insert(recipient,balance);\r\n    }\r\n    /**\r\n     * @dev add `recipient`'s balance to iterable mapping balances.\r\n     */\r\n    function _subBalance(address recipient, uint256 amount) internal {\r\n        require(recipient != address(0), \"ERC20: transfer to the zero address\");\r\n\r\n        uint256 balance = _balances.data[recipient].value;\r\n        balance = balance.sub(amount);\r\n\r\n        if (balance > 0){\r\n            insert(recipient,balance);\r\n        }else{\r\n            remove(recipient);\r\n        }\r\n    }\r\n    /**\r\n     * @dev Moves tokens `amount` from `sender` to `recipient`.\r\n     *\r\n     * This is internal function is equivalent to {transfer}, and can be used to\r\n     * e.g. implement automatic token fees, slashing mechanisms, etc.\r\n     *\r\n     * Emits a {Transfer} event.\r\n     *\r\n     * Requirements:\r\n     *\r\n     * - `sender` cannot be the zero address.\r\n     * - `recipient` cannot be the zero address.\r\n     * - `sender` must have a balance of at least `amount`.\r\n     */\r\n    function _transfer(address sender, address recipient, uint256 amount) internal {\r\n        require(sender != address(0), \"ERC20: transfer from the zero address\");\r\n        require(recipient != address(0), \"ERC20: transfer to the zero address\");\r\n        _subBalance(sender,amount);\r\n        _addBalance(recipient,amount);\r\n        emit Transfer(sender, recipient, amount);\r\n    }\r\n\r\n    /** @dev Creates `amount` tokens and assigns them to `account`, increasing\r\n     * the total supply.\r\n     *\r\n     * Emits a {Transfer} event with `from` set to the zero address.\r\n     *\r\n     * Requirements\r\n     *\r\n     * - `to` cannot be the zero address.\r\n     */\r\n    function _mint(address account, uint256 amount) internal {\r\n        require(account != address(0), \"ERC20: mint to the zero address\");\r\n\r\n        _totalSupply = _totalSupply.add(amount);\r\n        _addBalance(account,amount);\r\n        emit Transfer(address(0), account, amount);\r\n    }\r\n\r\n    /**\r\n    * @dev Destroys `amount` tokens from `account`, reducing the\r\n    * total supply.\r\n    *\r\n    * Emits a {Transfer} event with `to` set to the zero address.\r\n    *\r\n    * Requirements\r\n    *\r\n    * - `account` cannot be the zero address.\r\n    * - `account` must have at least `amount` tokens.\r\n    */\r\n    function _burn(address account, uint256 amount) internal {\r\n        require(account != address(0), \"ERC20: burn from the zero address\");\r\n\r\n        _subBalance(account,amount);\r\n        _totalSupply = _totalSupply.sub(amount);\r\n        emit Transfer(account, address(0), amount);\r\n    }\r\n\r\n    /**\r\n     * @dev Sets `amount` as the allowance of `spender` over the `owner`s tokens.\r\n     *\r\n     * This is internal function is equivalent to `approve`, and can be used to\r\n     * e.g. set automatic allowances for certain subsystems, etc.\r\n     *\r\n     * Emits an {Approval} event.\r\n     *\r\n     * Requirements:\r\n     *\r\n     * - `owner` cannot be the zero address.\r\n     * - `spender` cannot be the zero address.\r\n     */\r\n    function _approve(address owner, address spender, uint256 amount) internal {\r\n        require(owner != address(0), \"ERC20: approve from the zero address\");\r\n        require(spender != address(0), \"ERC20: approve to the zero address\");\r\n\r\n        _allowances[owner][spender] = amount;\r\n        emit Approval(owner, spender, amount);\r\n    }\r\n\r\n    /**\r\n     * @dev Destroys `amount` tokens from `account`.`amount` is then deducted\r\n     * from the caller's allowance.\r\n     *\r\n     * See {_burn} and {_approve}.\r\n     */\r\n    function _burnFrom(address account, uint256 amount) internal {\r\n        _burn(account, amount);\r\n        _approve(account, msg.sender, _allowances[account][msg.sender].sub(amount, \"ERC20: burn amount exceeds allowance\"));\r\n    }\r\n}\r\n",
  "sourcePath": "C:\\work\\solidity\\OptionsContract\\contracts\\OptionsToken.sol",
  "compiler": {
    "name": "solc",
    "version": "0.4.26+commit.4563c3fc.Emscripten.clang"
  },
  "schemaVersion": "3.1.0",
  "updatedAt": "2020-07-11T12:27:47.006Z",
  "devdoc": {
    "methods": {
      "isOwner()": {
        "details": "Returns true if the caller is the current owner."
      },
      "owner()": {
        "details": "Returns the address of the current owner."
      },
      "renounceOwnership()": {
        "details": "Leaves the contract without owner. It will not be possible to call `onlyOwner` functions anymore. Can only be called by the current owner.     * NOTE: Renouncing ownership will leave the contract without an owner, thereby removing any functionality that is only available to the owner."
      },
      "transferOwnership(address)": {
        "details": "Transfers ownership of the contract to a new account (`newOwner`). Can only be called by the current owner."
      }
    }
  },
  "userdoc": {
    "methods": {
      "setExpration(uint256)": {
        "notice": "contribution period to stop or not."
      }
    }
  }
}