{
  "contractName": "Expration",
  "abi": [
    {
      "constant": false,
      "inputs": [],
      "name": "renounceOwnership",
      "outputs": [],
      "payable": false,
      "stateMutability": "nonpayable",
      "type": "function"
    },
    {
      "constant": true,
      "inputs": [],
      "name": "owner",
      "outputs": [
        {
          "name": "",
          "type": "address"
        }
      ],
      "payable": false,
      "stateMutability": "view",
      "type": "function"
    },
    {
      "constant": true,
      "inputs": [],
      "name": "isOwner",
      "outputs": [
        {
          "name": "",
          "type": "bool"
        }
      ],
      "payable": false,
      "stateMutability": "view",
      "type": "function"
    },
    {
      "constant": false,
      "inputs": [
        {
          "name": "newOwner",
          "type": "address"
        }
      ],
      "name": "transferOwnership",
      "outputs": [],
      "payable": false,
      "stateMutability": "nonpayable",
      "type": "function"
    },
    {
      "anonymous": false,
      "inputs": [
        {
          "indexed": true,
          "name": "previousOwner",
          "type": "address"
        },
        {
          "indexed": true,
          "name": "newOwner",
          "type": "address"
        }
      ],
      "name": "OwnershipTransferred",
      "type": "event"
    },
    {
      "constant": false,
      "inputs": [
        {
          "name": "expiration",
          "type": "uint256"
        }
      ],
      "name": "setExpration",
      "outputs": [],
      "payable": false,
      "stateMutability": "nonpayable",
      "type": "function"
    },
    {
      "constant": true,
      "inputs": [],
      "name": "getExpration",
      "outputs": [
        {
          "name": "",
          "type": "uint256"
        }
      ],
      "payable": false,
      "stateMutability": "view",
      "type": "function"
    }
  ],
  "bytecode": "0x6080604081905260008054600160a060020a0319163317808255600160a060020a0316917f8be0079c531659141344cd1fd0a4f28419497f9722a3daafe3b4186f6b6457e0908290a361040f806100576000396000f3006080604052600436106100775763ffffffff7c0100000000000000000000000000000000000000000000000000000000600035041663715018a6811461007c57806386a8a503146100935780638da5cb5b146100ba5780638f32d59b146100eb578063e2eea0ba14610114578063f2fde38b1461012c575b600080fd5b34801561008857600080fd5b5061009161014d565b005b34801561009f57600080fd5b506100a8610202565b60408051918252519081900360200190f35b3480156100c657600080fd5b506100cf610208565b60408051600160a060020a039092168252519081900360200190f35b3480156100f757600080fd5b50610100610217565b604080519115158252519081900360200190f35b34801561012057600080fd5b50610091600435610228565b34801561013857600080fd5b50610091600160a060020a036004351661028b565b610155610217565b15156101ab576040805160e560020a62461bcd02815260206004820181905260248201527f4f776e61626c653a2063616c6c6572206973206e6f7420746865206f776e6572604482015290519081900360640190fd5b60008054604051600160a060020a03909116907f8be0079c531659141344cd1fd0a4f28419497f9722a3daafe3b4186f6b6457e0908390a36000805473ffffffffffffffffffffffffffffffffffffffff19169055565b60015490565b600054600160a060020a031690565b600054600160a060020a0316331490565b610230610217565b1515610286576040805160e560020a62461bcd02815260206004820181905260248201527f4f776e61626c653a2063616c6c6572206973206e6f7420746865206f776e6572604482015290519081900360640190fd5b600155565b610293610217565b15156102e9576040805160e560020a62461bcd02815260206004820181905260248201527f4f776e61626c653a2063616c6c6572206973206e6f7420746865206f776e6572604482015290519081900360640190fd5b6102f2816102f5565b50565b600160a060020a038116151561037b576040805160e560020a62461bcd02815260206004820152602660248201527f4f776e61626c653a206e6577206f776e657220697320746865207a65726f206160448201527f6464726573730000000000000000000000000000000000000000000000000000606482015290519081900360840190fd5b60008054604051600160a060020a03808516939216917f8be0079c531659141344cd1fd0a4f28419497f9722a3daafe3b4186f6b6457e091a36000805473ffffffffffffffffffffffffffffffffffffffff1916600160a060020a03929092169190911790555600a165627a7a72305820deb3153f0e1193eee03dcd7248df44386282a4c5da4eb73758eff1a2d05ad0ca0029",
  "source": "pragma solidity ^0.4.26;\nimport \"./Ownable.sol\";\nimport \"./IERC20.sol\";\nimport \"./SafeMath.sol\";\nimport \"./IIterableToken.sol\";\ncontract BalanceMapping is IIterableToken\n{\n    itmap internal _balances;\n    struct itmap\n    {\n        mapping(address => IndexValue) data;\n        KeyFlag[] keys;\n        uint size;\n    }\n    struct IndexValue { uint keyIndex; uint256 value; }\n    struct KeyFlag { address key; bool deleted; }\n    function insert(address key, uint256 value) internal returns (bool)\n    {\n        uint keyIndex = _balances.data[key].keyIndex;\n        _balances.data[key].value = value;\n        if (keyIndex > 0)\n           return true;\n        else\n        {\n            keyIndex = _balances.keys.length++;\n            _balances.data[key].keyIndex = keyIndex + 1;\n            _balances.keys[keyIndex].key = key;\n            _balances.size++;\n            return false;\n        }\n    }\n    function remove(address key)internal returns (bool)\n    {\n        uint keyIndex = _balances.data[key].keyIndex;\n        if (keyIndex == 0)\n            return false;\n        delete _balances.data[key];\n        _balances.keys[keyIndex - 1].deleted = true;\n        _balances.size --;\n        return true;\n    }\n    function getAccountsAndBalances()public view returns (address[],uint256[]){\n        address[] memory accounts = new address[](_balances.size);\n        uint256[] memory balances = new uint256[](_balances.size);\n        uint256 keyIndex = 0;\n        for (uint256 i=0;i<_balances.keys.length;i++){\n            if(_balances.keys[i].deleted){\n                continue;\n            }\n            accounts[keyIndex] = _balances.keys[i].key;\n            balances[keyIndex] = _balances.data[accounts[keyIndex]].value;\n            keyIndex++;\n        }\n        return (accounts,balances);\n    } \n    function contains(address key)public view returns (bool)\n    {\n        return _balances.data[key].keyIndex > 0;\n    }\n    function iterate_balance_start()public view returns (uint)\n    {\n        uint keyIndex = uint(-1);\n        return iterate_balance_next(keyIndex);\n    }\n    function iterate_balance_valid(uint keyIndex)public view returns (bool)\n    {\n        return keyIndex < _balances.keys.length;\n    }\n    function iterate_balance_next(uint keyIndex)public view returns (uint)\n    {\n        keyIndex++;\n        while (keyIndex < _balances.keys.length && _balances.keys[keyIndex].deleted)\n            keyIndex++;\n        return keyIndex;\n    }\n    function iterate_balance_get(uint keyIndex)public view returns (address key, uint256 value)\n    {\n        key = _balances.keys[keyIndex].key;\n        value = _balances.data[key].value;\n    }\n}\ncontract Expration is Ownable {\n\n    uint256  private _expiration;\n\n    modifier notExpired() {\n        require(now < _expiration,\"Token is Expired\");\n        _;\n    }\n\n    modifier isExpired() {\n        require(now >= _expiration,\"Token is not Expired\");\n        _;\n    }\n\n    /// @notice function Emergency situation that requires\n    /// @notice contribution period to stop or not.\n    function setExpration(uint256 expiration)\n    public\n    onlyOwner\n    {\n        _expiration = expiration;\n    }\n    function getExpration()public view returns (uint256) {\n        return _expiration;\n    }\n}\ncontract Managerable is Expration {\n\n    address private _managerAddress;\n\n    modifier onlyManager() {\n        require(_managerAddress == msg.sender,\"Managerable: caller is not the Manager\");\n        _;\n    }\n    /// @notice function Emergency situation that requires\n    /// @notice contribution period to stop or not.\n    function setManager(address managerAddress)\n    public\n    onlyOwner\n    {\n        _managerAddress = managerAddress;\n    }\n    function getManager()public view returns (address) {\n        return _managerAddress;\n    }\n}\n/**\n * @dev Implementation of the {IERC20} interface.\n *\n * This implementation is agnostic to the way tokens are created. This means\n * that a supply mechanism has to be added in a derived contract using {_mint}.\n * For a generic mechanism see {ERC20Mintable}.\n *\n * TIP: For a detailed writeup see our guide\n * https://forum.zeppelin.solutions/t/how-to-implement-erc20-supply-mechanisms/226[How\n * to implement supply mechanisms].\n *\n * We have followed general OpenZeppelin guidelines: functions revert instead\n * of returning `false` on failure. This behavior is nonetheless conventional\n * and does not conflict with the expectations of ERC20 applications.\n *\n * Additionally, an {Approval} event is emitted on calls to {transferFrom}.\n * This allows applications to reconstruct the allowance for all accounts just\n * by listening to said events. Other implementations of the EIP may not emit\n * these events, as it isn't required by the specification.\n *\n * Finally, the non-standard {decreaseAllowance} and {increaseAllowance}\n * functions have been added to mitigate the well-known issues around setting\n * allowances. See {IERC20-approve}.\n */\ncontract OptionsToken is Managerable, IERC20,BalanceMapping  {\n    using SafeMath for uint256;\n    string public name = \"OptionsToken\";\n    string public symbol = \"OptionsToken\";\n    uint8 public constant decimals = 18;\n    \n\n\n    mapping (address => mapping (address => uint256)) private _allowances;\n\n    uint256 private _totalSupply = 0;\n\n    constructor (uint256 expiration,string tokenName) public{\n        setExpration(expiration);\n        setManager(msg.sender);\n        name = tokenName;\n    }\n    /**\n     * @dev See {IERC20-totalSupply}.\n     */\n    function totalSupply() public view returns (uint256) {\n        return _totalSupply;\n    }\n\n\n    /**\n     * @dev See {IERC20-balanceOf}.\n     */\n    function balanceOf(address account) public view returns (uint256) {\n        return _balances.data[account].value;\n    }\n    /**\n     * @dev See {IERC20-transfer}.\n     *\n     * Requirements:\n     *\n     * - `recipient` cannot be the zero address.\n     * - the caller must have a balance of at least `amount`.\n     */\n    function transfer(address recipient, uint256 amount)\n    public\n    notExpired\n    returns (bool)\n    {\n        _transfer(msg.sender, recipient, amount);\n        return true;\n    }\n\n    /**\n     * @dev See {IERC20-allowance}.\n     */\n    function allowance(address owner, address spender) public view returns (uint256) {\n        return _allowances[owner][spender];\n    }\n\n    /**\n     * @dev See {IERC20-approve}.\n     *\n     * Requirements:\n     *\n     * - `spender` cannot be the zero address.\n     */\n    function approve(address spender, uint256 amount)\n    public\n    notExpired\n    returns (bool) {\n        _approve(msg.sender, spender, amount);\n        return true;\n    }\n\n    /**\n     * @dev See {IERC20-transferFrom}.\n     *\n     * Emits an {Approval} event indicating the updated allowance. This is not\n     * required by the EIP. See the note at the beginning of {ERC20};\n     *\n     * Requirements:\n     * - `sender` and `recipient` cannot be the zero address.\n     * - `sender` must have a balance of at least `amount`.\n     * - the caller must have allowance for `sender`'s tokens of at least\n     * `amount`.\n     */\n    function transferFrom(address sender, address recipient, uint256 amount)\n    public\n    notExpired\n    returns (bool) {\n        _transfer(sender, recipient, amount);\n        _approve(sender, msg.sender, _allowances[sender][msg.sender].sub(amount, \"ERC20: transfer amount exceeds allowance\"));\n        return true;\n    }\n\n    /**\n     * @dev Atomically increases the allowance granted to `spender` by the caller.\n     *\n     * This is an alternative to {approve} that can be used as a mitigation for\n     * problems described in {IERC20-approve}.\n     *\n     * Emits an {Approval} event indicating the updated allowance.\n     *\n     * Requirements:\n     *\n     * - `spender` cannot be the zero address.\n     */\n    function increaseAllowance(address spender, uint256 addedValue)\n    public\n    notExpired\n    returns (bool) {\n        _approve(msg.sender, spender, _allowances[msg.sender][spender].add(addedValue));\n        return true;\n    }\n\n    /**\n     * @dev Atomically decreases the allowance granted to `spender` by the caller.\n     *\n     * This is an alternative to {approve} that can be used as a mitigation for\n     * problems described in {IERC20-approve}.\n     *\n     * Emits an {Approval} event indicating the updated allowance.\n     *\n     * Requirements:\n     *\n     * - `spender` cannot be the zero address.\n     * - `spender` must have allowance for the caller of at least\n     * `subtractedValue`.\n     */\n    function decreaseAllowance(address spender, uint256 subtractedValue)\n    public\n    notExpired\n    returns (bool) {\n        _approve(msg.sender, spender, _allowances[msg.sender][spender].sub(subtractedValue, \"ERC20: decreased allowance below zero\"));\n        return true;\n    }\n\n    function burn(uint256 amount) public notExpired onlyManager returns (bool){\n        _burn(msg.sender, amount);\n        return true;\n    }\n    function mint(address account,uint256 amount) public notExpired onlyManager returns (bool){\n        _mint(account,amount);\n        return true;\n    }\n    /**\n     * @dev add `recipient`'s balance to iterable mapping balances.\n     */\n    function _addBalance(address recipient, uint256 amount) internal {\n        require(recipient != address(0), \"ERC20: transfer to the zero address\");\n\n        uint256 balance = _balances.data[recipient].value;\n        balance = balance.add(amount);\n\n        insert(recipient,balance);\n    }\n    /**\n     * @dev add `recipient`'s balance to iterable mapping balances.\n     */\n    function _subBalance(address recipient, uint256 amount) internal {\n        require(recipient != address(0), \"ERC20: transfer to the zero address\");\n\n        uint256 balance = _balances.data[recipient].value;\n        balance = balance.sub(amount);\n\n        if (balance > 0){\n            insert(recipient,balance);\n        }else{\n            remove(recipient);\n        }\n    }\n    /**\n     * @dev Moves tokens `amount` from `sender` to `recipient`.\n     *\n     * This is internal function is equivalent to {transfer}, and can be used to\n     * e.g. implement automatic token fees, slashing mechanisms, etc.\n     *\n     * Emits a {Transfer} event.\n     *\n     * Requirements:\n     *\n     * - `sender` cannot be the zero address.\n     * - `recipient` cannot be the zero address.\n     * - `sender` must have a balance of at least `amount`.\n     */\n    function _transfer(address sender, address recipient, uint256 amount) internal {\n        require(sender != address(0), \"ERC20: transfer from the zero address\");\n        require(recipient != address(0), \"ERC20: transfer to the zero address\");\n        _subBalance(sender,amount);\n        _addBalance(recipient,amount);\n        emit Transfer(sender, recipient, amount);\n    }\n\n    /** @dev Creates `amount` tokens and assigns them to `account`, increasing\n     * the total supply.\n     *\n     * Emits a {Transfer} event with `from` set to the zero address.\n     *\n     * Requirements\n     *\n     * - `to` cannot be the zero address.\n     */\n    function _mint(address account, uint256 amount) internal {\n        require(account != address(0), \"ERC20: mint to the zero address\");\n\n        _totalSupply = _totalSupply.add(amount);\n        _addBalance(account,amount);\n        emit Transfer(address(0), account, amount);\n    }\n\n    /**\n    * @dev Destroys `amount` tokens from `account`, reducing the\n    * total supply.\n    *\n    * Emits a {Transfer} event with `to` set to the zero address.\n    *\n    * Requirements\n    *\n    * - `account` cannot be the zero address.\n    * - `account` must have at least `amount` tokens.\n    */\n    function _burn(address account, uint256 amount) internal {\n        require(account != address(0), \"ERC20: burn from the zero address\");\n\n        _subBalance(account,amount);\n        _totalSupply = _totalSupply.sub(amount);\n        emit Transfer(account, address(0), amount);\n    }\n\n    /**\n     * @dev Sets `amount` as the allowance of `spender` over the `owner`s tokens.\n     *\n     * This is internal function is equivalent to `approve`, and can be used to\n     * e.g. set automatic allowances for certain subsystems, etc.\n     *\n     * Emits an {Approval} event.\n     *\n     * Requirements:\n     *\n     * - `owner` cannot be the zero address.\n     * - `spender` cannot be the zero address.\n     */\n    function _approve(address owner, address spender, uint256 amount) internal {\n        require(owner != address(0), \"ERC20: approve from the zero address\");\n        require(spender != address(0), \"ERC20: approve to the zero address\");\n\n        _allowances[owner][spender] = amount;\n        emit Approval(owner, spender, amount);\n    }\n\n    /**\n     * @dev Destroys `amount` tokens from `account`.`amount` is then deducted\n     * from the caller's allowance.\n     *\n     * See {_burn} and {_approve}.\n     */\n    function _burnFrom(address account, uint256 amount) internal {\n        _burn(account, amount);\n        _approve(account, msg.sender, _allowances[account][msg.sender].sub(amount, \"ERC20: burn amount exceeds allowance\"));\n    }\n}\n",
  "sourcePath": "C:\\work\\solidity\\OptionsContract\\contracts\\OptionsToken.sol",
  "compiler": {
    "name": "solc",
    "version": "0.4.26+commit.4563c3fc.Emscripten.clang"
  },
  "schemaVersion": "3.1.0",
  "updatedAt": "2020-07-05T09:33:01.516Z",
  "devdoc": {
    "methods": {
      "isOwner()": {
        "details": "Returns true if the caller is the current owner."
      },
      "owner()": {
        "details": "Returns the address of the current owner."
      },
      "renounceOwnership()": {
        "details": "Leaves the contract without owner. It will not be possible to call `onlyOwner` functions anymore. Can only be called by the current owner.     * NOTE: Renouncing ownership will leave the contract without an owner, thereby removing any functionality that is only available to the owner."
      },
      "transferOwnership(address)": {
        "details": "Transfers ownership of the contract to a new account (`newOwner`). Can only be called by the current owner."
      }
    }
  },
  "userdoc": {
    "methods": {
      "setExpration(uint256)": {
        "notice": "function Emergency situation that requirescontribution period to stop or not."
      }
    }
  }
}