{
  "contractName": "MatchMakingTrading",
  "abi": [
    {
      "constant": true,
      "inputs": [],
      "name": "getWhiteList",
      "outputs": [
        {
          "name": "",
          "type": "address[]"
        }
      ],
      "payable": false,
      "stateMutability": "view",
      "type": "function"
    },
    {
      "constant": false,
      "inputs": [
        {
          "name": "removeAddress",
          "type": "address"
        }
      ],
      "name": "removeWhiteList",
      "outputs": [],
      "payable": false,
      "stateMutability": "nonpayable",
      "type": "function"
    },
    {
      "constant": false,
      "inputs": [],
      "name": "redeemAll",
      "outputs": [],
      "payable": false,
      "stateMutability": "nonpayable",
      "type": "function"
    },
    {
      "constant": true,
      "inputs": [
        {
          "name": "",
          "type": "address"
        },
        {
          "name": "",
          "type": "address"
        },
        {
          "name": "",
          "type": "uint256"
        }
      ],
      "name": "payOrderMap",
      "outputs": [
        {
          "name": "owner",
          "type": "address"
        },
        {
          "name": "createdTime",
          "type": "uint256"
        },
        {
          "name": "amount",
          "type": "uint256"
        },
        {
          "name": "settlementsAmount",
          "type": "uint256"
        }
      ],
      "payable": false,
      "stateMutability": "view",
      "type": "function"
    },
    {
      "constant": true,
      "inputs": [
        {
          "name": "",
          "type": "uint256"
        }
      ],
      "name": "whiteList",
      "outputs": [
        {
          "name": "",
          "type": "address"
        }
      ],
      "payable": false,
      "stateMutability": "view",
      "type": "function"
    },
    {
      "constant": false,
      "inputs": [],
      "name": "renounceOwnership",
      "outputs": [],
      "payable": false,
      "stateMutability": "nonpayable",
      "type": "function"
    },
    {
      "constant": true,
      "inputs": [
        {
          "name": "tmpAddress",
          "type": "address"
        }
      ],
      "name": "isEligibleAddress",
      "outputs": [
        {
          "name": "",
          "type": "bool"
        }
      ],
      "payable": false,
      "stateMutability": "view",
      "type": "function"
    },
    {
      "constant": true,
      "inputs": [],
      "name": "getTransactionFee",
      "outputs": [
        {
          "name": "",
          "type": "uint256"
        },
        {
          "name": "",
          "type": "int32"
        }
      ],
      "payable": false,
      "stateMutability": "view",
      "type": "function"
    },
    {
      "constant": true,
      "inputs": [],
      "name": "owner",
      "outputs": [
        {
          "name": "",
          "type": "address"
        }
      ],
      "payable": false,
      "stateMutability": "view",
      "type": "function"
    },
    {
      "constant": true,
      "inputs": [],
      "name": "isOwner",
      "outputs": [
        {
          "name": "",
          "type": "bool"
        }
      ],
      "payable": false,
      "stateMutability": "view",
      "type": "function"
    },
    {
      "constant": false,
      "inputs": [
        {
          "name": "currency",
          "type": "address"
        }
      ],
      "name": "redeem",
      "outputs": [],
      "payable": false,
      "stateMutability": "nonpayable",
      "type": "function"
    },
    {
      "constant": true,
      "inputs": [
        {
          "name": "",
          "type": "address"
        }
      ],
      "name": "managerFee",
      "outputs": [
        {
          "name": "",
          "type": "uint256"
        }
      ],
      "payable": false,
      "stateMutability": "view",
      "type": "function"
    },
    {
      "constant": true,
      "inputs": [],
      "name": "transactionFee",
      "outputs": [
        {
          "name": "value",
          "type": "uint256"
        },
        {
          "name": "exponent",
          "type": "int32"
        }
      ],
      "payable": false,
      "stateMutability": "view",
      "type": "function"
    },
    {
      "constant": true,
      "inputs": [
        {
          "name": "",
          "type": "address"
        },
        {
          "name": "",
          "type": "address"
        },
        {
          "name": "",
          "type": "uint256"
        }
      ],
      "name": "sellOrderMap",
      "outputs": [
        {
          "name": "owner",
          "type": "address"
        },
        {
          "name": "createdTime",
          "type": "uint256"
        },
        {
          "name": "amount",
          "type": "uint256"
        }
      ],
      "payable": false,
      "stateMutability": "view",
      "type": "function"
    },
    {
      "constant": true,
      "inputs": [
        {
          "name": "settlement",
          "type": "address"
        }
      ],
      "name": "getFeeBalance",
      "outputs": [
        {
          "name": "",
          "type": "uint256"
        }
      ],
      "payable": false,
      "stateMutability": "view",
      "type": "function"
    },
    {
      "constant": false,
      "inputs": [
        {
          "name": "value",
          "type": "uint256"
        },
        {
          "name": "exponent",
          "type": "int32"
        }
      ],
      "name": "setTransactionFee",
      "outputs": [],
      "payable": false,
      "stateMutability": "nonpayable",
      "type": "function"
    },
    {
      "constant": false,
      "inputs": [
        {
          "name": "addAddress",
          "type": "address"
        }
      ],
      "name": "addWhiteList",
      "outputs": [],
      "payable": false,
      "stateMutability": "nonpayable",
      "type": "function"
    },
    {
      "constant": true,
      "inputs": [],
      "name": "getAllFeeBalances",
      "outputs": [
        {
          "name": "",
          "type": "address[]"
        },
        {
          "name": "",
          "type": "uint256[]"
        }
      ],
      "payable": false,
      "stateMutability": "view",
      "type": "function"
    },
    {
      "constant": false,
      "inputs": [
        {
          "name": "newOwner",
          "type": "address"
        }
      ],
      "name": "transferOwnership",
      "outputs": [],
      "payable": false,
      "stateMutability": "nonpayable",
      "type": "function"
    },
    {
      "anonymous": false,
      "inputs": [
        {
          "indexed": true,
          "name": "from",
          "type": "address"
        },
        {
          "indexed": true,
          "name": "optionsToken",
          "type": "address"
        },
        {
          "indexed": true,
          "name": "settlementCurrency",
          "type": "address"
        },
        {
          "indexed": false,
          "name": "amount",
          "type": "uint256"
        },
        {
          "indexed": false,
          "name": "settlementsAmount",
          "type": "uint256"
        }
      ],
      "name": "AddPayOrder",
      "type": "event"
    },
    {
      "anonymous": false,
      "inputs": [
        {
          "indexed": true,
          "name": "from",
          "type": "address"
        },
        {
          "indexed": true,
          "name": "optionsToken",
          "type": "address"
        },
        {
          "indexed": true,
          "name": "settlementCurrency",
          "type": "address"
        },
        {
          "indexed": false,
          "name": "amount",
          "type": "uint256"
        }
      ],
      "name": "AddSellOrder",
      "type": "event"
    },
    {
      "anonymous": false,
      "inputs": [
        {
          "indexed": true,
          "name": "from",
          "type": "address"
        },
        {
          "indexed": true,
          "name": "optionsToken",
          "type": "address"
        },
        {
          "indexed": true,
          "name": "settlementCurrency",
          "type": "address"
        },
        {
          "indexed": false,
          "name": "optionsPrice",
          "type": "uint256"
        },
        {
          "indexed": false,
          "name": "amount",
          "type": "uint256"
        },
        {
          "indexed": false,
          "name": "payback",
          "type": "uint256"
        }
      ],
      "name": "SellOptionsToken",
      "type": "event"
    },
    {
      "anonymous": false,
      "inputs": [
        {
          "indexed": true,
          "name": "from",
          "type": "address"
        },
        {
          "indexed": true,
          "name": "optionsToken",
          "type": "address"
        },
        {
          "indexed": true,
          "name": "settlementCurrency",
          "type": "address"
        },
        {
          "indexed": false,
          "name": "optionsPrice",
          "type": "uint256"
        },
        {
          "indexed": false,
          "name": "amount",
          "type": "uint256"
        },
        {
          "indexed": false,
          "name": "totalPay",
          "type": "uint256"
        }
      ],
      "name": "BuyOptionsToken",
      "type": "event"
    },
    {
      "anonymous": false,
      "inputs": [
        {
          "indexed": true,
          "name": "optionsToken",
          "type": "address"
        },
        {
          "indexed": true,
          "name": "seller",
          "type": "address"
        },
        {
          "indexed": true,
          "name": "settlementCurrency",
          "type": "address"
        },
        {
          "indexed": false,
          "name": "payback",
          "type": "uint256"
        }
      ],
      "name": "OrderSellerPayback",
      "type": "event"
    },
    {
      "anonymous": false,
      "inputs": [
        {
          "indexed": true,
          "name": "optionsToken",
          "type": "address"
        },
        {
          "indexed": true,
          "name": "buyer",
          "type": "address"
        },
        {
          "indexed": false,
          "name": "amount",
          "type": "uint256"
        }
      ],
      "name": "OrderBuyerPayback",
      "type": "event"
    },
    {
      "anonymous": false,
      "inputs": [
        {
          "indexed": true,
          "name": "optionsToken",
          "type": "address"
        }
      ],
      "name": "ReturnExpiredOrders",
      "type": "event"
    },
    {
      "anonymous": false,
      "inputs": [
        {
          "indexed": true,
          "name": "from",
          "type": "address"
        },
        {
          "indexed": true,
          "name": "optionsToken",
          "type": "address"
        },
        {
          "indexed": true,
          "name": "settlementCurrency",
          "type": "address"
        },
        {
          "indexed": false,
          "name": "amount",
          "type": "uint256"
        }
      ],
      "name": "RedeemPayOrder",
      "type": "event"
    },
    {
      "anonymous": false,
      "inputs": [
        {
          "indexed": true,
          "name": "from",
          "type": "address"
        },
        {
          "indexed": true,
          "name": "optionsToken",
          "type": "address"
        },
        {
          "indexed": true,
          "name": "settlementCurrency",
          "type": "address"
        },
        {
          "indexed": false,
          "name": "amount",
          "type": "uint256"
        }
      ],
      "name": "RedeemSellOrder",
      "type": "event"
    },
    {
      "anonymous": false,
      "inputs": [
        {
          "indexed": true,
          "name": "previousOwner",
          "type": "address"
        },
        {
          "indexed": true,
          "name": "newOwner",
          "type": "address"
        }
      ],
      "name": "OwnershipTransferred",
      "type": "event"
    },
    {
      "constant": true,
      "inputs": [],
      "name": "getOracleAddress",
      "outputs": [
        {
          "name": "",
          "type": "address"
        }
      ],
      "payable": false,
      "stateMutability": "view",
      "type": "function"
    },
    {
      "constant": true,
      "inputs": [],
      "name": "getOptionsManagerAddress",
      "outputs": [
        {
          "name": "",
          "type": "address"
        }
      ],
      "payable": false,
      "stateMutability": "view",
      "type": "function"
    },
    {
      "constant": true,
      "inputs": [],
      "name": "getTradingEnd",
      "outputs": [
        {
          "name": "",
          "type": "uint256"
        }
      ],
      "payable": false,
      "stateMutability": "view",
      "type": "function"
    },
    {
      "constant": true,
      "inputs": [
        {
          "name": "optionsToken",
          "type": "address"
        },
        {
          "name": "settlementCurrency",
          "type": "address"
        }
      ],
      "name": "getPayOrderList",
      "outputs": [
        {
          "name": "",
          "type": "address[]"
        },
        {
          "name": "",
          "type": "uint256[]"
        },
        {
          "name": "",
          "type": "uint256[]"
        },
        {
          "name": "",
          "type": "uint256[]"
        }
      ],
      "payable": false,
      "stateMutability": "view",
      "type": "function"
    },
    {
      "constant": true,
      "inputs": [
        {
          "name": "optionsToken",
          "type": "address"
        },
        {
          "name": "settlementCurrency",
          "type": "address"
        }
      ],
      "name": "getSellOrderList",
      "outputs": [
        {
          "name": "",
          "type": "address[]"
        },
        {
          "name": "",
          "type": "uint256[]"
        },
        {
          "name": "",
          "type": "uint256[]"
        }
      ],
      "payable": false,
      "stateMutability": "view",
      "type": "function"
    },
    {
      "constant": false,
      "inputs": [
        {
          "name": "oracle",
          "type": "address"
        }
      ],
      "name": "setOracleAddress",
      "outputs": [],
      "payable": false,
      "stateMutability": "nonpayable",
      "type": "function"
    },
    {
      "constant": false,
      "inputs": [
        {
          "name": "optionsManager",
          "type": "address"
        }
      ],
      "name": "setOptionsManagerAddress",
      "outputs": [],
      "payable": false,
      "stateMutability": "nonpayable",
      "type": "function"
    },
    {
      "constant": false,
      "inputs": [
        {
          "name": "tradingEnd",
          "type": "uint256"
        }
      ],
      "name": "setTradingEnd",
      "outputs": [],
      "payable": false,
      "stateMutability": "nonpayable",
      "type": "function"
    },
    {
      "constant": false,
      "inputs": [
        {
          "name": "optionsToken",
          "type": "address"
        },
        {
          "name": "settlementCurrency",
          "type": "address"
        },
        {
          "name": "deposit",
          "type": "uint256"
        },
        {
          "name": "buyAmount",
          "type": "uint256"
        }
      ],
      "name": "addPayOrder",
      "outputs": [],
      "payable": true,
      "stateMutability": "payable",
      "type": "function"
    },
    {
      "constant": false,
      "inputs": [
        {
          "name": "optionsToken",
          "type": "address"
        },
        {
          "name": "settlementCurrency",
          "type": "address"
        },
        {
          "name": "amount",
          "type": "uint256"
        }
      ],
      "name": "addSellOrder",
      "outputs": [],
      "payable": false,
      "stateMutability": "nonpayable",
      "type": "function"
    },
    {
      "constant": false,
      "inputs": [
        {
          "name": "optionsToken",
          "type": "address"
        },
        {
          "name": "settlementCurrency",
          "type": "address"
        }
      ],
      "name": "redeemPayOrder",
      "outputs": [],
      "payable": false,
      "stateMutability": "nonpayable",
      "type": "function"
    },
    {
      "constant": false,
      "inputs": [
        {
          "name": "optionsToken",
          "type": "address"
        },
        {
          "name": "settlementCurrency",
          "type": "address"
        }
      ],
      "name": "redeemInvalidPayOrder",
      "outputs": [],
      "payable": false,
      "stateMutability": "nonpayable",
      "type": "function"
    },
    {
      "constant": false,
      "inputs": [
        {
          "name": "optionsToken",
          "type": "address"
        },
        {
          "name": "settlementCurrency",
          "type": "address"
        }
      ],
      "name": "redeemSellOrder",
      "outputs": [],
      "payable": false,
      "stateMutability": "nonpayable",
      "type": "function"
    },
    {
      "constant": false,
      "inputs": [
        {
          "name": "optionsToken",
          "type": "address"
        },
        {
          "name": "amount",
          "type": "uint256"
        },
        {
          "name": "settlementCurrency",
          "type": "address"
        },
        {
          "name": "currencyAmount",
          "type": "uint256"
        }
      ],
      "name": "buyOptionsToken",
      "outputs": [],
      "payable": true,
      "stateMutability": "payable",
      "type": "function"
    },
    {
      "constant": false,
      "inputs": [
        {
          "name": "optionsToken",
          "type": "address"
        },
        {
          "name": "amount",
          "type": "uint256"
        },
        {
          "name": "settlementCurrency",
          "type": "address"
        }
      ],
      "name": "sellOptionsToken",
      "outputs": [],
      "payable": false,
      "stateMutability": "nonpayable",
      "type": "function"
    },
    {
      "constant": false,
      "inputs": [],
      "name": "returnExpiredOrders",
      "outputs": [],
      "payable": false,
      "stateMutability": "nonpayable",
      "type": "function"
    },
    {
      "constant": true,
      "inputs": [
        {
          "name": "optionsToken",
          "type": "address"
        }
      ],
      "name": "isEligibleOptionsToken",
      "outputs": [
        {
          "name": "",
          "type": "bool"
        }
      ],
      "payable": false,
      "stateMutability": "view",
      "type": "function"
    }
  ],
  "bytecode": "0x60c060408190526003608081905260021960a05280556004805463fffffffd63ffffffff199091161790556005805460ff1916905561465060065560008054600160a060020a0319163317808255600160a060020a0316917f8be0079c531659141344cd1fd0a4f28419497f9722a3daafe3b4186f6b6457e0908290a36145438061008b6000396000f3006080604052600436106101a85763ffffffff60e060020a60003504166302d397de81146101ad57806309a9d76c146101cf57806309c2f462146102345780632042e5c214610269578063247f6fd81461028a5780632f4350c2146103d4578063434c0bc8146103e95780634c69c00f1461041a578063516ee76a1461043b57806355cbfef11461045c5780635c475d42146104b6578063715018a6146104ce5780637ca4c5d9146104e3578063817bf86d1461050457806385d791021461052557806386dfc7ec146105585780638da5cb5b1461057f5780638f32d59b146105945780639195c3d0146105a957806395a2251f146105d4578063964072ec146105f55780639965a4d51461061c5780639ed3edf01461063d578063b18b78dd14610652578063be1d869614610667578063c2dc0b47146106b9578063c78f6803146106e0578063c820f6ca14610701578063cb80bc5d14610728578063cdc328021461073d578063d6b637e814610842578063e4a9d2be1461085a578063e7cd4a0414610878578063f20568cd14610899578063f2fde38b14610947578063faf0a43414610968575b600080fd5b6101cd600160a060020a0360043581169060243516604435606435610992565b005b3480156101db57600080fd5b506101e4610e36565b60408051602080825283518183015283519192839290830191858101910280838360005b83811015610220578181015183820152602001610208565b505050509050019250505060405180910390f35b34801561024057600080fd5b50610255600160a060020a0360043516610e99565b604080519115158252519081900360200190f35b34801561027557600080fd5b506101cd600160a060020a0360043516610f7b565b34801561029657600080fd5b506102b1600160a060020a036004358116906024351661106c565b6040518080602001806020018060200180602001858103855289818151815260200191508051906020019060200280838360005b838110156102fd5781810151838201526020016102e5565b50505050905001858103845288818151815260200191508051906020019060200280838360005b8381101561033c578181015183820152602001610324565b50505050905001858103835287818151815260200191508051906020019060200280838360005b8381101561037b578181015183820152602001610363565b50505050905001858103825286818151815260200191508051906020019060200280838360005b838110156103ba5781810151838201526020016103a2565b505050509050019850505050505050505060405180910390f35b3480156103e057600080fd5b506101cd61127c565b3480156103f557600080fd5b506103fe611464565b60408051600160a060020a039092168252519081900360200190f35b34801561042657600080fd5b506101cd600160a060020a0360043516611473565b6101cd600160a060020a0360043581169060243590604435166064356114e1565b34801561046857600080fd5b50610486600160a060020a03600435811690602435166044356119a9565b60408051600160a060020a0390951685526020850193909352838301919091526060830152519081900360800190f35b3480156104c257600080fd5b506103fe600435611a07565b3480156104da57600080fd5b506101cd611a2f565b3480156104ef57600080fd5b506101cd600160a060020a0360043516611ac5565b34801561051057600080fd5b50610255600160a060020a0360043516611b33565b34801561053157600080fd5b5061053a611b4a565b60408051928352600391820b90910b60208301528051918290030190f35b34801561056457600080fd5b506101cd600160a060020a0360043581169060243516611b58565b34801561058b57600080fd5b506103fe611e16565b3480156105a057600080fd5b50610255611e25565b3480156105b557600080fd5b506101cd600160a060020a036004358116906024359060443516611e36565b3480156105e057600080fd5b506101cd600160a060020a0360043516612387565b34801561060157600080fd5b5061060a612520565b60408051918252519081900360200190f35b34801561062857600080fd5b5061060a600160a060020a0360043516612526565b34801561064957600080fd5b5061053a612538565b34801561065e57600080fd5b506103fe612545565b34801561067357600080fd5b50610691600160a060020a0360043581169060243516604435612554565b60408051600160a060020a039094168452602084019290925282820152519081900360600190f35b3480156106c557600080fd5b506101cd600160a060020a03600435811690602435166125ad565b3480156106ec57600080fd5b5061060a600160a060020a036004351661270a565b34801561070d57600080fd5b506101cd600160a060020a0360043581169060243516612725565b34801561073457600080fd5b506101cd612b08565b34801561074957600080fd5b50610764600160a060020a0360043581169060243516612d53565b60405180806020018060200180602001848103845287818151815260200191508051906020019060200280838360005b838110156107ac578181015183820152602001610794565b50505050905001848103835286818151815260200191508051906020019060200280838360005b838110156107eb5781810151838201526020016107d3565b50505050905001848103825285818151815260200191508051906020019060200280838360005b8381101561082a578181015183820152602001610812565b50505050905001965050505050505060405180910390f35b34801561084e57600080fd5b506101cd600435612ef6565b34801561086657600080fd5b506101cd60043560243560030b612f47565b34801561088457600080fd5b506101cd600160a060020a0360043516612fb4565b3480156108a557600080fd5b506108ae613068565b604051808060200180602001838103835285818151815260200191508051906020019060200280838360005b838110156108f25781810151838201526020016108da565b50505050905001838103825284818151815260200191508051906020019060200280838360005b83811015610931578181015183820152602001610919565b5050505090500194505050505060405180910390f35b34801561095357600080fd5b506101cd600160a060020a0360043516613171565b34801561097457600080fd5b506101cd600160a060020a03600435811690602435166044356131c9565b6005546000908190819081908190819060ff16156109af57600080fd5b6005805460ff191660011790556109c589611b33565b1515610a1d576040805160e560020a62461bcd02815260206004820152602760248201526000805160206144f88339815191526044820152600080516020614498833981519152606482015290519081900360840190fd5b610a268a610e99565b1515610a6a576040805160e560020a62461bcd02815260206004820181905260248201526000805160206144b8833981519152604482015290519081900360640190fd5b600854604080517fcd75e52c000000000000000000000000000000000000000000000000000000008152600160a060020a038d811660048301529151919092169163cd75e52c9160248083019260209291908290030181600087803b158015610ad257600080fd5b505af1158015610ae6573d6000803e3d6000fd5b505050506040513d6020811015610afc57600080fd5b5051600854604080517f41976e09000000000000000000000000000000000000000000000000000000008152600160a060020a038d8116600483015291519399509116916341976e09916024808201926020929091908290030181600087803b158015610b6857600080fd5b505af1158015610b7c573d6000803e3d6000fd5b505050506040513d6020811015610b9257600080fd5b50519450610ba18787876133e8565b9094509250879150600160a060020a0389161515610bc157349150610c4a565b506040805160e060020a6323b872dd0281523360048201523060248201526044810183905290518991600160a060020a038316916323b872dd916064808201926020929091908290030181600087803b158015610c1d57600080fd5b505af1158015610c31573d6000803e3d6000fd5b505050506040513d6020811015610c4757600080fd5b50505b81610c5b858563ffffffff61346f16565b1115610cd7576040805160e560020a62461bcd02815260206004820152602560248201527f736574746c656d656e74732043757272656e637920697320696e73756666696360448201527f69656e7421000000000000000000000000000000000000000000000000000000606482015290519081900360840190fd5b600960008a600160a060020a0316600160a060020a0316815260200190815260200160002060008b600160a060020a0316600160a060020a0316815260200190815260200160002060806040519081016040528033600160a060020a03168152602001428152602001898152602001848152509080600181540180825580915050906001820390600052602060002090600402016000909192909190915060008201518160000160006101000a815481600160a060020a030219169083600160a060020a0316021790555060208201518160010155604082015181600201556060820151816003015550505088600160a060020a03168a600160a060020a031633600160a060020a03167f037427bc6ff89c0b05db989a67a82996bd2c2b2d27462fb590d8e4b4ffddc43c8a86604051808381526020018281526020019250505060405180910390a450506005805460ff191690555050505050505050565b60606001805480602002602001604051908101604052809291908181526020018280548015610e8e57602002820191906000526020600020905b8154600160a060020a03168152600190910190602001808311610e70575b505050505090505b90565b600754604080517f3c03c859000000000000000000000000000000000000000000000000000000008152600160a060020a03848116600483015291516000938493849384939190921691633c03c8599160248083019260c092919082900301818787803b158015610f0957600080fd5b505af1158015610f1d573d6000803e3d6000fd5b505050506040513d60c0811015610f3357600080fd5b50608081015160a0909101516006549194509250610f57904263ffffffff61346f16565b9050600083118015610f6857508281105b8015610f72575081155b95945050505050565b6000610f85611e25565b1515610fc9576040805160e560020a62461bcd02815260206004820181905260248201526000805160206144d8833981519152604482015290519081900360640190fd5b610fd2826134d7565b6001549091508110156110685760015460001901811461105357600180546000198101908110610ffe57fe5b60009182526020909120015460018054600160a060020a03909216918390811061102457fe5b9060005260206000200160006101000a815481600160a060020a030219169083600160a060020a031602179055505b6001805490611066906000198301614350565b505b5050565b600160a060020a0380821660009081526009602090815260408083209386168352928152828220805484518181528184028101909301909452606093849384938493928492839283928392919080156110cf578160200160208202803883390190505b50865460408051828152602080840282010190915291965080156110fd578160200160208202803883390190505b508654604080518281526020808402820101909152919550801561112b578160200160208202803883390190505b5086546040805182815260208084028201019091529194508015611159578160200160208202803883390190505b509150600090505b855481101561126a57858181548110151561117857fe5b60009182526020909120600490910201548551600160a060020a03909116908690839081106111a357fe5b600160a060020a0390921660209283029091019091015285548690829081106111c857fe5b90600052602060002090600402016001015484828151811015156111e857fe5b60209081029091010152855486908290811061120057fe5b906000526020600020906004020160020154838281518110151561122057fe5b60209081029091010152855486908290811061123857fe5b906000526020600020906004020160030154828281518110151561125857fe5b60209081029091010152600101611161565b50929a91995097509095509350505050565b6000806000611289611e25565b15156112cd576040805160e560020a62461bcd02815260206004820181905260248201526000805160206144d8833981519152604482015290519081900360640190fd5b600092505b60015483101561106657600260006001858154811015156112ef57fe5b6000918252602080832090910154600160a060020a0316835282019290925260400181205492508211156114595760006002600060018681548110151561133257fe5b6000918252602080832090910154600160a060020a03168352820192909252604001902055600180548490811061136557fe5b600091825260208220015460018054600160a060020a039092169350908590811061138c57fe5b600091825260209091200154600160a060020a031614156113da57604051339083156108fc029084906000818181858888f193505050501580156113d4573d6000803e3d6000fd5b50611459565b6040805160e060020a63a9059cbb028152336004820152602481018490529051600160a060020a0383169163a9059cbb9160448083019260209291908290030181600087803b15801561142c57600080fd5b505af1158015611440573d6000803e3d6000fd5b505050506040513d602081101561145657600080fd5b50505b6001909201916112d2565b600754600160a060020a031690565b61147b611e25565b15156114bf576040805160e560020a62461bcd02815260206004820181905260248201526000805160206144d8833981519152604482015290519081900360640190fd5b60088054600160a060020a031916600160a060020a0392909216919091179055565b600080600080600080600080600080600560009054906101000a900460ff1615151561150c57600080fd5b6001600560006101000a81548160ff021916908315150217905550600860009054906101000a9004600160a060020a0316600160a060020a0316638618b1d88f6040518263ffffffff1660e060020a0281526004018082600160a060020a0316600160a060020a03168152602001915050602060405180830381600087803b15801561159757600080fd5b505af11580156115ab573d6000803e3d6000fd5b505050506040513d60208110156115c157600080fd5b81019080805190602001909291905050509950600860009054906101000a9004600160a060020a0316600160a060020a03166341976e098d6040518263ffffffff1660e060020a0281526004018082600160a060020a0316600160a060020a03168152602001915050602060405180830381600087803b15801561164457600080fd5b505af1158015611658573d6000803e3d6000fd5b505050506040513d602081101561166e57600080fd5b505198508b9750600160a060020a038816151561168d57349a50611712565b6040805160e060020a6323b872dd028152336004820152306024820152604481018d90529051600160a060020a038a16916323b872dd9160648083019260209291908290030181600087803b1580156116e557600080fd5b505af11580156116f9573d6000803e3d6000fd5b505050506040513d602081101561170f57600080fd5b50505b8a96506117208d8b8b6133e8565b90965094508a611736878763ffffffff61346f16565b111561178c576040805160e560020a62461bcd02815260206004820152601a60248201527f7061792076616c756520697320696e73756666696369656e7421000000000000604482015290519081900360640190fd5b60009550600a60008d600160a060020a0316600160a060020a0316815260200190815260200160002060008f600160a060020a0316600160a060020a031681526020019081526020016000209350600092505b8354831015611903578c915083838154811015156117f957fe5b9060005260206000209060030201600201548d111561183557838381548110151561182057fe5b90600052602060002090600302016002015491505b600090506118708e838c8f8f8e8a8a81548110151561185057fe5b6000918252602090912060039091020154600160a060020a03163361352c565b9b5090506118848d8263ffffffff6136db16565b9c50611896868263ffffffff61346f16565b95506118ca8185858154811015156118aa57fe5b9060005260206000209060030201600201546136db90919063ffffffff16565b84848154811015156118d857fe5b60009182526020909120600260039092020101558c15156118f857611903565b6001909201916117df565b61190e338d8d613724565b61191e878c63ffffffff6136db16565b96508b600160a060020a03168e600160a060020a031633600160a060020a03167fca45987595452a24bcc9ad1624fee85d0ca172b26efc024798496a569c06450a8d8a8c60405180848152602001838152602001828152602001935050505060405180910390a461198f8e8d613808565b50506005805460ff19169055505050505050505050505050565b6009602052826000526040600020602052816000526040600020818154811015156119d057fe5b60009182526020909120600490910201805460018201546002830154600390930154600160a060020a039092169550935090915084565b6001805482908110611a1557fe5b600091825260209091200154600160a060020a0316905081565b611a37611e25565b1515611a7b576040805160e560020a62461bcd02815260206004820181905260248201526000805160206144d8833981519152604482015290519081900360640190fd5b60008054604051600160a060020a03909116907f8be0079c531659141344cd1fd0a4f28419497f9722a3daafe3b4186f6b6457e0908390a360008054600160a060020a0319169055565b611acd611e25565b1515611b11576040805160e560020a62461bcd02815260206004820181905260248201526000805160206144d8833981519152604482015290519081900360640190fd5b60078054600160a060020a031916600160a060020a0392909216919091179055565b600080611b3f836134d7565b600154119392505050565b6003805460045490910b9091565b60055460009081908190819060ff1615611b7157600080fd5b6005805460ff19166001179055611b8785611b33565b1515611bdf576040805160e560020a62461bcd02815260206004820152602760248201526000805160206144f88339815191526044820152600080516020614498833981519152606482015290519081900360840190fd5b611be886610e99565b1515611c2c576040805160e560020a62461bcd02815260206004820181905260248201526000805160206144b8833981519152604482015290519081900360640190fd5b600854604080517fcd75e52c000000000000000000000000000000000000000000000000000000008152600160a060020a0389811660048301529151919092169163cd75e52c9160248083019260209291908290030181600087803b158015611c9457600080fd5b505af1158015611ca8573d6000803e3d6000fd5b505050506040513d6020811015611cbe57600080fd5b5051600854604080517f41976e09000000000000000000000000000000000000000000000000000000008152600160a060020a03898116600483015291519397509116916341976e09916024808201926020929091908290030181600087803b158015611d2a57600080fd5b505af1158015611d3e573d6000803e3d6000fd5b505050506040513d6020811015611d5457600080fd5b5051600160a060020a038087166000908152600960209081526040808320938b16835292905290812091945090925090505b8154811015611e045781543390839083908110611d9f57fe5b6000918252602090912060049091020154600160a060020a03161415611dfc57611de58282815481101515611dd057fe5b9060005260206000209060040201858561397b565b1515611dfc57611df7868684846139c6565b600019015b600101611d86565b50506005805460ff1916905550505050565b600054600160a060020a031690565b600054600160a060020a0316331490565b600080600080600080600080600080600560009054906101000a900460ff16151515611e6157600080fd5b6001600560006101000a81548160ff021916908315150217905550600860009054906101000a9004600160a060020a0316600160a060020a031663cd75e52c8e6040518263ffffffff1660e060020a0281526004018082600160a060020a0316600160a060020a03168152602001915050602060405180830381600087803b158015611eec57600080fd5b505af1158015611f00573d6000803e3d6000fd5b505050506040513d6020811015611f1657600080fd5b5051600854604080517f41976e09000000000000000000000000000000000000000000000000000000008152600160a060020a038f811660048301529151939d509116916341976e09916024808201926020929091908290030181600087803b158015611f8257600080fd5b505af1158015611f96573d6000803e3d6000fd5b505050506040513d6020811015611fac57600080fd5b50516040805160e060020a6323b872dd028152336004820152306024820152604481018f90529051919a50600099508998508e9750600160a060020a038816916323b872dd9160648082019260209290919082900301818d87803b15801561201357600080fd5b505af1158015612027573d6000803e3d6000fd5b505050506040513d602081101561203d57600080fd5b810190808051906020019092919050505050600960008c600160a060020a0316600160a060020a0316815260200190815260200160002060008e600160a060020a0316600160a060020a031681526020019081526020016000209450600093505b8454841015612277576120cd85858154811015156120b857fe5b90600052602060002090600402018b8b61397b565b15156120d85761226c565b8b925084848154811015156120e957fe5b90600052602060002090600402016002015483111561212557848481548110151561211057fe5b90600052602060002090600402016002015492505b61217b8d848c8e898981548110151561213a57fe5b9060005260206000209060040201600301548e338c8c81548110151561215c57fe5b6000918252602090912060049091020154600160a060020a031661352c565b9092509050612190888363ffffffff61346f16565b97506121a28c8363ffffffff6136db16565b9b506121d68286868154811015156121b657fe5b9060005260206000209060040201600201546136db90919063ffffffff16565b85858154811015156121e457fe5b90600052602060002090600402016002018190555061223b61222e82878781548110151561220e57fe5b9060005260206000209060040201600301546136db90919063ffffffff16565b889063ffffffff61346f16565b965080858581548110151561224c57fe5b60009182526020909120600360049092020101558b151561226c57612277565b60019093019261209e565b60008c11156122ff576040805160e060020a63a9059cbb028152336004820152602481018e90529051600160a060020a0388169163a9059cbb9160448083019260209291908290030181600087803b1580156122d257600080fd5b505af11580156122e6573d6000803e3d6000fd5b505050506040513d60208110156122fc57600080fd5b50505b8a600160a060020a03168d600160a060020a031633600160a060020a03167f59d83dd239d9fa8394885097625162282abaf0079395996f43259f42b2836cfa8d8c8c60405180848152602001838152602001828152602001935050505060405180910390a461236e8d8c613bbb565b50506005805460ff191690555050505050505050505050565b600080612392611e25565b15156123d6576040805160e560020a62461bcd02815260206004820181905260248201526000805160206144d8833981519152604482015290519081900360640190fd5b600160a060020a03831660009081526002602052604081205492508211612447576040805160e560020a62461bcd02815260206004820152601260248201527f4974277320656d7074792062616c616e63650000000000000000000000000000604482015290519081900360640190fd5b600160a060020a038316600081815260026020526040812055151561249957604051339083156108fc029084906000818181858888f19350505050158015612493573d6000803e3d6000fd5b50611066565b506040805160e060020a63a9059cbb0281523360048201526024810183905290518391600160a060020a0383169163a9059cbb916044808201926020929091908290030181600087803b1580156124ef57600080fd5b505af1158015612503573d6000803e3d6000fd5b505050506040513d602081101561251957600080fd5b5050505050565b60065490565b60026020526000908152604090205481565b6003805460045490910b82565b600854600160a060020a031690565b600a6020528260005260406000206020528160005260406000208181548110151561257b57fe5b6000918252602090912060039091020180546001820154600290920154600160a060020a039091169450909250905083565b600554600090819060ff16156125c257600080fd5b6005805460ff191660011790556125d883611b33565b1515612630576040805160e560020a62461bcd02815260206004820152602760248201526000805160206144f88339815191526044820152600080516020614498833981519152606482015290519081900360840190fd5b61263984610e99565b151561267d576040805160e560020a62461bcd02815260206004820181905260248201526000805160206144b8833981519152604482015290519081900360640190fd5b5050600160a060020a0380821660009081526009602090815260408083209386168352929052908120905b81548110156126fa57815433908390839081106126c157fe5b6000918252602090912060049091020154600160a060020a031614156126f2576126ed848484846139c6565b6126fa565b6001016126a8565b50506005805460ff191690555050565b600160a060020a031660009081526002602052604090205490565b600554600090819081908190819060ff161561274057600080fd5b6005805460ff1916600117905561275686611b33565b15156127ae576040805160e560020a62461bcd02815260206004820152602760248201526000805160206144f88339815191526044820152600080516020614498833981519152606482015290519081900360840190fd5b6127b787610e99565b15156127fb576040805160e560020a62461bcd02815260206004820181905260248201526000805160206144b8833981519152604482015290519081900360640190fd5b600160a060020a038087166000908152600a60209081526040808320938b168352929052908120955093505b8454841015612af5578454339086908690811061284057fe5b6000918252602090912060039091020154600160a060020a03161415612aea57848481548110151561286e57fe5b90600052602060002090600302016002015492506000858581548110151561289257fe5b906000526020600020906003020160020154111561297857600085858154811015156128ba57fe5b90600052602060002090600302016002018190555086915081600160a060020a031663a9059cbb86868154811015156128ef57fe5b600091825260208083206003909202909101546040805160e060020a63ffffffff8716028152600160a060020a039092166004830152602482018990525160448083019491928390030190829087803b15801561294b57600080fd5b505af115801561295f573d6000803e3d6000fd5b505050506040513d602081101561297557600080fd5b50505b85600160a060020a031687600160a060020a031633600160a060020a03167f7d52d0563d10554ad8ebb839d322d4a4cccffc38148b0939e854fea1747bb5d8866040518082815260200191505060405180910390a450600183015b8454811015612ad45784818154811015156129ea57fe5b60009182526020909120600390910201548554600160a060020a0390911690869086908110612a1557fe5b600091825260209091206003909102018054600160a060020a031916600160a060020a03929092169190911790558454859082908110612a5157fe5b9060005260206000209060030201600101548585815481101515612a7157fe5b9060005260206000209060030201600101819055508481815481101515612a9457fe5b9060005260206000209060030201600201548585815481101515612ab457fe5b6000918252602090912060026003909202010155600193840193016129d3565b8454612ae4866000198301614374565b50612af5565b600190930192612827565b50506005805460ff191690555050505050565b600554606090600090819060ff1615612b2057600080fd5b6005805460ff19166001179055600754604080517fc53ca5a90000000000000000000000000000000000000000000000000000000081529051600160a060020a039092169163c53ca5a99160048082019260009290919082900301818387803b158015612b8c57600080fd5b505af1158015612ba0573d6000803e3d6000fd5b505050506040513d6000823e601f3d908101601f191682016040526020811015612bc957600080fd5b810190808051640100000000811115612be157600080fd5b82016020810184811115612bf457600080fd5b8151856020820283011164010000000082111715612c1157600080fd5b5090965060009550505050505b8251821015612d4457612c478383815181101515612c3857fe5b90602001906020020151610e99565b1515612d39575060005b600154811015612ceb57612c9f8383815181101515612c6c57fe5b90602001906020020151600183815481101515612c8557fe5b600091825260209091200154600160a060020a0316613d86565b612ce38383815181101515612cb057fe5b90602001906020020151600183815481101515612cc957fe5b600091825260209091200154600160a060020a0316613f0a565b600101612c51565b8282815181101515612cf957fe5b90602001906020020151600160a060020a03167fbfcfff685af73fefa61b6c5ff2859a6ffefbf27dd0a03a8dc0c9e2a97ec33c2260405160405180910390a25b600190910190612c1e565b50506005805460ff1916905550565b600160a060020a038082166000908152600a6020908152604080832093861683529281528282208054845181815281840281019093019094526060938493849384928392839290918015612db1578160200160208202803883390190505b5085546040805182815260208084028201019091529195508015612ddf578160200160208202803883390190505b5085546040805182815260208084028201019091529194508015612e0d578160200160208202803883390190505b509150600090505b8454811015612ee6578481815481101515612e2c57fe5b60009182526020909120600390910201548451600160a060020a0390911690859083908110612e5757fe5b600160a060020a039092166020928302909101909101528454859082908110612e7c57fe5b9060005260206000209060030201600101548382815181101515612e9c57fe5b602090810290910101528454859082908110612eb457fe5b9060005260206000209060030201600201548282815181101515612ed457fe5b60209081029091010152600101612e15565b5091989097509095509350505050565b612efe611e25565b1515612f42576040805160e560020a62461bcd02815260206004820181905260248201526000805160206144d8833981519152604482015290519081900360640190fd5b600655565b612f4f611e25565b1515612f93576040805160e560020a62461bcd02815260206004820181905260248201526000805160206144d8833981519152604482015290519081900360640190fd5b6003918255600480549190920b63ffffffff1663ffffffff19909116179055565b6000612fbe611e25565b1515613002576040805160e560020a62461bcd02815260206004820181905260248201526000805160206144d8833981519152604482015290519081900360640190fd5b61300b826134d7565b600154909150811415611068576001805480820182556000919091527fb10e2d527612073b26eecdfd717e6a320cf44b4afac2b0732d9fcbe2b7fa0cf6018054600160a060020a038416600160a060020a03199091161790555050565b6060806060600060018054905060405190808252806020026020018201604052801561309e578160200160208202803883390190505b509150600090505b60015481101561310857600260006001838154811015156130c357fe5b6000918252602080832090910154600160a060020a0316835282019290925260400190205482518390839081106130f657fe5b602090810290910101526001016130a6565b6001828180548060200260200160405190810160405280929190818152602001828054801561316057602002820191906000526020600020905b8154600160a060020a03168152600190910190602001808311613142575b505050505091509350935050509091565b613179611e25565b15156131bd576040805160e560020a62461bcd02815260206004820181905260248201526000805160206144d8833981519152604482015290519081900360640190fd5b6131c681613f99565b50565b60055460009060ff16156131dc57600080fd5b6005805460ff191660011790556131f283611b33565b151561324a576040805160e560020a62461bcd02815260206004820152602760248201526000805160206144f88339815191526044820152600080516020614498833981519152606482015290519081900360840190fd5b61325384610e99565b1515613297576040805160e560020a62461bcd02815260206004820181905260248201526000805160206144b8833981519152604482015290519081900360640190fd5b506040805160e060020a6323b872dd0281523360048201523060248201526044810183905290518491600160a060020a038316916323b872dd916064808201926020929091908290030181600087803b1580156132f357600080fd5b505af1158015613307573d6000803e3d6000fd5b505050506040513d602081101561331d57600080fd5b5050600160a060020a038381166000818152600a60209081526040808320898616808552908352818420825160608101845233808252428287019081528286018c8152845460018082018755958a5298889020935160039099029093018054600160a060020a03191698909a1697909717895595519188019190915551600290960195909555805187815290519394937f1d0edf86fe7c1c3f91533fb96cf812384c2b1b506231ee4ebfb21fdd9cf9561a929181900390910190a450506005805460ff191690555050565b6000808080806133fe878963ffffffff61407a16565b9250613410838763ffffffff61411916565b60408051808201909152600380548252600454810b810b900b602082015290925061343b908361415b565b905061344d828263ffffffff6136db16565b915061346081600263ffffffff61407a16565b91989197509095505050505050565b6000828201838110156134cc576040805160e560020a62461bcd02815260206004820152601b60248201527f536166654d6174683a206164646974696f6e206f766572666c6f770000000000604482015290519081900360640190fd5b8091505b5092915050565b6000805b6001548110156135265782600160a060020a03166001828154811015156134fe57fe5b600091825260209091200154600160a060020a0316141561351e57613526565b6001016134db565b92915050565b600080600080600061353f8c8c8a6133e8565b909350915088613555848463ffffffff61346f16565b111561356757600094508893506136cb565b506040805160e060020a63a9059cbb028152600160a060020a038781166004830152602482018e905291518e9283169163a9059cbb9160448083019260209291908290030181600087803b1580156135be57600080fd5b505af11580156135d2573d6000803e3d6000fd5b505050506040513d60208110156135e857600080fd5b506135f69050878b85613724565b89600160a060020a031687600160a060020a03168e600160a060020a03167f283cb6fa1162001048ca5bd8941417dd8ab90564ae0f13157a0e7e72dc896082866040518082815260200191505060405180910390a461365b838363ffffffff61346f16565b925061366d898463ffffffff6136db16565b98506136798a836141ce565b85600160a060020a03168d600160a060020a03167fe703149d731074d5f347b6dab59165534cb724f1457da81a84d072123f0110978e6040518082815260200191505060405180910390a38b89945094505b5050509850989650505050505050565b600061371d83836040805190810160405280601e81526020017f536166654d6174683a207375627472616374696f6e206f766572666c6f770000815250614217565b9392505050565b600081151561373257613802565b600160a060020a038316151561377e57604051600160a060020a0385169083156108fc029084906000818181858888f19350505050158015613778573d6000803e3d6000fd5b50613802565b506040805160e060020a63a9059cbb028152600160a060020a038581166004830152602482018490529151849283169163a9059cbb9160448083019260209291908290030181600087803b1580156137d557600080fd5b505af11580156137e9573d6000803e3d6000fd5b505050506040513d60208110156137ff57600080fd5b50505b50505050565b600160a060020a038082166000908152600a60209081526040808320938616835292905290812090805b8254811015613967576000838281548110151561384b57fe5b906000526020600020906003020160020154111561395f5780821461395857828181548110151561387857fe5b60009182526020909120600390910201548354600160a060020a03909116908490849081106138a357fe5b600091825260209091206003909102018054600160a060020a031916600160a060020a039290921691909117905582548390829081106138df57fe5b90600052602060002090600302016001015483838154811015156138ff57fe5b906000526020600020906003020160010181905550828181548110151561392257fe5b906000526020600020906003020160020154838381548110151561394257fe5b9060005260206000209060030201600201819055505b6001909101905b600101613832565b825482101561251957816137ff8482614374565b600080600061398f866002015486866133e8565b600388015491935091506139a9838363ffffffff61346f16565b11156139b857600092506139bd565b600192505b50509392505050565b60006139ed83838154811015156139d957fe5b9060005260206000209060040201856142b4565b83600160a060020a031685600160a060020a031633600160a060020a03167ff81bcca176688c65e4a4e80da865bc4ca0dd7afb9c992a29cc4473825c9f60fc8686815481101515613a3a57fe5b9060005260206000209060040201600201546040518082815260200191505060405180910390a450600181015b8254811015613bab578281815481101515613a7e57fe5b60009182526020909120600490910201548354600160a060020a0390911690849084908110613aa957fe5b600091825260209091206004909102018054600160a060020a031916600160a060020a03929092169190911790558254839082908110613ae557fe5b9060005260206000209060040201600101548383815481101515613b0557fe5b9060005260206000209060040201600101819055508281815481101515613b2857fe5b9060005260206000209060040201600201548383815481101515613b4857fe5b9060005260206000209060040201600201819055508281815481101515613b6b57fe5b9060005260206000209060040201600301548383815481101515613b8b57fe5b600091825260209091206003600490920201015560019182019101613a67565b82546137ff8460001983016143a0565b600160a060020a038082166000908152600960209081526040808320938616835292905290812090805b8254811015613d725760008382815481101515613bfe57fe5b9060005260206000209060040201600201541115613d5957808214613d4e578281815481101515613c2b57fe5b60009182526020909120600490910201548354600160a060020a0390911690849084908110613c5657fe5b600091825260209091206004909102018054600160a060020a031916600160a060020a03929092169190911790558254839082908110613c9257fe5b9060005260206000209060040201600101548383815481101515613cb257fe5b9060005260206000209060040201600101819055508281815481101515613cd557fe5b9060005260206000209060040201600201548383815481101515613cf557fe5b9060005260206000209060040201600201819055508281815481101515613d1857fe5b9060005260206000209060040201600301548383815481101515613d3857fe5b9060005260206000209060040201600301819055505b600190910190613d6a565b613d6a83828154811015156139d957fe5b600101613be5565b825482101561251957816137ff84826143a0565b600160a060020a038082166000908152600a6020908152604080832093861683529290529081208391805b8254821015613eda5760008383815481101515613dca57fe5b9060005260206000209060030201600201541115613ecf578282815481101515613df057fe5b906000526020600020906003020160020154905060008383815481101515613e1457fe5b90600052602060002090600302016002018190555083600160a060020a031663a9059cbb8484815481101515613e4657fe5b600091825260208083206003909202909101546040805160e060020a63ffffffff8716028152600160a060020a039092166004830152602482018790525160448083019491928390030190829087803b158015613ea257600080fd5b505af1158015613eb6573d6000803e3d6000fd5b505050506040513d6020811015613ecc57600080fd5b50505b600190910190613db1565b600160a060020a038086166000908152600a60209081526040808320938a1683529290529081206137ff916143cc565b600160a060020a0380821660009081526009602090815260408083209386168352929052908120905b8154811015613f6957613f618282815481101515613f4d57fe5b9060005260206000209060040201846142b4565b600101613f33565b600160a060020a0380841660009081526009602090815260408083209388168352929052908120613802916143ed565b600160a060020a038116151561401f576040805160e560020a62461bcd02815260206004820152602660248201527f4f776e61626c653a206e6577206f776e657220697320746865207a65726f206160448201527f6464726573730000000000000000000000000000000000000000000000000000606482015290519081900360840190fd5b60008054604051600160a060020a03808516939216917f8be0079c531659141344cd1fd0a4f28419497f9722a3daafe3b4186f6b6457e091a360008054600160a060020a031916600160a060020a0392909216919091179055565b60008083151561408d57600091506134d0565b5082820282848281151561409d57fe5b04146134cc576040805160e560020a62461bcd02815260206004820152602160248201527f536166654d6174683a206d756c7469706c69636174696f6e206f766572666c6f60448201527f7700000000000000000000000000000000000000000000000000000000000000606482015290519081900360840190fd5b600061371d83836040805190810160405280601a81526020017f536166654d6174683a206469766973696f6e206279207a65726f0000000000008152506142e4565b81516000908190614172908463ffffffff61407a16565b90506000846020015160030b13156141a75760208401516141a090829060030b600a0a63ffffffff61407a16565b90506134cc565b60208401516141c690829060000360030b600a0a63ffffffff61411916565b949350505050565b600160a060020a0382166000908152600260205260409020546141f7908263ffffffff61346f16565b600160a060020a0390921660009081526002602052604090209190915550565b60008082858511156142aa5760405160e560020a62461bcd0281526004018080602001828103825283818151815260200191508051906020019080838360005b8381101561426f578181015183820152602001614257565b50505050905090810190601f16801561429c5780820380516001836020036101000a031916815260200191505b509250505060405180910390fd5b5050509103919050565b6000808360030154111561106657506003820180546000909155825461106690600160a060020a03168383613724565b6000808281851161433a5760405160e560020a62461bcd0281526004018080602001828103825283818151815260200191508051906020019080838360008381101561426f578181015183820152602001614257565b50838581151561434657fe5b0495945050505050565b8154818355818111156110665760008381526020902061106691810190830161440e565b81548183558181111561106657600302816003028360005260206000209182019101611066919061442c565b81548183558181111561106657600402816004028360005260206000209182019101611066919061445e565b50805460008255600302906000526020600020908101906131c6919061442c565b50805460008255600402906000526020600020908101906131c6919061445e565b610e9691905b808211156144285760008155600101614414565b5090565b610e9691905b80821115614428578054600160a060020a03191681556000600182018190556002820155600301614432565b610e9691905b80821115614428578054600160a060020a031916815560006001820181905560028201819055600382015560040161446456006c696769626c650000000000000000000000000000000000000000000000000054686973206f7074696f6e7320746f6b656e20697320696e656c696769626c654f776e61626c653a2063616c6c6572206973206e6f7420746865206f776e65725468697320736574746c656d656e74732063757272656e637920697320696e65a165627a7a723058202fc5d6c2030416b092e232d68374d72e60a7839537ce2cb17b7352e5263f488e0029",
  "source": "pragma solidity ^0.4.26;\r\nimport \"./TransactionFee.sol\";\r\nimport \"./ReentrancyGuard.sol\";\r\nimport \"./CompoundOracleInterface.sol\";\r\nimport \"./SafeMath.sol\";\r\nimport \"./IERC20.sol\";\r\nimport \"./IOptionsManager.sol\";\r\ncontract MatchMakingTrading is TransactionFee,ReentrancyGuard {\r\n    using SafeMath for uint256;\r\n    //sell options order defination\r\n    struct SellOptionsOrder {\r\n        address owner;\r\n        uint256 createdTime;\r\n        uint256 amount;\r\n    }\r\n    //pay options order defination\r\n    struct PayOptionsOrder {\r\n        address owner;\r\n        uint256 createdTime;\r\n        uint256 amount;\r\n        uint256 settlementsAmount;\r\n    }\r\n    //_tradingEnd is a deadline of a options token trading. All orders can trade before optionsToken's expiration-tradingEnd. After that time,\r\n    //all Orders will be retrurned back to the owner.\r\n    uint256 private _tradingEnd = 5 hours;\r\n    //options manager interface;\r\n    IOptionsManager private _optionsManager;\r\n    //oracle interface.\r\n    ICompoundOracle private _oracle;\r\n    //mapping settlementCurrency => OptionsToken => OptionsOrder\r\n    mapping(address => mapping(address => PayOptionsOrder[])) public payOrderMap;\r\n    mapping(address => mapping(address => SellOptionsOrder[])) public sellOrderMap;\r\n\r\n    event AddPayOrder(address indexed from,address indexed optionsToken,address indexed settlementCurrency,uint256 amount, uint256 settlementsAmount);\r\n    event AddSellOrder(address indexed from,address indexed optionsToken,address indexed settlementCurrency,uint256 amount);\r\n    event SellOptionsToken(address indexed from,address indexed optionsToken,address indexed settlementCurrency,uint256 optionsPrice,uint256 amount,uint256 payback);\r\n    event BuyOptionsToken(address indexed from,address indexed optionsToken,address indexed settlementCurrency,uint256 optionsPrice,uint256 amount,uint256 totalPay);\r\n    event OrderSellerPayback(address indexed optionsToken,address indexed seller,address indexed settlementCurrency,uint256 payback);\r\n    event OrderBuyerPayback(address indexed optionsToken,address indexed buyer,uint256 amount);\r\n    event ReturnExpiredOrders(address indexed optionsToken);\r\n    event RedeemPayOrder(address indexed from,address indexed optionsToken,address indexed settlementCurrency,uint256 amount);\r\n    event RedeemSellOrder(address indexed from,address indexed optionsToken,address indexed settlementCurrency,uint256 amount);\r\n    //*******************getter***********************\r\n    function getOracleAddress() public view returns(address){\r\n        return address(_oracle);\r\n    }\r\n    function getOptionsManagerAddress() public view returns(address){\r\n        return address(_optionsManager);\r\n    }\r\n    function getTradingEnd() public view returns(uint256){\r\n        return _tradingEnd;\r\n    }\r\n    /**\r\n      * @dev getting all of the pay orders;\r\n      * @param optionsToken options token address\r\n      * @param settlementCurrency the settlement currency address\r\n      * @return owner account, created time, buy amount, settlements deposition.\r\n      */\r\n    function getPayOrderList(address optionsToken,address settlementCurrency) public view returns(address[],uint256[],uint256[],uint256[]){\r\n        PayOptionsOrder[] storage payOrders = payOrderMap[settlementCurrency][optionsToken];\r\n        address[] memory owners = new address[](payOrders.length);\r\n        uint256[] memory times = new uint256[](payOrders.length);\r\n        uint256[] memory amounts = new uint256[](payOrders.length);\r\n        uint256[] memory settlements = new uint256[](payOrders.length);\r\n        for (uint i=0;i<payOrders.length;i++){\r\n            owners[i] = payOrders[i].owner;\r\n            times[i] = payOrders[i].createdTime;\r\n            amounts[i] = payOrders[i].amount;\r\n            settlements[i] = payOrders[i].settlementsAmount;\r\n        }\r\n        return (owners,times,amounts,settlements);\r\n    }\r\n    /**\r\n      * @dev getting all of the sell orders;\r\n      * @param optionsToken options token address\r\n      * @param settlementCurrency the settlement currency address\r\n      * @return owner account, created time, sell amount.\r\n      */\r\n    function getSellOrderList(address optionsToken,address settlementCurrency) public view returns(address[],uint256[],uint256[]){\r\n         SellOptionsOrder[] storage sellOrders = sellOrderMap[settlementCurrency][optionsToken];\r\n        address[] memory owners = new address[](sellOrders.length);\r\n        uint256[] memory times = new uint256[](sellOrders.length);\r\n        uint256[] memory amounts = new uint256[](sellOrders.length);\r\n        for (uint i=0;i<sellOrders.length;i++){\r\n            owners[i] = sellOrders[i].owner;\r\n            times[i] = sellOrders[i].createdTime;\r\n            amounts[i] = sellOrders[i].amount;\r\n        }\r\n        return (owners,times,amounts);\r\n    }\r\n    //*******************setter***********************\r\n    function setOracleAddress(address oracle)public onlyOwner{\r\n        _oracle = ICompoundOracle(oracle);\r\n    }\r\n    function setOptionsManagerAddress(address optionsManager)public onlyOwner{\r\n        _optionsManager = IOptionsManager(optionsManager);\r\n    }\r\n    function setTradingEnd(uint256 tradingEnd) public onlyOwner {\r\n        _tradingEnd = tradingEnd;\r\n    }\r\n    /**\r\n      * @dev add a pay order, if your deposition is insufficient, your order will be disable.\r\n      * @param optionsToken options token address\r\n      * @param settlementCurrency the settlement currency address\r\n      * @param deposit you need to deposit some settlement currency to pay the order.deposit is the amount of settlement currency to pay.\r\n      * @param buyAmount the options token amount you want to buy.\r\n      */\r\n    function addPayOrder(address optionsToken,address settlementCurrency,uint256 deposit,uint256 buyAmount) nonReentrant public payable{\r\n        require(isEligibleAddress(settlementCurrency),\"This settlements currency is ineligible\");\r\n        require(isEligibleOptionsToken(optionsToken),\"This options token is ineligible\");\r\n        uint256 tokenPrice = _oracle.getSellOptionsPrice(optionsToken);\r\n        uint256 currencyPrice = _oracle.getPrice(settlementCurrency);\r\n        (uint256 optionsPay, uint256 transFee) = _calPayment(buyAmount,tokenPrice,currencyPrice);\r\n        uint256 settlements = deposit;\r\n        if (settlementCurrency == address(0)){\r\n            settlements = msg.value;\r\n        }else{\r\n            IERC20 settlement = IERC20(settlementCurrency);\r\n            settlement.transferFrom(msg.sender,address(this),settlements);           \r\n        }\r\n        require(optionsPay.add(transFee)<=settlements,\"settlements Currency is insufficient!\");\r\n        payOrderMap[settlementCurrency][optionsToken].push(PayOptionsOrder(msg.sender,now,buyAmount,settlements));\r\n        emit AddPayOrder(msg.sender,optionsToken,settlementCurrency,buyAmount,settlements);\r\n    }\r\n    /**\r\n      * @dev add a sell order. The Amount of options token will be transfered into contract address.\r\n      * @param optionsToken options token address\r\n      * @param settlementCurrency the settlement currency address\r\n      * @param amount the options token amount you want to sell.\r\n      */\r\n    function addSellOrder(address optionsToken,address settlementCurrency,uint256 amount)nonReentrant public {\r\n        require(isEligibleAddress(settlementCurrency),\"This settlements currency is ineligible\");\r\n        require(isEligibleOptionsToken(optionsToken),\"This options token is ineligible\");\r\n        IERC20 ERC20Token = IERC20(optionsToken);\r\n        ERC20Token.transferFrom(msg.sender,address(this),amount);  \r\n        sellOrderMap[settlementCurrency][optionsToken].push(SellOptionsOrder(msg.sender,now,amount));\r\n        emit AddSellOrder(msg.sender,optionsToken,settlementCurrency,amount);\r\n    }\r\n    /**\r\n      * @dev redeem a pay order.redeem the earliest pay order.return back the deposition.\r\n      * @param optionsToken options token address\r\n      * @param settlementCurrency the settlement currency address\r\n      */    \r\n    function redeemPayOrder(address optionsToken,address settlementCurrency)nonReentrant public{\r\n        require(isEligibleAddress(settlementCurrency),\"This settlements currency is ineligible\");\r\n        require(isEligibleOptionsToken(optionsToken),\"This options token is ineligible\");\r\n        PayOptionsOrder[] storage orderList = payOrderMap[settlementCurrency][optionsToken];\r\n        for (uint256 i=0;i<orderList.length;i++){\r\n            if (orderList[i].owner == msg.sender){\r\n                _redeemBuyOrder(optionsToken,settlementCurrency,orderList,i);\r\n                break;\r\n            }\r\n        }\r\n    }\r\n        /**\r\n      * @dev redeem a pay order.redeem the earliest pay order.return back the deposition.\r\n      * @param optionsToken options token address\r\n      * @param settlementCurrency the settlement currency address\r\n      */    \r\n    function redeemInvalidPayOrder(address optionsToken,address settlementCurrency)nonReentrant public{\r\n        require(isEligibleAddress(settlementCurrency),\"This settlements currency is ineligible\");\r\n        require(isEligibleOptionsToken(optionsToken),\"This options token is ineligible\");\r\n        uint256 tokenPrice = _oracle.getSellOptionsPrice(optionsToken);\r\n        uint256 currencyPrice = _oracle.getPrice(settlementCurrency);\r\n        PayOptionsOrder[] storage orderList = payOrderMap[settlementCurrency][optionsToken];\r\n        for (uint256 i=0;i<orderList.length;i++){\r\n            if (orderList[i].owner == msg.sender){\r\n                if (!_isSufficientSettlements(orderList[i],tokenPrice,currencyPrice)){\r\n                    _redeemBuyOrder(optionsToken,settlementCurrency,orderList,i);\r\n                    i--;\r\n                }\r\n            }\r\n        }\r\n\r\n    }\r\n    /**\r\n      * @dev redeem a sell order.redeem the earliest sell order.return back the options token.\r\n      * @param optionsToken options token address\r\n      * @param settlementCurrency the settlement currency address\r\n      */    \r\n    function redeemSellOrder(address optionsToken,address settlementCurrency)nonReentrant public {\r\n        require(isEligibleAddress(settlementCurrency),\"This settlements currency is ineligible\");\r\n        require(isEligibleOptionsToken(optionsToken),\"This options token is ineligible\");\r\n        SellOptionsOrder[] storage orderList = sellOrderMap[settlementCurrency][optionsToken];\r\n        for (uint256 i=0;i<orderList.length;i++){\r\n            if (orderList[i].owner == msg.sender){\r\n                uint256 tokenAmount = orderList[i].amount;\r\n                if (orderList[i].amount > 0){\r\n                    orderList[i].amount = 0;\r\n                    IERC20 options = IERC20(optionsToken);\r\n                    options.transfer(orderList[i].owner,tokenAmount);\r\n                }\r\n                emit RedeemSellOrder(msg.sender,optionsToken,settlementCurrency,tokenAmount);\r\n                for (uint256 j=i+1;j<orderList.length;j++) {\r\n                    orderList[i].owner = orderList[j].owner;\r\n                    orderList[i].createdTime = orderList[j].createdTime;\r\n                    orderList[i].amount = orderList[j].amount;\r\n                    i++;\r\n                }\r\n                orderList.length--;\r\n                break;\r\n            }\r\n        }\r\n    }\r\n    /**\r\n      * @dev buy amount options token form sell order.\r\n      * @param optionsToken options token address\r\n      * @param amount options token amount you want to buy\r\n      * @param settlementCurrency the settlement currency address\r\n      * @param currencyAmount the settlement currency amount will be payed for\r\n      */     \r\n    function buyOptionsToken(address optionsToken,uint256 amount,address settlementCurrency,uint256 currencyAmount)nonReentrant public payable {\r\n        uint256 tokenPrice = _oracle.getBuyOptionsPrice(optionsToken);\r\n        uint256 currencyPrice = _oracle.getPrice(settlementCurrency);\r\n        IERC20 settlement = IERC20(settlementCurrency);\r\n        if (settlementCurrency == address (0)) {\r\n            currencyAmount = msg.value;\r\n        }else{\r\n            settlement.transferFrom(msg.sender,address(this),currencyAmount);      \r\n        }\r\n        uint256 totalSetterment = currencyAmount;\r\n        (uint256 allSell,uint256 transFee) = _calPayment(amount,tokenPrice,currencyPrice);\r\n        require(allSell.add(transFee)<=currencyAmount,\"pay value is insufficient!\");\r\n        allSell = 0;//all sell amount\r\n        SellOptionsOrder[] storage orderList = sellOrderMap[settlementCurrency][optionsToken];\r\n        for (uint256 i=0;i<orderList.length;i++) {\r\n            uint256 optionsAmount = amount;\r\n            if (amount > orderList[i].amount) {\r\n                optionsAmount = orderList[i].amount;\r\n            }\r\n            uint256 sellAmount = 0;\r\n            (sellAmount,currencyAmount) = _orderTrading(optionsToken,optionsAmount,tokenPrice,settlementCurrency,currencyAmount,currencyPrice,\r\n                        orderList[i].owner,msg.sender);\r\n            amount = amount.sub(sellAmount);\r\n            allSell = allSell.add(sellAmount);\r\n\r\n            orderList[i].amount = orderList[i].amount.sub(sellAmount);\r\n            if (amount == 0) {\r\n                break;\r\n            }\r\n        }\r\n        _transferPayback(msg.sender,settlementCurrency,currencyAmount);\r\n        totalSetterment = totalSetterment.sub(currencyAmount);\r\n        emit BuyOptionsToken(msg.sender,optionsToken,settlementCurrency,tokenPrice,allSell,totalSetterment);\r\n        _removeEmptySellOrder(optionsToken,settlementCurrency);\r\n    }\r\n    /**\r\n      * @dev sell amount options token to buy order.\r\n      * @param optionsToken options token address\r\n      * @param amount options token amount you want to sell\r\n      * @param settlementCurrency the settlement currency address\r\n      */      \r\n    function sellOptionsToken(address optionsToken,uint256 amount,address settlementCurrency)nonReentrant public {\r\n        uint256 tokenPrice = _oracle.getSellOptionsPrice(optionsToken);\r\n        uint256 currencyPrice = _oracle.getPrice(settlementCurrency);\r\n        uint256 _totalSell = 0;\r\n        uint256 _totalPayback = 0;\r\n        IERC20 erc20Token = IERC20(optionsToken);\r\n        erc20Token.transferFrom(msg.sender,address(this),amount);\r\n        PayOptionsOrder[] storage orderList = payOrderMap[settlementCurrency][optionsToken];\r\n        for (uint256 i=0;i<orderList.length;i++){\r\n            if (!_isSufficientSettlements(orderList[i],tokenPrice,currencyPrice)){\r\n                continue;\r\n            }\r\n            uint256 optionsAmount = amount;\r\n            if (optionsAmount > orderList[i].amount) {\r\n                optionsAmount = orderList[i].amount;\r\n            }\r\n            (uint256 sellAmount,uint256 leftCurrency) = _orderTrading(optionsToken,optionsAmount,tokenPrice,settlementCurrency,orderList[i].settlementsAmount,currencyPrice,\r\n            msg.sender,orderList[i].owner);\r\n            _totalSell = _totalSell.add(sellAmount);\r\n            amount = amount.sub(sellAmount);  \r\n            orderList[i].amount = orderList[i].amount.sub(sellAmount);\r\n            _totalPayback = _totalPayback.add(orderList[i].settlementsAmount.sub(leftCurrency));\r\n            orderList[i].settlementsAmount = leftCurrency;\r\n            if (amount == 0) {\r\n                break;\r\n            }\r\n        }\r\n        if (amount > 0){\r\n            erc20Token.transfer(msg.sender,amount);\r\n        }\r\n        emit SellOptionsToken(msg.sender,optionsToken,settlementCurrency,tokenPrice,_totalSell,_totalPayback);\r\n        _removeEmptyPayOrder(optionsToken,settlementCurrency);\r\n    }\r\n    /**\r\n      * @dev return back the expired options token orders. Both buy orders and sell orders\r\n      */        \r\n    function returnExpiredOrders()nonReentrant public{\r\n        address[] memory options = _optionsManager.getOptionsTokenList();\r\n        for (uint256 i=0;i<options.length;i++){\r\n            if (!isEligibleOptionsToken(options[i])){\r\n                for (uint j=0;j<whiteList.length;j++){\r\n                    _returnExpiredSellOrders(options[i],whiteList[j]);\r\n                    _returnExpiredPayOrders(options[i],whiteList[j]);\r\n                }\r\n                emit ReturnExpiredOrders(options[i]);\r\n            }\r\n        }\r\n    }\r\n    function _redeemBuyOrder(address optionToken,address settlementCurrency,PayOptionsOrder[] storage orderList,uint256 i) private {\r\n        _returnPayOrders(orderList[i],settlementCurrency);\r\n        emit RedeemPayOrder(msg.sender,optionToken,settlementCurrency,orderList[i].amount);\r\n        for (uint256 j=i+1;j<orderList.length;j++) {\r\n            orderList[i].owner = orderList[j].owner;\r\n            orderList[i].createdTime = orderList[j].createdTime;\r\n            orderList[i].amount = orderList[j].amount;\r\n            orderList[i].settlementsAmount = orderList[j].settlementsAmount;\r\n            i++;\r\n        }\r\n        orderList.length--;\r\n    }\r\n    function _orderTrading(address optionsToken,uint256 amount,uint256 optionsPrice,\r\n            address settlementCurrency,uint256 currencyAmount,uint256 currencyPrice,\r\n            address seller,address buyer) internal returns (uint256,uint256) {\r\n        (uint256 optionsPay,uint256 transFee) = _calPayment(amount,optionsPrice,currencyPrice);\r\n        if (optionsPay.add(transFee)>currencyAmount){\r\n            return (0,currencyAmount);\r\n        }\r\n        IERC20 erc20Token = IERC20(optionsToken);\r\n        erc20Token.transfer(buyer,amount);\r\n        _transferPayback(seller,settlementCurrency,optionsPay); \r\n        emit OrderSellerPayback(optionsToken,seller,settlementCurrency,optionsPay);\r\n        optionsPay = optionsPay.add(transFee);\r\n        currencyAmount = currencyAmount.sub(optionsPay);\r\n        _addTransactionFee(settlementCurrency,transFee);\r\n        emit OrderBuyerPayback(optionsToken,buyer,amount);\r\n        return (amount,currencyAmount);\r\n    }\r\n    function _removeEmptyPayOrder(address optionsToken,address settlementCurrency)internal{\r\n        PayOptionsOrder[] storage orderList = payOrderMap[settlementCurrency][optionsToken];\r\n        uint256 index = 0;\r\n        for (uint i=0;i<orderList.length;i++) {\r\n            if (orderList[i].amount > 0) {\r\n                if(i != index) {\r\n                    orderList[index].owner = orderList[i].owner;\r\n                    orderList[index].createdTime = orderList[i].createdTime;\r\n                    orderList[index].amount = orderList[i].amount;\r\n                    orderList[index].settlementsAmount = orderList[i].settlementsAmount;\r\n                }\r\n                index++;\r\n            }else {\r\n                _returnPayOrders(orderList[i],settlementCurrency);\r\n            }\r\n        }\r\n         if (index < orderList.length) {\r\n            orderList.length = index;\r\n        }\r\n\r\n    }\r\n    function _removeEmptySellOrder(address optionsToken,address settlementCurrency)internal{\r\n        SellOptionsOrder[] storage orderList = sellOrderMap[settlementCurrency][optionsToken];\r\n        uint256 index = 0;\r\n        for (uint i=0;i<orderList.length;i++) {\r\n            if (orderList[i].amount > 0) {\r\n                if(i != index) {\r\n                    orderList[index].owner = orderList[i].owner;\r\n                    orderList[index].createdTime = orderList[i].createdTime;\r\n                    orderList[index].amount = orderList[i].amount;\r\n                }\r\n                index++;\r\n            }\r\n        }\r\n        if (index < orderList.length) {\r\n            orderList.length = index;\r\n        }\r\n    }\r\n    function _isSufficientSettlements(PayOptionsOrder storage payOrder,uint256 optionsPrice,uint256 currencyPrice) internal view returns(bool){\r\n        (uint256 allPay,uint256 transFee) = _calPayment(payOrder.amount,optionsPrice,currencyPrice);\r\n        if (allPay.add(transFee) > payOrder.settlementsAmount){\r\n            return false;\r\n        }\r\n        return true;\r\n    }\r\n    function _calPayment(uint256 amount,uint256 optionsPrice,uint256 currencyPrice) internal view returns (uint256,uint256) {\r\n        uint256 allPayment = optionsPrice.mul(amount);\r\n        uint256 optionsPay = allPayment.div(currencyPrice);\r\n        uint256 transFee = _calNumberMulUint(transactionFee,optionsPay);\r\n        optionsPay = optionsPay.sub(transFee);\r\n        transFee = transFee.mul(2);\r\n        return (optionsPay,transFee);\r\n    }\r\n    function _returnExpiredSellOrders(address optionsToken,address settlementCurrency) internal {\r\n        IERC20 options = IERC20(optionsToken);\r\n        SellOptionsOrder[] storage orderList = sellOrderMap[settlementCurrency][optionsToken];\r\n        for (uint i=0;i<orderList.length;i++) {\r\n            if (orderList[i].amount > 0) {\r\n                uint256 tokenAmount = orderList[i].amount;\r\n                orderList[i].amount = 0;\r\n                options.transfer(orderList[i].owner,tokenAmount);\r\n            }\r\n        }\r\n        delete sellOrderMap[settlementCurrency][optionsToken];\r\n    }\r\n    function _returnExpiredPayOrders(address optionsToken,address settlementCurrency) internal{\r\n        PayOptionsOrder[] storage orderList = payOrderMap[settlementCurrency][optionsToken];\r\n        for (uint i=0;i<orderList.length;i++) {\r\n            _returnPayOrders(orderList[i],settlementCurrency);\r\n        }\r\n        delete payOrderMap[settlementCurrency][optionsToken];\r\n    }\r\n    function _returnPayOrders(PayOptionsOrder storage payOrder,address settlementCurrency) internal {\r\n    if (payOrder.settlementsAmount > 0) {\r\n            uint256 payAmount = payOrder.settlementsAmount;\r\n            payOrder.settlementsAmount = 0;\r\n            _transferPayback(payOrder.owner,settlementCurrency,payAmount); \r\n        }\r\n    }\r\n    function isEligibleOptionsToken(address optionsToken) public view returns(bool) {\r\n        (,,,,uint256 expiration,bool exercised) = _optionsManager.getOptionsTokenInfo(optionsToken);\r\n        uint256 tradingEnd = _tradingEnd.add(now);\r\n        return (expiration > 0 && tradingEnd < expiration && !exercised);\r\n    }\r\n}",
  "sourcePath": "C:\\work\\solidity\\OptionsContract\\contracts\\MatchMakingTrading.sol",
  "compiler": {
    "name": "solc",
    "version": "0.4.26+commit.4563c3fc.Emscripten.clang"
  },
  "schemaVersion": "3.1.0",
  "updatedAt": "2020-07-05T09:33:09.476Z",
  "networkType": "ethereum",
  "devdoc": {
    "methods": {
      "addPayOrder(address,address,uint256,uint256)": {
        "details": "add a pay order, if your deposition is insufficient, your order will be disable.\r",
        "params": {
          "buyAmount": "the options token amount you want to buy.\r",
          "deposit": "you need to deposit some settlement currency to pay the order.deposit is the amount of settlement currency to pay.\r",
          "optionsToken": "options token address\r",
          "settlementCurrency": "the settlement currency address\r"
        }
      },
      "addSellOrder(address,address,uint256)": {
        "details": "add a sell order. The Amount of options token will be transfered into contract address.\r",
        "params": {
          "amount": "the options token amount you want to sell.\r",
          "optionsToken": "options token address\r",
          "settlementCurrency": "the settlement currency address\r"
        }
      },
      "addWhiteList(address)": {
        "details": "Implementation of add an eligible address into the whitelist.\r",
        "params": {
          "addAddress": "new eligible address.\r"
        }
      },
      "buyOptionsToken(address,uint256,address,uint256)": {
        "details": "buy amount options token form sell order.\r",
        "params": {
          "amount": "options token amount you want to buy\r",
          "currencyAmount": "the settlement currency amount will be payed for\r",
          "optionsToken": "options token address\r",
          "settlementCurrency": "the settlement currency address\r"
        }
      },
      "getPayOrderList(address,address)": {
        "details": "getting all of the pay orders;\r",
        "params": {
          "optionsToken": "options token address\r",
          "settlementCurrency": "the settlement currency address\r"
        },
        "return": "owner account, created time, buy amount, settlements deposition.\r"
      },
      "getSellOrderList(address,address)": {
        "details": "getting all of the sell orders;\r",
        "params": {
          "optionsToken": "options token address\r",
          "settlementCurrency": "the settlement currency address\r"
        },
        "return": "owner account, created time, sell amount.\r"
      },
      "getTransactionFee()": {
        "details": "Returns the rate of trasaction fee.\r"
      },
      "getWhiteList()": {
        "details": "Implementation of getting the eligible whitelist.\r"
      },
      "isEligibleAddress(address)": {
        "details": "Implementation of testing whether the input address is eligible.\r",
        "params": {
          "tmpAddress": "input address for testing.\r"
        }
      },
      "isOwner()": {
        "details": "Returns true if the caller is the current owner."
      },
      "owner()": {
        "details": "Returns the address of the current owner."
      },
      "redeemInvalidPayOrder(address,address)": {
        "details": "redeem a pay order.redeem the earliest pay order.return back the deposition.\r",
        "params": {
          "optionsToken": "options token address\r",
          "settlementCurrency": "the settlement currency address\r"
        }
      },
      "redeemPayOrder(address,address)": {
        "details": "redeem a pay order.redeem the earliest pay order.return back the deposition.\r",
        "params": {
          "optionsToken": "options token address\r",
          "settlementCurrency": "the settlement currency address\r"
        }
      },
      "redeemSellOrder(address,address)": {
        "details": "redeem a sell order.redeem the earliest sell order.return back the options token.\r",
        "params": {
          "optionsToken": "options token address\r",
          "settlementCurrency": "the settlement currency address\r"
        }
      },
      "removeWhiteList(address)": {
        "details": "Implementation of revoke an invalid address from the whitelist.\r",
        "params": {
          "removeAddress": "revoked address.\r"
        }
      },
      "renounceOwnership()": {
        "details": "Leaves the contract without owner. It will not be possible to call `onlyOwner` functions anymore. Can only be called by the current owner.     * NOTE: Renouncing ownership will leave the contract without an owner, thereby removing any functionality that is only available to the owner."
      },
      "returnExpiredOrders()": {
        "details": "return back the expired options token orders. Both buy orders and sell orders\r"
      },
      "sellOptionsToken(address,uint256,address)": {
        "details": "sell amount options token to buy order.\r",
        "params": {
          "amount": "options token amount you want to sell\r",
          "optionsToken": "options token address\r",
          "settlementCurrency": "the settlement currency address\r"
        }
      },
      "setTransactionFee(uint256,int32)": {
        "details": "set the rate of trasaction fee.\r",
        "params": {
          "exponent": "the exponent figures of transaction fee.\r transaction fee = Number(value,exponent);\r",
          "value": "the significant figures of transaction fee .\r"
        }
      },
      "transferOwnership(address)": {
        "details": "Transfers ownership of the contract to a new account (`newOwner`). Can only be called by the current owner."
      }
    }
  },
  "userdoc": {
    "methods": {}
  }
}