{
  "contractName": "MatchMakingTrading",
  "abi": [
    {
      "constant": true,
      "inputs": [],
      "name": "getWhiteList",
      "outputs": [
        {
          "name": "",
          "type": "address[]"
        }
      ],
      "payable": false,
      "stateMutability": "view",
      "type": "function"
    },
    {
      "constant": false,
      "inputs": [
        {
          "name": "removeAddress",
          "type": "address"
        }
      ],
      "name": "removeWhiteList",
      "outputs": [],
      "payable": false,
      "stateMutability": "nonpayable",
      "type": "function"
    },
    {
      "constant": false,
      "inputs": [],
      "name": "redeemAll",
      "outputs": [],
      "payable": false,
      "stateMutability": "nonpayable",
      "type": "function"
    },
    {
      "constant": true,
      "inputs": [
        {
          "name": "",
          "type": "address"
        },
        {
          "name": "",
          "type": "address"
        },
        {
          "name": "",
          "type": "uint256"
        }
      ],
      "name": "payOrderMap",
      "outputs": [
        {
          "name": "owner",
          "type": "address"
        },
        {
          "name": "createdTime",
          "type": "uint256"
        },
        {
          "name": "amount",
          "type": "uint256"
        },
        {
          "name": "settlementsAmount",
          "type": "uint256"
        }
      ],
      "payable": false,
      "stateMutability": "view",
      "type": "function"
    },
    {
      "constant": true,
      "inputs": [
        {
          "name": "",
          "type": "uint256"
        }
      ],
      "name": "whiteList",
      "outputs": [
        {
          "name": "",
          "type": "address"
        }
      ],
      "payable": false,
      "stateMutability": "view",
      "type": "function"
    },
    {
      "constant": false,
      "inputs": [],
      "name": "renounceOwnership",
      "outputs": [],
      "payable": false,
      "stateMutability": "nonpayable",
      "type": "function"
    },
    {
      "constant": true,
      "inputs": [
        {
          "name": "tmpAddress",
          "type": "address"
        }
      ],
      "name": "isEligibleAddress",
      "outputs": [
        {
          "name": "",
          "type": "bool"
        }
      ],
      "payable": false,
      "stateMutability": "view",
      "type": "function"
    },
    {
      "constant": true,
      "inputs": [],
      "name": "getTransactionFee",
      "outputs": [
        {
          "name": "",
          "type": "uint256"
        },
        {
          "name": "",
          "type": "int32"
        }
      ],
      "payable": false,
      "stateMutability": "view",
      "type": "function"
    },
    {
      "constant": true,
      "inputs": [],
      "name": "owner",
      "outputs": [
        {
          "name": "",
          "type": "address"
        }
      ],
      "payable": false,
      "stateMutability": "view",
      "type": "function"
    },
    {
      "constant": true,
      "inputs": [],
      "name": "isOwner",
      "outputs": [
        {
          "name": "",
          "type": "bool"
        }
      ],
      "payable": false,
      "stateMutability": "view",
      "type": "function"
    },
    {
      "constant": false,
      "inputs": [
        {
          "name": "currency",
          "type": "address"
        }
      ],
      "name": "redeem",
      "outputs": [],
      "payable": false,
      "stateMutability": "nonpayable",
      "type": "function"
    },
    {
      "constant": true,
      "inputs": [
        {
          "name": "",
          "type": "address"
        }
      ],
      "name": "managerFee",
      "outputs": [
        {
          "name": "",
          "type": "uint256"
        }
      ],
      "payable": false,
      "stateMutability": "view",
      "type": "function"
    },
    {
      "constant": true,
      "inputs": [],
      "name": "transactionFee",
      "outputs": [
        {
          "name": "value",
          "type": "uint256"
        },
        {
          "name": "exponent",
          "type": "int32"
        }
      ],
      "payable": false,
      "stateMutability": "view",
      "type": "function"
    },
    {
      "constant": true,
      "inputs": [],
      "name": "halted",
      "outputs": [
        {
          "name": "",
          "type": "bool"
        }
      ],
      "payable": false,
      "stateMutability": "view",
      "type": "function"
    },
    {
      "constant": true,
      "inputs": [
        {
          "name": "",
          "type": "address"
        },
        {
          "name": "",
          "type": "address"
        },
        {
          "name": "",
          "type": "uint256"
        }
      ],
      "name": "sellOrderMap",
      "outputs": [
        {
          "name": "owner",
          "type": "address"
        },
        {
          "name": "createdTime",
          "type": "uint256"
        },
        {
          "name": "amount",
          "type": "uint256"
        }
      ],
      "payable": false,
      "stateMutability": "view",
      "type": "function"
    },
    {
      "constant": true,
      "inputs": [
        {
          "name": "settlement",
          "type": "address"
        }
      ],
      "name": "getFeeBalance",
      "outputs": [
        {
          "name": "",
          "type": "uint256"
        }
      ],
      "payable": false,
      "stateMutability": "view",
      "type": "function"
    },
    {
      "constant": false,
      "inputs": [
        {
          "name": "value",
          "type": "uint256"
        },
        {
          "name": "exponent",
          "type": "int32"
        }
      ],
      "name": "setTransactionFee",
      "outputs": [],
      "payable": false,
      "stateMutability": "nonpayable",
      "type": "function"
    },
    {
      "constant": false,
      "inputs": [
        {
          "name": "addAddress",
          "type": "address"
        }
      ],
      "name": "addWhiteList",
      "outputs": [],
      "payable": false,
      "stateMutability": "nonpayable",
      "type": "function"
    },
    {
      "constant": true,
      "inputs": [],
      "name": "getAllFeeBalances",
      "outputs": [
        {
          "name": "",
          "type": "address[]"
        },
        {
          "name": "",
          "type": "uint256[]"
        }
      ],
      "payable": false,
      "stateMutability": "view",
      "type": "function"
    },
    {
      "constant": false,
      "inputs": [
        {
          "name": "newOwner",
          "type": "address"
        }
      ],
      "name": "transferOwnership",
      "outputs": [],
      "payable": false,
      "stateMutability": "nonpayable",
      "type": "function"
    },
    {
      "constant": false,
      "inputs": [
        {
          "name": "halt",
          "type": "bool"
        }
      ],
      "name": "setHalt",
      "outputs": [],
      "payable": false,
      "stateMutability": "nonpayable",
      "type": "function"
    },
    {
      "anonymous": false,
      "inputs": [
        {
          "indexed": true,
          "name": "from",
          "type": "address"
        },
        {
          "indexed": true,
          "name": "optionsToken",
          "type": "address"
        },
        {
          "indexed": true,
          "name": "settlementCurrency",
          "type": "address"
        },
        {
          "indexed": false,
          "name": "amount",
          "type": "uint256"
        },
        {
          "indexed": false,
          "name": "settlementsAmount",
          "type": "uint256"
        }
      ],
      "name": "AddPayOrder",
      "type": "event"
    },
    {
      "anonymous": false,
      "inputs": [
        {
          "indexed": true,
          "name": "from",
          "type": "address"
        },
        {
          "indexed": true,
          "name": "optionsToken",
          "type": "address"
        },
        {
          "indexed": true,
          "name": "settlementCurrency",
          "type": "address"
        },
        {
          "indexed": false,
          "name": "amount",
          "type": "uint256"
        }
      ],
      "name": "AddSellOrder",
      "type": "event"
    },
    {
      "anonymous": false,
      "inputs": [
        {
          "indexed": true,
          "name": "from",
          "type": "address"
        },
        {
          "indexed": true,
          "name": "optionsToken",
          "type": "address"
        },
        {
          "indexed": true,
          "name": "settlementCurrency",
          "type": "address"
        },
        {
          "indexed": false,
          "name": "optionsPrice",
          "type": "uint256"
        },
        {
          "indexed": false,
          "name": "amount",
          "type": "uint256"
        },
        {
          "indexed": false,
          "name": "payback",
          "type": "uint256"
        }
      ],
      "name": "SellOptionsToken",
      "type": "event"
    },
    {
      "anonymous": false,
      "inputs": [
        {
          "indexed": true,
          "name": "from",
          "type": "address"
        },
        {
          "indexed": true,
          "name": "optionsToken",
          "type": "address"
        },
        {
          "indexed": true,
          "name": "settlementCurrency",
          "type": "address"
        },
        {
          "indexed": false,
          "name": "optionsPrice",
          "type": "uint256"
        },
        {
          "indexed": false,
          "name": "amount",
          "type": "uint256"
        },
        {
          "indexed": false,
          "name": "totalPay",
          "type": "uint256"
        }
      ],
      "name": "BuyOptionsToken",
      "type": "event"
    },
    {
      "anonymous": false,
      "inputs": [
        {
          "indexed": true,
          "name": "optionsToken",
          "type": "address"
        },
        {
          "indexed": true,
          "name": "seller",
          "type": "address"
        },
        {
          "indexed": true,
          "name": "settlementCurrency",
          "type": "address"
        },
        {
          "indexed": false,
          "name": "payback",
          "type": "uint256"
        }
      ],
      "name": "OrderSellerPayback",
      "type": "event"
    },
    {
      "anonymous": false,
      "inputs": [
        {
          "indexed": true,
          "name": "optionsToken",
          "type": "address"
        },
        {
          "indexed": true,
          "name": "buyer",
          "type": "address"
        },
        {
          "indexed": false,
          "name": "amount",
          "type": "uint256"
        }
      ],
      "name": "OrderBuyerPayback",
      "type": "event"
    },
    {
      "anonymous": false,
      "inputs": [
        {
          "indexed": true,
          "name": "optionsToken",
          "type": "address"
        }
      ],
      "name": "ReturnExpiredOrders",
      "type": "event"
    },
    {
      "anonymous": false,
      "inputs": [
        {
          "indexed": true,
          "name": "from",
          "type": "address"
        },
        {
          "indexed": true,
          "name": "optionsToken",
          "type": "address"
        },
        {
          "indexed": true,
          "name": "settlementCurrency",
          "type": "address"
        },
        {
          "indexed": false,
          "name": "amount",
          "type": "uint256"
        },
        {
          "indexed": false,
          "name": "settlementsAmount",
          "type": "uint256"
        }
      ],
      "name": "RedeemPayOrder",
      "type": "event"
    },
    {
      "anonymous": false,
      "inputs": [
        {
          "indexed": true,
          "name": "from",
          "type": "address"
        },
        {
          "indexed": true,
          "name": "optionsToken",
          "type": "address"
        },
        {
          "indexed": true,
          "name": "settlementCurrency",
          "type": "address"
        },
        {
          "indexed": false,
          "name": "amount",
          "type": "uint256"
        }
      ],
      "name": "RedeemSellOrder",
      "type": "event"
    },
    {
      "anonymous": false,
      "inputs": [
        {
          "indexed": true,
          "name": "recieptor",
          "type": "address"
        },
        {
          "indexed": true,
          "name": "collateral",
          "type": "address"
        },
        {
          "indexed": false,
          "name": "payback",
          "type": "uint256"
        }
      ],
      "name": "TransferPayback",
      "type": "event"
    },
    {
      "anonymous": false,
      "inputs": [
        {
          "indexed": true,
          "name": "previousOwner",
          "type": "address"
        },
        {
          "indexed": true,
          "name": "newOwner",
          "type": "address"
        }
      ],
      "name": "OwnershipTransferred",
      "type": "event"
    },
    {
      "constant": true,
      "inputs": [],
      "name": "getOracleAddress",
      "outputs": [
        {
          "name": "",
          "type": "address"
        }
      ],
      "payable": false,
      "stateMutability": "view",
      "type": "function"
    },
    {
      "constant": true,
      "inputs": [],
      "name": "getOptionsManagerAddress",
      "outputs": [
        {
          "name": "",
          "type": "address"
        }
      ],
      "payable": false,
      "stateMutability": "view",
      "type": "function"
    },
    {
      "constant": true,
      "inputs": [],
      "name": "getTradingEnd",
      "outputs": [
        {
          "name": "",
          "type": "uint256"
        }
      ],
      "payable": false,
      "stateMutability": "view",
      "type": "function"
    },
    {
      "constant": true,
      "inputs": [
        {
          "name": "optionsToken",
          "type": "address"
        },
        {
          "name": "settlementCurrency",
          "type": "address"
        }
      ],
      "name": "getPayOrderList",
      "outputs": [
        {
          "name": "",
          "type": "address[]"
        },
        {
          "name": "",
          "type": "uint256[]"
        },
        {
          "name": "",
          "type": "uint256[]"
        },
        {
          "name": "",
          "type": "uint256[]"
        }
      ],
      "payable": false,
      "stateMutability": "view",
      "type": "function"
    },
    {
      "constant": true,
      "inputs": [
        {
          "name": "optionsToken",
          "type": "address"
        },
        {
          "name": "settlementCurrency",
          "type": "address"
        }
      ],
      "name": "getSellOrderList",
      "outputs": [
        {
          "name": "",
          "type": "address[]"
        },
        {
          "name": "",
          "type": "uint256[]"
        },
        {
          "name": "",
          "type": "uint256[]"
        }
      ],
      "payable": false,
      "stateMutability": "view",
      "type": "function"
    },
    {
      "constant": false,
      "inputs": [
        {
          "name": "oracle",
          "type": "address"
        }
      ],
      "name": "setOracleAddress",
      "outputs": [],
      "payable": false,
      "stateMutability": "nonpayable",
      "type": "function"
    },
    {
      "constant": false,
      "inputs": [
        {
          "name": "optionsManager",
          "type": "address"
        }
      ],
      "name": "setOptionsManagerAddress",
      "outputs": [],
      "payable": false,
      "stateMutability": "nonpayable",
      "type": "function"
    },
    {
      "constant": false,
      "inputs": [
        {
          "name": "tradingEnd",
          "type": "uint256"
        }
      ],
      "name": "setTradingEnd",
      "outputs": [],
      "payable": false,
      "stateMutability": "nonpayable",
      "type": "function"
    },
    {
      "constant": false,
      "inputs": [
        {
          "name": "optionsToken",
          "type": "address"
        },
        {
          "name": "settlementCurrency",
          "type": "address"
        },
        {
          "name": "deposit",
          "type": "uint256"
        },
        {
          "name": "buyAmount",
          "type": "uint256"
        }
      ],
      "name": "addPayOrder",
      "outputs": [],
      "payable": true,
      "stateMutability": "payable",
      "type": "function"
    },
    {
      "constant": false,
      "inputs": [
        {
          "name": "optionsToken",
          "type": "address"
        },
        {
          "name": "settlementCurrency",
          "type": "address"
        },
        {
          "name": "amount",
          "type": "uint256"
        }
      ],
      "name": "addSellOrder",
      "outputs": [],
      "payable": false,
      "stateMutability": "nonpayable",
      "type": "function"
    },
    {
      "constant": false,
      "inputs": [
        {
          "name": "optionsToken",
          "type": "address"
        },
        {
          "name": "settlementCurrency",
          "type": "address"
        }
      ],
      "name": "redeemPayOrder",
      "outputs": [],
      "payable": false,
      "stateMutability": "nonpayable",
      "type": "function"
    },
    {
      "constant": false,
      "inputs": [
        {
          "name": "optionsToken",
          "type": "address"
        },
        {
          "name": "settlementCurrency",
          "type": "address"
        }
      ],
      "name": "redeemInvalidPayOrder",
      "outputs": [],
      "payable": false,
      "stateMutability": "nonpayable",
      "type": "function"
    },
    {
      "constant": false,
      "inputs": [
        {
          "name": "optionsToken",
          "type": "address"
        },
        {
          "name": "settlementCurrency",
          "type": "address"
        }
      ],
      "name": "redeemSellOrder",
      "outputs": [],
      "payable": false,
      "stateMutability": "nonpayable",
      "type": "function"
    },
    {
      "constant": false,
      "inputs": [
        {
          "name": "optionsToken",
          "type": "address"
        },
        {
          "name": "amount",
          "type": "uint256"
        },
        {
          "name": "settlementCurrency",
          "type": "address"
        },
        {
          "name": "currencyAmount",
          "type": "uint256"
        }
      ],
      "name": "buyOptionsToken",
      "outputs": [],
      "payable": true,
      "stateMutability": "payable",
      "type": "function"
    },
    {
      "constant": false,
      "inputs": [
        {
          "name": "optionsToken",
          "type": "address"
        },
        {
          "name": "amount",
          "type": "uint256"
        },
        {
          "name": "settlementCurrency",
          "type": "address"
        }
      ],
      "name": "sellOptionsToken",
      "outputs": [],
      "payable": false,
      "stateMutability": "nonpayable",
      "type": "function"
    },
    {
      "constant": false,
      "inputs": [],
      "name": "returnExpiredOrders",
      "outputs": [],
      "payable": false,
      "stateMutability": "nonpayable",
      "type": "function"
    },
    {
      "constant": true,
      "inputs": [
        {
          "name": "optionsToken",
          "type": "address"
        }
      ],
      "name": "isEligibleOptionsToken",
      "outputs": [
        {
          "name": "",
          "type": "bool"
        }
      ],
      "payable": false,
      "stateMutability": "view",
      "type": "function"
    }
  ],
  "bytecode": "0x6000805460c060408190526003608081905260021960a05280556004805463fffffffd63ffffffff199091161790556005805460ff19169055614650600655600160a860020a03199091163317808355600160a060020a031691907f8be0079c531659141344cd1fd0a4f28419497f9722a3daafe3b4186f6b6457e0908290a36149b08061008e6000396000f3006080604052600436106101be5763ffffffff60e060020a60003504166302d397de81146101c357806309a9d76c146101e557806309c2f4621461024a5780632042e5c21461027f578063247f6fd8146102a05780632f4350c2146103ea578063434c0bc8146103ff5780634c69c00f14610430578063516ee76a1461045157806355cbfef1146104725780635c475d42146104cc578063715018a6146104e45780637ca4c5d9146104f9578063817bf86d1461051a57806385d791021461053b57806386dfc7ec1461056e5780638da5cb5b146105955780638f32d59b146105aa5780639195c3d0146105bf57806395a2251f146105ea578063964072ec1461060b5780639965a4d5146106325780639ed3edf014610653578063b18b78dd14610668578063b9b8af0b1461067d578063be1d869614610692578063c2dc0b47146106e4578063c78f68031461070b578063c820f6ca1461072c578063cb80bc5d14610753578063cdc3280214610768578063d6b637e81461086d578063e4a9d2be14610885578063e7cd4a04146108a3578063f20568cd146108c4578063f2fde38b14610972578063f495438714610993578063faf0a434146109ad575b600080fd5b6101e3600160a060020a03600435811690602435166044356064356109d7565b005b3480156101f157600080fd5b506101fa610ed7565b60408051602080825283518183015283519192839290830191858101910280838360005b8381101561023657818101518382015260200161021e565b505050509050019250505060405180910390f35b34801561025657600080fd5b5061026b600160a060020a0360043516610f3a565b604080519115158252519081900360200190f35b34801561028b57600080fd5b506101e3600160a060020a036004351661101c565b3480156102ac57600080fd5b506102c7600160a060020a036004358116906024351661110d565b6040518080602001806020018060200180602001858103855289818151815260200191508051906020019060200280838360005b838110156103135781810151838201526020016102fb565b50505050905001858103845288818151815260200191508051906020019060200280838360005b8381101561035257818101518382015260200161033a565b50505050905001858103835287818151815260200191508051906020019060200280838360005b83811015610391578181015183820152602001610379565b50505050905001858103825286818151815260200191508051906020019060200280838360005b838110156103d05781810151838201526020016103b8565b505050509050019850505050505050505060405180910390f35b3480156103f657600080fd5b506101e361131d565b34801561040b57600080fd5b50610414611505565b60408051600160a060020a039092168252519081900360200190f35b34801561043c57600080fd5b506101e3600160a060020a0360043516611514565b6101e3600160a060020a036004358116906024359060443516606435611582565b34801561047e57600080fd5b5061049c600160a060020a0360043581169060243516604435611a98565b60408051600160a060020a0390951685526020850193909352838301919091526060830152519081900360800190f35b3480156104d857600080fd5b50610414600435611af6565b3480156104f057600080fd5b506101e3611b1e565b34801561050557600080fd5b506101e3600160a060020a0360043516611bb4565b34801561052657600080fd5b5061026b600160a060020a0360043516611c22565b34801561054757600080fd5b50610550611c39565b60408051928352600391820b90910b60208301528051918290030190f35b34801561057a57600080fd5b506101e3600160a060020a0360043581169060243516611c47565b3480156105a157600080fd5b50610414611f68565b3480156105b657600080fd5b5061026b611f77565b3480156105cb57600080fd5b506101e3600160a060020a036004358116906024359060443516611f88565b3480156105f657600080fd5b506101e3600160a060020a0360043516612527565b34801561061757600080fd5b506106206126c0565b60408051918252519081900360200190f35b34801561063e57600080fd5b50610620600160a060020a03600435166126c6565b34801561065f57600080fd5b506105506126d8565b34801561067457600080fd5b506104146126e5565b34801561068957600080fd5b5061026b6126f4565b34801561069e57600080fd5b506106bc600160a060020a0360043581169060243516604435612704565b60408051600160a060020a039094168452602084019290925282820152519081900360600190f35b3480156106f057600080fd5b506101e3600160a060020a036004358116906024351661275d565b34801561071757600080fd5b50610620600160a060020a036004351661290a565b34801561073857600080fd5b506101e3600160a060020a0360043581169060243516612925565b34801561075f57600080fd5b506101e3612d58565b34801561077457600080fd5b5061078f600160a060020a036004358116906024351661300d565b60405180806020018060200180602001848103845287818151815260200191508051906020019060200280838360005b838110156107d75781810151838201526020016107bf565b50505050905001848103835286818151815260200191508051906020019060200280838360005b838110156108165781810151838201526020016107fe565b50505050905001848103825285818151815260200191508051906020019060200280838360005b8381101561085557818101518382015260200161083d565b50505050905001965050505050505060405180910390f35b34801561087957600080fd5b506101e36004356131b0565b34801561089157600080fd5b506101e360043560243560030b613201565b3480156108af57600080fd5b506101e3600160a060020a036004351661326e565b3480156108d057600080fd5b506108d9613322565b604051808060200180602001838103835285818151815260200191508051906020019060200280838360005b8381101561091d578181015183820152602001610905565b50505050905001838103825284818151815260200191508051906020019060200280838360005b8381101561095c578181015183820152602001610944565b5050505090500194505050505060405180910390f35b34801561097e57600080fd5b506101e3600160a060020a036004351661342b565b34801561099f57600080fd5b506101e36004351515613483565b3480156109b957600080fd5b506101e3600160a060020a03600435811690602435166044356134fe565b6005546000908190819081908190819060ff16156109f457600080fd5b6005805460ff1916600117905560005460a060020a900460ff1615610a51576040805160e560020a62461bcd0281526020600482015260176024820152600080516020614965833981519152604482015290519081900360640190fd5b323314610a5d57600080fd5b610a6689611c22565b1515610abe576040805160e560020a62461bcd028152602060048201526027602482015260008051602061494583398151915260448201526000805160206148e5833981519152606482015290519081900360840190fd5b610ac78a610f3a565b1515610b0b576040805160e560020a62461bcd0281526020600482018190526024820152600080516020614905833981519152604482015290519081900360640190fd5b600854604080517fcd75e52c000000000000000000000000000000000000000000000000000000008152600160a060020a038d811660048301529151919092169163cd75e52c9160248083019260209291908290030181600087803b158015610b7357600080fd5b505af1158015610b87573d6000803e3d6000fd5b505050506040513d6020811015610b9d57600080fd5b5051600854604080517f41976e09000000000000000000000000000000000000000000000000000000008152600160a060020a038d8116600483015291519399509116916341976e09916024808201926020929091908290030181600087803b158015610c0957600080fd5b505af1158015610c1d573d6000803e3d6000fd5b505050506040513d6020811015610c3357600080fd5b50519450610c42878787613779565b9094509250879150600160a060020a0389161515610c6257349150610ceb565b506040805160e060020a6323b872dd0281523360048201523060248201526044810183905290518991600160a060020a038316916323b872dd916064808201926020929091908290030181600087803b158015610cbe57600080fd5b505af1158015610cd2573d6000803e3d6000fd5b505050506040513d6020811015610ce857600080fd5b50505b81610cfc858563ffffffff61380016565b1115610d78576040805160e560020a62461bcd02815260206004820152602560248201527f736574746c656d656e74732043757272656e637920697320696e73756666696360448201527f69656e7421000000000000000000000000000000000000000000000000000000606482015290519081900360840190fd5b600960008a600160a060020a0316600160a060020a0316815260200190815260200160002060008b600160a060020a0316600160a060020a0316815260200190815260200160002060806040519081016040528033600160a060020a03168152602001428152602001898152602001848152509080600181540180825580915050906001820390600052602060002090600402016000909192909190915060008201518160000160006101000a815481600160a060020a030219169083600160a060020a0316021790555060208201518160010155604082015181600201556060820151816003015550505088600160a060020a03168a600160a060020a031633600160a060020a03167f037427bc6ff89c0b05db989a67a82996bd2c2b2d27462fb590d8e4b4ffddc43c8a86604051808381526020018281526020019250505060405180910390a450506005805460ff191690555050505050505050565b60606001805480602002602001604051908101604052809291908181526020018280548015610f2f57602002820191906000526020600020905b8154600160a060020a03168152600190910190602001808311610f11575b505050505090505b90565b600754604080517f3c03c859000000000000000000000000000000000000000000000000000000008152600160a060020a03848116600483015291516000938493849384939190921691633c03c8599160248083019260c092919082900301818787803b158015610faa57600080fd5b505af1158015610fbe573d6000803e3d6000fd5b505050506040513d60c0811015610fd457600080fd5b50608081015160a0909101516006549194509250610ff8904263ffffffff61380016565b905060008311801561100957508281105b8015611013575081155b95945050505050565b6000611026611f77565b151561106a576040805160e560020a62461bcd0281526020600482018190526024820152600080516020614925833981519152604482015290519081900360640190fd5b61107382613868565b600154909150811015611109576001546000190181146110f45760018054600019810190811061109f57fe5b60009182526020909120015460018054600160a060020a0390921691839081106110c557fe5b9060005260206000200160006101000a815481600160a060020a030219169083600160a060020a031602179055505b600180549061110790600019830161479d565b505b5050565b600160a060020a038082166000908152600960209081526040808320938616835292815282822080548451818152818402810190930190945260609384938493849392849283928392839291908015611170578160200160208202803883390190505b508654604080518281526020808402820101909152919650801561119e578160200160208202803883390190505b50865460408051828152602080840282010190915291955080156111cc578160200160208202803883390190505b50865460408051828152602080840282010190915291945080156111fa578160200160208202803883390190505b509150600090505b855481101561130b57858181548110151561121957fe5b60009182526020909120600490910201548551600160a060020a039091169086908390811061124457fe5b600160a060020a03909216602092830290910190910152855486908290811061126957fe5b906000526020600020906004020160010154848281518110151561128957fe5b6020908102909101015285548690829081106112a157fe5b90600052602060002090600402016002015483828151811015156112c157fe5b6020908102909101015285548690829081106112d957fe5b90600052602060002090600402016003015482828151811015156112f957fe5b60209081029091010152600101611202565b50929a91995097509095509350505050565b600080600061132a611f77565b151561136e576040805160e560020a62461bcd0281526020600482018190526024820152600080516020614925833981519152604482015290519081900360640190fd5b600092505b600154831015611107576002600060018581548110151561139057fe5b6000918252602080832090910154600160a060020a0316835282019290925260400181205492508211156114fa576000600260006001868154811015156113d357fe5b6000918252602080832090910154600160a060020a03168352820192909252604001902055600180548490811061140657fe5b600091825260208220015460018054600160a060020a039092169350908590811061142d57fe5b600091825260209091200154600160a060020a0316141561147b57604051339083156108fc029084906000818181858888f19350505050158015611475573d6000803e3d6000fd5b506114fa565b6040805160e060020a63a9059cbb028152336004820152602481018490529051600160a060020a0383169163a9059cbb9160448083019260209291908290030181600087803b1580156114cd57600080fd5b505af11580156114e1573d6000803e3d6000fd5b505050506040513d60208110156114f757600080fd5b50505b600190920191611373565b600754600160a060020a031690565b61151c611f77565b1515611560576040805160e560020a62461bcd0281526020600482018190526024820152600080516020614925833981519152604482015290519081900360640190fd5b60088054600160a060020a031916600160a060020a0392909216919091179055565b600080600080600080600080600080600560009054906101000a900460ff161515156115ad57600080fd5b6005805460ff1916600117905560005460a060020a900460ff161561160a576040805160e560020a62461bcd0281526020600482015260176024820152600080516020614965833981519152604482015290519081900360640190fd5b32331461161657600080fd5b600860009054906101000a9004600160a060020a0316600160a060020a0316638618b1d88f6040518263ffffffff1660e060020a0281526004018082600160a060020a0316600160a060020a03168152602001915050602060405180830381600087803b15801561168657600080fd5b505af115801561169a573d6000803e3d6000fd5b505050506040513d60208110156116b057600080fd5b81019080805190602001909291905050509950600860009054906101000a9004600160a060020a0316600160a060020a03166341976e098d6040518263ffffffff1660e060020a0281526004018082600160a060020a0316600160a060020a03168152602001915050602060405180830381600087803b15801561173357600080fd5b505af1158015611747573d6000803e3d6000fd5b505050506040513d602081101561175d57600080fd5b505198508b9750600160a060020a038816151561177c57349a50611801565b6040805160e060020a6323b872dd028152336004820152306024820152604481018d90529051600160a060020a038a16916323b872dd9160648083019260209291908290030181600087803b1580156117d457600080fd5b505af11580156117e8573d6000803e3d6000fd5b505050506040513d60208110156117fe57600080fd5b50505b8a965061180f8d8b8b613779565b90965094508a611825878763ffffffff61380016565b111561187b576040805160e560020a62461bcd02815260206004820152601a60248201527f7061792076616c756520697320696e73756666696369656e7421000000000000604482015290519081900360640190fd5b60009550600a60008d600160a060020a0316600160a060020a0316815260200190815260200160002060008f600160a060020a0316600160a060020a031681526020019081526020016000209350600092505b83548310156119f2578c915083838154811015156118e857fe5b9060005260206000209060030201600201548d111561192457838381548110151561190f57fe5b90600052602060002090600302016002015491505b6000905061195f8e838c8f8f8e8a8a81548110151561193f57fe5b6000918252602090912060039091020154600160a060020a0316336138bd565b9b5090506119738d8263ffffffff613a6c16565b9c50611985868263ffffffff61380016565b95506119b981858581548110151561199957fe5b906000526020600020906003020160020154613a6c90919063ffffffff16565b84848154811015156119c757fe5b60009182526020909120600260039092020101558c15156119e7576119f2565b6001909201916118ce565b6119fd338d8d613ab5565b611a0d878c63ffffffff613a6c16565b96508b600160a060020a03168e600160a060020a031633600160a060020a03167fca45987595452a24bcc9ad1624fee85d0ca172b26efc024798496a569c06450a8d8a8c60405180848152602001838152602001828152602001935050505060405180910390a4611a7e8e8d613be5565b50506005805460ff19169055505050505050505050505050565b600960205282600052604060002060205281600052604060002081815481101515611abf57fe5b60009182526020909120600490910201805460018201546002830154600390930154600160a060020a039092169550935090915084565b6001805482908110611b0457fe5b600091825260209091200154600160a060020a0316905081565b611b26611f77565b1515611b6a576040805160e560020a62461bcd0281526020600482018190526024820152600080516020614925833981519152604482015290519081900360640190fd5b60008054604051600160a060020a03909116907f8be0079c531659141344cd1fd0a4f28419497f9722a3daafe3b4186f6b6457e0908390a360008054600160a060020a0319169055565b611bbc611f77565b1515611c00576040805160e560020a62461bcd0281526020600482018190526024820152600080516020614925833981519152604482015290519081900360640190fd5b60078054600160a060020a031916600160a060020a0392909216919091179055565b600080611c2e83613868565b600154119392505050565b6003805460045490910b9091565b60055460009081908190819060ff1615611c6057600080fd5b6005805460ff1916600117905560005460a060020a900460ff1615611cbd576040805160e560020a62461bcd0281526020600482015260176024820152600080516020614965833981519152604482015290519081900360640190fd5b611cc685611c22565b1515611d1e576040805160e560020a62461bcd028152602060048201526027602482015260008051602061494583398151915260448201526000805160206148e5833981519152606482015290519081900360840190fd5b611d2786610f3a565b1515611d6b576040805160e560020a62461bcd0281526020600482018190526024820152600080516020614905833981519152604482015290519081900360640190fd5b600854604080517fcd75e52c000000000000000000000000000000000000000000000000000000008152600160a060020a0389811660048301529151919092169163cd75e52c9160248083019260209291908290030181600087803b158015611dd357600080fd5b505af1158015611de7573d6000803e3d6000fd5b505050506040513d6020811015611dfd57600080fd5b5051600854604080517f41976e09000000000000000000000000000000000000000000000000000000008152600160a060020a03898116600483015291519397509116916341976e09916024808201926020929091908290030181600087803b158015611e6957600080fd5b505af1158015611e7d573d6000803e3d6000fd5b505050506040513d6020811015611e9357600080fd5b5051600160a060020a038087166000908152600960209081526040808320938b16835292905290812091945090925090505b8154811015611f5657611ed6613d60565b1515611ee157611f56565b81543390839083908110611ef157fe5b6000918252602090912060049091020154600160a060020a03161415611f4e57611f378282815481101515611f2257fe5b90600052602060002090600402018585613d6d565b1515611f4e57611f4986868484613db8565b600019015b600101611ec5565b50506005805460ff1916905550505050565b600054600160a060020a031690565b600054600160a060020a0316331490565b600080600080600080600080600080600560009054906101000a900460ff16151515611fb357600080fd5b6005805460ff1916600117905560005460a060020a900460ff1615612010576040805160e560020a62461bcd0281526020600482015260176024820152600080516020614965833981519152604482015290519081900360640190fd5b32331461201c57600080fd5b600860009054906101000a9004600160a060020a0316600160a060020a031663cd75e52c8e6040518263ffffffff1660e060020a0281526004018082600160a060020a0316600160a060020a03168152602001915050602060405180830381600087803b15801561208c57600080fd5b505af11580156120a0573d6000803e3d6000fd5b505050506040513d60208110156120b657600080fd5b5051600854604080517f41976e09000000000000000000000000000000000000000000000000000000008152600160a060020a038f811660048301529151939d509116916341976e09916024808201926020929091908290030181600087803b15801561212257600080fd5b505af1158015612136573d6000803e3d6000fd5b505050506040513d602081101561214c57600080fd5b50516040805160e060020a6323b872dd028152336004820152306024820152604481018f90529051919a50600099508998508e9750600160a060020a038816916323b872dd9160648082019260209290919082900301818d87803b1580156121b357600080fd5b505af11580156121c7573d6000803e3d6000fd5b505050506040513d60208110156121dd57600080fd5b810190808051906020019092919050505050600960008c600160a060020a0316600160a060020a0316815260200190815260200160002060008e600160a060020a0316600160a060020a031681526020019081526020016000209450600093505b84548410156124175761226d858581548110151561225857fe5b90600052602060002090600402018b8b613d6d565b15156122785761240c565b8b9250848481548110151561228957fe5b9060005260206000209060040201600201548311156122c55784848154811015156122b057fe5b90600052602060002090600402016002015492505b61231b8d848c8e89898154811015156122da57fe5b9060005260206000209060040201600301548e338c8c8154811015156122fc57fe5b6000918252602090912060049091020154600160a060020a03166138bd565b9092509050612330888363ffffffff61380016565b97506123428c8363ffffffff613a6c16565b9b5061237682868681548110151561235657fe5b906000526020600020906004020160020154613a6c90919063ffffffff16565b858581548110151561238457fe5b9060005260206000209060040201600201819055506123db6123ce8287878154811015156123ae57fe5b906000526020600020906004020160030154613a6c90919063ffffffff16565b889063ffffffff61380016565b96508085858154811015156123ec57fe5b60009182526020909120600360049092020101558b151561240c57612417565b60019093019261223e565b60008c111561249f576040805160e060020a63a9059cbb028152336004820152602481018e90529051600160a060020a0388169163a9059cbb9160448083019260209291908290030181600087803b15801561247257600080fd5b505af1158015612486573d6000803e3d6000fd5b505050506040513d602081101561249c57600080fd5b50505b8a600160a060020a03168d600160a060020a031633600160a060020a03167f59d83dd239d9fa8394885097625162282abaf0079395996f43259f42b2836cfa8d8c8c60405180848152602001838152602001828152602001935050505060405180910390a461250e8d8c613fcf565b50506005805460ff191690555050505050505050505050565b600080612532611f77565b1515612576576040805160e560020a62461bcd0281526020600482018190526024820152600080516020614925833981519152604482015290519081900360640190fd5b600160a060020a038316600090815260026020526040812054925082116125e7576040805160e560020a62461bcd02815260206004820152601260248201527f4974277320656d7074792062616c616e63650000000000000000000000000000604482015290519081900360640190fd5b600160a060020a038316600081815260026020526040812055151561263957604051339083156108fc029084906000818181858888f19350505050158015612633573d6000803e3d6000fd5b50611107565b506040805160e060020a63a9059cbb0281523360048201526024810183905290518391600160a060020a0383169163a9059cbb916044808201926020929091908290030181600087803b15801561268f57600080fd5b505af11580156126a3573d6000803e3d6000fd5b505050506040513d60208110156126b957600080fd5b5050505050565b60065490565b60026020526000908152604090205481565b6003805460045490910b82565b600854600160a060020a031690565b60005460a060020a900460ff1681565b600a6020528260005260406000206020528160005260406000208181548110151561272b57fe5b6000918252602090912060039091020180546001820154600290920154600160a060020a039091169450909250905083565b600554600090819060ff161561277257600080fd5b6005805460ff1916600117905560005460a060020a900460ff16156127cf576040805160e560020a62461bcd0281526020600482015260176024820152600080516020614965833981519152604482015290519081900360640190fd5b6127d883611c22565b1515612830576040805160e560020a62461bcd028152602060048201526027602482015260008051602061494583398151915260448201526000805160206148e5833981519152606482015290519081900360840190fd5b61283984610f3a565b151561287d576040805160e560020a62461bcd0281526020600482018190526024820152600080516020614905833981519152604482015290519081900360640190fd5b5050600160a060020a0380821660009081526009602090815260408083209386168352929052908120905b81548110156128fa57815433908390839081106128c157fe5b6000918252602090912060049091020154600160a060020a031614156128f2576128ed84848484613db8565b6128fa565b6001016128a8565b50506005805460ff191690555050565b600160a060020a031660009081526002602052604090205490565b600554600090819081908190819060ff161561294057600080fd5b6005805460ff1916600117905560005460a060020a900460ff161561299d576040805160e560020a62461bcd0281526020600482015260176024820152600080516020614965833981519152604482015290519081900360640190fd5b6129a686611c22565b15156129fe576040805160e560020a62461bcd028152602060048201526027602482015260008051602061494583398151915260448201526000805160206148e5833981519152606482015290519081900360840190fd5b612a0787610f3a565b1515612a4b576040805160e560020a62461bcd0281526020600482018190526024820152600080516020614905833981519152604482015290519081900360640190fd5b600160a060020a038087166000908152600a60209081526040808320938b168352929052908120955093505b8454841015612d455784543390869086908110612a9057fe5b6000918252602090912060039091020154600160a060020a03161415612d3a578484815481101515612abe57fe5b906000526020600020906003020160020154925060008585815481101515612ae257fe5b9060005260206000209060030201600201541115612bc85760008585815481101515612b0a57fe5b90600052602060002090600302016002018190555086915081600160a060020a031663a9059cbb8686815481101515612b3f57fe5b600091825260208083206003909202909101546040805160e060020a63ffffffff8716028152600160a060020a039092166004830152602482018990525160448083019491928390030190829087803b158015612b9b57600080fd5b505af1158015612baf573d6000803e3d6000fd5b505050506040513d6020811015612bc557600080fd5b50505b85600160a060020a031687600160a060020a031633600160a060020a03167f7d52d0563d10554ad8ebb839d322d4a4cccffc38148b0939e854fea1747bb5d8866040518082815260200191505060405180910390a450600183015b8454811015612d24578481815481101515612c3a57fe5b60009182526020909120600390910201548554600160a060020a0390911690869086908110612c6557fe5b600091825260209091206003909102018054600160a060020a031916600160a060020a03929092169190911790558454859082908110612ca157fe5b9060005260206000209060030201600101548585815481101515612cc157fe5b9060005260206000209060030201600101819055508481815481101515612ce457fe5b9060005260206000209060030201600201548585815481101515612d0457fe5b600091825260209091206002600390920201015560019384019301612c23565b8454612d348660001983016147c1565b50612d45565b600190930192612a77565b50506005805460ff191690555050505050565b600554606090600090819060ff1615612d7057600080fd5b6005805460ff1916600117905560005460a060020a900460ff1615612dcd576040805160e560020a62461bcd0281526020600482015260176024820152600080516020614965833981519152604482015290519081900360640190fd5b600760009054906101000a9004600160a060020a0316600160a060020a031663c53ca5a96040518163ffffffff1660e060020a028152600401600060405180830381600087803b158015612e2057600080fd5b505af1158015612e34573d6000803e3d6000fd5b505050506040513d6000823e601f3d908101601f191682016040526020811015612e5d57600080fd5b810190808051640100000000811115612e7557600080fd5b82016020810184811115612e8857600080fd5b8151856020820283011164010000000082111715612ea557600080fd5b5090965060009550505050505b8251821015612ffe57612edb8383815181101515612ecc57fe5b90602001906020020151610f3a565b1515612ff3575060005b600154811015612fa557612ef7613d60565b1515612f0257612ffe565b612f468383815181101515612f1357fe5b90602001906020020151600183815481101515612f2c57fe5b600091825260209091200154600160a060020a03166141ad565b612f4e613d60565b1515612f5957612ffe565b612f9d8383815181101515612f6a57fe5b90602001906020020151600183815481101515612f8357fe5b600091825260209091200154600160a060020a0316614344565b600101612ee5565b8282815181101515612fb357fe5b90602001906020020151600160a060020a03167fbfcfff685af73fefa61b6c5ff2859a6ffefbf27dd0a03a8dc0c9e2a97ec33c2260405160405180910390a25b600190910190612eb2565b50506005805460ff1916905550565b600160a060020a038082166000908152600a602090815260408083209386168352928152828220805484518181528184028101909301909452606093849384938492839283929091801561306b578160200160208202803883390190505b5085546040805182815260208084028201019091529195508015613099578160200160208202803883390190505b50855460408051828152602080840282010190915291945080156130c7578160200160208202803883390190505b509150600090505b84548110156131a05784818154811015156130e657fe5b60009182526020909120600390910201548451600160a060020a039091169085908390811061311157fe5b600160a060020a03909216602092830290910190910152845485908290811061313657fe5b906000526020600020906003020160010154838281518110151561315657fe5b60209081029091010152845485908290811061316e57fe5b906000526020600020906003020160020154828281518110151561318e57fe5b602090810290910101526001016130cf565b5091989097509095509350505050565b6131b8611f77565b15156131fc576040805160e560020a62461bcd0281526020600482018190526024820152600080516020614925833981519152604482015290519081900360640190fd5b600655565b613209611f77565b151561324d576040805160e560020a62461bcd0281526020600482018190526024820152600080516020614925833981519152604482015290519081900360640190fd5b6003918255600480549190920b63ffffffff1663ffffffff19909116179055565b6000613278611f77565b15156132bc576040805160e560020a62461bcd0281526020600482018190526024820152600080516020614925833981519152604482015290519081900360640190fd5b6132c582613868565b600154909150811415611109576001805480820182556000919091527fb10e2d527612073b26eecdfd717e6a320cf44b4afac2b0732d9fcbe2b7fa0cf6018054600160a060020a038416600160a060020a03199091161790555050565b60608060606000600180549050604051908082528060200260200182016040528015613358578160200160208202803883390190505b509150600090505b6001548110156133c2576002600060018381548110151561337d57fe5b6000918252602080832090910154600160a060020a0316835282019290925260400190205482518390839081106133b057fe5b60209081029091010152600101613360565b6001828180548060200260200160405190810160405280929190818152602001828054801561341a57602002820191906000526020600020905b8154600160a060020a031681526001909101906020018083116133fc575b505050505091509350935050509091565b613433611f77565b1515613477576040805160e560020a62461bcd0281526020600482018190526024820152600080516020614925833981519152604482015290519081900360640190fd5b613480816143e6565b50565b61348b611f77565b15156134cf576040805160e560020a62461bcd0281526020600482018190526024820152600080516020614925833981519152604482015290519081900360640190fd5b6000805491151560a060020a0274ff000000000000000000000000000000000000000019909216919091179055565b60055460009060ff161561351157600080fd5b6005805460ff1916600117905560005460a060020a900460ff161561356e576040805160e560020a62461bcd0281526020600482015260176024820152600080516020614965833981519152604482015290519081900360640190fd5b32331461357a57600080fd5b61358383611c22565b15156135db576040805160e560020a62461bcd028152602060048201526027602482015260008051602061494583398151915260448201526000805160206148e5833981519152606482015290519081900360840190fd5b6135e484610f3a565b1515613628576040805160e560020a62461bcd0281526020600482018190526024820152600080516020614905833981519152604482015290519081900360640190fd5b506040805160e060020a6323b872dd0281523360048201523060248201526044810183905290518491600160a060020a038316916323b872dd916064808201926020929091908290030181600087803b15801561368457600080fd5b505af1158015613698573d6000803e3d6000fd5b505050506040513d60208110156136ae57600080fd5b5050600160a060020a038381166000818152600a60209081526040808320898616808552908352818420825160608101845233808252428287019081528286018c8152845460018082018755958a5298889020935160039099029093018054600160a060020a03191698909a1697909717895595519188019190915551600290960195909555805187815290519394937f1d0edf86fe7c1c3f91533fb96cf812384c2b1b506231ee4ebfb21fdd9cf9561a929181900390910190a450506005805460ff191690555050565b60008080808061378f878963ffffffff6144c716565b92506137a1838763ffffffff61456616565b60408051808201909152600380548252600454810b810b900b60208201529092506137cc90836145a8565b90506137de828263ffffffff613a6c16565b91506137f181600263ffffffff6144c716565b91989197509095505050505050565b60008282018381101561385d576040805160e560020a62461bcd02815260206004820152601b60248201527f536166654d6174683a206164646974696f6e206f766572666c6f770000000000604482015290519081900360640190fd5b8091505b5092915050565b6000805b6001548110156138b75782600160a060020a031660018281548110151561388f57fe5b600091825260209091200154600160a060020a031614156138af576138b7565b60010161386c565b92915050565b60008060008060006138d08c8c8a613779565b9093509150886138e6848463ffffffff61380016565b11156138f85760009450889350613a5c565b506040805160e060020a63a9059cbb028152600160a060020a038781166004830152602482018e905291518e9283169163a9059cbb9160448083019260209291908290030181600087803b15801561394f57600080fd5b505af1158015613963573d6000803e3d6000fd5b505050506040513d602081101561397957600080fd5b506139879050878b85613ab5565b89600160a060020a031687600160a060020a03168e600160a060020a03167f283cb6fa1162001048ca5bd8941417dd8ab90564ae0f13157a0e7e72dc896082866040518082815260200191505060405180910390a46139ec838363ffffffff61380016565b92506139fe898463ffffffff613a6c16565b9850613a0a8a8361461b565b85600160a060020a03168d600160a060020a03167fe703149d731074d5f347b6dab59165534cb724f1457da81a84d072123f0110978e6040518082815260200191505060405180910390a38b89945094505b5050509850989650505050505050565b6000613aae83836040805190810160405280601e81526020017f536166654d6174683a207375627472616374696f6e206f766572666c6f770000815250614664565b9392505050565b6000811515613ac357613bdf565b600160a060020a0383161515613b0f57604051600160a060020a0385169083156108fc029084906000818181858888f19350505050158015613b09573d6000803e3d6000fd5b50613b93565b506040805160e060020a63a9059cbb028152600160a060020a038581166004830152602482018490529151849283169163a9059cbb9160448083019260209291908290030181600087803b158015613b6657600080fd5b505af1158015613b7a573d6000803e3d6000fd5b505050506040513d6020811015613b9057600080fd5b50505b82600160a060020a031684600160a060020a03167f8aaaec2388cc390cde69685f78340e15f36d424b6b6b595f549dd883931f9c9b846040518082815260200191505060405180910390a35b50505050565b600160a060020a038082166000908152600a60209081526040808320938616835292905290812090805b8254811015613d445760008382815481101515613c2857fe5b9060005260206000209060030201600201541115613d3c57808214613d35578281815481101515613c5557fe5b60009182526020909120600390910201548354600160a060020a0390911690849084908110613c8057fe5b600091825260209091206003909102018054600160a060020a031916600160a060020a03929092169190911790558254839082908110613cbc57fe5b9060005260206000209060030201600101548383815481101515613cdc57fe5b9060005260206000209060030201600101819055508281815481101515613cff57fe5b9060005260206000209060030201600201548383815481101515613d1f57fe5b9060005260206000209060030201600201819055505b6001909101905b600101613c0f565b82548210156126b95781613d5884826147c1565b505050505050565b6000620f42405a11905090565b6000806000613d8186600201548686613779565b60038801549193509150613d9b838363ffffffff61380016565b1115613daa5760009250613daf565b600192505b50509392505050565b6000613ddf8383815481101515613dcb57fe5b906000526020600020906004020185614701565b83600160a060020a031685600160a060020a031633600160a060020a03167ff909ea91ba4b251f8d7b9dae0c92f46da277b544930819ff71b90cfc2d4934818686815481101515613e2c57fe5b9060005260206000209060040201600201548787815481101515613e4c57fe5b60009182526020918290206003600490920201015460408051938452918301528051918290030190a450600181015b8254811015613fbf578281815481101515613e9257fe5b60009182526020909120600490910201548354600160a060020a0390911690849084908110613ebd57fe5b600091825260209091206004909102018054600160a060020a031916600160a060020a03929092169190911790558254839082908110613ef957fe5b9060005260206000209060040201600101548383815481101515613f1957fe5b9060005260206000209060040201600101819055508281815481101515613f3c57fe5b9060005260206000209060040201600201548383815481101515613f5c57fe5b9060005260206000209060040201600201819055508281815481101515613f7f57fe5b9060005260206000209060040201600301548383815481101515613f9f57fe5b600091825260209091206003600490920201015560019182019101613e7b565b8254613d588460001983016147ed565b600160a060020a038082166000908152600960209081526040808320938616835292905290812090805b82548110156141995761400a613d60565b1515614015576126b9565b6000838281548110151561402557fe5b90600052602060002090600402016002015411156141805780821461417557828181548110151561405257fe5b60009182526020909120600490910201548354600160a060020a039091169084908490811061407d57fe5b600091825260209091206004909102018054600160a060020a031916600160a060020a039290921691909117905582548390829081106140b957fe5b90600052602060002090600402016001015483838154811015156140d957fe5b90600052602060002090600402016001018190555082818154811015156140fc57fe5b906000526020600020906004020160020154838381548110151561411c57fe5b906000526020600020906004020160020181905550828181548110151561413f57fe5b906000526020600020906004020160030154838381548110151561415f57fe5b9060005260206000209060040201600301819055505b600190910190614191565b6141918382815481101515613dcb57fe5b600101613ff9565b82548210156126b95781613d5884826147ed565b600160a060020a038082166000908152600a6020908152604080832093861683529290529081208391805b8254821015614314576141e9613d60565b15156141f457613d58565b6000838381548110151561420457fe5b906000526020600020906003020160020154111561430957828281548110151561422a57fe5b90600052602060002090600302016002015490506000838381548110151561424e57fe5b90600052602060002090600302016002018190555083600160a060020a031663a9059cbb848481548110151561428057fe5b600091825260208083206003909202909101546040805160e060020a63ffffffff8716028152600160a060020a039092166004830152602482018790525160448083019491928390030190829087803b1580156142dc57600080fd5b505af11580156142f0573d6000803e3d6000fd5b505050506040513d602081101561430657600080fd5b50505b6001909101906141d8565b600160a060020a038086166000908152600a60209081526040808320938a168352929052908120613d5891614819565b600160a060020a0380821660009081526009602090815260408083209386168352929052908120905b81548110156143b65761437e613d60565b151561438957613bdf565b6143ae828281548110151561439a57fe5b906000526020600020906004020184614701565b60010161436d565b600160a060020a0380841660009081526009602090815260408083209388168352929052908120613bdf9161483a565b600160a060020a038116151561446c576040805160e560020a62461bcd02815260206004820152602660248201527f4f776e61626c653a206e6577206f776e657220697320746865207a65726f206160448201527f6464726573730000000000000000000000000000000000000000000000000000606482015290519081900360840190fd5b60008054604051600160a060020a03808516939216917f8be0079c531659141344cd1fd0a4f28419497f9722a3daafe3b4186f6b6457e091a360008054600160a060020a031916600160a060020a0392909216919091179055565b6000808315156144da5760009150613861565b508282028284828115156144ea57fe5b041461385d576040805160e560020a62461bcd02815260206004820152602160248201527f536166654d6174683a206d756c7469706c69636174696f6e206f766572666c6f60448201527f7700000000000000000000000000000000000000000000000000000000000000606482015290519081900360840190fd5b6000613aae83836040805190810160405280601a81526020017f536166654d6174683a206469766973696f6e206279207a65726f000000000000815250614731565b815160009081906145bf908463ffffffff6144c716565b90506000846020015160030b13156145f45760208401516145ed90829060030b600a0a63ffffffff6144c716565b905061385d565b602084015161461390829060000360030b600a0a63ffffffff61456616565b949350505050565b600160a060020a038216600090815260026020526040902054614644908263ffffffff61380016565b600160a060020a0390921660009081526002602052604090209190915550565b60008082858511156146f75760405160e560020a62461bcd0281526004018080602001828103825283818151815260200191508051906020019080838360005b838110156146bc5781810151838201526020016146a4565b50505050905090810190601f1680156146e95780820380516001836020036101000a031916815260200191505b509250505060405180910390fd5b5050509103919050565b6000808360030154111561110757506003820180546000909155825461110790600160a060020a03168383613ab5565b600080828185116147875760405160e560020a62461bcd028152600401808060200182810382528381815181526020019150805190602001908083836000838110156146bc5781810151838201526020016146a4565b50838581151561479357fe5b0495945050505050565b8154818355818111156111075760008381526020902061110791810190830161485b565b815481835581811115611107576003028160030283600052602060002091820191016111079190614879565b8154818355818111156111075760040281600402836000526020600020918201910161110791906148ab565b50805460008255600302906000526020600020908101906134809190614879565b508054600082556004029060005260206000209081019061348091906148ab565b610f3791905b808211156148755760008155600101614861565b5090565b610f3791905b80821115614875578054600160a060020a0319168155600060018201819055600282015560030161487f565b610f3791905b80821115614875578054600160a060020a03191681556000600182018190556002820181905560038201556004016148b156006c696769626c650000000000000000000000000000000000000000000000000054686973206f7074696f6e7320746f6b656e20697320696e656c696769626c654f776e61626c653a2063616c6c6572206973206e6f7420746865206f776e65725468697320736574746c656d656e74732063757272656e637920697320696e655468697320636f6e74726163742069732068616c746564000000000000000000a165627a7a7230582095d75925fec32fa3cd93b5e7148b217a62c6b72abcc51fb782826323e6557f6b0029",
  "source": "pragma solidity ^0.4.26;\r\nimport \"./TransactionFee.sol\";\r\nimport \"./ReentrancyGuard.sol\";\r\nimport \"./CompoundOracleInterface.sol\";\r\nimport \"./SafeMath.sol\";\r\nimport \"./IERC20.sol\";\r\nimport \"./IOptionsManager.sol\";\r\ncontract MatchMakingTrading is TransactionFee,ReentrancyGuard {\r\n    using SafeMath for uint256;\r\n    //sell options order defination\r\n    struct SellOptionsOrder {\r\n        address owner;\r\n        uint256 createdTime;\r\n        uint256 amount;\r\n    }\r\n    //pay options order defination\r\n    struct PayOptionsOrder {\r\n        address owner;\r\n        uint256 createdTime;\r\n        uint256 amount;\r\n        uint256 settlementsAmount;\r\n    }\r\n    //_tradingEnd is a deadline of a options token trading. All orders can trade before optionsToken's expiration-tradingEnd. After that time,\r\n    //all Orders will be retrurned back to the owner.\r\n    uint256 private _tradingEnd = 5 hours;\r\n    //options manager interface;\r\n    IOptionsManager private _optionsManager;\r\n    //oracle interface.\r\n    ICompoundOracle private _oracle;\r\n    //mapping settlementCurrency => OptionsToken => OptionsOrder\r\n    mapping(address => mapping(address => PayOptionsOrder[])) public payOrderMap;\r\n    mapping(address => mapping(address => SellOptionsOrder[])) public sellOrderMap;\r\n\r\n    event AddPayOrder(address indexed from,address indexed optionsToken,address indexed settlementCurrency,uint256 amount, uint256 settlementsAmount);\r\n    event AddSellOrder(address indexed from,address indexed optionsToken,address indexed settlementCurrency,uint256 amount);\r\n    event SellOptionsToken(address indexed from,address indexed optionsToken,address indexed settlementCurrency,uint256 optionsPrice,uint256 amount,uint256 payback);\r\n    event BuyOptionsToken(address indexed from,address indexed optionsToken,address indexed settlementCurrency,uint256 optionsPrice,uint256 amount,uint256 totalPay);\r\n    event OrderSellerPayback(address indexed optionsToken,address indexed seller,address indexed settlementCurrency,uint256 payback);\r\n    event OrderBuyerPayback(address indexed optionsToken,address indexed buyer,uint256 amount);\r\n    event ReturnExpiredOrders(address indexed optionsToken);\r\n    event RedeemPayOrder(address indexed from,address indexed optionsToken,address indexed settlementCurrency,uint256 amount, uint256 settlementsAmount);\r\n    event RedeemSellOrder(address indexed from,address indexed optionsToken,address indexed settlementCurrency,uint256 amount);\r\n    //*******************getter***********************\r\n    function getOracleAddress() public view returns(address){\r\n        return address(_oracle);\r\n    }\r\n    function getOptionsManagerAddress() public view returns(address){\r\n        return address(_optionsManager);\r\n    }\r\n    function getTradingEnd() public view returns(uint256){\r\n        return _tradingEnd;\r\n    }\r\n    /**\r\n      * @dev getting all of the pay orders;\r\n      * @param optionsToken options token address\r\n      * @param settlementCurrency the settlement currency address\r\n      * @return owner account, created time, buy amount, settlements deposition.\r\n      */\r\n    function getPayOrderList(address optionsToken,address settlementCurrency) public view returns(address[],uint256[],uint256[],uint256[]){\r\n        PayOptionsOrder[] storage payOrders = payOrderMap[settlementCurrency][optionsToken];\r\n        address[] memory owners = new address[](payOrders.length);\r\n        uint256[] memory times = new uint256[](payOrders.length);\r\n        uint256[] memory amounts = new uint256[](payOrders.length);\r\n        uint256[] memory settlements = new uint256[](payOrders.length);\r\n        for (uint i=0;i<payOrders.length;i++){\r\n            owners[i] = payOrders[i].owner;\r\n            times[i] = payOrders[i].createdTime;\r\n            amounts[i] = payOrders[i].amount;\r\n            settlements[i] = payOrders[i].settlementsAmount;\r\n        }\r\n        return (owners,times,amounts,settlements);\r\n    }\r\n    /**\r\n      * @dev getting all of the sell orders;\r\n      * @param optionsToken options token address\r\n      * @param settlementCurrency the settlement currency address\r\n      * @return owner account, created time, sell amount.\r\n      */\r\n    function getSellOrderList(address optionsToken,address settlementCurrency) public view returns(address[],uint256[],uint256[]){\r\n         SellOptionsOrder[] storage sellOrders = sellOrderMap[settlementCurrency][optionsToken];\r\n        address[] memory owners = new address[](sellOrders.length);\r\n        uint256[] memory times = new uint256[](sellOrders.length);\r\n        uint256[] memory amounts = new uint256[](sellOrders.length);\r\n        for (uint i=0;i<sellOrders.length;i++){\r\n            owners[i] = sellOrders[i].owner;\r\n            times[i] = sellOrders[i].createdTime;\r\n            amounts[i] = sellOrders[i].amount;\r\n        }\r\n        return (owners,times,amounts);\r\n    }\r\n    //*******************setter***********************\r\n    function setOracleAddress(address oracle)public onlyOwner{\r\n        _oracle = ICompoundOracle(oracle);\r\n    }\r\n    function setOptionsManagerAddress(address optionsManager)public onlyOwner{\r\n        _optionsManager = IOptionsManager(optionsManager);\r\n    }\r\n    function setTradingEnd(uint256 tradingEnd) public onlyOwner {\r\n        _tradingEnd = tradingEnd;\r\n    }\r\n    /**\r\n      * @dev add a pay order, if your deposition is insufficient, your order will be disable.\r\n      * @param optionsToken options token address\r\n      * @param settlementCurrency the settlement currency address\r\n      * @param deposit you need to deposit some settlement currency to pay the order.deposit is the amount of settlement currency to pay.\r\n      * @param buyAmount the options token amount you want to buy.\r\n      */\r\n    function addPayOrder(address optionsToken,address settlementCurrency,uint256 deposit,uint256 buyAmount)\r\n         nonReentrant notHalted nonContract public payable{\r\n        require(isEligibleAddress(settlementCurrency),\"This settlements currency is ineligible\");\r\n        require(isEligibleOptionsToken(optionsToken),\"This options token is ineligible\");\r\n        uint256 tokenPrice = _oracle.getSellOptionsPrice(optionsToken);\r\n        uint256 currencyPrice = _oracle.getPrice(settlementCurrency);\r\n        (uint256 optionsPay, uint256 transFee) = _calPayment(buyAmount,tokenPrice,currencyPrice);\r\n        uint256 settlements = deposit;\r\n        if (settlementCurrency == address(0)){\r\n            settlements = msg.value;\r\n        }else{\r\n            IERC20 settlement = IERC20(settlementCurrency);\r\n            settlement.transferFrom(msg.sender,address(this),settlements);           \r\n        }\r\n        require(optionsPay.add(transFee)<=settlements,\"settlements Currency is insufficient!\");\r\n        payOrderMap[settlementCurrency][optionsToken].push(PayOptionsOrder(msg.sender,now,buyAmount,settlements));\r\n        emit AddPayOrder(msg.sender,optionsToken,settlementCurrency,buyAmount,settlements);\r\n    }\r\n    /**\r\n      * @dev add a sell order. The Amount of options token will be transfered into contract address.\r\n      * @param optionsToken options token address\r\n      * @param settlementCurrency the settlement currency address\r\n      * @param amount the options token amount you want to sell.\r\n      */\r\n    function addSellOrder(address optionsToken,address settlementCurrency,uint256 amount)\r\n        nonReentrant notHalted nonContract public {\r\n        require(isEligibleAddress(settlementCurrency),\"This settlements currency is ineligible\");\r\n        require(isEligibleOptionsToken(optionsToken),\"This options token is ineligible\");\r\n        IERC20 ERC20Token = IERC20(optionsToken);\r\n        ERC20Token.transferFrom(msg.sender,address(this),amount);  \r\n        sellOrderMap[settlementCurrency][optionsToken].push(SellOptionsOrder(msg.sender,now,amount));\r\n        emit AddSellOrder(msg.sender,optionsToken,settlementCurrency,amount);\r\n    }\r\n    /**\r\n      * @dev redeem a pay order.redeem the earliest pay order.return back the deposition.\r\n      * @param optionsToken options token address\r\n      * @param settlementCurrency the settlement currency address\r\n      */    \r\n    function redeemPayOrder(address optionsToken,address settlementCurrency)\r\n        nonReentrant notHalted public{\r\n        require(isEligibleAddress(settlementCurrency),\"This settlements currency is ineligible\");\r\n        require(isEligibleOptionsToken(optionsToken),\"This options token is ineligible\");\r\n        PayOptionsOrder[] storage orderList = payOrderMap[settlementCurrency][optionsToken];\r\n        for (uint256 i=0;i<orderList.length;i++){\r\n            if (orderList[i].owner == msg.sender){\r\n                _redeemBuyOrder(optionsToken,settlementCurrency,orderList,i);\r\n                break;\r\n            }\r\n        }\r\n    }\r\n        /**\r\n      * @dev redeem all invalid pay order.redeem all insufficient pay orders.return back the deposition.\r\n      * @param optionsToken options token address\r\n      * @param settlementCurrency the settlement currency address\r\n      */    \r\n    function redeemInvalidPayOrder(address optionsToken,address settlementCurrency)\r\n        nonReentrant notHalted public{\r\n        require(isEligibleAddress(settlementCurrency),\"This settlements currency is ineligible\");\r\n        require(isEligibleOptionsToken(optionsToken),\"This options token is ineligible\");\r\n        uint256 tokenPrice = _oracle.getSellOptionsPrice(optionsToken);\r\n        uint256 currencyPrice = _oracle.getPrice(settlementCurrency);\r\n        PayOptionsOrder[] storage orderList = payOrderMap[settlementCurrency][optionsToken];\r\n        for (uint256 i=0;i<orderList.length;i++){\r\n            if (!gasSufficient()){\r\n                return;\r\n            }\r\n            if (orderList[i].owner == msg.sender){\r\n                if (!_isSufficientSettlements(orderList[i],tokenPrice,currencyPrice)){\r\n                    _redeemBuyOrder(optionsToken,settlementCurrency,orderList,i);\r\n                    i--;\r\n                }\r\n            }\r\n        }\r\n\r\n    }\r\n    /**\r\n      * @dev redeem a sell order.redeem the earliest sell order.return back the options token.\r\n      * @param optionsToken options token address\r\n      * @param settlementCurrency the settlement currency address\r\n      */    \r\n    function redeemSellOrder(address optionsToken,address settlementCurrency)\r\n        nonReentrant notHalted public {\r\n        require(isEligibleAddress(settlementCurrency),\"This settlements currency is ineligible\");\r\n        require(isEligibleOptionsToken(optionsToken),\"This options token is ineligible\");\r\n        SellOptionsOrder[] storage orderList = sellOrderMap[settlementCurrency][optionsToken];\r\n        for (uint256 i=0;i<orderList.length;i++){\r\n            if (orderList[i].owner == msg.sender){\r\n                uint256 tokenAmount = orderList[i].amount;\r\n                if (orderList[i].amount > 0){\r\n                    orderList[i].amount = 0;\r\n                    IERC20 options = IERC20(optionsToken);\r\n                    options.transfer(orderList[i].owner,tokenAmount);\r\n                }\r\n                emit RedeemSellOrder(msg.sender,optionsToken,settlementCurrency,tokenAmount);\r\n                for (uint256 j=i+1;j<orderList.length;j++) {\r\n                    orderList[i].owner = orderList[j].owner;\r\n                    orderList[i].createdTime = orderList[j].createdTime;\r\n                    orderList[i].amount = orderList[j].amount;\r\n                    i++;\r\n                }\r\n                orderList.length--;\r\n                break;\r\n            }\r\n        }\r\n    }\r\n    /**\r\n      * @dev buy amount options token form sell order.\r\n      * @param optionsToken options token address\r\n      * @param amount options token amount you want to buy\r\n      * @param settlementCurrency the settlement currency address\r\n      * @param currencyAmount the settlement currency amount will be payed for\r\n      */     \r\n    function buyOptionsToken(address optionsToken,uint256 amount,address settlementCurrency,uint256 currencyAmount)\r\n        nonReentrant notHalted nonContract public payable {\r\n        uint256 tokenPrice = _oracle.getBuyOptionsPrice(optionsToken);\r\n        uint256 currencyPrice = _oracle.getPrice(settlementCurrency);\r\n        IERC20 settlement = IERC20(settlementCurrency);\r\n        if (settlementCurrency == address (0)) {\r\n            currencyAmount = msg.value;\r\n        }else{\r\n            settlement.transferFrom(msg.sender,address(this),currencyAmount);      \r\n        }\r\n        uint256 totalSetterment = currencyAmount;\r\n        (uint256 allSell,uint256 transFee) = _calPayment(amount,tokenPrice,currencyPrice);\r\n        require(allSell.add(transFee)<=currencyAmount,\"pay value is insufficient!\");\r\n        allSell = 0;//all sell amount\r\n        SellOptionsOrder[] storage orderList = sellOrderMap[settlementCurrency][optionsToken];\r\n        for (uint256 i=0;i<orderList.length;i++) {\r\n            uint256 optionsAmount = amount;\r\n            if (amount > orderList[i].amount) {\r\n                optionsAmount = orderList[i].amount;\r\n            }\r\n            uint256 sellAmount = 0;\r\n            (sellAmount,currencyAmount) = _orderTrading(optionsToken,optionsAmount,tokenPrice,settlementCurrency,currencyAmount,currencyPrice,\r\n                        orderList[i].owner,msg.sender);\r\n            amount = amount.sub(sellAmount);\r\n            allSell = allSell.add(sellAmount);\r\n\r\n            orderList[i].amount = orderList[i].amount.sub(sellAmount);\r\n            if (amount == 0) {\r\n                break;\r\n            }\r\n        }\r\n        _transferPayback(msg.sender,settlementCurrency,currencyAmount);\r\n        totalSetterment = totalSetterment.sub(currencyAmount);\r\n        emit BuyOptionsToken(msg.sender,optionsToken,settlementCurrency,tokenPrice,allSell,totalSetterment);\r\n        _removeEmptySellOrder(optionsToken,settlementCurrency);\r\n    }\r\n    /**\r\n      * @dev sell amount options token to buy order.\r\n      * @param optionsToken options token address\r\n      * @param amount options token amount you want to sell\r\n      * @param settlementCurrency the settlement currency address\r\n      */      \r\n    function sellOptionsToken(address optionsToken,uint256 amount,address settlementCurrency)\r\n        nonReentrant notHalted nonContract public {\r\n        uint256 tokenPrice = _oracle.getSellOptionsPrice(optionsToken);\r\n        uint256 currencyPrice = _oracle.getPrice(settlementCurrency);\r\n        uint256 _totalSell = 0;\r\n        uint256 _totalPayback = 0;\r\n        IERC20 erc20Token = IERC20(optionsToken);\r\n        erc20Token.transferFrom(msg.sender,address(this),amount);\r\n        PayOptionsOrder[] storage orderList = payOrderMap[settlementCurrency][optionsToken];\r\n        for (uint256 i=0;i<orderList.length;i++){\r\n            if (!_isSufficientSettlements(orderList[i],tokenPrice,currencyPrice)){\r\n                continue;\r\n            }\r\n            uint256 optionsAmount = amount;\r\n            if (optionsAmount > orderList[i].amount) {\r\n                optionsAmount = orderList[i].amount;\r\n            }\r\n            (uint256 sellAmount,uint256 leftCurrency) = _orderTrading(optionsToken,optionsAmount,tokenPrice,settlementCurrency,orderList[i].settlementsAmount,currencyPrice,\r\n            msg.sender,orderList[i].owner);\r\n            _totalSell = _totalSell.add(sellAmount);\r\n            amount = amount.sub(sellAmount);  \r\n            orderList[i].amount = orderList[i].amount.sub(sellAmount);\r\n            _totalPayback = _totalPayback.add(orderList[i].settlementsAmount.sub(leftCurrency));\r\n            orderList[i].settlementsAmount = leftCurrency;\r\n            if (amount == 0) {\r\n                break;\r\n            }\r\n        }\r\n        if (amount > 0){\r\n            erc20Token.transfer(msg.sender,amount);\r\n        }\r\n        emit SellOptionsToken(msg.sender,optionsToken,settlementCurrency,tokenPrice,_totalSell,_totalPayback);\r\n        _removeEmptyPayOrder(optionsToken,settlementCurrency);\r\n    }\r\n    /**\r\n      * @dev return back the expired options token orders. Both buy orders and sell orders\r\n      */        \r\n    function returnExpiredOrders()\r\n        nonReentrant notHalted public{\r\n        address[] memory options = _optionsManager.getOptionsTokenList();\r\n        for (uint256 i=0;i<options.length;i++){\r\n            if (!isEligibleOptionsToken(options[i])){\r\n                for (uint j=0;j<whiteList.length;j++){\r\n                    if (!gasSufficient()) {\r\n                        return;\r\n                    }\r\n                    _returnExpiredSellOrders(options[i],whiteList[j]);\r\n                    if (!gasSufficient()) {\r\n                        return;\r\n                    }\r\n                    _returnExpiredPayOrders(options[i],whiteList[j]);\r\n                }\r\n                emit ReturnExpiredOrders(options[i]);\r\n            }\r\n        }\r\n    }\r\n    function gasSufficient()internal returns(bool){\r\n        return gasleft()>1000000;\r\n    }\r\n    function _redeemBuyOrder(address optionToken,address settlementCurrency,PayOptionsOrder[] storage orderList,uint256 i) private {\r\n        _returnPayOrders(orderList[i],settlementCurrency);\r\n        emit RedeemPayOrder(msg.sender,optionToken,settlementCurrency,orderList[i].amount,orderList[i].settlementsAmount);\r\n        for (uint256 j=i+1;j<orderList.length;j++) {\r\n            orderList[i].owner = orderList[j].owner;\r\n            orderList[i].createdTime = orderList[j].createdTime;\r\n            orderList[i].amount = orderList[j].amount;\r\n            orderList[i].settlementsAmount = orderList[j].settlementsAmount;\r\n            i++;\r\n        }\r\n        orderList.length--;\r\n    }\r\n    function _orderTrading(address optionsToken,uint256 amount,uint256 optionsPrice,\r\n            address settlementCurrency,uint256 currencyAmount,uint256 currencyPrice,\r\n            address seller,address buyer) internal returns (uint256,uint256) {\r\n        (uint256 optionsPay,uint256 transFee) = _calPayment(amount,optionsPrice,currencyPrice);\r\n        if (optionsPay.add(transFee)>currencyAmount){\r\n            return (0,currencyAmount);\r\n        }\r\n        IERC20 erc20Token = IERC20(optionsToken);\r\n        erc20Token.transfer(buyer,amount);\r\n        _transferPayback(seller,settlementCurrency,optionsPay); \r\n        emit OrderSellerPayback(optionsToken,seller,settlementCurrency,optionsPay);\r\n        optionsPay = optionsPay.add(transFee);\r\n        currencyAmount = currencyAmount.sub(optionsPay);\r\n        _addTransactionFee(settlementCurrency,transFee);\r\n        emit OrderBuyerPayback(optionsToken,buyer,amount);\r\n        return (amount,currencyAmount);\r\n    }\r\n    function _removeEmptyPayOrder(address optionsToken,address settlementCurrency)internal{\r\n        PayOptionsOrder[] storage orderList = payOrderMap[settlementCurrency][optionsToken];\r\n        uint256 index = 0;\r\n        for (uint i=0;i<orderList.length;i++) {\r\n            if (!gasSufficient()){\r\n                return;\r\n            }\r\n            if (orderList[i].amount > 0) {\r\n                if(i != index) {\r\n                    orderList[index].owner = orderList[i].owner;\r\n                    orderList[index].createdTime = orderList[i].createdTime;\r\n                    orderList[index].amount = orderList[i].amount;\r\n                    orderList[index].settlementsAmount = orderList[i].settlementsAmount;\r\n                }\r\n                index++;\r\n            }else {\r\n                _returnPayOrders(orderList[i],settlementCurrency);\r\n            }\r\n        }\r\n         if (index < orderList.length) {\r\n            orderList.length = index;\r\n        }\r\n\r\n    }\r\n    function _removeEmptySellOrder(address optionsToken,address settlementCurrency)internal{\r\n        SellOptionsOrder[] storage orderList = sellOrderMap[settlementCurrency][optionsToken];\r\n        uint256 index = 0;\r\n        for (uint i=0;i<orderList.length;i++) {\r\n            if (orderList[i].amount > 0) {\r\n                if(i != index) {\r\n                    orderList[index].owner = orderList[i].owner;\r\n                    orderList[index].createdTime = orderList[i].createdTime;\r\n                    orderList[index].amount = orderList[i].amount;\r\n                }\r\n                index++;\r\n            }\r\n        }\r\n        if (index < orderList.length) {\r\n            orderList.length = index;\r\n        }\r\n    }\r\n    function _isSufficientSettlements(PayOptionsOrder storage payOrder,uint256 optionsPrice,uint256 currencyPrice) internal view returns(bool){\r\n        (uint256 allPay,uint256 transFee) = _calPayment(payOrder.amount,optionsPrice,currencyPrice);\r\n        if (allPay.add(transFee) > payOrder.settlementsAmount){\r\n            return false;\r\n        }\r\n        return true;\r\n    }\r\n    function _calPayment(uint256 amount,uint256 optionsPrice,uint256 currencyPrice) internal view returns (uint256,uint256) {\r\n        uint256 allPayment = optionsPrice.mul(amount);\r\n        uint256 optionsPay = allPayment.div(currencyPrice);\r\n        uint256 transFee = _calNumberMulUint(transactionFee,optionsPay);\r\n        optionsPay = optionsPay.sub(transFee);\r\n        transFee = transFee.mul(2);\r\n        return (optionsPay,transFee);\r\n    }\r\n    function _returnExpiredSellOrders(address optionsToken,address settlementCurrency) internal {\r\n        IERC20 options = IERC20(optionsToken);\r\n        SellOptionsOrder[] storage orderList = sellOrderMap[settlementCurrency][optionsToken];\r\n        for (uint i=0;i<orderList.length;i++) {\r\n               if (!gasSufficient()){\r\n                    return;\r\n                }\r\n            if (orderList[i].amount > 0) {\r\n                uint256 tokenAmount = orderList[i].amount;\r\n                orderList[i].amount = 0;\r\n                options.transfer(orderList[i].owner,tokenAmount);\r\n            }\r\n        }\r\n        delete sellOrderMap[settlementCurrency][optionsToken];\r\n    }\r\n    function _returnExpiredPayOrders(address optionsToken,address settlementCurrency) internal{\r\n        PayOptionsOrder[] storage orderList = payOrderMap[settlementCurrency][optionsToken];\r\n        for (uint i=0;i<orderList.length;i++) {\r\n                if (!gasSufficient()) {\r\n                   return;\r\n                }\r\n            _returnPayOrders(orderList[i],settlementCurrency);\r\n        }\r\n        delete payOrderMap[settlementCurrency][optionsToken];\r\n    }\r\n    function _returnPayOrders(PayOptionsOrder storage payOrder,address settlementCurrency) internal {\r\n    if (payOrder.settlementsAmount > 0) {\r\n            uint256 payAmount = payOrder.settlementsAmount;\r\n            payOrder.settlementsAmount = 0;\r\n            _transferPayback(payOrder.owner,settlementCurrency,payAmount); \r\n        }\r\n    }\r\n    function isEligibleOptionsToken(address optionsToken) public view returns(bool) {\r\n        (,,,,uint256 expiration,bool exercised) = _optionsManager.getOptionsTokenInfo(optionsToken);\r\n        uint256 tradingEnd = _tradingEnd.add(now);\r\n        return (expiration > 0 && tradingEnd < expiration && !exercised);\r\n    }\r\n}",
  "sourcePath": "C:\\work\\solidity\\OptionsContract\\contracts\\MatchMakingTrading.sol",
  "compiler": {
    "name": "solc",
    "version": "0.4.26+commit.4563c3fc.Emscripten.clang"
  },
  "schemaVersion": "3.1.0",
  "updatedAt": "2020-07-11T12:27:46.909Z",
  "devdoc": {
    "methods": {
      "addPayOrder(address,address,uint256,uint256)": {
        "details": "add a pay order, if your deposition is insufficient, your order will be disable.\r",
        "params": {
          "buyAmount": "the options token amount you want to buy.\r",
          "deposit": "you need to deposit some settlement currency to pay the order.deposit is the amount of settlement currency to pay.\r",
          "optionsToken": "options token address\r",
          "settlementCurrency": "the settlement currency address\r"
        }
      },
      "addSellOrder(address,address,uint256)": {
        "details": "add a sell order. The Amount of options token will be transfered into contract address.\r",
        "params": {
          "amount": "the options token amount you want to sell.\r",
          "optionsToken": "options token address\r",
          "settlementCurrency": "the settlement currency address\r"
        }
      },
      "addWhiteList(address)": {
        "details": "Implementation of add an eligible address into the whitelist.\r",
        "params": {
          "addAddress": "new eligible address.\r"
        }
      },
      "buyOptionsToken(address,uint256,address,uint256)": {
        "details": "buy amount options token form sell order.\r",
        "params": {
          "amount": "options token amount you want to buy\r",
          "currencyAmount": "the settlement currency amount will be payed for\r",
          "optionsToken": "options token address\r",
          "settlementCurrency": "the settlement currency address\r"
        }
      },
      "getPayOrderList(address,address)": {
        "details": "getting all of the pay orders;\r",
        "params": {
          "optionsToken": "options token address\r",
          "settlementCurrency": "the settlement currency address\r"
        },
        "return": "owner account, created time, buy amount, settlements deposition.\r"
      },
      "getSellOrderList(address,address)": {
        "details": "getting all of the sell orders;\r",
        "params": {
          "optionsToken": "options token address\r",
          "settlementCurrency": "the settlement currency address\r"
        },
        "return": "owner account, created time, sell amount.\r"
      },
      "getTransactionFee()": {
        "details": "Returns the rate of trasaction fee.\r"
      },
      "getWhiteList()": {
        "details": "Implementation of getting the eligible whitelist.\r"
      },
      "isEligibleAddress(address)": {
        "details": "Implementation of testing whether the input address is eligible.\r",
        "params": {
          "tmpAddress": "input address for testing.\r"
        }
      },
      "isOwner()": {
        "details": "Returns true if the caller is the current owner."
      },
      "owner()": {
        "details": "Returns the address of the current owner."
      },
      "redeemInvalidPayOrder(address,address)": {
        "details": "redeem all invalid pay order.redeem all insufficient pay orders.return back the deposition.\r",
        "params": {
          "optionsToken": "options token address\r",
          "settlementCurrency": "the settlement currency address\r"
        }
      },
      "redeemPayOrder(address,address)": {
        "details": "redeem a pay order.redeem the earliest pay order.return back the deposition.\r",
        "params": {
          "optionsToken": "options token address\r",
          "settlementCurrency": "the settlement currency address\r"
        }
      },
      "redeemSellOrder(address,address)": {
        "details": "redeem a sell order.redeem the earliest sell order.return back the options token.\r",
        "params": {
          "optionsToken": "options token address\r",
          "settlementCurrency": "the settlement currency address\r"
        }
      },
      "removeWhiteList(address)": {
        "details": "Implementation of revoke an invalid address from the whitelist.\r",
        "params": {
          "removeAddress": "revoked address.\r"
        }
      },
      "renounceOwnership()": {
        "details": "Leaves the contract without owner. It will not be possible to call `onlyOwner` functions anymore. Can only be called by the current owner.     * NOTE: Renouncing ownership will leave the contract without an owner, thereby removing any functionality that is only available to the owner."
      },
      "returnExpiredOrders()": {
        "details": "return back the expired options token orders. Both buy orders and sell orders\r"
      },
      "sellOptionsToken(address,uint256,address)": {
        "details": "sell amount options token to buy order.\r",
        "params": {
          "amount": "options token amount you want to sell\r",
          "optionsToken": "options token address\r",
          "settlementCurrency": "the settlement currency address\r"
        }
      },
      "setTransactionFee(uint256,int32)": {
        "details": "set the rate of trasaction fee.\r",
        "params": {
          "exponent": "the exponent figures of transaction fee.\r transaction fee = Number(value,exponent);\r",
          "value": "the significant figures of transaction fee .\r"
        }
      },
      "transferOwnership(address)": {
        "details": "Transfers ownership of the contract to a new account (`newOwner`). Can only be called by the current owner."
      }
    }
  },
  "userdoc": {
    "methods": {
      "setHalt(bool)": {
        "notice": "function Emergency situation that requires contribution period to stop or not."
      }
    }
  }
}