{
  "contractName": "MatchMakingTrading",
  "abi": [
    {
      "constant": true,
      "inputs": [],
      "name": "getWhiteList",
      "outputs": [
        {
          "name": "",
          "type": "address[]"
        }
      ],
      "payable": false,
      "stateMutability": "view",
      "type": "function"
    },
    {
      "constant": false,
      "inputs": [
        {
          "name": "removeAddress",
          "type": "address"
        }
      ],
      "name": "removeWhiteList",
      "outputs": [],
      "payable": false,
      "stateMutability": "nonpayable",
      "type": "function"
    },
    {
      "constant": false,
      "inputs": [],
      "name": "redeemAll",
      "outputs": [],
      "payable": false,
      "stateMutability": "nonpayable",
      "type": "function"
    },
    {
      "constant": true,
      "inputs": [
        {
          "name": "",
          "type": "address"
        },
        {
          "name": "",
          "type": "address"
        },
        {
          "name": "",
          "type": "uint256"
        }
      ],
      "name": "payOrderMap",
      "outputs": [
        {
          "name": "owner",
          "type": "address"
        },
        {
          "name": "createdTime",
          "type": "uint256"
        },
        {
          "name": "amount",
          "type": "uint256"
        },
        {
          "name": "settlementsAmount",
          "type": "uint256"
        }
      ],
      "payable": false,
      "stateMutability": "view",
      "type": "function"
    },
    {
      "constant": true,
      "inputs": [
        {
          "name": "",
          "type": "uint256"
        }
      ],
      "name": "whiteList",
      "outputs": [
        {
          "name": "",
          "type": "address"
        }
      ],
      "payable": false,
      "stateMutability": "view",
      "type": "function"
    },
    {
      "constant": false,
      "inputs": [],
      "name": "renounceOwnership",
      "outputs": [],
      "payable": false,
      "stateMutability": "nonpayable",
      "type": "function"
    },
    {
      "constant": true,
      "inputs": [
        {
          "name": "tmpAddress",
          "type": "address"
        }
      ],
      "name": "isEligibleAddress",
      "outputs": [
        {
          "name": "",
          "type": "bool"
        }
      ],
      "payable": false,
      "stateMutability": "view",
      "type": "function"
    },
    {
      "constant": true,
      "inputs": [],
      "name": "getTransactionFee",
      "outputs": [
        {
          "name": "",
          "type": "uint256"
        },
        {
          "name": "",
          "type": "int32"
        }
      ],
      "payable": false,
      "stateMutability": "view",
      "type": "function"
    },
    {
      "constant": true,
      "inputs": [],
      "name": "owner",
      "outputs": [
        {
          "name": "",
          "type": "address"
        }
      ],
      "payable": false,
      "stateMutability": "view",
      "type": "function"
    },
    {
      "constant": true,
      "inputs": [],
      "name": "isOwner",
      "outputs": [
        {
          "name": "",
          "type": "bool"
        }
      ],
      "payable": false,
      "stateMutability": "view",
      "type": "function"
    },
    {
      "constant": false,
      "inputs": [
        {
          "name": "currency",
          "type": "address"
        }
      ],
      "name": "redeem",
      "outputs": [],
      "payable": false,
      "stateMutability": "nonpayable",
      "type": "function"
    },
    {
      "constant": true,
      "inputs": [
        {
          "name": "",
          "type": "address"
        }
      ],
      "name": "managerFee",
      "outputs": [
        {
          "name": "",
          "type": "uint256"
        }
      ],
      "payable": false,
      "stateMutability": "view",
      "type": "function"
    },
    {
      "constant": true,
      "inputs": [],
      "name": "transactionFee",
      "outputs": [
        {
          "name": "value",
          "type": "uint256"
        },
        {
          "name": "exponent",
          "type": "int32"
        }
      ],
      "payable": false,
      "stateMutability": "view",
      "type": "function"
    },
    {
      "constant": true,
      "inputs": [],
      "name": "halted",
      "outputs": [
        {
          "name": "",
          "type": "bool"
        }
      ],
      "payable": false,
      "stateMutability": "view",
      "type": "function"
    },
    {
      "constant": true,
      "inputs": [
        {
          "name": "",
          "type": "address"
        },
        {
          "name": "",
          "type": "address"
        },
        {
          "name": "",
          "type": "uint256"
        }
      ],
      "name": "sellOrderMap",
      "outputs": [
        {
          "name": "owner",
          "type": "address"
        },
        {
          "name": "createdTime",
          "type": "uint256"
        },
        {
          "name": "amount",
          "type": "uint256"
        }
      ],
      "payable": false,
      "stateMutability": "view",
      "type": "function"
    },
    {
      "constant": true,
      "inputs": [
        {
          "name": "settlement",
          "type": "address"
        }
      ],
      "name": "getFeeBalance",
      "outputs": [
        {
          "name": "",
          "type": "uint256"
        }
      ],
      "payable": false,
      "stateMutability": "view",
      "type": "function"
    },
    {
      "constant": false,
      "inputs": [
        {
          "name": "value",
          "type": "uint256"
        },
        {
          "name": "exponent",
          "type": "int32"
        }
      ],
      "name": "setTransactionFee",
      "outputs": [],
      "payable": false,
      "stateMutability": "nonpayable",
      "type": "function"
    },
    {
      "constant": false,
      "inputs": [
        {
          "name": "addAddress",
          "type": "address"
        }
      ],
      "name": "addWhiteList",
      "outputs": [],
      "payable": false,
      "stateMutability": "nonpayable",
      "type": "function"
    },
    {
      "constant": true,
      "inputs": [],
      "name": "getAllFeeBalances",
      "outputs": [
        {
          "name": "",
          "type": "address[]"
        },
        {
          "name": "",
          "type": "uint256[]"
        }
      ],
      "payable": false,
      "stateMutability": "view",
      "type": "function"
    },
    {
      "constant": false,
      "inputs": [
        {
          "name": "newOwner",
          "type": "address"
        }
      ],
      "name": "transferOwnership",
      "outputs": [],
      "payable": false,
      "stateMutability": "nonpayable",
      "type": "function"
    },
    {
      "constant": false,
      "inputs": [
        {
          "name": "halt",
          "type": "bool"
        }
      ],
      "name": "setHalt",
      "outputs": [],
      "payable": false,
      "stateMutability": "nonpayable",
      "type": "function"
    },
    {
      "anonymous": false,
      "inputs": [
        {
          "indexed": true,
          "name": "from",
          "type": "address"
        },
        {
          "indexed": true,
          "name": "optionsToken",
          "type": "address"
        },
        {
          "indexed": true,
          "name": "settlementCurrency",
          "type": "address"
        },
        {
          "indexed": false,
          "name": "amount",
          "type": "uint256"
        },
        {
          "indexed": false,
          "name": "settlementsAmount",
          "type": "uint256"
        }
      ],
      "name": "AddPayOrder",
      "type": "event"
    },
    {
      "anonymous": false,
      "inputs": [
        {
          "indexed": true,
          "name": "from",
          "type": "address"
        },
        {
          "indexed": true,
          "name": "optionsToken",
          "type": "address"
        },
        {
          "indexed": true,
          "name": "settlementCurrency",
          "type": "address"
        },
        {
          "indexed": false,
          "name": "amount",
          "type": "uint256"
        }
      ],
      "name": "AddSellOrder",
      "type": "event"
    },
    {
      "anonymous": false,
      "inputs": [
        {
          "indexed": true,
          "name": "from",
          "type": "address"
        },
        {
          "indexed": true,
          "name": "optionsToken",
          "type": "address"
        },
        {
          "indexed": true,
          "name": "settlementCurrency",
          "type": "address"
        },
        {
          "indexed": false,
          "name": "optionsPrice",
          "type": "uint256"
        },
        {
          "indexed": false,
          "name": "amount",
          "type": "uint256"
        },
        {
          "indexed": false,
          "name": "payback",
          "type": "uint256"
        }
      ],
      "name": "SellOptionsToken",
      "type": "event"
    },
    {
      "anonymous": false,
      "inputs": [
        {
          "indexed": true,
          "name": "from",
          "type": "address"
        },
        {
          "indexed": true,
          "name": "optionsToken",
          "type": "address"
        },
        {
          "indexed": true,
          "name": "settlementCurrency",
          "type": "address"
        },
        {
          "indexed": false,
          "name": "optionsPrice",
          "type": "uint256"
        },
        {
          "indexed": false,
          "name": "amount",
          "type": "uint256"
        },
        {
          "indexed": false,
          "name": "totalPay",
          "type": "uint256"
        }
      ],
      "name": "BuyOptionsToken",
      "type": "event"
    },
    {
      "anonymous": false,
      "inputs": [
        {
          "indexed": true,
          "name": "optionsToken",
          "type": "address"
        },
        {
          "indexed": true,
          "name": "seller",
          "type": "address"
        },
        {
          "indexed": true,
          "name": "settlementCurrency",
          "type": "address"
        },
        {
          "indexed": false,
          "name": "payback",
          "type": "uint256"
        }
      ],
      "name": "OrderSellerPayback",
      "type": "event"
    },
    {
      "anonymous": false,
      "inputs": [
        {
          "indexed": true,
          "name": "optionsToken",
          "type": "address"
        },
        {
          "indexed": true,
          "name": "buyer",
          "type": "address"
        },
        {
          "indexed": false,
          "name": "amount",
          "type": "uint256"
        }
      ],
      "name": "OrderBuyerPayback",
      "type": "event"
    },
    {
      "anonymous": false,
      "inputs": [
        {
          "indexed": true,
          "name": "optionsToken",
          "type": "address"
        }
      ],
      "name": "ReturnExpiredOrders",
      "type": "event"
    },
    {
      "anonymous": false,
      "inputs": [
        {
          "indexed": true,
          "name": "from",
          "type": "address"
        },
        {
          "indexed": true,
          "name": "optionsToken",
          "type": "address"
        },
        {
          "indexed": true,
          "name": "settlementCurrency",
          "type": "address"
        },
        {
          "indexed": false,
          "name": "amount",
          "type": "uint256"
        },
        {
          "indexed": false,
          "name": "settlementsAmount",
          "type": "uint256"
        }
      ],
      "name": "RedeemPayOrder",
      "type": "event"
    },
    {
      "anonymous": false,
      "inputs": [
        {
          "indexed": true,
          "name": "from",
          "type": "address"
        },
        {
          "indexed": true,
          "name": "optionsToken",
          "type": "address"
        },
        {
          "indexed": true,
          "name": "settlementCurrency",
          "type": "address"
        },
        {
          "indexed": false,
          "name": "amount",
          "type": "uint256"
        }
      ],
      "name": "RedeemSellOrder",
      "type": "event"
    },
    {
      "anonymous": false,
      "inputs": [
        {
          "indexed": true,
          "name": "recieptor",
          "type": "address"
        },
        {
          "indexed": true,
          "name": "collateral",
          "type": "address"
        },
        {
          "indexed": false,
          "name": "payback",
          "type": "uint256"
        }
      ],
      "name": "TransferPayback",
      "type": "event"
    },
    {
      "anonymous": false,
      "inputs": [
        {
          "indexed": true,
          "name": "previousOwner",
          "type": "address"
        },
        {
          "indexed": true,
          "name": "newOwner",
          "type": "address"
        }
      ],
      "name": "OwnershipTransferred",
      "type": "event"
    },
    {
      "constant": true,
      "inputs": [],
      "name": "getOracleAddress",
      "outputs": [
        {
          "name": "",
          "type": "address"
        }
      ],
      "payable": false,
      "stateMutability": "view",
      "type": "function"
    },
    {
      "constant": true,
      "inputs": [],
      "name": "getOptionsManagerAddress",
      "outputs": [
        {
          "name": "",
          "type": "address"
        }
      ],
      "payable": false,
      "stateMutability": "view",
      "type": "function"
    },
    {
      "constant": true,
      "inputs": [],
      "name": "getTradingEnd",
      "outputs": [
        {
          "name": "",
          "type": "uint256"
        }
      ],
      "payable": false,
      "stateMutability": "view",
      "type": "function"
    },
    {
      "constant": true,
      "inputs": [
        {
          "name": "optionsToken",
          "type": "address"
        },
        {
          "name": "settlementCurrency",
          "type": "address"
        }
      ],
      "name": "getPayOrderList",
      "outputs": [
        {
          "name": "",
          "type": "address[]"
        },
        {
          "name": "",
          "type": "uint256[]"
        },
        {
          "name": "",
          "type": "uint256[]"
        },
        {
          "name": "",
          "type": "uint256[]"
        }
      ],
      "payable": false,
      "stateMutability": "view",
      "type": "function"
    },
    {
      "constant": true,
      "inputs": [
        {
          "name": "optionsToken",
          "type": "address"
        },
        {
          "name": "settlementCurrency",
          "type": "address"
        }
      ],
      "name": "getSellOrderList",
      "outputs": [
        {
          "name": "",
          "type": "address[]"
        },
        {
          "name": "",
          "type": "uint256[]"
        },
        {
          "name": "",
          "type": "uint256[]"
        }
      ],
      "payable": false,
      "stateMutability": "view",
      "type": "function"
    },
    {
      "constant": false,
      "inputs": [
        {
          "name": "oracle",
          "type": "address"
        }
      ],
      "name": "setOracleAddress",
      "outputs": [],
      "payable": false,
      "stateMutability": "nonpayable",
      "type": "function"
    },
    {
      "constant": false,
      "inputs": [
        {
          "name": "optionsManager",
          "type": "address"
        }
      ],
      "name": "setOptionsManagerAddress",
      "outputs": [],
      "payable": false,
      "stateMutability": "nonpayable",
      "type": "function"
    },
    {
      "constant": false,
      "inputs": [
        {
          "name": "tradingEnd",
          "type": "uint256"
        }
      ],
      "name": "setTradingEnd",
      "outputs": [],
      "payable": false,
      "stateMutability": "nonpayable",
      "type": "function"
    },
    {
      "constant": false,
      "inputs": [
        {
          "name": "optionsToken",
          "type": "address"
        },
        {
          "name": "settlementCurrency",
          "type": "address"
        },
        {
          "name": "deposit",
          "type": "uint256"
        },
        {
          "name": "buyAmount",
          "type": "uint256"
        }
      ],
      "name": "addPayOrder",
      "outputs": [],
      "payable": true,
      "stateMutability": "payable",
      "type": "function"
    },
    {
      "constant": false,
      "inputs": [
        {
          "name": "optionsToken",
          "type": "address"
        },
        {
          "name": "settlementCurrency",
          "type": "address"
        },
        {
          "name": "amount",
          "type": "uint256"
        }
      ],
      "name": "addSellOrder",
      "outputs": [],
      "payable": false,
      "stateMutability": "nonpayable",
      "type": "function"
    },
    {
      "constant": false,
      "inputs": [
        {
          "name": "optionsToken",
          "type": "address"
        },
        {
          "name": "settlementCurrency",
          "type": "address"
        }
      ],
      "name": "redeemPayOrder",
      "outputs": [],
      "payable": false,
      "stateMutability": "nonpayable",
      "type": "function"
    },
    {
      "constant": false,
      "inputs": [
        {
          "name": "optionsToken",
          "type": "address"
        },
        {
          "name": "settlementCurrency",
          "type": "address"
        }
      ],
      "name": "redeemInvalidPayOrder",
      "outputs": [],
      "payable": false,
      "stateMutability": "nonpayable",
      "type": "function"
    },
    {
      "constant": false,
      "inputs": [
        {
          "name": "optionsToken",
          "type": "address"
        },
        {
          "name": "settlementCurrency",
          "type": "address"
        }
      ],
      "name": "redeemSellOrder",
      "outputs": [],
      "payable": false,
      "stateMutability": "nonpayable",
      "type": "function"
    },
    {
      "constant": false,
      "inputs": [
        {
          "name": "optionsToken",
          "type": "address"
        },
        {
          "name": "amount",
          "type": "uint256"
        },
        {
          "name": "settlementCurrency",
          "type": "address"
        },
        {
          "name": "currencyAmount",
          "type": "uint256"
        }
      ],
      "name": "buyOptionsToken",
      "outputs": [],
      "payable": true,
      "stateMutability": "payable",
      "type": "function"
    },
    {
      "constant": false,
      "inputs": [
        {
          "name": "optionsToken",
          "type": "address"
        },
        {
          "name": "amount",
          "type": "uint256"
        },
        {
          "name": "settlementCurrency",
          "type": "address"
        }
      ],
      "name": "sellOptionsToken",
      "outputs": [],
      "payable": false,
      "stateMutability": "nonpayable",
      "type": "function"
    },
    {
      "constant": false,
      "inputs": [],
      "name": "returnExpiredOrders",
      "outputs": [],
      "payable": false,
      "stateMutability": "nonpayable",
      "type": "function"
    },
    {
      "constant": true,
      "inputs": [
        {
          "name": "optionsToken",
          "type": "address"
        }
      ],
      "name": "isEligibleOptionsToken",
      "outputs": [
        {
          "name": "",
          "type": "bool"
        }
      ],
      "payable": false,
      "stateMutability": "view",
      "type": "function"
    }
  ],
  "bytecode": "0x6000805460c060408190526003608081905260021960a05280556004805463fffffffd63ffffffff199091161790556005805460ff19169055614650600655600160a860020a03199091163317808355600160a060020a031691907f8be0079c531659141344cd1fd0a4f28419497f9722a3daafe3b4186f6b6457e0908290a36149018061008e6000396000f3006080604052600436106101be5763ffffffff60e060020a60003504166302d397de81146101c357806309a9d76c146101e557806309c2f4621461024a5780632042e5c21461027f578063247f6fd8146102a05780632f4350c2146103ea578063434c0bc8146103ff5780634c69c00f14610430578063516ee76a1461045157806355cbfef1146104725780635c475d42146104cc578063715018a6146104e45780637ca4c5d9146104f9578063817bf86d1461051a57806385d791021461053b57806386dfc7ec1461056e5780638da5cb5b146105955780638f32d59b146105aa5780639195c3d0146105bf57806395a2251f146105ea578063964072ec1461060b5780639965a4d5146106325780639ed3edf014610653578063b18b78dd14610668578063b9b8af0b1461067d578063be1d869614610692578063c2dc0b47146106e4578063c78f68031461070b578063c820f6ca1461072c578063cb80bc5d14610753578063cdc3280214610768578063d6b637e81461086d578063e4a9d2be14610885578063e7cd4a04146108a3578063f20568cd146108c4578063f2fde38b14610972578063f495438714610993578063faf0a434146109ad575b600080fd5b6101e3600160a060020a03600435811690602435166044356064356109d7565b005b3480156101f157600080fd5b506101fa610ecb565b60408051602080825283518183015283519192839290830191858101910280838360005b8381101561023657818101518382015260200161021e565b505050509050019250505060405180910390f35b34801561025657600080fd5b5061026b600160a060020a0360043516610f2e565b604080519115158252519081900360200190f35b34801561028b57600080fd5b506101e3600160a060020a0360043516611010565b3480156102ac57600080fd5b506102c7600160a060020a0360043581169060243516611101565b6040518080602001806020018060200180602001858103855289818151815260200191508051906020019060200280838360005b838110156103135781810151838201526020016102fb565b50505050905001858103845288818151815260200191508051906020019060200280838360005b8381101561035257818101518382015260200161033a565b50505050905001858103835287818151815260200191508051906020019060200280838360005b83811015610391578181015183820152602001610379565b50505050905001858103825286818151815260200191508051906020019060200280838360005b838110156103d05781810151838201526020016103b8565b505050509050019850505050505050505060405180910390f35b3480156103f657600080fd5b506101e3611311565b34801561040b57600080fd5b506104146114f9565b60408051600160a060020a039092168252519081900360200190f35b34801561043c57600080fd5b506101e3600160a060020a0360043516611508565b6101e3600160a060020a036004358116906024359060443516606435611576565b34801561047e57600080fd5b5061049c600160a060020a0360043581169060243516604435611a80565b60408051600160a060020a0390951685526020850193909352838301919091526060830152519081900360800190f35b3480156104d857600080fd5b50610414600435611ade565b3480156104f057600080fd5b506101e3611b06565b34801561050557600080fd5b506101e3600160a060020a0360043516611b9c565b34801561052657600080fd5b5061026b600160a060020a0360043516611c0a565b34801561054757600080fd5b50610550611c21565b60408051928352600391820b90910b60208301528051918290030190f35b34801561057a57600080fd5b506101e3600160a060020a0360043581169060243516611c2f565b3480156105a157600080fd5b50610414611f3d565b3480156105b657600080fd5b5061026b611f4c565b3480156105cb57600080fd5b506101e3600160a060020a036004358116906024359060443516611f5d565b3480156105f657600080fd5b506101e3600160a060020a03600435166124f0565b34801561061757600080fd5b50610620612689565b60408051918252519081900360200190f35b34801561063e57600080fd5b50610620600160a060020a036004351661268f565b34801561065f57600080fd5b506105506126a1565b34801561067457600080fd5b506104146126ae565b34801561068957600080fd5b5061026b6126bd565b34801561069e57600080fd5b506106bc600160a060020a03600435811690602435166044356126cd565b60408051600160a060020a039094168452602084019290925282820152519081900360600190f35b3480156106f057600080fd5b506101e3600160a060020a0360043581169060243516612726565b34801561071757600080fd5b50610620600160a060020a03600435166128d3565b34801561073857600080fd5b506101e3600160a060020a03600435811690602435166128ee565b34801561075f57600080fd5b506101e3612d21565b34801561077457600080fd5b5061078f600160a060020a0360043581169060243516612fb0565b60405180806020018060200180602001848103845287818151815260200191508051906020019060200280838360005b838110156107d75781810151838201526020016107bf565b50505050905001848103835286818151815260200191508051906020019060200280838360005b838110156108165781810151838201526020016107fe565b50505050905001848103825285818151815260200191508051906020019060200280838360005b8381101561085557818101518382015260200161083d565b50505050905001965050505050505060405180910390f35b34801561087957600080fd5b506101e3600435613153565b34801561089157600080fd5b506101e360043560243560030b6131a4565b3480156108af57600080fd5b506101e3600160a060020a0360043516613211565b3480156108d057600080fd5b506108d96132c5565b604051808060200180602001838103835285818151815260200191508051906020019060200280838360005b8381101561091d578181015183820152602001610905565b50505050905001838103825284818151815260200191508051906020019060200280838360005b8381101561095c578181015183820152602001610944565b5050505090500194505050505060405180910390f35b34801561097e57600080fd5b506101e3600160a060020a03600435166133ce565b34801561099f57600080fd5b506101e36004351515613426565b3480156109b957600080fd5b506101e3600160a060020a03600435811690602435166044356134a1565b6005546000908190819081908190819060ff16156109f457600080fd5b6005805460ff1916600117905560005460a060020a900460ff1615610a51576040805160e560020a62461bcd02815260206004820152601760248201526000805160206148b6833981519152604482015290519081900360640190fd5b610a5a89611c0a565b1515610ab2576040805160e560020a62461bcd02815260206004820152602760248201526000805160206148968339815191526044820152600080516020614836833981519152606482015290519081900360840190fd5b610abb8a610f2e565b1515610aff576040805160e560020a62461bcd0281526020600482018190526024820152600080516020614856833981519152604482015290519081900360640190fd5b600854604080517fcd75e52c000000000000000000000000000000000000000000000000000000008152600160a060020a038d811660048301529151919092169163cd75e52c9160248083019260209291908290030181600087803b158015610b6757600080fd5b505af1158015610b7b573d6000803e3d6000fd5b505050506040513d6020811015610b9157600080fd5b5051600854604080517f41976e09000000000000000000000000000000000000000000000000000000008152600160a060020a038d8116600483015291519399509116916341976e09916024808201926020929091908290030181600087803b158015610bfd57600080fd5b505af1158015610c11573d6000803e3d6000fd5b505050506040513d6020811015610c2757600080fd5b50519450610c36878787613710565b9094509250879150600160a060020a0389161515610c5657349150610cdf565b506040805160e060020a6323b872dd0281523360048201523060248201526044810183905290518991600160a060020a038316916323b872dd916064808201926020929091908290030181600087803b158015610cb257600080fd5b505af1158015610cc6573d6000803e3d6000fd5b505050506040513d6020811015610cdc57600080fd5b50505b81610cf0858563ffffffff61379716565b1115610d6c576040805160e560020a62461bcd02815260206004820152602560248201527f736574746c656d656e74732043757272656e637920697320696e73756666696360448201527f69656e7421000000000000000000000000000000000000000000000000000000606482015290519081900360840190fd5b600960008a600160a060020a0316600160a060020a0316815260200190815260200160002060008b600160a060020a0316600160a060020a0316815260200190815260200160002060806040519081016040528033600160a060020a03168152602001428152602001898152602001848152509080600181540180825580915050906001820390600052602060002090600402016000909192909190915060008201518160000160006101000a815481600160a060020a030219169083600160a060020a0316021790555060208201518160010155604082015181600201556060820151816003015550505088600160a060020a03168a600160a060020a031633600160a060020a03167f037427bc6ff89c0b05db989a67a82996bd2c2b2d27462fb590d8e4b4ffddc43c8a86604051808381526020018281526020019250505060405180910390a450506005805460ff191690555050505050505050565b60606001805480602002602001604051908101604052809291908181526020018280548015610f2357602002820191906000526020600020905b8154600160a060020a03168152600190910190602001808311610f05575b505050505090505b90565b600754604080517f3c03c859000000000000000000000000000000000000000000000000000000008152600160a060020a03848116600483015291516000938493849384939190921691633c03c8599160248083019260c092919082900301818787803b158015610f9e57600080fd5b505af1158015610fb2573d6000803e3d6000fd5b505050506040513d60c0811015610fc857600080fd5b50608081015160a0909101516006549194509250610fec904263ffffffff61379716565b9050600083118015610ffd57508281105b8015611007575081155b95945050505050565b600061101a611f4c565b151561105e576040805160e560020a62461bcd0281526020600482018190526024820152600080516020614876833981519152604482015290519081900360640190fd5b611067826137ff565b6001549091508110156110fd576001546000190181146110e85760018054600019810190811061109357fe5b60009182526020909120015460018054600160a060020a0390921691839081106110b957fe5b9060005260206000200160006101000a815481600160a060020a030219169083600160a060020a031602179055505b60018054906110fb9060001983016146ee565b505b5050565b600160a060020a038082166000908152600960209081526040808320938616835292815282822080548451818152818402810190930190945260609384938493849392849283928392839291908015611164578160200160208202803883390190505b5086546040805182815260208084028201019091529196508015611192578160200160208202803883390190505b50865460408051828152602080840282010190915291955080156111c0578160200160208202803883390190505b50865460408051828152602080840282010190915291945080156111ee578160200160208202803883390190505b509150600090505b85548110156112ff57858181548110151561120d57fe5b60009182526020909120600490910201548551600160a060020a039091169086908390811061123857fe5b600160a060020a03909216602092830290910190910152855486908290811061125d57fe5b906000526020600020906004020160010154848281518110151561127d57fe5b60209081029091010152855486908290811061129557fe5b90600052602060002090600402016002015483828151811015156112b557fe5b6020908102909101015285548690829081106112cd57fe5b90600052602060002090600402016003015482828151811015156112ed57fe5b602090810290910101526001016111f6565b50929a91995097509095509350505050565b600080600061131e611f4c565b1515611362576040805160e560020a62461bcd0281526020600482018190526024820152600080516020614876833981519152604482015290519081900360640190fd5b600092505b6001548310156110fb576002600060018581548110151561138457fe5b6000918252602080832090910154600160a060020a0316835282019290925260400181205492508211156114ee576000600260006001868154811015156113c757fe5b6000918252602080832090910154600160a060020a0316835282019290925260400190205560018054849081106113fa57fe5b600091825260208220015460018054600160a060020a039092169350908590811061142157fe5b600091825260209091200154600160a060020a0316141561146f57604051339083156108fc029084906000818181858888f19350505050158015611469573d6000803e3d6000fd5b506114ee565b6040805160e060020a63a9059cbb028152336004820152602481018490529051600160a060020a0383169163a9059cbb9160448083019260209291908290030181600087803b1580156114c157600080fd5b505af11580156114d5573d6000803e3d6000fd5b505050506040513d60208110156114eb57600080fd5b50505b600190920191611367565b600754600160a060020a031690565b611510611f4c565b1515611554576040805160e560020a62461bcd0281526020600482018190526024820152600080516020614876833981519152604482015290519081900360640190fd5b60088054600160a060020a031916600160a060020a0392909216919091179055565b600080600080600080600080600080600560009054906101000a900460ff161515156115a157600080fd5b6005805460ff1916600117905560005460a060020a900460ff16156115fe576040805160e560020a62461bcd02815260206004820152601760248201526000805160206148b6833981519152604482015290519081900360640190fd5b600860009054906101000a9004600160a060020a0316600160a060020a0316638618b1d88f6040518263ffffffff1660e060020a0281526004018082600160a060020a0316600160a060020a03168152602001915050602060405180830381600087803b15801561166e57600080fd5b505af1158015611682573d6000803e3d6000fd5b505050506040513d602081101561169857600080fd5b81019080805190602001909291905050509950600860009054906101000a9004600160a060020a0316600160a060020a03166341976e098d6040518263ffffffff1660e060020a0281526004018082600160a060020a0316600160a060020a03168152602001915050602060405180830381600087803b15801561171b57600080fd5b505af115801561172f573d6000803e3d6000fd5b505050506040513d602081101561174557600080fd5b505198508b9750600160a060020a038816151561176457349a506117e9565b6040805160e060020a6323b872dd028152336004820152306024820152604481018d90529051600160a060020a038a16916323b872dd9160648083019260209291908290030181600087803b1580156117bc57600080fd5b505af11580156117d0573d6000803e3d6000fd5b505050506040513d60208110156117e657600080fd5b50505b8a96506117f78d8b8b613710565b90965094508a61180d878763ffffffff61379716565b1115611863576040805160e560020a62461bcd02815260206004820152601a60248201527f7061792076616c756520697320696e73756666696369656e7421000000000000604482015290519081900360640190fd5b60009550600a60008d600160a060020a0316600160a060020a0316815260200190815260200160002060008f600160a060020a0316600160a060020a031681526020019081526020016000209350600092505b83548310156119da578c915083838154811015156118d057fe5b9060005260206000209060030201600201548d111561190c5783838154811015156118f757fe5b90600052602060002090600302016002015491505b600090506119478e838c8f8f8e8a8a81548110151561192757fe5b6000918252602090912060039091020154600160a060020a031633613854565b9b50905061195b8d8263ffffffff613a0316565b9c5061196d868263ffffffff61379716565b95506119a181858581548110151561198157fe5b906000526020600020906003020160020154613a0390919063ffffffff16565b84848154811015156119af57fe5b60009182526020909120600260039092020101558c15156119cf576119da565b6001909201916118b6565b6119e5338d8d613a4c565b6119f5878c63ffffffff613a0316565b96508b600160a060020a03168e600160a060020a031633600160a060020a03167fca45987595452a24bcc9ad1624fee85d0ca172b26efc024798496a569c06450a8d8a8c60405180848152602001838152602001828152602001935050505060405180910390a4611a668e8d613b7c565b50506005805460ff19169055505050505050505050505050565b600960205282600052604060002060205281600052604060002081815481101515611aa757fe5b60009182526020909120600490910201805460018201546002830154600390930154600160a060020a039092169550935090915084565b6001805482908110611aec57fe5b600091825260209091200154600160a060020a0316905081565b611b0e611f4c565b1515611b52576040805160e560020a62461bcd0281526020600482018190526024820152600080516020614876833981519152604482015290519081900360640190fd5b60008054604051600160a060020a03909116907f8be0079c531659141344cd1fd0a4f28419497f9722a3daafe3b4186f6b6457e0908390a360008054600160a060020a0319169055565b611ba4611f4c565b1515611be8576040805160e560020a62461bcd0281526020600482018190526024820152600080516020614876833981519152604482015290519081900360640190fd5b60078054600160a060020a031916600160a060020a0392909216919091179055565b600080611c16836137ff565b600154119392505050565b6003805460045490910b9091565b60055460009081908190819060ff1615611c4857600080fd5b6005805460ff1916600117905560005460a060020a900460ff1615611ca5576040805160e560020a62461bcd02815260206004820152601760248201526000805160206148b6833981519152604482015290519081900360640190fd5b611cae85611c0a565b1515611d06576040805160e560020a62461bcd02815260206004820152602760248201526000805160206148968339815191526044820152600080516020614836833981519152606482015290519081900360840190fd5b611d0f86610f2e565b1515611d53576040805160e560020a62461bcd0281526020600482018190526024820152600080516020614856833981519152604482015290519081900360640190fd5b600854604080517fcd75e52c000000000000000000000000000000000000000000000000000000008152600160a060020a0389811660048301529151919092169163cd75e52c9160248083019260209291908290030181600087803b158015611dbb57600080fd5b505af1158015611dcf573d6000803e3d6000fd5b505050506040513d6020811015611de557600080fd5b5051600854604080517f41976e09000000000000000000000000000000000000000000000000000000008152600160a060020a03898116600483015291519397509116916341976e09916024808201926020929091908290030181600087803b158015611e5157600080fd5b505af1158015611e65573d6000803e3d6000fd5b505050506040513d6020811015611e7b57600080fd5b5051600160a060020a038087166000908152600960209081526040808320938b16835292905290812091945090925090505b8154811015611f2b5781543390839083908110611ec657fe5b6000918252602090912060049091020154600160a060020a03161415611f2357611f0c8282815481101515611ef757fe5b90600052602060002090600402018585613cf7565b1515611f2357611f1e86868484613d42565b600019015b600101611ead565b50506005805460ff1916905550505050565b600054600160a060020a031690565b600054600160a060020a0316331490565b600080600080600080600080600080600560009054906101000a900460ff16151515611f8857600080fd5b6005805460ff1916600117905560005460a060020a900460ff1615611fe5576040805160e560020a62461bcd02815260206004820152601760248201526000805160206148b6833981519152604482015290519081900360640190fd5b600860009054906101000a9004600160a060020a0316600160a060020a031663cd75e52c8e6040518263ffffffff1660e060020a0281526004018082600160a060020a0316600160a060020a03168152602001915050602060405180830381600087803b15801561205557600080fd5b505af1158015612069573d6000803e3d6000fd5b505050506040513d602081101561207f57600080fd5b5051600854604080517f41976e09000000000000000000000000000000000000000000000000000000008152600160a060020a038f811660048301529151939d509116916341976e09916024808201926020929091908290030181600087803b1580156120eb57600080fd5b505af11580156120ff573d6000803e3d6000fd5b505050506040513d602081101561211557600080fd5b50516040805160e060020a6323b872dd028152336004820152306024820152604481018f90529051919a50600099508998508e9750600160a060020a038816916323b872dd9160648082019260209290919082900301818d87803b15801561217c57600080fd5b505af1158015612190573d6000803e3d6000fd5b505050506040513d60208110156121a657600080fd5b810190808051906020019092919050505050600960008c600160a060020a0316600160a060020a0316815260200190815260200160002060008e600160a060020a0316600160a060020a031681526020019081526020016000209450600093505b84548410156123e057612236858581548110151561222157fe5b90600052602060002090600402018b8b613cf7565b1515612241576123d5565b8b9250848481548110151561225257fe5b90600052602060002090600402016002015483111561228e57848481548110151561227957fe5b90600052602060002090600402016002015492505b6122e48d848c8e89898154811015156122a357fe5b9060005260206000209060040201600301548e338c8c8154811015156122c557fe5b6000918252602090912060049091020154600160a060020a0316613854565b90925090506122f9888363ffffffff61379716565b975061230b8c8363ffffffff613a0316565b9b5061233f82868681548110151561231f57fe5b906000526020600020906004020160020154613a0390919063ffffffff16565b858581548110151561234d57fe5b9060005260206000209060040201600201819055506123a461239782878781548110151561237757fe5b906000526020600020906004020160030154613a0390919063ffffffff16565b889063ffffffff61379716565b96508085858154811015156123b557fe5b60009182526020909120600360049092020101558b15156123d5576123e0565b600190930192612207565b60008c1115612468576040805160e060020a63a9059cbb028152336004820152602481018e90529051600160a060020a0388169163a9059cbb9160448083019260209291908290030181600087803b15801561243b57600080fd5b505af115801561244f573d6000803e3d6000fd5b505050506040513d602081101561246557600080fd5b50505b8a600160a060020a03168d600160a060020a031633600160a060020a03167f59d83dd239d9fa8394885097625162282abaf0079395996f43259f42b2836cfa8d8c8c60405180848152602001838152602001828152602001935050505060405180910390a46124d78d8c613f59565b50506005805460ff191690555050505050505050505050565b6000806124fb611f4c565b151561253f576040805160e560020a62461bcd0281526020600482018190526024820152600080516020614876833981519152604482015290519081900360640190fd5b600160a060020a038316600090815260026020526040812054925082116125b0576040805160e560020a62461bcd02815260206004820152601260248201527f4974277320656d7074792062616c616e63650000000000000000000000000000604482015290519081900360640190fd5b600160a060020a038316600081815260026020526040812055151561260257604051339083156108fc029084906000818181858888f193505050501580156125fc573d6000803e3d6000fd5b506110fb565b506040805160e060020a63a9059cbb0281523360048201526024810183905290518391600160a060020a0383169163a9059cbb916044808201926020929091908290030181600087803b15801561265857600080fd5b505af115801561266c573d6000803e3d6000fd5b505050506040513d602081101561268257600080fd5b5050505050565b60065490565b60026020526000908152604090205481565b6003805460045490910b82565b600854600160a060020a031690565b60005460a060020a900460ff1681565b600a602052826000526040600020602052816000526040600020818154811015156126f457fe5b6000918252602090912060039091020180546001820154600290920154600160a060020a039091169450909250905083565b600554600090819060ff161561273b57600080fd5b6005805460ff1916600117905560005460a060020a900460ff1615612798576040805160e560020a62461bcd02815260206004820152601760248201526000805160206148b6833981519152604482015290519081900360640190fd5b6127a183611c0a565b15156127f9576040805160e560020a62461bcd02815260206004820152602760248201526000805160206148968339815191526044820152600080516020614836833981519152606482015290519081900360840190fd5b61280284610f2e565b1515612846576040805160e560020a62461bcd0281526020600482018190526024820152600080516020614856833981519152604482015290519081900360640190fd5b5050600160a060020a0380821660009081526009602090815260408083209386168352929052908120905b81548110156128c3578154339083908390811061288a57fe5b6000918252602090912060049091020154600160a060020a031614156128bb576128b684848484613d42565b6128c3565b600101612871565b50506005805460ff191690555050565b600160a060020a031660009081526002602052604090205490565b600554600090819081908190819060ff161561290957600080fd5b6005805460ff1916600117905560005460a060020a900460ff1615612966576040805160e560020a62461bcd02815260206004820152601760248201526000805160206148b6833981519152604482015290519081900360640190fd5b61296f86611c0a565b15156129c7576040805160e560020a62461bcd02815260206004820152602760248201526000805160206148968339815191526044820152600080516020614836833981519152606482015290519081900360840190fd5b6129d087610f2e565b1515612a14576040805160e560020a62461bcd0281526020600482018190526024820152600080516020614856833981519152604482015290519081900360640190fd5b600160a060020a038087166000908152600a60209081526040808320938b168352929052908120955093505b8454841015612d0e5784543390869086908110612a5957fe5b6000918252602090912060039091020154600160a060020a03161415612d03578484815481101515612a8757fe5b906000526020600020906003020160020154925060008585815481101515612aab57fe5b9060005260206000209060030201600201541115612b915760008585815481101515612ad357fe5b90600052602060002090600302016002018190555086915081600160a060020a031663a9059cbb8686815481101515612b0857fe5b600091825260208083206003909202909101546040805160e060020a63ffffffff8716028152600160a060020a039092166004830152602482018990525160448083019491928390030190829087803b158015612b6457600080fd5b505af1158015612b78573d6000803e3d6000fd5b505050506040513d6020811015612b8e57600080fd5b50505b85600160a060020a031687600160a060020a031633600160a060020a03167f7d52d0563d10554ad8ebb839d322d4a4cccffc38148b0939e854fea1747bb5d8866040518082815260200191505060405180910390a450600183015b8454811015612ced578481815481101515612c0357fe5b60009182526020909120600390910201548554600160a060020a0390911690869086908110612c2e57fe5b600091825260209091206003909102018054600160a060020a031916600160a060020a03929092169190911790558454859082908110612c6a57fe5b9060005260206000209060030201600101548585815481101515612c8a57fe5b9060005260206000209060030201600101819055508481815481101515612cad57fe5b9060005260206000209060030201600201548585815481101515612ccd57fe5b600091825260209091206002600390920201015560019384019301612bec565b8454612cfd866000198301614712565b50612d0e565b600190930192612a40565b50506005805460ff191690555050505050565b600554606090600090819060ff1615612d3957600080fd5b6005805460ff1916600117905560005460a060020a900460ff1615612d96576040805160e560020a62461bcd02815260206004820152601760248201526000805160206148b6833981519152604482015290519081900360640190fd5b600760009054906101000a9004600160a060020a0316600160a060020a031663c53ca5a96040518163ffffffff1660e060020a028152600401600060405180830381600087803b158015612de957600080fd5b505af1158015612dfd573d6000803e3d6000fd5b505050506040513d6000823e601f3d908101601f191682016040526020811015612e2657600080fd5b810190808051640100000000811115612e3e57600080fd5b82016020810184811115612e5157600080fd5b8151856020820283011164010000000082111715612e6e57600080fd5b5090965060009550505050505b8251821015612fa157612ea48383815181101515612e9557fe5b90602001906020020151610f2e565b1515612f96575060005b600154811015612f4857612efc8383815181101515612ec957fe5b90602001906020020151600183815481101515612ee257fe5b600091825260209091200154600160a060020a0316614124565b612f408383815181101515612f0d57fe5b90602001906020020151600183815481101515612f2657fe5b600091825260209091200154600160a060020a03166142a8565b600101612eae565b8282815181101515612f5657fe5b90602001906020020151600160a060020a03167fbfcfff685af73fefa61b6c5ff2859a6ffefbf27dd0a03a8dc0c9e2a97ec33c2260405160405180910390a25b600190910190612e7b565b50506005805460ff1916905550565b600160a060020a038082166000908152600a602090815260408083209386168352928152828220805484518181528184028101909301909452606093849384938492839283929091801561300e578160200160208202803883390190505b508554604080518281526020808402820101909152919550801561303c578160200160208202803883390190505b508554604080518281526020808402820101909152919450801561306a578160200160208202803883390190505b509150600090505b845481101561314357848181548110151561308957fe5b60009182526020909120600390910201548451600160a060020a03909116908590839081106130b457fe5b600160a060020a0390921660209283029091019091015284548590829081106130d957fe5b90600052602060002090600302016001015483828151811015156130f957fe5b60209081029091010152845485908290811061311157fe5b906000526020600020906003020160020154828281518110151561313157fe5b60209081029091010152600101613072565b5091989097509095509350505050565b61315b611f4c565b151561319f576040805160e560020a62461bcd0281526020600482018190526024820152600080516020614876833981519152604482015290519081900360640190fd5b600655565b6131ac611f4c565b15156131f0576040805160e560020a62461bcd0281526020600482018190526024820152600080516020614876833981519152604482015290519081900360640190fd5b6003918255600480549190920b63ffffffff1663ffffffff19909116179055565b600061321b611f4c565b151561325f576040805160e560020a62461bcd0281526020600482018190526024820152600080516020614876833981519152604482015290519081900360640190fd5b613268826137ff565b6001549091508114156110fd576001805480820182556000919091527fb10e2d527612073b26eecdfd717e6a320cf44b4afac2b0732d9fcbe2b7fa0cf6018054600160a060020a038416600160a060020a03199091161790555050565b606080606060006001805490506040519080825280602002602001820160405280156132fb578160200160208202803883390190505b509150600090505b600154811015613365576002600060018381548110151561332057fe5b6000918252602080832090910154600160a060020a03168352820192909252604001902054825183908390811061335357fe5b60209081029091010152600101613303565b600182818054806020026020016040519081016040528092919081815260200182805480156133bd57602002820191906000526020600020905b8154600160a060020a0316815260019091019060200180831161339f575b505050505091509350935050509091565b6133d6611f4c565b151561341a576040805160e560020a62461bcd0281526020600482018190526024820152600080516020614876833981519152604482015290519081900360640190fd5b61342381614337565b50565b61342e611f4c565b1515613472576040805160e560020a62461bcd0281526020600482018190526024820152600080516020614876833981519152604482015290519081900360640190fd5b6000805491151560a060020a0274ff000000000000000000000000000000000000000019909216919091179055565b60055460009060ff16156134b457600080fd5b6005805460ff1916600117905560005460a060020a900460ff1615613511576040805160e560020a62461bcd02815260206004820152601760248201526000805160206148b6833981519152604482015290519081900360640190fd5b61351a83611c0a565b1515613572576040805160e560020a62461bcd02815260206004820152602760248201526000805160206148968339815191526044820152600080516020614836833981519152606482015290519081900360840190fd5b61357b84610f2e565b15156135bf576040805160e560020a62461bcd0281526020600482018190526024820152600080516020614856833981519152604482015290519081900360640190fd5b506040805160e060020a6323b872dd0281523360048201523060248201526044810183905290518491600160a060020a038316916323b872dd916064808201926020929091908290030181600087803b15801561361b57600080fd5b505af115801561362f573d6000803e3d6000fd5b505050506040513d602081101561364557600080fd5b5050600160a060020a038381166000818152600a60209081526040808320898616808552908352818420825160608101845233808252428287019081528286018c8152845460018082018755958a5298889020935160039099029093018054600160a060020a03191698909a1697909717895595519188019190915551600290960195909555805187815290519394937f1d0edf86fe7c1c3f91533fb96cf812384c2b1b506231ee4ebfb21fdd9cf9561a929181900390910190a450506005805460ff191690555050565b600080808080613726878963ffffffff61441816565b9250613738838763ffffffff6144b716565b60408051808201909152600380548252600454810b810b900b602082015290925061376390836144f9565b9050613775828263ffffffff613a0316565b915061378881600263ffffffff61441816565b91989197509095505050505050565b6000828201838110156137f4576040805160e560020a62461bcd02815260206004820152601b60248201527f536166654d6174683a206164646974696f6e206f766572666c6f770000000000604482015290519081900360640190fd5b8091505b5092915050565b6000805b60015481101561384e5782600160a060020a031660018281548110151561382657fe5b600091825260209091200154600160a060020a031614156138465761384e565b600101613803565b92915050565b60008060008060006138678c8c8a613710565b90935091508861387d848463ffffffff61379716565b111561388f57600094508893506139f3565b506040805160e060020a63a9059cbb028152600160a060020a038781166004830152602482018e905291518e9283169163a9059cbb9160448083019260209291908290030181600087803b1580156138e657600080fd5b505af11580156138fa573d6000803e3d6000fd5b505050506040513d602081101561391057600080fd5b5061391e9050878b85613a4c565b89600160a060020a031687600160a060020a03168e600160a060020a03167f283cb6fa1162001048ca5bd8941417dd8ab90564ae0f13157a0e7e72dc896082866040518082815260200191505060405180910390a4613983838363ffffffff61379716565b9250613995898463ffffffff613a0316565b98506139a18a8361456c565b85600160a060020a03168d600160a060020a03167fe703149d731074d5f347b6dab59165534cb724f1457da81a84d072123f0110978e6040518082815260200191505060405180910390a38b89945094505b5050509850989650505050505050565b6000613a4583836040805190810160405280601e81526020017f536166654d6174683a207375627472616374696f6e206f766572666c6f7700008152506145b5565b9392505050565b6000811515613a5a57613b76565b600160a060020a0383161515613aa657604051600160a060020a0385169083156108fc029084906000818181858888f19350505050158015613aa0573d6000803e3d6000fd5b50613b2a565b506040805160e060020a63a9059cbb028152600160a060020a038581166004830152602482018490529151849283169163a9059cbb9160448083019260209291908290030181600087803b158015613afd57600080fd5b505af1158015613b11573d6000803e3d6000fd5b505050506040513d6020811015613b2757600080fd5b50505b82600160a060020a031684600160a060020a03167f8aaaec2388cc390cde69685f78340e15f36d424b6b6b595f549dd883931f9c9b846040518082815260200191505060405180910390a35b50505050565b600160a060020a038082166000908152600a60209081526040808320938616835292905290812090805b8254811015613cdb5760008382815481101515613bbf57fe5b9060005260206000209060030201600201541115613cd357808214613ccc578281815481101515613bec57fe5b60009182526020909120600390910201548354600160a060020a0390911690849084908110613c1757fe5b600091825260209091206003909102018054600160a060020a031916600160a060020a03929092169190911790558254839082908110613c5357fe5b9060005260206000209060030201600101548383815481101515613c7357fe5b9060005260206000209060030201600101819055508281815481101515613c9657fe5b9060005260206000209060030201600201548383815481101515613cb657fe5b9060005260206000209060030201600201819055505b6001909101905b600101613ba6565b82548210156126825781613cef8482614712565b505050505050565b6000806000613d0b86600201548686613710565b60038801549193509150613d25838363ffffffff61379716565b1115613d345760009250613d39565b600192505b50509392505050565b6000613d698383815481101515613d5557fe5b906000526020600020906004020185614652565b83600160a060020a031685600160a060020a031633600160a060020a03167ff909ea91ba4b251f8d7b9dae0c92f46da277b544930819ff71b90cfc2d4934818686815481101515613db657fe5b9060005260206000209060040201600201548787815481101515613dd657fe5b60009182526020918290206003600490920201015460408051938452918301528051918290030190a450600181015b8254811015613f49578281815481101515613e1c57fe5b60009182526020909120600490910201548354600160a060020a0390911690849084908110613e4757fe5b600091825260209091206004909102018054600160a060020a031916600160a060020a03929092169190911790558254839082908110613e8357fe5b9060005260206000209060040201600101548383815481101515613ea357fe5b9060005260206000209060040201600101819055508281815481101515613ec657fe5b9060005260206000209060040201600201548383815481101515613ee657fe5b9060005260206000209060040201600201819055508281815481101515613f0957fe5b9060005260206000209060040201600301548383815481101515613f2957fe5b600091825260209091206003600490920201015560019182019101613e05565b8254613cef84600019830161473e565b600160a060020a038082166000908152600960209081526040808320938616835292905290812090805b82548110156141105760008382815481101515613f9c57fe5b90600052602060002090600402016002015411156140f7578082146140ec578281815481101515613fc957fe5b60009182526020909120600490910201548354600160a060020a0390911690849084908110613ff457fe5b600091825260209091206004909102018054600160a060020a031916600160a060020a0392909216919091179055825483908290811061403057fe5b906000526020600020906004020160010154838381548110151561405057fe5b906000526020600020906004020160010181905550828181548110151561407357fe5b906000526020600020906004020160020154838381548110151561409357fe5b90600052602060002090600402016002018190555082818154811015156140b657fe5b90600052602060002090600402016003015483838154811015156140d657fe5b9060005260206000209060040201600301819055505b600190910190614108565b6141088382815481101515613d5557fe5b600101613f83565b82548210156126825781613cef848261473e565b600160a060020a038082166000908152600a6020908152604080832093861683529290529081208391805b8254821015614278576000838381548110151561416857fe5b906000526020600020906003020160020154111561426d57828281548110151561418e57fe5b9060005260206000209060030201600201549050600083838154811015156141b257fe5b90600052602060002090600302016002018190555083600160a060020a031663a9059cbb84848154811015156141e457fe5b600091825260208083206003909202909101546040805160e060020a63ffffffff8716028152600160a060020a039092166004830152602482018790525160448083019491928390030190829087803b15801561424057600080fd5b505af1158015614254573d6000803e3d6000fd5b505050506040513d602081101561426a57600080fd5b50505b60019091019061414f565b600160a060020a038086166000908152600a60209081526040808320938a168352929052908120613cef9161476a565b600160a060020a0380821660009081526009602090815260408083209386168352929052908120905b8154811015614307576142ff82828154811015156142eb57fe5b906000526020600020906004020184614652565b6001016142d1565b600160a060020a0380841660009081526009602090815260408083209388168352929052908120613b769161478b565b600160a060020a03811615156143bd576040805160e560020a62461bcd02815260206004820152602660248201527f4f776e61626c653a206e6577206f776e657220697320746865207a65726f206160448201527f6464726573730000000000000000000000000000000000000000000000000000606482015290519081900360840190fd5b60008054604051600160a060020a03808516939216917f8be0079c531659141344cd1fd0a4f28419497f9722a3daafe3b4186f6b6457e091a360008054600160a060020a031916600160a060020a0392909216919091179055565b60008083151561442b57600091506137f8565b5082820282848281151561443b57fe5b04146137f4576040805160e560020a62461bcd02815260206004820152602160248201527f536166654d6174683a206d756c7469706c69636174696f6e206f766572666c6f60448201527f7700000000000000000000000000000000000000000000000000000000000000606482015290519081900360840190fd5b6000613a4583836040805190810160405280601a81526020017f536166654d6174683a206469766973696f6e206279207a65726f000000000000815250614682565b81516000908190614510908463ffffffff61441816565b90506000846020015160030b131561454557602084015161453e90829060030b600a0a63ffffffff61441816565b90506137f4565b602084015161456490829060000360030b600a0a63ffffffff6144b716565b949350505050565b600160a060020a038216600090815260026020526040902054614595908263ffffffff61379716565b600160a060020a0390921660009081526002602052604090209190915550565b60008082858511156146485760405160e560020a62461bcd0281526004018080602001828103825283818151815260200191508051906020019080838360005b8381101561460d5781810151838201526020016145f5565b50505050905090810190601f16801561463a5780820380516001836020036101000a031916815260200191505b509250505060405180910390fd5b5050509103919050565b600080836003015411156110fb5750600382018054600090915582546110fb90600160a060020a03168383613a4c565b600080828185116146d85760405160e560020a62461bcd0281526004018080602001828103825283818151815260200191508051906020019080838360008381101561460d5781810151838201526020016145f5565b5083858115156146e457fe5b0495945050505050565b8154818355818111156110fb576000838152602090206110fb9181019083016147ac565b8154818355818111156110fb576003028160030283600052602060002091820191016110fb91906147ca565b8154818355818111156110fb576004028160040283600052602060002091820191016110fb91906147fc565b508054600082556003029060005260206000209081019061342391906147ca565b508054600082556004029060005260206000209081019061342391906147fc565b610f2b91905b808211156147c657600081556001016147b2565b5090565b610f2b91905b808211156147c6578054600160a060020a031916815560006001820181905560028201556003016147d0565b610f2b91905b808211156147c6578054600160a060020a031916815560006001820181905560028201819055600382015560040161480256006c696769626c650000000000000000000000000000000000000000000000000054686973206f7074696f6e7320746f6b656e20697320696e656c696769626c654f776e61626c653a2063616c6c6572206973206e6f7420746865206f776e65725468697320736574746c656d656e74732063757272656e637920697320696e655468697320636f6e74726163742069732068616c746564000000000000000000a165627a7a723058208de2226f7f34dfb46c1d301315bab0ec98c0de60254a3dd249fd4a10c78a2cb30029",
  "source": "pragma solidity ^0.4.26;\r\nimport \"./TransactionFee.sol\";\r\nimport \"./ReentrancyGuard.sol\";\r\nimport \"./CompoundOracleInterface.sol\";\r\nimport \"./SafeMath.sol\";\r\nimport \"./IERC20.sol\";\r\nimport \"./IOptionsManager.sol\";\r\ncontract MatchMakingTrading is TransactionFee,ReentrancyGuard {\r\n    using SafeMath for uint256;\r\n    //sell options order defination\r\n    struct SellOptionsOrder {\r\n        address owner;\r\n        uint256 createdTime;\r\n        uint256 amount;\r\n    }\r\n    //pay options order defination\r\n    struct PayOptionsOrder {\r\n        address owner;\r\n        uint256 createdTime;\r\n        uint256 amount;\r\n        uint256 settlementsAmount;\r\n    }\r\n    //_tradingEnd is a deadline of a options token trading. All orders can trade before optionsToken's expiration-tradingEnd. After that time,\r\n    //all Orders will be retrurned back to the owner.\r\n    uint256 private _tradingEnd = 5 hours;\r\n    //options manager interface;\r\n    IOptionsManager private _optionsManager;\r\n    //oracle interface.\r\n    ICompoundOracle private _oracle;\r\n    //mapping settlementCurrency => OptionsToken => OptionsOrder\r\n    mapping(address => mapping(address => PayOptionsOrder[])) public payOrderMap;\r\n    mapping(address => mapping(address => SellOptionsOrder[])) public sellOrderMap;\r\n\r\n    event AddPayOrder(address indexed from,address indexed optionsToken,address indexed settlementCurrency,uint256 amount, uint256 settlementsAmount);\r\n    event AddSellOrder(address indexed from,address indexed optionsToken,address indexed settlementCurrency,uint256 amount);\r\n    event SellOptionsToken(address indexed from,address indexed optionsToken,address indexed settlementCurrency,uint256 optionsPrice,uint256 amount,uint256 payback);\r\n    event BuyOptionsToken(address indexed from,address indexed optionsToken,address indexed settlementCurrency,uint256 optionsPrice,uint256 amount,uint256 totalPay);\r\n    event OrderSellerPayback(address indexed optionsToken,address indexed seller,address indexed settlementCurrency,uint256 payback);\r\n    event OrderBuyerPayback(address indexed optionsToken,address indexed buyer,uint256 amount);\r\n    event ReturnExpiredOrders(address indexed optionsToken);\r\n    event RedeemPayOrder(address indexed from,address indexed optionsToken,address indexed settlementCurrency,uint256 amount, uint256 settlementsAmount);\r\n    event RedeemSellOrder(address indexed from,address indexed optionsToken,address indexed settlementCurrency,uint256 amount);\r\n    //*******************getter***********************\r\n    function getOracleAddress() public view returns(address){\r\n        return address(_oracle);\r\n    }\r\n    function getOptionsManagerAddress() public view returns(address){\r\n        return address(_optionsManager);\r\n    }\r\n    function getTradingEnd() public view returns(uint256){\r\n        return _tradingEnd;\r\n    }\r\n    /**\r\n      * @dev getting all of the pay orders;\r\n      * @param optionsToken options token address\r\n      * @param settlementCurrency the settlement currency address\r\n      * @return owner account, created time, buy amount, settlements deposition.\r\n      */\r\n    function getPayOrderList(address optionsToken,address settlementCurrency) public view returns(address[],uint256[],uint256[],uint256[]){\r\n        PayOptionsOrder[] storage payOrders = payOrderMap[settlementCurrency][optionsToken];\r\n        address[] memory owners = new address[](payOrders.length);\r\n        uint256[] memory times = new uint256[](payOrders.length);\r\n        uint256[] memory amounts = new uint256[](payOrders.length);\r\n        uint256[] memory settlements = new uint256[](payOrders.length);\r\n        for (uint i=0;i<payOrders.length;i++){\r\n            owners[i] = payOrders[i].owner;\r\n            times[i] = payOrders[i].createdTime;\r\n            amounts[i] = payOrders[i].amount;\r\n            settlements[i] = payOrders[i].settlementsAmount;\r\n        }\r\n        return (owners,times,amounts,settlements);\r\n    }\r\n    /**\r\n      * @dev getting all of the sell orders;\r\n      * @param optionsToken options token address\r\n      * @param settlementCurrency the settlement currency address\r\n      * @return owner account, created time, sell amount.\r\n      */\r\n    function getSellOrderList(address optionsToken,address settlementCurrency) public view returns(address[],uint256[],uint256[]){\r\n         SellOptionsOrder[] storage sellOrders = sellOrderMap[settlementCurrency][optionsToken];\r\n        address[] memory owners = new address[](sellOrders.length);\r\n        uint256[] memory times = new uint256[](sellOrders.length);\r\n        uint256[] memory amounts = new uint256[](sellOrders.length);\r\n        for (uint i=0;i<sellOrders.length;i++){\r\n            owners[i] = sellOrders[i].owner;\r\n            times[i] = sellOrders[i].createdTime;\r\n            amounts[i] = sellOrders[i].amount;\r\n        }\r\n        return (owners,times,amounts);\r\n    }\r\n    //*******************setter***********************\r\n    function setOracleAddress(address oracle)public onlyOwner{\r\n        _oracle = ICompoundOracle(oracle);\r\n    }\r\n    function setOptionsManagerAddress(address optionsManager)public onlyOwner{\r\n        _optionsManager = IOptionsManager(optionsManager);\r\n    }\r\n    function setTradingEnd(uint256 tradingEnd) public onlyOwner {\r\n        _tradingEnd = tradingEnd;\r\n    }\r\n    /**\r\n      * @dev add a pay order, if your deposition is insufficient, your order will be disable.\r\n      * @param optionsToken options token address\r\n      * @param settlementCurrency the settlement currency address\r\n      * @param deposit you need to deposit some settlement currency to pay the order.deposit is the amount of settlement currency to pay.\r\n      * @param buyAmount the options token amount you want to buy.\r\n      */\r\n    function addPayOrder(address optionsToken,address settlementCurrency,uint256 deposit,uint256 buyAmount)\r\n         nonReentrant notHalted public payable{\r\n        require(isEligibleAddress(settlementCurrency),\"This settlements currency is ineligible\");\r\n        require(isEligibleOptionsToken(optionsToken),\"This options token is ineligible\");\r\n        uint256 tokenPrice = _oracle.getSellOptionsPrice(optionsToken);\r\n        uint256 currencyPrice = _oracle.getPrice(settlementCurrency);\r\n        (uint256 optionsPay, uint256 transFee) = _calPayment(buyAmount,tokenPrice,currencyPrice);\r\n        uint256 settlements = deposit;\r\n        if (settlementCurrency == address(0)){\r\n            settlements = msg.value;\r\n        }else{\r\n            IERC20 settlement = IERC20(settlementCurrency);\r\n            settlement.transferFrom(msg.sender,address(this),settlements);           \r\n        }\r\n        require(optionsPay.add(transFee)<=settlements,\"settlements Currency is insufficient!\");\r\n        payOrderMap[settlementCurrency][optionsToken].push(PayOptionsOrder(msg.sender,now,buyAmount,settlements));\r\n        emit AddPayOrder(msg.sender,optionsToken,settlementCurrency,buyAmount,settlements);\r\n    }\r\n    /**\r\n      * @dev add a sell order. The Amount of options token will be transfered into contract address.\r\n      * @param optionsToken options token address\r\n      * @param settlementCurrency the settlement currency address\r\n      * @param amount the options token amount you want to sell.\r\n      */\r\n    function addSellOrder(address optionsToken,address settlementCurrency,uint256 amount)\r\n        nonReentrant notHalted public {\r\n        require(isEligibleAddress(settlementCurrency),\"This settlements currency is ineligible\");\r\n        require(isEligibleOptionsToken(optionsToken),\"This options token is ineligible\");\r\n        IERC20 ERC20Token = IERC20(optionsToken);\r\n        ERC20Token.transferFrom(msg.sender,address(this),amount);  \r\n        sellOrderMap[settlementCurrency][optionsToken].push(SellOptionsOrder(msg.sender,now,amount));\r\n        emit AddSellOrder(msg.sender,optionsToken,settlementCurrency,amount);\r\n    }\r\n    /**\r\n      * @dev redeem a pay order.redeem the earliest pay order.return back the deposition.\r\n      * @param optionsToken options token address\r\n      * @param settlementCurrency the settlement currency address\r\n      */    \r\n    function redeemPayOrder(address optionsToken,address settlementCurrency)\r\n        nonReentrant notHalted public{\r\n        require(isEligibleAddress(settlementCurrency),\"This settlements currency is ineligible\");\r\n        require(isEligibleOptionsToken(optionsToken),\"This options token is ineligible\");\r\n        PayOptionsOrder[] storage orderList = payOrderMap[settlementCurrency][optionsToken];\r\n        for (uint256 i=0;i<orderList.length;i++){\r\n            if (orderList[i].owner == msg.sender){\r\n                _redeemBuyOrder(optionsToken,settlementCurrency,orderList,i);\r\n                break;\r\n            }\r\n        }\r\n    }\r\n        /**\r\n      * @dev redeem all invalid pay order.redeem all insufficient pay orders.return back the deposition.\r\n      * @param optionsToken options token address\r\n      * @param settlementCurrency the settlement currency address\r\n      */    \r\n    function redeemInvalidPayOrder(address optionsToken,address settlementCurrency)\r\n        nonReentrant notHalted public{\r\n        require(isEligibleAddress(settlementCurrency),\"This settlements currency is ineligible\");\r\n        require(isEligibleOptionsToken(optionsToken),\"This options token is ineligible\");\r\n        uint256 tokenPrice = _oracle.getSellOptionsPrice(optionsToken);\r\n        uint256 currencyPrice = _oracle.getPrice(settlementCurrency);\r\n        PayOptionsOrder[] storage orderList = payOrderMap[settlementCurrency][optionsToken];\r\n        for (uint256 i=0;i<orderList.length;i++){\r\n            if (orderList[i].owner == msg.sender){\r\n                if (!_isSufficientSettlements(orderList[i],tokenPrice,currencyPrice)){\r\n                    _redeemBuyOrder(optionsToken,settlementCurrency,orderList,i);\r\n                    i--;\r\n                }\r\n            }\r\n        }\r\n\r\n    }\r\n    /**\r\n      * @dev redeem a sell order.redeem the earliest sell order.return back the options token.\r\n      * @param optionsToken options token address\r\n      * @param settlementCurrency the settlement currency address\r\n      */    \r\n    function redeemSellOrder(address optionsToken,address settlementCurrency)\r\n        nonReentrant notHalted public {\r\n        require(isEligibleAddress(settlementCurrency),\"This settlements currency is ineligible\");\r\n        require(isEligibleOptionsToken(optionsToken),\"This options token is ineligible\");\r\n        SellOptionsOrder[] storage orderList = sellOrderMap[settlementCurrency][optionsToken];\r\n        for (uint256 i=0;i<orderList.length;i++){\r\n            if (orderList[i].owner == msg.sender){\r\n                uint256 tokenAmount = orderList[i].amount;\r\n                if (orderList[i].amount > 0){\r\n                    orderList[i].amount = 0;\r\n                    IERC20 options = IERC20(optionsToken);\r\n                    options.transfer(orderList[i].owner,tokenAmount);\r\n                }\r\n                emit RedeemSellOrder(msg.sender,optionsToken,settlementCurrency,tokenAmount);\r\n                for (uint256 j=i+1;j<orderList.length;j++) {\r\n                    orderList[i].owner = orderList[j].owner;\r\n                    orderList[i].createdTime = orderList[j].createdTime;\r\n                    orderList[i].amount = orderList[j].amount;\r\n                    i++;\r\n                }\r\n                orderList.length--;\r\n                break;\r\n            }\r\n        }\r\n    }\r\n    /**\r\n      * @dev buy amount options token form sell order.\r\n      * @param optionsToken options token address\r\n      * @param amount options token amount you want to buy\r\n      * @param settlementCurrency the settlement currency address\r\n      * @param currencyAmount the settlement currency amount will be payed for\r\n      */     \r\n    function buyOptionsToken(address optionsToken,uint256 amount,address settlementCurrency,uint256 currencyAmount)\r\n        nonReentrant notHalted public payable {\r\n        uint256 tokenPrice = _oracle.getBuyOptionsPrice(optionsToken);\r\n        uint256 currencyPrice = _oracle.getPrice(settlementCurrency);\r\n        IERC20 settlement = IERC20(settlementCurrency);\r\n        if (settlementCurrency == address (0)) {\r\n            currencyAmount = msg.value;\r\n        }else{\r\n            settlement.transferFrom(msg.sender,address(this),currencyAmount);      \r\n        }\r\n        uint256 totalSetterment = currencyAmount;\r\n        (uint256 allSell,uint256 transFee) = _calPayment(amount,tokenPrice,currencyPrice);\r\n        require(allSell.add(transFee)<=currencyAmount,\"pay value is insufficient!\");\r\n        allSell = 0;//all sell amount\r\n        SellOptionsOrder[] storage orderList = sellOrderMap[settlementCurrency][optionsToken];\r\n        for (uint256 i=0;i<orderList.length;i++) {\r\n            uint256 optionsAmount = amount;\r\n            if (amount > orderList[i].amount) {\r\n                optionsAmount = orderList[i].amount;\r\n            }\r\n            uint256 sellAmount = 0;\r\n            (sellAmount,currencyAmount) = _orderTrading(optionsToken,optionsAmount,tokenPrice,settlementCurrency,currencyAmount,currencyPrice,\r\n                        orderList[i].owner,msg.sender);\r\n            amount = amount.sub(sellAmount);\r\n            allSell = allSell.add(sellAmount);\r\n\r\n            orderList[i].amount = orderList[i].amount.sub(sellAmount);\r\n            if (amount == 0) {\r\n                break;\r\n            }\r\n        }\r\n        _transferPayback(msg.sender,settlementCurrency,currencyAmount);\r\n        totalSetterment = totalSetterment.sub(currencyAmount);\r\n        emit BuyOptionsToken(msg.sender,optionsToken,settlementCurrency,tokenPrice,allSell,totalSetterment);\r\n        _removeEmptySellOrder(optionsToken,settlementCurrency);\r\n    }\r\n    /**\r\n      * @dev sell amount options token to buy order.\r\n      * @param optionsToken options token address\r\n      * @param amount options token amount you want to sell\r\n      * @param settlementCurrency the settlement currency address\r\n      */      \r\n    function sellOptionsToken(address optionsToken,uint256 amount,address settlementCurrency)\r\n        nonReentrant notHalted public {\r\n        uint256 tokenPrice = _oracle.getSellOptionsPrice(optionsToken);\r\n        uint256 currencyPrice = _oracle.getPrice(settlementCurrency);\r\n        uint256 _totalSell = 0;\r\n        uint256 _totalPayback = 0;\r\n        IERC20 erc20Token = IERC20(optionsToken);\r\n        erc20Token.transferFrom(msg.sender,address(this),amount);\r\n        PayOptionsOrder[] storage orderList = payOrderMap[settlementCurrency][optionsToken];\r\n        for (uint256 i=0;i<orderList.length;i++){\r\n            if (!_isSufficientSettlements(orderList[i],tokenPrice,currencyPrice)){\r\n                continue;\r\n            }\r\n            uint256 optionsAmount = amount;\r\n            if (optionsAmount > orderList[i].amount) {\r\n                optionsAmount = orderList[i].amount;\r\n            }\r\n            (uint256 sellAmount,uint256 leftCurrency) = _orderTrading(optionsToken,optionsAmount,tokenPrice,settlementCurrency,orderList[i].settlementsAmount,currencyPrice,\r\n            msg.sender,orderList[i].owner);\r\n            _totalSell = _totalSell.add(sellAmount);\r\n            amount = amount.sub(sellAmount);  \r\n            orderList[i].amount = orderList[i].amount.sub(sellAmount);\r\n            _totalPayback = _totalPayback.add(orderList[i].settlementsAmount.sub(leftCurrency));\r\n            orderList[i].settlementsAmount = leftCurrency;\r\n            if (amount == 0) {\r\n                break;\r\n            }\r\n        }\r\n        if (amount > 0){\r\n            erc20Token.transfer(msg.sender,amount);\r\n        }\r\n        emit SellOptionsToken(msg.sender,optionsToken,settlementCurrency,tokenPrice,_totalSell,_totalPayback);\r\n        _removeEmptyPayOrder(optionsToken,settlementCurrency);\r\n    }\r\n    /**\r\n      * @dev return back the expired options token orders. Both buy orders and sell orders\r\n      */        \r\n    function returnExpiredOrders()\r\n        nonReentrant notHalted public{\r\n        address[] memory options = _optionsManager.getOptionsTokenList();\r\n        for (uint256 i=0;i<options.length;i++){\r\n            if (!isEligibleOptionsToken(options[i])){\r\n                for (uint j=0;j<whiteList.length;j++){\r\n                    _returnExpiredSellOrders(options[i],whiteList[j]);\r\n                    _returnExpiredPayOrders(options[i],whiteList[j]);\r\n                }\r\n                emit ReturnExpiredOrders(options[i]);\r\n            }\r\n        }\r\n    }\r\n    function _redeemBuyOrder(address optionToken,address settlementCurrency,PayOptionsOrder[] storage orderList,uint256 i) private {\r\n        _returnPayOrders(orderList[i],settlementCurrency);\r\n        emit RedeemPayOrder(msg.sender,optionToken,settlementCurrency,orderList[i].amount,orderList[i].settlementsAmount);\r\n        for (uint256 j=i+1;j<orderList.length;j++) {\r\n            orderList[i].owner = orderList[j].owner;\r\n            orderList[i].createdTime = orderList[j].createdTime;\r\n            orderList[i].amount = orderList[j].amount;\r\n            orderList[i].settlementsAmount = orderList[j].settlementsAmount;\r\n            i++;\r\n        }\r\n        orderList.length--;\r\n    }\r\n    function _orderTrading(address optionsToken,uint256 amount,uint256 optionsPrice,\r\n            address settlementCurrency,uint256 currencyAmount,uint256 currencyPrice,\r\n            address seller,address buyer) internal returns (uint256,uint256) {\r\n        (uint256 optionsPay,uint256 transFee) = _calPayment(amount,optionsPrice,currencyPrice);\r\n        if (optionsPay.add(transFee)>currencyAmount){\r\n            return (0,currencyAmount);\r\n        }\r\n        IERC20 erc20Token = IERC20(optionsToken);\r\n        erc20Token.transfer(buyer,amount);\r\n        _transferPayback(seller,settlementCurrency,optionsPay); \r\n        emit OrderSellerPayback(optionsToken,seller,settlementCurrency,optionsPay);\r\n        optionsPay = optionsPay.add(transFee);\r\n        currencyAmount = currencyAmount.sub(optionsPay);\r\n        _addTransactionFee(settlementCurrency,transFee);\r\n        emit OrderBuyerPayback(optionsToken,buyer,amount);\r\n        return (amount,currencyAmount);\r\n    }\r\n    function _removeEmptyPayOrder(address optionsToken,address settlementCurrency)internal{\r\n        PayOptionsOrder[] storage orderList = payOrderMap[settlementCurrency][optionsToken];\r\n        uint256 index = 0;\r\n        for (uint i=0;i<orderList.length;i++) {\r\n            if (orderList[i].amount > 0) {\r\n                if(i != index) {\r\n                    orderList[index].owner = orderList[i].owner;\r\n                    orderList[index].createdTime = orderList[i].createdTime;\r\n                    orderList[index].amount = orderList[i].amount;\r\n                    orderList[index].settlementsAmount = orderList[i].settlementsAmount;\r\n                }\r\n                index++;\r\n            }else {\r\n                _returnPayOrders(orderList[i],settlementCurrency);\r\n            }\r\n        }\r\n         if (index < orderList.length) {\r\n            orderList.length = index;\r\n        }\r\n\r\n    }\r\n    function _removeEmptySellOrder(address optionsToken,address settlementCurrency)internal{\r\n        SellOptionsOrder[] storage orderList = sellOrderMap[settlementCurrency][optionsToken];\r\n        uint256 index = 0;\r\n        for (uint i=0;i<orderList.length;i++) {\r\n            if (orderList[i].amount > 0) {\r\n                if(i != index) {\r\n                    orderList[index].owner = orderList[i].owner;\r\n                    orderList[index].createdTime = orderList[i].createdTime;\r\n                    orderList[index].amount = orderList[i].amount;\r\n                }\r\n                index++;\r\n            }\r\n        }\r\n        if (index < orderList.length) {\r\n            orderList.length = index;\r\n        }\r\n    }\r\n    function _isSufficientSettlements(PayOptionsOrder storage payOrder,uint256 optionsPrice,uint256 currencyPrice) internal view returns(bool){\r\n        (uint256 allPay,uint256 transFee) = _calPayment(payOrder.amount,optionsPrice,currencyPrice);\r\n        if (allPay.add(transFee) > payOrder.settlementsAmount){\r\n            return false;\r\n        }\r\n        return true;\r\n    }\r\n    function _calPayment(uint256 amount,uint256 optionsPrice,uint256 currencyPrice) internal view returns (uint256,uint256) {\r\n        uint256 allPayment = optionsPrice.mul(amount);\r\n        uint256 optionsPay = allPayment.div(currencyPrice);\r\n        uint256 transFee = _calNumberMulUint(transactionFee,optionsPay);\r\n        optionsPay = optionsPay.sub(transFee);\r\n        transFee = transFee.mul(2);\r\n        return (optionsPay,transFee);\r\n    }\r\n    function _returnExpiredSellOrders(address optionsToken,address settlementCurrency) internal {\r\n        IERC20 options = IERC20(optionsToken);\r\n        SellOptionsOrder[] storage orderList = sellOrderMap[settlementCurrency][optionsToken];\r\n        for (uint i=0;i<orderList.length;i++) {\r\n            if (orderList[i].amount > 0) {\r\n                uint256 tokenAmount = orderList[i].amount;\r\n                orderList[i].amount = 0;\r\n                options.transfer(orderList[i].owner,tokenAmount);\r\n            }\r\n        }\r\n        delete sellOrderMap[settlementCurrency][optionsToken];\r\n    }\r\n    function _returnExpiredPayOrders(address optionsToken,address settlementCurrency) internal{\r\n        PayOptionsOrder[] storage orderList = payOrderMap[settlementCurrency][optionsToken];\r\n        for (uint i=0;i<orderList.length;i++) {\r\n            _returnPayOrders(orderList[i],settlementCurrency);\r\n        }\r\n        delete payOrderMap[settlementCurrency][optionsToken];\r\n    }\r\n    function _returnPayOrders(PayOptionsOrder storage payOrder,address settlementCurrency) internal {\r\n    if (payOrder.settlementsAmount > 0) {\r\n            uint256 payAmount = payOrder.settlementsAmount;\r\n            payOrder.settlementsAmount = 0;\r\n            _transferPayback(payOrder.owner,settlementCurrency,payAmount); \r\n        }\r\n    }\r\n    function isEligibleOptionsToken(address optionsToken) public view returns(bool) {\r\n        (,,,,uint256 expiration,bool exercised) = _optionsManager.getOptionsTokenInfo(optionsToken);\r\n        uint256 tradingEnd = _tradingEnd.add(now);\r\n        return (expiration > 0 && tradingEnd < expiration && !exercised);\r\n    }\r\n}",
  "sourcePath": "C:\\work\\solidity\\OptionsContract\\contracts\\MatchMakingTrading.sol",
  "compiler": {
    "name": "solc",
    "version": "0.4.26+commit.4563c3fc.Emscripten.clang"
  },
  "schemaVersion": "3.1.0",
  "updatedAt": "2020-07-09T00:40:54.288Z",
  "devdoc": {
    "methods": {
      "addPayOrder(address,address,uint256,uint256)": {
        "details": "add a pay order, if your deposition is insufficient, your order will be disable.\r",
        "params": {
          "buyAmount": "the options token amount you want to buy.\r",
          "deposit": "you need to deposit some settlement currency to pay the order.deposit is the amount of settlement currency to pay.\r",
          "optionsToken": "options token address\r",
          "settlementCurrency": "the settlement currency address\r"
        }
      },
      "addSellOrder(address,address,uint256)": {
        "details": "add a sell order. The Amount of options token will be transfered into contract address.\r",
        "params": {
          "amount": "the options token amount you want to sell.\r",
          "optionsToken": "options token address\r",
          "settlementCurrency": "the settlement currency address\r"
        }
      },
      "addWhiteList(address)": {
        "details": "Implementation of add an eligible address into the whitelist.\r",
        "params": {
          "addAddress": "new eligible address.\r"
        }
      },
      "buyOptionsToken(address,uint256,address,uint256)": {
        "details": "buy amount options token form sell order.\r",
        "params": {
          "amount": "options token amount you want to buy\r",
          "currencyAmount": "the settlement currency amount will be payed for\r",
          "optionsToken": "options token address\r",
          "settlementCurrency": "the settlement currency address\r"
        }
      },
      "getPayOrderList(address,address)": {
        "details": "getting all of the pay orders;\r",
        "params": {
          "optionsToken": "options token address\r",
          "settlementCurrency": "the settlement currency address\r"
        },
        "return": "owner account, created time, buy amount, settlements deposition.\r"
      },
      "getSellOrderList(address,address)": {
        "details": "getting all of the sell orders;\r",
        "params": {
          "optionsToken": "options token address\r",
          "settlementCurrency": "the settlement currency address\r"
        },
        "return": "owner account, created time, sell amount.\r"
      },
      "getTransactionFee()": {
        "details": "Returns the rate of trasaction fee.\r"
      },
      "getWhiteList()": {
        "details": "Implementation of getting the eligible whitelist.\r"
      },
      "isEligibleAddress(address)": {
        "details": "Implementation of testing whether the input address is eligible.\r",
        "params": {
          "tmpAddress": "input address for testing.\r"
        }
      },
      "isOwner()": {
        "details": "Returns true if the caller is the current owner."
      },
      "owner()": {
        "details": "Returns the address of the current owner."
      },
      "redeemInvalidPayOrder(address,address)": {
        "details": "redeem all invalid pay order.redeem all insufficient pay orders.return back the deposition.\r",
        "params": {
          "optionsToken": "options token address\r",
          "settlementCurrency": "the settlement currency address\r"
        }
      },
      "redeemPayOrder(address,address)": {
        "details": "redeem a pay order.redeem the earliest pay order.return back the deposition.\r",
        "params": {
          "optionsToken": "options token address\r",
          "settlementCurrency": "the settlement currency address\r"
        }
      },
      "redeemSellOrder(address,address)": {
        "details": "redeem a sell order.redeem the earliest sell order.return back the options token.\r",
        "params": {
          "optionsToken": "options token address\r",
          "settlementCurrency": "the settlement currency address\r"
        }
      },
      "removeWhiteList(address)": {
        "details": "Implementation of revoke an invalid address from the whitelist.\r",
        "params": {
          "removeAddress": "revoked address.\r"
        }
      },
      "renounceOwnership()": {
        "details": "Leaves the contract without owner. It will not be possible to call `onlyOwner` functions anymore. Can only be called by the current owner.     * NOTE: Renouncing ownership will leave the contract without an owner, thereby removing any functionality that is only available to the owner."
      },
      "returnExpiredOrders()": {
        "details": "return back the expired options token orders. Both buy orders and sell orders\r"
      },
      "sellOptionsToken(address,uint256,address)": {
        "details": "sell amount options token to buy order.\r",
        "params": {
          "amount": "options token amount you want to sell\r",
          "optionsToken": "options token address\r",
          "settlementCurrency": "the settlement currency address\r"
        }
      },
      "setTransactionFee(uint256,int32)": {
        "details": "set the rate of trasaction fee.\r",
        "params": {
          "exponent": "the exponent figures of transaction fee.\r transaction fee = Number(value,exponent);\r",
          "value": "the significant figures of transaction fee .\r"
        }
      },
      "transferOwnership(address)": {
        "details": "Transfers ownership of the contract to a new account (`newOwner`). Can only be called by the current owner."
      }
    }
  },
  "userdoc": {
    "methods": {
      "setHalt(bool)": {
        "notice": "function Emergency situation that requires contribution period to stop or not."
      }
    }
  }
}