{
  "contractName": "MatchMakingTrading",
  "abi": [
    {
      "constant": true,
      "inputs": [],
      "name": "getWhiteList",
      "outputs": [
        {
          "name": "",
          "type": "address[]"
        }
      ],
      "payable": false,
      "stateMutability": "view",
      "type": "function"
    },
    {
      "constant": false,
      "inputs": [
        {
          "name": "removeAddress",
          "type": "address"
        }
      ],
      "name": "removeWhiteList",
      "outputs": [],
      "payable": false,
      "stateMutability": "nonpayable",
      "type": "function"
    },
    {
      "constant": false,
      "inputs": [],
      "name": "redeemAll",
      "outputs": [],
      "payable": false,
      "stateMutability": "nonpayable",
      "type": "function"
    },
    {
      "constant": true,
      "inputs": [
        {
          "name": "",
          "type": "address"
        },
        {
          "name": "",
          "type": "address"
        },
        {
          "name": "",
          "type": "uint256"
        }
      ],
      "name": "payOrderMap",
      "outputs": [
        {
          "name": "owner",
          "type": "address"
        },
        {
          "name": "createdTime",
          "type": "uint256"
        },
        {
          "name": "amount",
          "type": "uint256"
        },
        {
          "name": "settlementsAmount",
          "type": "uint256"
        }
      ],
      "payable": false,
      "stateMutability": "view",
      "type": "function"
    },
    {
      "constant": true,
      "inputs": [
        {
          "name": "",
          "type": "uint256"
        }
      ],
      "name": "whiteList",
      "outputs": [
        {
          "name": "",
          "type": "address"
        }
      ],
      "payable": false,
      "stateMutability": "view",
      "type": "function"
    },
    {
      "constant": false,
      "inputs": [],
      "name": "renounceOwnership",
      "outputs": [],
      "payable": false,
      "stateMutability": "nonpayable",
      "type": "function"
    },
    {
      "constant": true,
      "inputs": [
        {
          "name": "tmpAddress",
          "type": "address"
        }
      ],
      "name": "isEligibleAddress",
      "outputs": [
        {
          "name": "",
          "type": "bool"
        }
      ],
      "payable": false,
      "stateMutability": "view",
      "type": "function"
    },
    {
      "constant": true,
      "inputs": [],
      "name": "getTransactionFee",
      "outputs": [
        {
          "name": "",
          "type": "uint256"
        },
        {
          "name": "",
          "type": "int32"
        }
      ],
      "payable": false,
      "stateMutability": "view",
      "type": "function"
    },
    {
      "constant": true,
      "inputs": [],
      "name": "owner",
      "outputs": [
        {
          "name": "",
          "type": "address"
        }
      ],
      "payable": false,
      "stateMutability": "view",
      "type": "function"
    },
    {
      "constant": true,
      "inputs": [],
      "name": "isOwner",
      "outputs": [
        {
          "name": "",
          "type": "bool"
        }
      ],
      "payable": false,
      "stateMutability": "view",
      "type": "function"
    },
    {
      "constant": false,
      "inputs": [
        {
          "name": "currency",
          "type": "address"
        }
      ],
      "name": "redeem",
      "outputs": [],
      "payable": false,
      "stateMutability": "nonpayable",
      "type": "function"
    },
    {
      "constant": true,
      "inputs": [
        {
          "name": "",
          "type": "address"
        }
      ],
      "name": "managerFee",
      "outputs": [
        {
          "name": "",
          "type": "uint256"
        }
      ],
      "payable": false,
      "stateMutability": "view",
      "type": "function"
    },
    {
      "constant": true,
      "inputs": [],
      "name": "transactionFee",
      "outputs": [
        {
          "name": "value",
          "type": "uint256"
        },
        {
          "name": "exponent",
          "type": "int32"
        }
      ],
      "payable": false,
      "stateMutability": "view",
      "type": "function"
    },
    {
      "constant": true,
      "inputs": [
        {
          "name": "",
          "type": "address"
        },
        {
          "name": "",
          "type": "address"
        },
        {
          "name": "",
          "type": "uint256"
        }
      ],
      "name": "sellOrderMap",
      "outputs": [
        {
          "name": "owner",
          "type": "address"
        },
        {
          "name": "createdTime",
          "type": "uint256"
        },
        {
          "name": "amount",
          "type": "uint256"
        }
      ],
      "payable": false,
      "stateMutability": "view",
      "type": "function"
    },
    {
      "constant": true,
      "inputs": [
        {
          "name": "settlement",
          "type": "address"
        }
      ],
      "name": "getFeeBalance",
      "outputs": [
        {
          "name": "",
          "type": "uint256"
        }
      ],
      "payable": false,
      "stateMutability": "view",
      "type": "function"
    },
    {
      "constant": false,
      "inputs": [
        {
          "name": "value",
          "type": "uint256"
        },
        {
          "name": "exponent",
          "type": "int32"
        }
      ],
      "name": "setTransactionFee",
      "outputs": [],
      "payable": false,
      "stateMutability": "nonpayable",
      "type": "function"
    },
    {
      "constant": false,
      "inputs": [
        {
          "name": "addAddress",
          "type": "address"
        }
      ],
      "name": "addWhiteList",
      "outputs": [],
      "payable": false,
      "stateMutability": "nonpayable",
      "type": "function"
    },
    {
      "constant": true,
      "inputs": [],
      "name": "getAllFeeBalances",
      "outputs": [
        {
          "name": "",
          "type": "address[]"
        },
        {
          "name": "",
          "type": "uint256[]"
        }
      ],
      "payable": false,
      "stateMutability": "view",
      "type": "function"
    },
    {
      "constant": false,
      "inputs": [
        {
          "name": "newOwner",
          "type": "address"
        }
      ],
      "name": "transferOwnership",
      "outputs": [],
      "payable": false,
      "stateMutability": "nonpayable",
      "type": "function"
    },
    {
      "anonymous": false,
      "inputs": [
        {
          "indexed": true,
          "name": "from",
          "type": "address"
        },
        {
          "indexed": true,
          "name": "optionsToken",
          "type": "address"
        },
        {
          "indexed": true,
          "name": "settlementCurrency",
          "type": "address"
        },
        {
          "indexed": false,
          "name": "amount",
          "type": "uint256"
        },
        {
          "indexed": false,
          "name": "settlementsAmount",
          "type": "uint256"
        }
      ],
      "name": "AddPayOrder",
      "type": "event"
    },
    {
      "anonymous": false,
      "inputs": [
        {
          "indexed": true,
          "name": "from",
          "type": "address"
        },
        {
          "indexed": true,
          "name": "optionsToken",
          "type": "address"
        },
        {
          "indexed": true,
          "name": "settlementCurrency",
          "type": "address"
        },
        {
          "indexed": false,
          "name": "amount",
          "type": "uint256"
        }
      ],
      "name": "AddSellOrder",
      "type": "event"
    },
    {
      "anonymous": false,
      "inputs": [
        {
          "indexed": true,
          "name": "from",
          "type": "address"
        },
        {
          "indexed": true,
          "name": "optionsToken",
          "type": "address"
        },
        {
          "indexed": true,
          "name": "settlementCurrency",
          "type": "address"
        },
        {
          "indexed": false,
          "name": "optionsPrice",
          "type": "uint256"
        },
        {
          "indexed": false,
          "name": "amount",
          "type": "uint256"
        }
      ],
      "name": "SellOptionsToken",
      "type": "event"
    },
    {
      "anonymous": false,
      "inputs": [
        {
          "indexed": true,
          "name": "from",
          "type": "address"
        },
        {
          "indexed": true,
          "name": "optionsToken",
          "type": "address"
        },
        {
          "indexed": true,
          "name": "settlementCurrency",
          "type": "address"
        },
        {
          "indexed": false,
          "name": "optionsPrice",
          "type": "uint256"
        },
        {
          "indexed": false,
          "name": "amount",
          "type": "uint256"
        }
      ],
      "name": "BuyOptionsToken",
      "type": "event"
    },
    {
      "anonymous": false,
      "inputs": [
        {
          "indexed": true,
          "name": "optionsToken",
          "type": "address"
        }
      ],
      "name": "ReturnExpiredOrders",
      "type": "event"
    },
    {
      "anonymous": false,
      "inputs": [
        {
          "indexed": true,
          "name": "from",
          "type": "address"
        },
        {
          "indexed": true,
          "name": "optionsToken",
          "type": "address"
        },
        {
          "indexed": true,
          "name": "settlementCurrency",
          "type": "address"
        },
        {
          "indexed": false,
          "name": "amount",
          "type": "uint256"
        }
      ],
      "name": "RedeemPayOrder",
      "type": "event"
    },
    {
      "anonymous": false,
      "inputs": [
        {
          "indexed": true,
          "name": "from",
          "type": "address"
        },
        {
          "indexed": true,
          "name": "optionsToken",
          "type": "address"
        },
        {
          "indexed": true,
          "name": "settlementCurrency",
          "type": "address"
        },
        {
          "indexed": false,
          "name": "amount",
          "type": "uint256"
        }
      ],
      "name": "RedeemSellOrder",
      "type": "event"
    },
    {
      "anonymous": false,
      "inputs": [
        {
          "indexed": false,
          "name": "value0",
          "type": "uint256"
        },
        {
          "indexed": false,
          "name": "value1",
          "type": "uint256"
        },
        {
          "indexed": false,
          "name": "value2",
          "type": "uint256"
        }
      ],
      "name": "DebugEvent",
      "type": "event"
    },
    {
      "anonymous": false,
      "inputs": [
        {
          "indexed": true,
          "name": "previousOwner",
          "type": "address"
        },
        {
          "indexed": true,
          "name": "newOwner",
          "type": "address"
        }
      ],
      "name": "OwnershipTransferred",
      "type": "event"
    },
    {
      "constant": true,
      "inputs": [],
      "name": "getOracleAddress",
      "outputs": [
        {
          "name": "",
          "type": "address"
        }
      ],
      "payable": false,
      "stateMutability": "view",
      "type": "function"
    },
    {
      "constant": true,
      "inputs": [],
      "name": "getOptionsManagerAddress",
      "outputs": [
        {
          "name": "",
          "type": "address"
        }
      ],
      "payable": false,
      "stateMutability": "view",
      "type": "function"
    },
    {
      "constant": true,
      "inputs": [],
      "name": "getTradingEnd",
      "outputs": [
        {
          "name": "",
          "type": "uint256"
        }
      ],
      "payable": false,
      "stateMutability": "view",
      "type": "function"
    },
    {
      "constant": true,
      "inputs": [
        {
          "name": "optionsToken",
          "type": "address"
        },
        {
          "name": "settlementCurrency",
          "type": "address"
        }
      ],
      "name": "getPayOrderList",
      "outputs": [
        {
          "name": "",
          "type": "address[]"
        },
        {
          "name": "",
          "type": "uint256[]"
        },
        {
          "name": "",
          "type": "uint256[]"
        },
        {
          "name": "",
          "type": "uint256[]"
        }
      ],
      "payable": false,
      "stateMutability": "view",
      "type": "function"
    },
    {
      "constant": true,
      "inputs": [
        {
          "name": "optionsToken",
          "type": "address"
        },
        {
          "name": "settlementCurrency",
          "type": "address"
        }
      ],
      "name": "getSellOrderList",
      "outputs": [
        {
          "name": "",
          "type": "address[]"
        },
        {
          "name": "",
          "type": "uint256[]"
        },
        {
          "name": "",
          "type": "uint256[]"
        }
      ],
      "payable": false,
      "stateMutability": "view",
      "type": "function"
    },
    {
      "constant": false,
      "inputs": [
        {
          "name": "oracle",
          "type": "address"
        }
      ],
      "name": "setOracleAddress",
      "outputs": [],
      "payable": false,
      "stateMutability": "nonpayable",
      "type": "function"
    },
    {
      "constant": false,
      "inputs": [
        {
          "name": "optionsManager",
          "type": "address"
        }
      ],
      "name": "setOptionsManagerAddress",
      "outputs": [],
      "payable": false,
      "stateMutability": "nonpayable",
      "type": "function"
    },
    {
      "constant": false,
      "inputs": [
        {
          "name": "tradingEnd",
          "type": "uint256"
        }
      ],
      "name": "setTradingEnd",
      "outputs": [],
      "payable": false,
      "stateMutability": "nonpayable",
      "type": "function"
    },
    {
      "constant": false,
      "inputs": [
        {
          "name": "optionsToken",
          "type": "address"
        },
        {
          "name": "settlementCurrency",
          "type": "address"
        },
        {
          "name": "deposit",
          "type": "uint256"
        },
        {
          "name": "buyAmount",
          "type": "uint256"
        }
      ],
      "name": "addPayOrder",
      "outputs": [],
      "payable": true,
      "stateMutability": "payable",
      "type": "function"
    },
    {
      "constant": false,
      "inputs": [
        {
          "name": "optionsToken",
          "type": "address"
        },
        {
          "name": "settlementCurrency",
          "type": "address"
        },
        {
          "name": "amount",
          "type": "uint256"
        }
      ],
      "name": "addSellOrder",
      "outputs": [],
      "payable": false,
      "stateMutability": "nonpayable",
      "type": "function"
    },
    {
      "constant": false,
      "inputs": [
        {
          "name": "optionsToken",
          "type": "address"
        },
        {
          "name": "settlementCurrency",
          "type": "address"
        }
      ],
      "name": "redeemPayOrder",
      "outputs": [],
      "payable": false,
      "stateMutability": "nonpayable",
      "type": "function"
    },
    {
      "constant": false,
      "inputs": [
        {
          "name": "optionsToken",
          "type": "address"
        },
        {
          "name": "settlementCurrency",
          "type": "address"
        }
      ],
      "name": "redeemSellOrder",
      "outputs": [],
      "payable": false,
      "stateMutability": "nonpayable",
      "type": "function"
    },
    {
      "constant": false,
      "inputs": [
        {
          "name": "optionsToken",
          "type": "address"
        },
        {
          "name": "amount",
          "type": "uint256"
        },
        {
          "name": "settlementCurrency",
          "type": "address"
        },
        {
          "name": "currencyAmount",
          "type": "uint256"
        }
      ],
      "name": "buyOptionsToken",
      "outputs": [],
      "payable": true,
      "stateMutability": "payable",
      "type": "function"
    },
    {
      "constant": false,
      "inputs": [
        {
          "name": "optionsToken",
          "type": "address"
        },
        {
          "name": "amount",
          "type": "uint256"
        },
        {
          "name": "settlementCurrency",
          "type": "address"
        }
      ],
      "name": "sellOptionsToken",
      "outputs": [],
      "payable": false,
      "stateMutability": "nonpayable",
      "type": "function"
    },
    {
      "constant": false,
      "inputs": [],
      "name": "returnExpiredOrders",
      "outputs": [],
      "payable": false,
      "stateMutability": "nonpayable",
      "type": "function"
    },
    {
      "constant": true,
      "inputs": [
        {
          "name": "optionsToken",
          "type": "address"
        }
      ],
      "name": "isEligibleOptionsToken",
      "outputs": [
        {
          "name": "",
          "type": "bool"
        }
      ],
      "payable": false,
      "stateMutability": "view",
      "type": "function"
    }
  ],
  "bytecode": "0x60c060408190526003608081905260021960a05280556004805463fffffffd63ffffffff1990911617905561465060055560008054600160a060020a0319163317808255600160a060020a0316917f8be0079c531659141344cd1fd0a4f28419497f9722a3daafe3b4186f6b6457e0908290a36141db806100816000396000f30060806040526004361061019d5763ffffffff60e060020a60003504166302d397de81146101a257806309a9d76c146101c457806309c2f462146102295780632042e5c21461025e578063247f6fd81461027f5780632f4350c2146103c9578063434c0bc8146103de5780634c69c00f1461040f578063516ee76a1461043057806355cbfef1146104515780635c475d42146104ab578063715018a6146104c35780637ca4c5d9146104d8578063817bf86d146104f957806385d791021461051a5780638da5cb5b1461054d5780638f32d59b146105625780639195c3d01461057757806395a2251f146105a2578063964072ec146105c35780639965a4d5146105ea5780639ed3edf01461060b578063b18b78dd14610620578063be1d869614610635578063c2dc0b4714610687578063c78f6803146106ae578063c820f6ca146106cf578063cb80bc5d146106f6578063cdc328021461070b578063d6b637e814610810578063e4a9d2be14610828578063e7cd4a0414610846578063f20568cd14610867578063f2fde38b14610915578063faf0a43414610936575b600080fd5b6101c2600160a060020a0360043581169060243516604435606435610960565b005b3480156101d057600080fd5b506101d9610dd9565b60408051602080825283518183015283519192839290830191858101910280838360005b838110156102155781810151838201526020016101fd565b505050509050019250505060405180910390f35b34801561023557600080fd5b5061024a600160a060020a0360043516610e3c565b604080519115158252519081900360200190f35b34801561026a57600080fd5b506101c2600160a060020a0360043516610f1e565b34801561028b57600080fd5b506102a6600160a060020a036004358116906024351661100f565b6040518080602001806020018060200180602001858103855289818151815260200191508051906020019060200280838360005b838110156102f25781810151838201526020016102da565b50505050905001858103845288818151815260200191508051906020019060200280838360005b83811015610331578181015183820152602001610319565b50505050905001858103835287818151815260200191508051906020019060200280838360005b83811015610370578181015183820152602001610358565b50505050905001858103825286818151815260200191508051906020019060200280838360005b838110156103af578181015183820152602001610397565b505050509050019850505050505050505060405180910390f35b3480156103d557600080fd5b506101c261121f565b3480156103ea57600080fd5b506103f3611407565b60408051600160a060020a039092168252519081900360200190f35b34801561041b57600080fd5b506101c2600160a060020a0360043516611416565b6101c2600160a060020a036004358116906024359060443516606435611484565b34801561045d57600080fd5b5061047b600160a060020a03600435811690602435166044356119b2565b60408051600160a060020a0390951685526020850193909352838301919091526060830152519081900360800190f35b3480156104b757600080fd5b506103f3600435611a10565b3480156104cf57600080fd5b506101c2611a38565b3480156104e457600080fd5b506101c2600160a060020a0360043516611ace565b34801561050557600080fd5b5061024a600160a060020a0360043516611b3c565b34801561052657600080fd5b5061052f611b53565b60408051928352600391820b90910b60208301528051918290030190f35b34801561055957600080fd5b506103f3611b61565b34801561056e57600080fd5b5061024a611b70565b34801561058357600080fd5b506101c2600160a060020a036004358116906024359060443516611b81565b3480156105ae57600080fd5b506101c2600160a060020a03600435166120c4565b3480156105cf57600080fd5b506105d861225d565b60408051918252519081900360200190f35b3480156105f657600080fd5b506105d8600160a060020a0360043516612263565b34801561061757600080fd5b5061052f612275565b34801561062c57600080fd5b506103f3612282565b34801561064157600080fd5b5061065f600160a060020a0360043581169060243516604435612291565b60408051600160a060020a039094168452602084019290925282820152519081900360600190f35b34801561069357600080fd5b506101c2600160a060020a03600435811690602435166122ea565b3480156106ba57600080fd5b506105d8600160a060020a0360043516612606565b3480156106db57600080fd5b506101c2600160a060020a0360043581169060243516612621565b34801561070257600080fd5b506101c26129da565b34801561071757600080fd5b50610732600160a060020a0360043581169060243516612bea565b60405180806020018060200180602001848103845287818151815260200191508051906020019060200280838360005b8381101561077a578181015183820152602001610762565b50505050905001848103835286818151815260200191508051906020019060200280838360005b838110156107b95781810151838201526020016107a1565b50505050905001848103825285818151815260200191508051906020019060200280838360005b838110156107f85781810151838201526020016107e0565b50505050905001965050505050505060405180910390f35b34801561081c57600080fd5b506101c2600435612d8d565b34801561083457600080fd5b506101c260043560243560030b612dde565b34801561085257600080fd5b506101c2600160a060020a0360043516612e4b565b34801561087357600080fd5b5061087c612eff565b604051808060200180602001838103835285818151815260200191508051906020019060200280838360005b838110156108c05781810151838201526020016108a8565b50505050905001838103825284818151815260200191508051906020019060200280838360005b838110156108ff5781810151838201526020016108e7565b5050505090500194505050505060405180910390f35b34801561092157600080fd5b506101c2600160a060020a0360043516613008565b34801561094257600080fd5b506101c2600160a060020a0360043581169060243516604435613060565b60008060008060008061097289611b3c565b15156109ca576040805160e560020a62461bcd02815260206004820152602760248201526000805160206141908339815191526044820152600080516020614130833981519152606482015290519081900360840190fd5b6109d38a610e3c565b1515610a17576040805160e560020a62461bcd0281526020600482018190526024820152600080516020614150833981519152604482015290519081900360640190fd5b600754604080517fcd75e52c000000000000000000000000000000000000000000000000000000008152600160a060020a038d811660048301529151919092169163cd75e52c9160248083019260209291908290030181600087803b158015610a7f57600080fd5b505af1158015610a93573d6000803e3d6000fd5b505050506040513d6020811015610aa957600080fd5b5051600754604080517f41976e09000000000000000000000000000000000000000000000000000000008152600160a060020a038d8116600483015291519399509116916341976e09916024808201926020929091908290030181600087803b158015610b1557600080fd5b505af1158015610b29573d6000803e3d6000fd5b505050506040513d6020811015610b3f57600080fd5b50519450610b4e878787613257565b9094509250879150600160a060020a0389161515610b6e57349150610bf7565b506040805160e060020a6323b872dd0281523360048201523060248201526044810183905290518991600160a060020a038316916323b872dd916064808201926020929091908290030181600087803b158015610bca57600080fd5b505af1158015610bde573d6000803e3d6000fd5b505050506040513d6020811015610bf457600080fd5b50505b81610c08858563ffffffff6132de16565b1115610c84576040805160e560020a62461bcd02815260206004820152602560248201527f736574746c656d656e74732043757272656e637920697320696e73756666696360448201527f69656e7421000000000000000000000000000000000000000000000000000000606482015290519081900360840190fd5b600860008a600160a060020a0316600160a060020a0316815260200190815260200160002060008b600160a060020a0316600160a060020a0316815260200190815260200160002060806040519081016040528033600160a060020a03168152602001428152602001898152602001848152509080600181540180825580915050906001820390600052602060002090600402016000909192909190915060008201518160000160006101000a815481600160a060020a030219169083600160a060020a0316021790555060208201518160010155604082015181600201556060820151816003015550505088600160a060020a03168a600160a060020a031633600160a060020a03167f037427bc6ff89c0b05db989a67a82996bd2c2b2d27462fb590d8e4b4ffddc43c8a86604051808381526020018281526020019250505060405180910390a450505050505050505050565b60606001805480602002602001604051908101604052809291908181526020018280548015610e3157602002820191906000526020600020905b8154600160a060020a03168152600190910190602001808311610e13575b505050505090505b90565b600654604080517f3c03c859000000000000000000000000000000000000000000000000000000008152600160a060020a03848116600483015291516000938493849384939190921691633c03c8599160248083019260c092919082900301818787803b158015610eac57600080fd5b505af1158015610ec0573d6000803e3d6000fd5b505050506040513d60c0811015610ed657600080fd5b50608081015160a0909101516005549194509250610efa904263ffffffff6132de16565b9050600083118015610f0b57508281105b8015610f15575081155b95945050505050565b6000610f28611b70565b1515610f6c576040805160e560020a62461bcd0281526020600482018190526024820152600080516020614170833981519152604482015290519081900360640190fd5b610f7582613346565b60015490915081101561100b57600154600019018114610ff657600180546000198101908110610fa157fe5b60009182526020909120015460018054600160a060020a039092169183908110610fc757fe5b9060005260206000200160006101000a815481600160a060020a030219169083600160a060020a031602179055505b6001805490611009906000198301613fe8565b505b5050565b600160a060020a038082166000908152600860209081526040808320938616835292815282822080548451818152818402810190930190945260609384938493849392849283928392839291908015611072578160200160208202803883390190505b50865460408051828152602080840282010190915291965080156110a0578160200160208202803883390190505b50865460408051828152602080840282010190915291955080156110ce578160200160208202803883390190505b50865460408051828152602080840282010190915291945080156110fc578160200160208202803883390190505b509150600090505b855481101561120d57858181548110151561111b57fe5b60009182526020909120600490910201548551600160a060020a039091169086908390811061114657fe5b600160a060020a03909216602092830290910190910152855486908290811061116b57fe5b906000526020600020906004020160010154848281518110151561118b57fe5b6020908102909101015285548690829081106111a357fe5b90600052602060002090600402016002015483828151811015156111c357fe5b6020908102909101015285548690829081106111db57fe5b90600052602060002090600402016003015482828151811015156111fb57fe5b60209081029091010152600101611104565b50929a91995097509095509350505050565b600080600061122c611b70565b1515611270576040805160e560020a62461bcd0281526020600482018190526024820152600080516020614170833981519152604482015290519081900360640190fd5b600092505b600154831015611009576002600060018581548110151561129257fe5b6000918252602080832090910154600160a060020a0316835282019290925260400181205492508211156113fc576000600260006001868154811015156112d557fe5b6000918252602080832090910154600160a060020a03168352820192909252604001902055600180548490811061130857fe5b600091825260208220015460018054600160a060020a039092169350908590811061132f57fe5b600091825260209091200154600160a060020a0316141561137d57604051339083156108fc029084906000818181858888f19350505050158015611377573d6000803e3d6000fd5b506113fc565b6040805160e060020a63a9059cbb028152336004820152602481018490529051600160a060020a0383169163a9059cbb9160448083019260209291908290030181600087803b1580156113cf57600080fd5b505af11580156113e3573d6000803e3d6000fd5b505050506040513d60208110156113f957600080fd5b50505b600190920191611275565b600654600160a060020a031690565b61141e611b70565b1515611462576040805160e560020a62461bcd0281526020600482018190526024820152600080516020614170833981519152604482015290519081900360640190fd5b60078054600160a060020a031916600160a060020a0392909216919091179055565b600080600080600080600080600080600760009054906101000a9004600160a060020a0316600160a060020a0316638618b1d88f6040518263ffffffff1660e060020a0281526004018082600160a060020a0316600160a060020a03168152602001915050602060405180830381600087803b15801561150357600080fd5b505af1158015611517573d6000803e3d6000fd5b505050506040513d602081101561152d57600080fd5b81019080805190602001909291905050509950600760009054906101000a9004600160a060020a0316600160a060020a03166341976e098d6040518263ffffffff1660e060020a0281526004018082600160a060020a0316600160a060020a03168152602001915050602060405180830381600087803b1580156115b057600080fd5b505af11580156115c4573d6000803e3d6000fd5b505050506040513d60208110156115da57600080fd5b505198508b9750600160a060020a03881615156115f957349a5061167e565b6040805160e060020a6323b872dd028152336004820152306024820152604481018d90529051600160a060020a038a16916323b872dd9160648083019260209291908290030181600087803b15801561165157600080fd5b505af1158015611665573d6000803e3d6000fd5b505050506040513d602081101561167b57600080fd5b50505b6116898d8b8b613257565b90975095508a61169f888863ffffffff6132de16565b11156116f5576040805160e560020a62461bcd02815260206004820152601a60248201527f7061792076616c756520697320696e73756666696369656e7421000000000000604482015290519081900360640190fd5b60009450600960008d600160a060020a0316600160a060020a0316815260200190815260200160002060008f600160a060020a0316600160a060020a031681526020019081526020016000209350600092505b8354831015611870578c9150838381548110151561176257fe5b9060005260206000209060030201600201548d111561179e57838381548110151561178957fe5b90600052602060002090600302016002015491505b6117ae8d8363ffffffff61339b16565b9c506117c0858363ffffffff6132de16565b9450600090506117fd8e838c8f8f8e8a8a8154811015156117dd57fe5b6000918252602090912060039091020154600160a060020a0316336133e4565b809c50819250505061183781858581548110151561181757fe5b90600052602060002090600302016002015461339b90919063ffffffff16565b848481548110151561184557fe5b60009182526020909120600260039092020101558c151561186557611870565b600190920191611748565b60008b111561193b57600160a060020a038c1615156118bc5760405133908c156108fc02908d906000818181858888f193505050501580156118b6573d6000803e3d6000fd5b5061193b565b6040805160e060020a63a9059cbb028152336004820152602481018d90529051600160a060020a038a169163a9059cbb9160448083019260209291908290030181600087803b15801561190e57600080fd5b505af1158015611922573d6000803e3d6000fd5b505050506040513d602081101561193857600080fd5b50505b8b600160a060020a03168e600160a060020a031633600160a060020a03167f43a0b4cb480b6fabeb5b020e5de4a50fb8457cc42d94ba9db22f96acd7a02e2f8d89604051808381526020018281526020019250505060405180910390a46119a28e8d6135c8565b5050505050505050505050505050565b6008602052826000526040600020602052816000526040600020818154811015156119d957fe5b60009182526020909120600490910201805460018201546002830154600390930154600160a060020a039092169550935090915084565b6001805482908110611a1e57fe5b600091825260209091200154600160a060020a0316905081565b611a40611b70565b1515611a84576040805160e560020a62461bcd0281526020600482018190526024820152600080516020614170833981519152604482015290519081900360640190fd5b60008054604051600160a060020a03909116907f8be0079c531659141344cd1fd0a4f28419497f9722a3daafe3b4186f6b6457e0908390a360008054600160a060020a0319169055565b611ad6611b70565b1515611b1a576040805160e560020a62461bcd0281526020600482018190526024820152600080516020614170833981519152604482015290519081900360640190fd5b60068054600160a060020a031916600160a060020a0392909216919091179055565b600080611b4883613346565b600154119392505050565b6003805460045490910b9091565b600054600160a060020a031690565b600054600160a060020a0316331490565b6000806000806000806000806000600760009054906101000a9004600160a060020a0316600160a060020a031663cd75e52c8d6040518263ffffffff1660e060020a0281526004018082600160a060020a0316600160a060020a03168152602001915050602060405180830381600087803b158015611bff57600080fd5b505af1158015611c13573d6000803e3d6000fd5b505050506040513d6020811015611c2957600080fd5b5051600754604080517f41976e09000000000000000000000000000000000000000000000000000000008152600160a060020a038e811660048301529151939c509116916341976e09916024808201926020929091908290030181600087803b158015611c9557600080fd5b505af1158015611ca9573d6000803e3d6000fd5b505050506040513d6020811015611cbf57600080fd5b50516040805160e060020a6323b872dd028152336004820152306024820152604481018e90529051919950600098508d9750600160a060020a038816916323b872dd9160648082019260209290919082900301818d87803b158015611d2357600080fd5b505af1158015611d37573d6000803e3d6000fd5b505050506040513d6020811015611d4d57600080fd5b810190808051906020019092919050505050600860008b600160a060020a0316600160a060020a0316815260200190815260200160002060008d600160a060020a0316600160a060020a031681526020019081526020016000209450600093505b8454841015611fc757611ddd8585815481101515611dc857fe5b90600052602060002090600402018a8a613743565b1515611de857611fbc565b8a92508484815481101515611df957fe5b906000526020600020906004020160020154831115611e35578484815481101515611e2057fe5b90600052602060002090600402016002015492505b611e458b8463ffffffff61339b16565b9a50611e9d8c848b8d8989815481101515611e5c57fe5b9060005260206000209060040201600301548d338c8c815481101515611e7e57fe5b6000918252602090912060049091020154600160a060020a03166133e4565b9092509050611eb2878363ffffffff6132de16565b6040805160028152602081018e905280820183905290519198507f36bc09f07bcf3d3fa05df7f9c56193487df0507ecd1d5a83845b56b4e6d7b733919081900360600190a160408051600381526020810184905280820183905290517f36bc09f07bcf3d3fa05df7f9c56193487df0507ecd1d5a83845b56b4e6d7b7339181900360600190a1611f6a828686815481101515611f4a57fe5b90600052602060002090600402016002015461339b90919063ffffffff16565b8585815481101515611f7857fe5b906000526020600020906004020160020181905550808585815481101515611f9c57fe5b60009182526020909120600360049092020101558a1515611fbc57611fc7565b600190930192611dae565b60008b111561204f576040805160e060020a63a9059cbb028152336004820152602481018d90529051600160a060020a0388169163a9059cbb9160448083019260209291908290030181600087803b15801561202257600080fd5b505af1158015612036573d6000803e3d6000fd5b505050506040513d602081101561204c57600080fd5b50505b89600160a060020a03168c600160a060020a031633600160a060020a03167f02f1e5913ef83e93671fdaadc56865e58d0fdc2ac9542168576dc264f0e7e6258c8b604051808381526020018281526020019250505060405180910390a46120b68c8b61378e565b505050505050505050505050565b6000806120cf611b70565b1515612113576040805160e560020a62461bcd0281526020600482018190526024820152600080516020614170833981519152604482015290519081900360640190fd5b600160a060020a03831660009081526002602052604081205492508211612184576040805160e560020a62461bcd02815260206004820152601260248201527f4974277320656d7074792062616c616e63650000000000000000000000000000604482015290519081900360640190fd5b600160a060020a03831660008181526002602052604081205515156121d657604051339083156108fc029084906000818181858888f193505050501580156121d0573d6000803e3d6000fd5b50611009565b506040805160e060020a63a9059cbb0281523360048201526024810183905290518391600160a060020a0383169163a9059cbb916044808201926020929091908290030181600087803b15801561222c57600080fd5b505af1158015612240573d6000803e3d6000fd5b505050506040513d602081101561225657600080fd5b5050505050565b60055490565b60026020526000908152604090205481565b6003805460045490910b82565b600754600160a060020a031690565b6009602052826000526040600020602052816000526040600020818154811015156122b857fe5b6000918252602090912060039091020180546001820154600290920154600160a060020a039091169450909250905083565b60008060006122f884611b3c565b1515612350576040805160e560020a62461bcd02815260206004820152602760248201526000805160206141908339815191526044820152600080516020614130833981519152606482015290519081900360840190fd5b61235985610e3c565b151561239d576040805160e560020a62461bcd0281526020600482018190526024820152600080516020614150833981519152604482015290519081900360640190fd5b600160a060020a0380851660009081526008602090815260408083209389168352929052908120935091505b825482101561225657825433908490849081106123e257fe5b6000918252602090912060049091020154600160a060020a031614156125fb57612427838381548110151561241357fe5b906000526020600020906004020185613959565b83600160a060020a031685600160a060020a031633600160a060020a03167ff81bcca176688c65e4a4e80da865bc4ca0dd7afb9c992a29cc4473825c9f60fc868681548110151561247457fe5b9060005260206000209060040201600201546040518082815260200191505060405180910390a450600181015b82548110156125e55782818154811015156124b857fe5b60009182526020909120600490910201548354600160a060020a03909116908490849081106124e357fe5b600091825260209091206004909102018054600160a060020a031916600160a060020a0392909216919091179055825483908290811061251f57fe5b906000526020600020906004020160010154838381548110151561253f57fe5b906000526020600020906004020160010181905550828181548110151561256257fe5b906000526020600020906004020160020154838381548110151561258257fe5b90600052602060002090600402016002018190555082818154811015156125a557fe5b90600052602060002090600402016003015483838154811015156125c557fe5b6000918252602090912060036004909202010155600191820191016124a1565b82546125f584600019830161400c565b50612256565b6001909101906123c9565b600160a060020a031660009081526002602052604090205490565b600080600080600061263286611b3c565b151561268a576040805160e560020a62461bcd02815260206004820152602760248201526000805160206141908339815191526044820152600080516020614130833981519152606482015290519081900360840190fd5b61269387610e3c565b15156126d7576040805160e560020a62461bcd0281526020600482018190526024820152600080516020614150833981519152604482015290519081900360640190fd5b600160a060020a038087166000908152600960209081526040808320938b168352929052908120955093505b84548410156129d1578454339086908690811061271c57fe5b6000918252602090912060039091020154600160a060020a031614156129c657848481548110151561274a57fe5b90600052602060002090600302016002015492506000858581548110151561276e57fe5b9060005260206000209060030201600201541115612854576000858581548110151561279657fe5b90600052602060002090600302016002018190555086915081600160a060020a031663a9059cbb86868154811015156127cb57fe5b600091825260208083206003909202909101546040805160e060020a63ffffffff8716028152600160a060020a039092166004830152602482018990525160448083019491928390030190829087803b15801561282757600080fd5b505af115801561283b573d6000803e3d6000fd5b505050506040513d602081101561285157600080fd5b50505b85600160a060020a031687600160a060020a031633600160a060020a03167f7d52d0563d10554ad8ebb839d322d4a4cccffc38148b0939e854fea1747bb5d8866040518082815260200191505060405180910390a450600183015b84548110156129b05784818154811015156128c657fe5b60009182526020909120600390910201548554600160a060020a03909116908690869081106128f157fe5b600091825260209091206003909102018054600160a060020a031916600160a060020a0392909216919091179055845485908290811061292d57fe5b906000526020600020906003020160010154858581548110151561294d57fe5b906000526020600020906003020160010181905550848181548110151561297057fe5b906000526020600020906003020160020154858581548110151561299057fe5b6000918252602090912060026003909202010155600193840193016128af565b84546129c0866000198301614038565b506129d1565b600190930192612703565b50505050505050565b6060600080600660009054906101000a9004600160a060020a0316600160a060020a031663c53ca5a96040518163ffffffff1660e060020a028152600401600060405180830381600087803b158015612a3257600080fd5b505af1158015612a46573d6000803e3d6000fd5b505050506040513d6000823e601f3d908101601f191682016040526020811015612a6f57600080fd5b810190808051640100000000811115612a8757600080fd5b82016020810184811115612a9a57600080fd5b8151856020820283011164010000000082111715612ab757600080fd5b5090965060009550505050505b825182101561100957612aed8383815181101515612ade57fe5b90602001906020020151610e3c565b1515612bdf575060005b600154811015612b9157612b458383815181101515612b1257fe5b90602001906020020151600183815481101515612b2b57fe5b600091825260209091200154600160a060020a0316613a4e565b612b898383815181101515612b5657fe5b90602001906020020151600183815481101515612b6f57fe5b600091825260209091200154600160a060020a0316613bd2565b600101612af7565b8282815181101515612b9f57fe5b90602001906020020151600160a060020a03167fbfcfff685af73fefa61b6c5ff2859a6ffefbf27dd0a03a8dc0c9e2a97ec33c2260405160405180910390a25b600190910190612ac4565b600160a060020a03808216600090815260096020908152604080832093861683529281528282208054845181815281840281019093019094526060938493849384928392839290918015612c48578160200160208202803883390190505b5085546040805182815260208084028201019091529195508015612c76578160200160208202803883390190505b5085546040805182815260208084028201019091529194508015612ca4578160200160208202803883390190505b509150600090505b8454811015612d7d578481815481101515612cc357fe5b60009182526020909120600390910201548451600160a060020a0390911690859083908110612cee57fe5b600160a060020a039092166020928302909101909101528454859082908110612d1357fe5b9060005260206000209060030201600101548382815181101515612d3357fe5b602090810290910101528454859082908110612d4b57fe5b9060005260206000209060030201600201548282815181101515612d6b57fe5b60209081029091010152600101612cac565b5091989097509095509350505050565b612d95611b70565b1515612dd9576040805160e560020a62461bcd0281526020600482018190526024820152600080516020614170833981519152604482015290519081900360640190fd5b600555565b612de6611b70565b1515612e2a576040805160e560020a62461bcd0281526020600482018190526024820152600080516020614170833981519152604482015290519081900360640190fd5b6003918255600480549190920b63ffffffff1663ffffffff19909116179055565b6000612e55611b70565b1515612e99576040805160e560020a62461bcd0281526020600482018190526024820152600080516020614170833981519152604482015290519081900360640190fd5b612ea282613346565b60015490915081141561100b576001805480820182556000919091527fb10e2d527612073b26eecdfd717e6a320cf44b4afac2b0732d9fcbe2b7fa0cf6018054600160a060020a038416600160a060020a03199091161790555050565b60608060606000600180549050604051908082528060200260200182016040528015612f35578160200160208202803883390190505b509150600090505b600154811015612f9f5760026000600183815481101515612f5a57fe5b6000918252602080832090910154600160a060020a031683528201929092526040019020548251839083908110612f8d57fe5b60209081029091010152600101612f3d565b60018281805480602002602001604051908101604052809291908181526020018280548015612ff757602002820191906000526020600020905b8154600160a060020a03168152600190910190602001808311612fd9575b505050505091509350935050509091565b613010611b70565b1515613054576040805160e560020a62461bcd0281526020600482018190526024820152600080516020614170833981519152604482015290519081900360640190fd5b61305d81613c61565b50565b600061306b83611b3c565b15156130c3576040805160e560020a62461bcd02815260206004820152602760248201526000805160206141908339815191526044820152600080516020614130833981519152606482015290519081900360840190fd5b6130cc84610e3c565b1515613110576040805160e560020a62461bcd0281526020600482018190526024820152600080516020614150833981519152604482015290519081900360640190fd5b506040805160e060020a6323b872dd0281523360048201523060248201526044810183905290518491600160a060020a038316916323b872dd916064808201926020929091908290030181600087803b15801561316c57600080fd5b505af1158015613180573d6000803e3d6000fd5b505050506040513d602081101561319657600080fd5b5050600160a060020a038381166000818152600960209081526040808320898616808552908352818420825160608101845233808252428287019081528286018c8152845460018082018755958a5298889020935160039099029093018054600160a060020a03191698909a1697909717895595519188019190915551600290960195909555805187815290519394937f1d0edf86fe7c1c3f91533fb96cf812384c2b1b506231ee4ebfb21fdd9cf9561a929181900390910190a450505050565b60008080808061326d878963ffffffff613d4216565b925061327f838763ffffffff613de116565b60408051808201909152600380548252600454810b810b900b60208201529092506132aa9083613e23565b90506132bc828263ffffffff61339b16565b91506132cf81600263ffffffff613d4216565b91989197509095505050505050565b60008282018381101561333b576040805160e560020a62461bcd02815260206004820152601b60248201527f536166654d6174683a206164646974696f6e206f766572666c6f770000000000604482015290519081900360640190fd5b8091505b5092915050565b6000805b6001548110156133955782600160a060020a031660018281548110151561336d57fe5b600091825260209091200154600160a060020a0316141561338d57613395565b60010161334a565b92915050565b60006133dd83836040805190810160405280601e81526020017f536166654d6174683a207375627472616374696f6e206f766572666c6f770000815250613e96565b9392505050565b6000806000806000806133f88d8d8b613257565b90945092508961340e858563ffffffff6132de16565b111561342057600095508994506135b7565b8d915081600160a060020a031663a9059cbb888f6040518363ffffffff1660e060020a0281526004018083600160a060020a0316600160a060020a0316815260200182815260200192505050602060405180830381600087803b15801561348657600080fd5b505af115801561349a573d6000803e3d6000fd5b505050506040513d60208110156134b057600080fd5b5050600160a060020a038b1615156134fe57604051600160a060020a0389169085156108fc029086906000818181858888f193505050501580156134f8573d6000803e3d6000fd5b50613582565b506040805160e060020a63a9059cbb028152600160a060020a0389811660048301526024820186905291518c9283169163a9059cbb9160448083019260209291908290030181600087803b15801561355557600080fd5b505af1158015613569573d6000803e3d6000fd5b505050506040513d602081101561357f57600080fd5b50505b613592848463ffffffff6132de16565b93506135a48a8563ffffffff61339b16565b99506135b08b84613f33565b8c8a955095505b505050509850989650505050505050565b600160a060020a038082166000908152600960209081526040808320938616835292905290812090805b8254811015613727576000838281548110151561360b57fe5b906000526020600020906003020160020154111561371f5780821461371857828181548110151561363857fe5b60009182526020909120600390910201548354600160a060020a039091169084908490811061366357fe5b600091825260209091206003909102018054600160a060020a031916600160a060020a0392909216919091179055825483908290811061369f57fe5b90600052602060002090600302016001015483838154811015156136bf57fe5b90600052602060002090600302016001018190555082818154811015156136e257fe5b906000526020600020906003020160020154838381548110151561370257fe5b9060005260206000209060030201600201819055505b6001909101905b6001016135f2565b8254821015612256578161373b8482614038565b505050505050565b600080600061375786600201548686613257565b60038801549193509150613771838363ffffffff6132de16565b11156137805760009250613785565b600192505b50509392505050565b600160a060020a038082166000908152600860209081526040808320938616835292905290812090805b825481101561394557600083828154811015156137d157fe5b906000526020600020906004020160020154111561392c578082146139215782818154811015156137fe57fe5b60009182526020909120600490910201548354600160a060020a039091169084908490811061382957fe5b600091825260209091206004909102018054600160a060020a031916600160a060020a0392909216919091179055825483908290811061386557fe5b906000526020600020906004020160010154838381548110151561388557fe5b90600052602060002090600402016001018190555082818154811015156138a857fe5b90600052602060002090600402016002015483838154811015156138c857fe5b90600052602060002090600402016002018190555082818154811015156138eb57fe5b906000526020600020906004020160030154838381548110151561390b57fe5b9060005260206000209060040201600301819055505b60019091019061393d565b61393d838281548110151561241357fe5b6001016137b8565b8254821015612256578161373b848261400c565b600080600084600301541115613a485760038401805460009091559150600160a060020a03831615156139c5578354604051600160a060020a039091169083156108fc029084906000818181858888f193505050501580156139bf573d6000803e3d6000fd5b50613a48565b5082546040805160e060020a63a9059cbb028152600160a060020a039283166004820152602481018490529051849283169163a9059cbb9160448083019260209291908290030181600087803b158015613a1e57600080fd5b505af1158015613a32573d6000803e3d6000fd5b505050506040513d602081101561373b57600080fd5b50505050565b600160a060020a03808216600090815260096020908152604080832093861683529290529081208391805b8254821015613ba25760008383815481101515613a9257fe5b9060005260206000209060030201600201541115613b97578282815481101515613ab857fe5b906000526020600020906003020160020154905060008383815481101515613adc57fe5b90600052602060002090600302016002018190555083600160a060020a031663a9059cbb8484815481101515613b0e57fe5b600091825260208083206003909202909101546040805160e060020a63ffffffff8716028152600160a060020a039092166004830152602482018790525160448083019491928390030190829087803b158015613b6a57600080fd5b505af1158015613b7e573d6000803e3d6000fd5b505050506040513d6020811015613b9457600080fd5b50505b600190910190613a79565b600160a060020a038086166000908152600960209081526040808320938a16835292905290812061373b91614064565b600160a060020a0380821660009081526008602090815260408083209386168352929052908120905b8154811015613c3157613c298282815481101515613c1557fe5b906000526020600020906004020184613959565b600101613bfb565b600160a060020a0380841660009081526008602090815260408083209388168352929052908120613a4891614085565b600160a060020a0381161515613ce7576040805160e560020a62461bcd02815260206004820152602660248201527f4f776e61626c653a206e6577206f776e657220697320746865207a65726f206160448201527f6464726573730000000000000000000000000000000000000000000000000000606482015290519081900360840190fd5b60008054604051600160a060020a03808516939216917f8be0079c531659141344cd1fd0a4f28419497f9722a3daafe3b4186f6b6457e091a360008054600160a060020a031916600160a060020a0392909216919091179055565b600080831515613d55576000915061333f565b50828202828482811515613d6557fe5b041461333b576040805160e560020a62461bcd02815260206004820152602160248201527f536166654d6174683a206d756c7469706c69636174696f6e206f766572666c6f60448201527f7700000000000000000000000000000000000000000000000000000000000000606482015290519081900360840190fd5b60006133dd83836040805190810160405280601a81526020017f536166654d6174683a206469766973696f6e206279207a65726f000000000000815250613f7c565b81516000908190613e3a908463ffffffff613d4216565b90506000846020015160030b1315613e6f576020840151613e6890829060030b600a0a63ffffffff613d4216565b905061333b565b6020840151613e8e90829060000360030b600a0a63ffffffff613de116565b949350505050565b6000808285851115613f295760405160e560020a62461bcd0281526004018080602001828103825283818151815260200191508051906020019080838360005b83811015613eee578181015183820152602001613ed6565b50505050905090810190601f168015613f1b5780820380516001836020036101000a031916815260200191505b509250505060405180910390fd5b5050509103919050565b600160a060020a038216600090815260026020526040902054613f5c908263ffffffff6132de16565b600160a060020a0390921660009081526002602052604090209190915550565b60008082818511613fd25760405160e560020a62461bcd02815260040180806020018281038252838181518152602001915080519060200190808383600083811015613eee578181015183820152602001613ed6565b508385811515613fde57fe5b0495945050505050565b815481835581811115611009576000838152602090206110099181019083016140a6565b8154818355818111156110095760040281600402836000526020600020918201910161100991906140c4565b8154818355818111156110095760030281600302836000526020600020918201910161100991906140fd565b508054600082556003029060005260206000209081019061305d91906140fd565b508054600082556004029060005260206000209081019061305d91906140c4565b610e3991905b808211156140c057600081556001016140ac565b5090565b610e3991905b808211156140c0578054600160a060020a03191681556000600182018190556002820181905560038201556004016140ca565b610e3991905b808211156140c0578054600160a060020a0319168155600060018201819055600282015560030161410356006c696769626c650000000000000000000000000000000000000000000000000054686973206f7074696f6e7320746f6b656e20697320696e656c696769626c654f776e61626c653a2063616c6c6572206973206e6f7420746865206f776e65725468697320736574746c656d656e74732063757272656e637920697320696e65a165627a7a72305820fc962028c403678468520cb5782062ab2959188ab904e8d3d3ddf11d40e9188f0029",
  "source": "pragma solidity ^0.4.26;\r\nimport \"./TransactionFee.sol\";\r\nimport \"./CompoundOracleInterface.sol\";\r\nimport \"./SafeMath.sol\";\r\nimport \"./IERC20.sol\";\r\nimport \"./IOptionsManager.sol\";\r\ncontract MatchMakingTrading is TransactionFee {\r\n    using SafeMath for uint256;\r\n    //sell options order defination\r\n    struct SellOptionsOrder {\r\n        address owner;\r\n        uint256 createdTime;\r\n        uint256 amount;\r\n    }\r\n    //pay options order defination\r\n    struct PayOptionsOrder {\r\n        address owner;\r\n        uint256 createdTime;\r\n        uint256 amount;\r\n        uint256 settlementsAmount;\r\n    }\r\n    //_tradingEnd is a deadline of a options token trading. All orders can trade before optionsToken's expiration-tradingEnd. After that time,\r\n    //all Orders will be retrurned back to the owner.\r\n    uint256 private _tradingEnd = 5 hours;\r\n    //options manager interface;\r\n    IOptionsManager private _optionsManager;\r\n    //oracle interface.\r\n    ICompoundOracle private _oracle;\r\n    //mapping settlementCurrency => OptionsToken => OptionsOrder\r\n    mapping(address => mapping(address => PayOptionsOrder[])) public payOrderMap;\r\n    mapping(address => mapping(address => SellOptionsOrder[])) public sellOrderMap;\r\n\r\n    event AddPayOrder(address indexed from,address indexed optionsToken,address indexed settlementCurrency,uint256 amount, uint256 settlementsAmount);\r\n    event AddSellOrder(address indexed from,address indexed optionsToken,address indexed settlementCurrency,uint256 amount);\r\n    event SellOptionsToken(address indexed from,address indexed optionsToken,address indexed settlementCurrency,uint256 optionsPrice,uint256 amount);\r\n    event BuyOptionsToken(address indexed from,address indexed optionsToken,address indexed settlementCurrency,uint256 optionsPrice,uint256 amount);\r\n    event ReturnExpiredOrders(address indexed optionsToken);\r\n    event RedeemPayOrder(address indexed from,address indexed optionsToken,address indexed settlementCurrency,uint256 amount);\r\n    event RedeemSellOrder(address indexed from,address indexed optionsToken,address indexed settlementCurrency,uint256 amount);\r\n    event DebugEvent(uint256 value0,uint256 value1,uint256 value2);\r\n    //*******************getter***********************\r\n    function getOracleAddress() public view returns(address){\r\n        return address(_oracle);\r\n    }\r\n    function getOptionsManagerAddress() public view returns(address){\r\n        return address(_optionsManager);\r\n    }\r\n    function getTradingEnd() public view returns(uint256){\r\n        return _tradingEnd;\r\n    }\r\n    /**\r\n      * @dev getting all of the pay orders;\r\n      * @param optionsToken options token address\r\n      * @param settlementCurrency the settlement currency address\r\n      * @return owner account, created time, buy amount, settlements deposition.\r\n      */\r\n    function getPayOrderList(address optionsToken,address settlementCurrency) public view returns(address[],uint256[],uint256[],uint256[]){\r\n        PayOptionsOrder[] storage payOrders = payOrderMap[settlementCurrency][optionsToken];\r\n        address[] memory owners = new address[](payOrders.length);\r\n        uint256[] memory times = new uint256[](payOrders.length);\r\n        uint256[] memory amounts = new uint256[](payOrders.length);\r\n        uint256[] memory settlements = new uint256[](payOrders.length);\r\n        for (uint i=0;i<payOrders.length;i++){\r\n            owners[i] = payOrders[i].owner;\r\n            times[i] = payOrders[i].createdTime;\r\n            amounts[i] = payOrders[i].amount;\r\n            settlements[i] = payOrders[i].settlementsAmount;\r\n        }\r\n        return (owners,times,amounts,settlements);\r\n    }\r\n    /**\r\n      * @dev getting all of the sell orders;\r\n      * @param optionsToken options token address\r\n      * @param settlementCurrency the settlement currency address\r\n      * @return owner account, created time, sell amount.\r\n      */\r\n    function getSellOrderList(address optionsToken,address settlementCurrency) public view returns(address[],uint256[],uint256[]){\r\n         SellOptionsOrder[] storage sellOrders = sellOrderMap[settlementCurrency][optionsToken];\r\n        address[] memory owners = new address[](sellOrders.length);\r\n        uint256[] memory times = new uint256[](sellOrders.length);\r\n        uint256[] memory amounts = new uint256[](sellOrders.length);\r\n        for (uint i=0;i<sellOrders.length;i++){\r\n            owners[i] = sellOrders[i].owner;\r\n            times[i] = sellOrders[i].createdTime;\r\n            amounts[i] = sellOrders[i].amount;\r\n        }\r\n        return (owners,times,amounts);\r\n    }\r\n    //*******************setter***********************\r\n    function setOracleAddress(address oracle)public onlyOwner{\r\n        _oracle = ICompoundOracle(oracle);\r\n    }\r\n    function setOptionsManagerAddress(address optionsManager)public onlyOwner{\r\n        _optionsManager = IOptionsManager(optionsManager);\r\n    }\r\n    function setTradingEnd(uint256 tradingEnd) public onlyOwner {\r\n        _tradingEnd = tradingEnd;\r\n    }\r\n    /**\r\n      * @dev add a pay order, if your deposition is insufficient, your order will be disable.\r\n      * @param optionsToken options token address\r\n      * @param settlementCurrency the settlement currency address\r\n      * @param deposit you need to deposit some settlement currency to pay the order.deposit is the amount of settlement currency to pay.\r\n      * @param buyAmount the options token amount you want to buy.\r\n      */\r\n    function addPayOrder(address optionsToken,address settlementCurrency,uint256 deposit,uint256 buyAmount) public payable{\r\n        require(isEligibleAddress(settlementCurrency),\"This settlements currency is ineligible\");\r\n        require(isEligibleOptionsToken(optionsToken),\"This options token is ineligible\");\r\n        uint256 tokenPrice = _oracle.getSellOptionsPrice(optionsToken);\r\n        uint256 currencyPrice = _oracle.getPrice(settlementCurrency);\r\n        (uint256 optionsPay, uint256 transFee) = _calPayment(buyAmount,tokenPrice,currencyPrice);\r\n        uint256 settlements = deposit;\r\n        if (settlementCurrency == address(0)){\r\n            settlements = msg.value;\r\n        }else{\r\n            IERC20 settlement = IERC20(settlementCurrency);\r\n            settlement.transferFrom(msg.sender,address(this),settlements);           \r\n        }\r\n        require(optionsPay.add(transFee)<=settlements,\"settlements Currency is insufficient!\");\r\n        payOrderMap[settlementCurrency][optionsToken].push(PayOptionsOrder(msg.sender,now,buyAmount,settlements));\r\n        emit AddPayOrder(msg.sender,optionsToken,settlementCurrency,buyAmount,settlements);\r\n    }\r\n    /**\r\n      * @dev add a sell order. The Amount of options token will be transfered into contract address.\r\n      * @param optionsToken options token address\r\n      * @param settlementCurrency the settlement currency address\r\n      * @param amount the options token amount you want to sell.\r\n      */\r\n    function addSellOrder(address optionsToken,address settlementCurrency,uint256 amount) public {\r\n        require(isEligibleAddress(settlementCurrency),\"This settlements currency is ineligible\");\r\n        require(isEligibleOptionsToken(optionsToken),\"This options token is ineligible\");\r\n        IERC20 ERC20Token = IERC20(optionsToken);\r\n        ERC20Token.transferFrom(msg.sender,address(this),amount);  \r\n        sellOrderMap[settlementCurrency][optionsToken].push(SellOptionsOrder(msg.sender,now,amount));\r\n        emit AddSellOrder(msg.sender,optionsToken,settlementCurrency,amount);\r\n    }\r\n    /**\r\n      * @dev redeem a pay order.redeem the earliest pay order.return back the deposition.\r\n      * @param optionsToken options token address\r\n      * @param settlementCurrency the settlement currency address\r\n      */    \r\n    function redeemPayOrder(address optionsToken,address settlementCurrency) public{\r\n        require(isEligibleAddress(settlementCurrency),\"This settlements currency is ineligible\");\r\n        require(isEligibleOptionsToken(optionsToken),\"This options token is ineligible\");\r\n        PayOptionsOrder[] storage orderList = payOrderMap[settlementCurrency][optionsToken];\r\n        for (uint256 i=0;i<orderList.length;i++){\r\n            if (orderList[i].owner == msg.sender){\r\n                _returnPayOrders(orderList[i],settlementCurrency);\r\n                emit RedeemPayOrder(msg.sender,optionsToken,settlementCurrency,orderList[i].amount);\r\n                for (uint256 j=i+1;j<orderList.length;j++) {\r\n                    orderList[i].owner = orderList[j].owner;\r\n                    orderList[i].createdTime = orderList[j].createdTime;\r\n                    orderList[i].amount = orderList[j].amount;\r\n                    orderList[i].settlementsAmount = orderList[j].settlementsAmount;\r\n                    i++;\r\n                }\r\n                orderList.length--;\r\n                break;\r\n            }\r\n        }\r\n\r\n    }\r\n    /**\r\n      * @dev redeem a sell order.redeem the earliest sell order.return back the options token.\r\n      * @param optionsToken options token address\r\n      * @param settlementCurrency the settlement currency address\r\n      */    \r\n    function redeemSellOrder(address optionsToken,address settlementCurrency) public {\r\n        require(isEligibleAddress(settlementCurrency),\"This settlements currency is ineligible\");\r\n        require(isEligibleOptionsToken(optionsToken),\"This options token is ineligible\");\r\n        SellOptionsOrder[] storage orderList = sellOrderMap[settlementCurrency][optionsToken];\r\n        for (uint256 i=0;i<orderList.length;i++){\r\n            if (orderList[i].owner == msg.sender){\r\n                uint256 tokenAmount = orderList[i].amount;\r\n                if (orderList[i].amount > 0){\r\n                    orderList[i].amount = 0;\r\n                    IERC20 options = IERC20(optionsToken);\r\n                    options.transfer(orderList[i].owner,tokenAmount);\r\n                }\r\n                emit RedeemSellOrder(msg.sender,optionsToken,settlementCurrency,tokenAmount);\r\n                for (uint256 j=i+1;j<orderList.length;j++) {\r\n                    orderList[i].owner = orderList[j].owner;\r\n                    orderList[i].createdTime = orderList[j].createdTime;\r\n                    orderList[i].amount = orderList[j].amount;\r\n                    i++;\r\n                }\r\n                orderList.length--;\r\n                break;\r\n            }\r\n        }\r\n    }\r\n    /**\r\n      * @dev buy amount options token form sell order.\r\n      * @param optionsToken options token address\r\n      * @param amount options token amount you want to buy\r\n      * @param settlementCurrency the settlement currency address\r\n      * @param currencyAmount the settlement currency amount will be payed for\r\n      */     \r\n    function buyOptionsToken(address optionsToken,uint256 amount,address settlementCurrency,uint256 currencyAmount) public payable {\r\n        uint256 tokenPrice = _oracle.getBuyOptionsPrice(optionsToken);\r\n        uint256 currencyPrice = _oracle.getPrice(settlementCurrency);\r\n        IERC20 settlement = IERC20(settlementCurrency);\r\n        if (settlementCurrency == address (0)) {\r\n            currencyAmount = msg.value;\r\n        }else{\r\n            settlement.transferFrom(msg.sender,address(this),currencyAmount);      \r\n        }\r\n        (uint256 allPay,uint256 transFee) = _calPayment(amount,tokenPrice,currencyPrice);\r\n        require(allPay.add(transFee)<=currencyAmount,\"pay value is insufficient!\");\r\n        uint256 _totalBuy = 0;\r\n        SellOptionsOrder[] storage orderList = sellOrderMap[settlementCurrency][optionsToken];\r\n        for (uint256 i=0;i<orderList.length;i++) {\r\n            uint256 optionsAmount = amount;\r\n            if (amount > orderList[i].amount) {\r\n                optionsAmount = orderList[i].amount;\r\n            }\r\n            amount = amount.sub(optionsAmount);\r\n            _totalBuy = _totalBuy.add(optionsAmount);\r\n            uint256 sellAmount = 0;\r\n            (sellAmount,currencyAmount) = _orderTrading(optionsToken,optionsAmount,tokenPrice,settlementCurrency,currencyAmount,currencyPrice,\r\n            orderList[i].owner,msg.sender);\r\n            orderList[i].amount = orderList[i].amount.sub(sellAmount);\r\n            if (amount == 0) {\r\n                break;\r\n            }\r\n        }\r\n        if (currencyAmount > 0) {\r\n            if (settlementCurrency == address(0)) {\r\n                msg.sender.transfer(currencyAmount);                \r\n            }else {\r\n                settlement.transfer(msg.sender,currencyAmount);           \r\n            }           \r\n        }\r\n        emit BuyOptionsToken(msg.sender,optionsToken,settlementCurrency,tokenPrice,_totalBuy);\r\n        _removeEmptySellOrder(optionsToken,settlementCurrency);\r\n    }\r\n    /**\r\n      * @dev sell amount options token to buy order.\r\n      * @param optionsToken options token address\r\n      * @param amount options token amount you want to sell\r\n      * @param settlementCurrency the settlement currency address\r\n      */      \r\n    function sellOptionsToken(address optionsToken,uint256 amount,address settlementCurrency) public {\r\n        uint256 tokenPrice = _oracle.getSellOptionsPrice(optionsToken);\r\n        uint256 currencyPrice = _oracle.getPrice(settlementCurrency);\r\n        uint256 _totalSell = 0;\r\n        IERC20 erc20Token = IERC20(optionsToken);\r\n        erc20Token.transferFrom(msg.sender,address(this),amount);\r\n        PayOptionsOrder[] storage orderList = payOrderMap[settlementCurrency][optionsToken];\r\n        for (uint256 i=0;i<orderList.length;i++){\r\n            if (!_isSufficientSettlements(orderList[i],tokenPrice,currencyPrice)){\r\n                continue;\r\n            }\r\n            uint256 optionsAmount = amount;\r\n            if (optionsAmount > orderList[i].amount) {\r\n                optionsAmount = orderList[i].amount;\r\n            }\r\n\r\n            amount = amount.sub(optionsAmount);            \r\n            (uint256 sellAmount,uint256 leftCurrency) = _orderTrading(optionsToken,optionsAmount,tokenPrice,settlementCurrency,orderList[i].settlementsAmount,currencyPrice,\r\n            msg.sender,orderList[i].owner);\r\n            _totalSell = _totalSell.add(sellAmount);\r\n            emit DebugEvent(2,amount,_totalSell);\r\n            emit DebugEvent(3,sellAmount,leftCurrency);\r\n            orderList[i].amount = orderList[i].amount.sub(sellAmount);\r\n            orderList[i].settlementsAmount = leftCurrency;\r\n            if (amount == 0) {\r\n                break;\r\n            }\r\n        }\r\n        if (amount > 0){\r\n            erc20Token.transfer(msg.sender,amount);\r\n        }\r\n        emit SellOptionsToken(msg.sender,optionsToken,settlementCurrency,tokenPrice,_totalSell);\r\n        _removeEmptyPayOrder(optionsToken,settlementCurrency);\r\n    }\r\n    /**\r\n      * @dev return back the expired options token orders. Both buy orders and sell orders\r\n      */        \r\n    function returnExpiredOrders()public{\r\n        address[] memory options = _optionsManager.getOptionsTokenList();\r\n        for (uint256 i=0;i<options.length;i++){\r\n            if (!isEligibleOptionsToken(options[i])){\r\n                for (uint j=0;j<whiteList.length;j++){\r\n                    _returnExpiredSellOrders(options[i],whiteList[j]);\r\n                    _returnExpiredPayOrders(options[i],whiteList[j]);\r\n                }\r\n                emit ReturnExpiredOrders(options[i]);\r\n            }\r\n        }\r\n    }\r\n    function _orderTrading(address optionsToken,uint256 amount,uint256 optionsPrice,\r\n            address settlementCurrency,uint256 currencyAmount,uint256 currencyPrice,\r\n            address seller,address buyer) internal returns (uint256,uint256) {\r\n        (uint256 optionsPay,uint256 transFee) = _calPayment(amount,optionsPrice,currencyPrice);\r\n        if (optionsPay.add(transFee)>currencyAmount){\r\n            return (0,currencyAmount);\r\n        }\r\n        IERC20 erc20Token = IERC20(optionsToken);\r\n        erc20Token.transfer(buyer,amount);\r\n        if (settlementCurrency == address(0)){\r\n            seller.transfer(optionsPay);\r\n            \r\n        }else{\r\n            IERC20 settlement = IERC20(settlementCurrency);\r\n            settlement.transfer(seller,optionsPay);           \r\n        }\r\n        optionsPay = optionsPay.add(transFee);\r\n        currencyAmount = currencyAmount.sub(optionsPay);\r\n        _addTransactionFee(settlementCurrency,transFee);\r\n        return (amount,currencyAmount);\r\n    }\r\n    function _removeEmptyPayOrder(address optionsToken,address settlementCurrency)internal{\r\n        PayOptionsOrder[] storage orderList = payOrderMap[settlementCurrency][optionsToken];\r\n        uint256 index = 0;\r\n        for (uint i=0;i<orderList.length;i++) {\r\n            if (orderList[i].amount > 0) {\r\n                if(i != index) {\r\n                    orderList[index].owner = orderList[i].owner;\r\n                    orderList[index].createdTime = orderList[i].createdTime;\r\n                    orderList[index].amount = orderList[i].amount;\r\n                    orderList[index].settlementsAmount = orderList[i].settlementsAmount;\r\n                }\r\n                index++;\r\n            }else {\r\n                _returnPayOrders(orderList[i],settlementCurrency);\r\n            }\r\n        }\r\n         if (index < orderList.length) {\r\n            orderList.length = index;\r\n        }\r\n\r\n    }\r\n    function _removeEmptySellOrder(address optionsToken,address settlementCurrency)internal{\r\n        SellOptionsOrder[] storage orderList = sellOrderMap[settlementCurrency][optionsToken];\r\n        uint256 index = 0;\r\n        for (uint i=0;i<orderList.length;i++) {\r\n            if (orderList[i].amount > 0) {\r\n                if(i != index) {\r\n                    orderList[index].owner = orderList[i].owner;\r\n                    orderList[index].createdTime = orderList[i].createdTime;\r\n                    orderList[index].amount = orderList[i].amount;\r\n                }\r\n                index++;\r\n            }\r\n        }\r\n        if (index < orderList.length) {\r\n            orderList.length = index;\r\n        }\r\n    }\r\n    function _isSufficientSettlements(PayOptionsOrder storage payOrder,uint256 optionsPrice,uint256 currencyPrice) internal view returns(bool){\r\n        (uint256 allPay,uint256 transFee) = _calPayment(payOrder.amount,optionsPrice,currencyPrice);\r\n        if (allPay.add(transFee) > payOrder.settlementsAmount){\r\n            return false;\r\n        }\r\n        return true;\r\n    }\r\n    function _calPayment(uint256 amount,uint256 optionsPrice,uint256 currencyPrice) internal view returns (uint256,uint256) {\r\n        uint256 allPayment = optionsPrice.mul(amount);\r\n        uint256 optionsPay = allPayment.div(currencyPrice);\r\n        uint256 transFee = _calNumberMulUint(transactionFee,optionsPay);\r\n        optionsPay = optionsPay.sub(transFee);\r\n        transFee = transFee.mul(2);\r\n        return (optionsPay,transFee);\r\n    }\r\n    function _returnExpiredSellOrders(address optionsToken,address settlementCurrency) internal {\r\n        IERC20 options = IERC20(optionsToken);\r\n        SellOptionsOrder[] storage orderList = sellOrderMap[settlementCurrency][optionsToken];\r\n        for (uint i=0;i<orderList.length;i++) {\r\n            if (orderList[i].amount > 0) {\r\n                uint256 tokenAmount = orderList[i].amount;\r\n                orderList[i].amount = 0;\r\n                options.transfer(orderList[i].owner,tokenAmount);\r\n            }\r\n        }\r\n        delete sellOrderMap[settlementCurrency][optionsToken];\r\n    }\r\n    function _returnExpiredPayOrders(address optionsToken,address settlementCurrency) internal{\r\n        PayOptionsOrder[] storage orderList = payOrderMap[settlementCurrency][optionsToken];\r\n        for (uint i=0;i<orderList.length;i++) {\r\n            _returnPayOrders(orderList[i],settlementCurrency);\r\n        }\r\n        delete payOrderMap[settlementCurrency][optionsToken];\r\n    }\r\n    function _returnPayOrders(PayOptionsOrder storage payOrder,address settlementCurrency) internal {\r\n    if (payOrder.settlementsAmount > 0) {\r\n            uint256 payAmount = payOrder.settlementsAmount;\r\n            payOrder.settlementsAmount = 0;\r\n            if (settlementCurrency == address(0)) {\r\n                payOrder.owner.transfer(payAmount);                \r\n            }else {\r\n                IERC20 settlement = IERC20(settlementCurrency);\r\n                settlement.transfer(payOrder.owner,payAmount);           \r\n            }   \r\n        }\r\n    }\r\n    function isEligibleOptionsToken(address optionsToken) public view returns(bool) {\r\n        (,,,,uint256 expiration,bool exercised) = _optionsManager.getOptionsTokenInfo(optionsToken);\r\n        uint256 tradingEnd = _tradingEnd.add(now);\r\n        return (expiration > 0 && tradingEnd < expiration && !exercised);\r\n    }\r\n}",
  "sourcePath": "C:\\work\\solidity\\OptionsContract\\contracts\\MatchMakingTrading.sol",
  "compiler": {
    "name": "solc",
    "version": "0.4.26+commit.4563c3fc.Emscripten.clang"
  },
  "schemaVersion": "3.1.0",
  "updatedAt": "2020-07-02T06:06:02.662Z",
  "devdoc": {
    "methods": {
      "addPayOrder(address,address,uint256,uint256)": {
        "details": "add a pay order, if your deposition is insufficient, your order will be disable.\r",
        "params": {
          "buyAmount": "the options token amount you want to buy.\r",
          "deposit": "you need to deposit some settlement currency to pay the order.deposit is the amount of settlement currency to pay.\r",
          "optionsToken": "options token address\r",
          "settlementCurrency": "the settlement currency address\r"
        }
      },
      "addSellOrder(address,address,uint256)": {
        "details": "add a sell order. The Amount of options token will be transfered into contract address.\r",
        "params": {
          "amount": "the options token amount you want to sell.\r",
          "optionsToken": "options token address\r",
          "settlementCurrency": "the settlement currency address\r"
        }
      },
      "addWhiteList(address)": {
        "details": "Implementation of add an eligible address into the whitelist.\r",
        "params": {
          "addAddress": "new eligible address.\r"
        }
      },
      "buyOptionsToken(address,uint256,address,uint256)": {
        "details": "buy amount options token form sell order.\r",
        "params": {
          "amount": "options token amount you want to buy\r",
          "currencyAmount": "the settlement currency amount will be payed for\r",
          "optionsToken": "options token address\r",
          "settlementCurrency": "the settlement currency address\r"
        }
      },
      "getPayOrderList(address,address)": {
        "details": "getting all of the pay orders;\r",
        "params": {
          "optionsToken": "options token address\r",
          "settlementCurrency": "the settlement currency address\r"
        },
        "return": "owner account, created time, buy amount, settlements deposition.\r"
      },
      "getSellOrderList(address,address)": {
        "details": "getting all of the sell orders;\r",
        "params": {
          "optionsToken": "options token address\r",
          "settlementCurrency": "the settlement currency address\r"
        },
        "return": "owner account, created time, sell amount.\r"
      },
      "getTransactionFee()": {
        "details": "Returns the rate of trasaction fee.\r"
      },
      "getWhiteList()": {
        "details": "Implementation of getting the eligible whitelist.\r"
      },
      "isEligibleAddress(address)": {
        "details": "Implementation of testing whether the input address is eligible.\r",
        "params": {
          "tmpAddress": "input address for testing.\r"
        }
      },
      "isOwner()": {
        "details": "Returns true if the caller is the current owner."
      },
      "owner()": {
        "details": "Returns the address of the current owner."
      },
      "redeemPayOrder(address,address)": {
        "details": "redeem a pay order.redeem the earliest pay order.return back the deposition.\r",
        "params": {
          "optionsToken": "options token address\r",
          "settlementCurrency": "the settlement currency address\r"
        }
      },
      "redeemSellOrder(address,address)": {
        "details": "redeem a sell order.redeem the earliest sell order.return back the options token.\r",
        "params": {
          "optionsToken": "options token address\r",
          "settlementCurrency": "the settlement currency address\r"
        }
      },
      "removeWhiteList(address)": {
        "details": "Implementation of revoke an invalid address from the whitelist.\r",
        "params": {
          "removeAddress": "revoked address.\r"
        }
      },
      "renounceOwnership()": {
        "details": "Leaves the contract without owner. It will not be possible to call `onlyOwner` functions anymore. Can only be called by the current owner.     * NOTE: Renouncing ownership will leave the contract without an owner, thereby removing any functionality that is only available to the owner."
      },
      "returnExpiredOrders()": {
        "details": "return back the expired options token orders. Both buy orders and sell orders\r"
      },
      "sellOptionsToken(address,uint256,address)": {
        "details": "sell amount options token to buy order.\r",
        "params": {
          "amount": "options token amount you want to sell\r",
          "optionsToken": "options token address\r",
          "settlementCurrency": "the settlement currency address\r"
        }
      },
      "setTransactionFee(uint256,int32)": {
        "details": "set the rate of trasaction fee.\r",
        "params": {
          "exponent": "the exponent figures of transaction fee.\r transaction fee = Number(value,exponent);\r",
          "value": "the significant figures of transaction fee .\r"
        }
      },
      "transferOwnership(address)": {
        "details": "Transfers ownership of the contract to a new account (`newOwner`). Can only be called by the current owner."
      }
    }
  },
  "userdoc": {
    "methods": {}
  }
}