{
  "contractName": "OptionsVault",
  "abi": [
    {
      "constant": true,
      "inputs": [],
      "name": "getWhiteList",
      "outputs": [
        {
          "name": "",
          "type": "address[]"
        }
      ],
      "payable": false,
      "stateMutability": "view",
      "type": "function"
    },
    {
      "constant": false,
      "inputs": [
        {
          "name": "removeAddress",
          "type": "address"
        }
      ],
      "name": "removeWhiteList",
      "outputs": [],
      "payable": false,
      "stateMutability": "nonpayable",
      "type": "function"
    },
    {
      "constant": false,
      "inputs": [],
      "name": "redeemAll",
      "outputs": [],
      "payable": false,
      "stateMutability": "nonpayable",
      "type": "function"
    },
    {
      "constant": true,
      "inputs": [
        {
          "name": "",
          "type": "uint256"
        }
      ],
      "name": "whiteList",
      "outputs": [
        {
          "name": "",
          "type": "address"
        }
      ],
      "payable": false,
      "stateMutability": "view",
      "type": "function"
    },
    {
      "constant": false,
      "inputs": [],
      "name": "renounceOwnership",
      "outputs": [],
      "payable": false,
      "stateMutability": "nonpayable",
      "type": "function"
    },
    {
      "constant": true,
      "inputs": [
        {
          "name": "tmpAddress",
          "type": "address"
        }
      ],
      "name": "isEligibleAddress",
      "outputs": [
        {
          "name": "",
          "type": "bool"
        }
      ],
      "payable": false,
      "stateMutability": "view",
      "type": "function"
    },
    {
      "constant": true,
      "inputs": [],
      "name": "getTransactionFee",
      "outputs": [
        {
          "name": "",
          "type": "uint256"
        },
        {
          "name": "",
          "type": "int32"
        }
      ],
      "payable": false,
      "stateMutability": "view",
      "type": "function"
    },
    {
      "constant": true,
      "inputs": [],
      "name": "owner",
      "outputs": [
        {
          "name": "",
          "type": "address"
        }
      ],
      "payable": false,
      "stateMutability": "view",
      "type": "function"
    },
    {
      "constant": true,
      "inputs": [],
      "name": "isOwner",
      "outputs": [
        {
          "name": "",
          "type": "bool"
        }
      ],
      "payable": false,
      "stateMutability": "view",
      "type": "function"
    },
    {
      "constant": false,
      "inputs": [
        {
          "name": "currency",
          "type": "address"
        }
      ],
      "name": "redeem",
      "outputs": [],
      "payable": false,
      "stateMutability": "nonpayable",
      "type": "function"
    },
    {
      "constant": true,
      "inputs": [
        {
          "name": "",
          "type": "address"
        }
      ],
      "name": "managerFee",
      "outputs": [
        {
          "name": "",
          "type": "uint256"
        }
      ],
      "payable": false,
      "stateMutability": "view",
      "type": "function"
    },
    {
      "constant": true,
      "inputs": [],
      "name": "transactionFee",
      "outputs": [
        {
          "name": "value",
          "type": "uint256"
        },
        {
          "name": "exponent",
          "type": "int32"
        }
      ],
      "payable": false,
      "stateMutability": "view",
      "type": "function"
    },
    {
      "constant": true,
      "inputs": [
        {
          "name": "settlement",
          "type": "address"
        }
      ],
      "name": "getFeeBalance",
      "outputs": [
        {
          "name": "",
          "type": "uint256"
        }
      ],
      "payable": false,
      "stateMutability": "view",
      "type": "function"
    },
    {
      "constant": false,
      "inputs": [
        {
          "name": "value",
          "type": "uint256"
        },
        {
          "name": "exponent",
          "type": "int32"
        }
      ],
      "name": "setTransactionFee",
      "outputs": [],
      "payable": false,
      "stateMutability": "nonpayable",
      "type": "function"
    },
    {
      "constant": false,
      "inputs": [
        {
          "name": "addAddress",
          "type": "address"
        }
      ],
      "name": "addWhiteList",
      "outputs": [],
      "payable": false,
      "stateMutability": "nonpayable",
      "type": "function"
    },
    {
      "constant": true,
      "inputs": [],
      "name": "getAllFeeBalances",
      "outputs": [
        {
          "name": "",
          "type": "address[]"
        },
        {
          "name": "",
          "type": "uint256[]"
        }
      ],
      "payable": false,
      "stateMutability": "view",
      "type": "function"
    },
    {
      "constant": false,
      "inputs": [
        {
          "name": "newOwner",
          "type": "address"
        }
      ],
      "name": "transferOwnership",
      "outputs": [],
      "payable": false,
      "stateMutability": "nonpayable",
      "type": "function"
    },
    {
      "anonymous": false,
      "inputs": [
        {
          "indexed": true,
          "name": "previousOwner",
          "type": "address"
        },
        {
          "indexed": true,
          "name": "newOwner",
          "type": "address"
        }
      ],
      "name": "OwnershipTransferred",
      "type": "event"
    },
    {
      "constant": true,
      "inputs": [],
      "name": "getOptionsTokenList",
      "outputs": [
        {
          "name": "",
          "type": "address[]"
        }
      ],
      "payable": false,
      "stateMutability": "view",
      "type": "function"
    },
    {
      "constant": true,
      "inputs": [
        {
          "name": "tokenAddress",
          "type": "address"
        }
      ],
      "name": "getOptionsTokenWriterList",
      "outputs": [
        {
          "name": "",
          "type": "address[]"
        }
      ],
      "payable": false,
      "stateMutability": "view",
      "type": "function"
    },
    {
      "constant": true,
      "inputs": [
        {
          "name": "tokenAddress",
          "type": "address"
        }
      ],
      "name": "getOptionsTokenInfo",
      "outputs": [
        {
          "name": "",
          "type": "uint8"
        },
        {
          "name": "",
          "type": "address"
        },
        {
          "name": "",
          "type": "uint32"
        },
        {
          "name": "",
          "type": "uint256"
        },
        {
          "name": "",
          "type": "uint256"
        },
        {
          "name": "",
          "type": "bool"
        }
      ],
      "payable": false,
      "stateMutability": "view",
      "type": "function"
    }
  ],
  "bytecode": "0x60c060408190526003608081905260021960a05280556004805463fffffffd63ffffffff19909116179055600060098190558054600160a060020a0319163317808255600160a060020a0316917f8be0079c531659141344cd1fd0a4f28419497f9722a3daafe3b4186f6b6457e0908290a3611187806100806000396000f3006080604052600436106101115763ffffffff7c010000000000000000000000000000000000000000000000000000000060003504166309a9d76c81146101165780632042e5c21461017b5780632f4350c21461019e5780633c03c859146101b35780634caf1d1a1461021a5780635c475d421461023b578063715018a61461026f578063817bf86d1461028457806385d79102146102b95780638da5cb5b146102ec5780638f32d59b1461030157806395a2251f146103165780639965a4d5146103375780639ed3edf01461036a578063c53ca5a91461037f578063c78f680314610394578063e4a9d2be146103b5578063e7cd4a04146103d3578063f20568cd146103f4578063f2fde38b146104a2575b600080fd5b34801561012257600080fd5b5061012b6104c3565b60408051602080825283518183015283519192839290830191858101910280838360005b8381101561016757818101518382015260200161014f565b505050509050019250505060405180910390f35b34801561018757600080fd5b5061019c600160a060020a0360043516610526565b005b3480156101aa57600080fd5b5061019c610617565b3480156101bf57600080fd5b506101d4600160a060020a0360043516610815565b6040805160ff9097168752600160a060020a03909516602087015263ffffffff9093168585015260608501919091526080840152151560a0830152519081900360c00190f35b34801561022657600080fd5b5061012b600160a060020a03600435166108b9565b34801561024757600080fd5b50610253600435610932565b60408051600160a060020a039092168252519081900360200190f35b34801561027b57600080fd5b5061019c61095a565b34801561029057600080fd5b506102a5600160a060020a03600435166109fd565b604080519115158252519081900360200190f35b3480156102c557600080fd5b506102ce610a14565b60408051928352600391820b90910b60208301528051918290030190f35b3480156102f857600080fd5b50610253610a22565b34801561030d57600080fd5b506102a5610a31565b34801561032257600080fd5b5061019c600160a060020a0360043516610a42565b34801561034357600080fd5b50610358600160a060020a0360043516610bf1565b60408051918252519081900360200190f35b34801561037657600080fd5b506102ce610c03565b34801561038b57600080fd5b5061012b610c10565b3480156103a057600080fd5b50610358600160a060020a0360043516610cf5565b3480156103c157600080fd5b5061019c60043560243560030b610d10565b3480156103df57600080fd5b5061019c600160a060020a0360043516610d7d565b34801561040057600080fd5b50610409610e3e565b604051808060200180602001838103835285818151815260200191508051906020019060200280838360005b8381101561044d578181015183820152602001610435565b50505050905001838103825284818151815260200191508051906020019060200280838360005b8381101561048c578181015183820152602001610474565b5050505090500194505050505060405180910390f35b3480156104ae57600080fd5b5061019c600160a060020a0360043516610f47565b6060600180548060200260200160405190810160405280929190818152602001828054801561051b57602002820191906000526020600020905b8154600160a060020a031681526001909101906020018083116104fd575b505050505090505b90565b6000610530610a31565b1515610574576040805160e560020a62461bcd028152602060048201819052602482015260008051602061113c833981519152604482015290519081900360640190fd5b61057d82610f9f565b600154909150811015610613576001546000190181146105fe576001805460001981019081106105a957fe5b60009182526020909120015460018054600160a060020a0390921691839081106105cf57fe5b9060005260206000200160006101000a815481600160a060020a030219169083600160a060020a031602179055505b60018054906106119060001983016110fe565b505b5050565b6000806000610624610a31565b1515610668576040805160e560020a62461bcd028152602060048201819052602482015260008051602061113c833981519152604482015290519081900360640190fd5b600092505b600154831015610611576002600060018581548110151561068a57fe5b6000918252602080832090910154600160a060020a03168352820192909252604001812054925082111561080a576000600260006001868154811015156106cd57fe5b6000918252602080832090910154600160a060020a03168352820192909252604001902055600180548490811061070057fe5b600091825260208220015460018054600160a060020a039092169350908590811061072757fe5b600091825260209091200154600160a060020a0316141561077557604051339083156108fc029084906000818181858888f1935050505015801561076f573d6000803e3d6000fd5b5061080a565b604080517fa9059cbb000000000000000000000000000000000000000000000000000000008152336004820152602481018490529051600160a060020a0383169163a9059cbb9160448083019260209291908290030181600087803b1580156107dd57600080fd5b505af11580156107f1573d6000803e3d6000fd5b505050506040513d602081101561080757600080fd5b50505b60019092019161066d565b600080600080600080600061082988610ff4565b156108af5750600160a060020a038716600090815260056020526040902060019081018054909160ff9091169081111561085f57fe5b8154600283015460018401546003850154939a506101008304600160a060020a03169950750100000000000000000000000000000000000000000090920463ffffffff1697509550935060ff1691505b5091939550919395565b600160a060020a03811660009081526005602081815260409283902090910180548351818402810184019094528084526060939283018282801561092657602002820191906000526020600020905b8154600160a060020a03168152600190910190602001808311610908575b50505050509050919050565b600180548290811061094057fe5b600091825260209091200154600160a060020a0316905081565b610962610a31565b15156109a6576040805160e560020a62461bcd028152602060048201819052602482015260008051602061113c833981519152604482015290519081900360640190fd5b60008054604051600160a060020a03909116907f8be0079c531659141344cd1fd0a4f28419497f9722a3daafe3b4186f6b6457e0908390a36000805473ffffffffffffffffffffffffffffffffffffffff19169055565b600080610a0983610f9f565b600154119392505050565b6003805460045490910b9091565b600054600160a060020a031690565b600054600160a060020a0316331490565b600080610a4d610a31565b1515610a91576040805160e560020a62461bcd028152602060048201819052602482015260008051602061113c833981519152604482015290519081900360640190fd5b600160a060020a03831660009081526002602052604081205492508211610b02576040805160e560020a62461bcd02815260206004820152601260248201527f4974277320656d7074792062616c616e63650000000000000000000000000000604482015290519081900360640190fd5b600160a060020a0383166000818152600260205260408120551515610b5457604051339083156108fc029084906000818181858888f19350505050158015610b4e573d6000803e3d6000fd5b50610611565b50604080517fa9059cbb0000000000000000000000000000000000000000000000000000000081523360048201526024810183905290518391600160a060020a0383169163a9059cbb916044808201926020929091908290030181600087803b158015610bc057600080fd5b505af1158015610bd4573d6000803e3d6000fd5b505050506040513d6020811015610bea57600080fd5b5050505050565b60026020526000908152604090205481565b6003805460045490910b82565b606080600080600954604051908082528060200260200182016040528015610c42578160200160208202803883390190505b50925060009150600090505b600854811015610ced576008805482908110610c6657fe5b60009182526020909120015474010000000000000000000000000000000000000000900460ff161515610ce5576008805482908110610ca157fe5b6000918252602090912001548351600160a060020a0390911690849084908110610cc757fe5b600160a060020a039092166020928302909101909101526001909101905b600101610c4e565b509092915050565b600160a060020a031660009081526002602052604090205490565b610d18610a31565b1515610d5c576040805160e560020a62461bcd028152602060048201819052602482015260008051602061113c833981519152604482015290519081900360640190fd5b6003918255600480549190920b63ffffffff1663ffffffff19909116179055565b6000610d87610a31565b1515610dcb576040805160e560020a62461bcd028152602060048201819052602482015260008051602061113c833981519152604482015290519081900360640190fd5b610dd482610f9f565b600154909150811415610613576001805480820182556000919091527fb10e2d527612073b26eecdfd717e6a320cf44b4afac2b0732d9fcbe2b7fa0cf6018054600160a060020a03841673ffffffffffffffffffffffffffffffffffffffff199091161790555050565b60608060606000600180549050604051908082528060200260200182016040528015610e74578160200160208202803883390190505b509150600090505b600154811015610ede5760026000600183815481101515610e9957fe5b6000918252602080832090910154600160a060020a031683528201929092526040019020548251839083908110610ecc57fe5b60209081029091010152600101610e7c565b60018281805480602002602001604051908101604052809291908181526020018280548015610f3657602002820191906000526020600020905b8154600160a060020a03168152600190910190602001808311610f18575b505050505091509350935050509091565b610f4f610a31565b1515610f93576040805160e560020a62461bcd028152602060048201819052602482015260008051602061113c833981519152604482015290519081900360640190fd5b610f9c81611010565b50565b6000805b600154811015610fee5782600160a060020a0316600182815481101515610fc657fe5b600091825260209091200154600160a060020a03161415610fe657610fee565b600101610fa3565b92915050565b600160a060020a03166000908152600560205260408120541190565b600160a060020a0381161515611096576040805160e560020a62461bcd02815260206004820152602660248201527f4f776e61626c653a206e6577206f776e657220697320746865207a65726f206160448201527f6464726573730000000000000000000000000000000000000000000000000000606482015290519081900360840190fd5b60008054604051600160a060020a03808516939216917f8be0079c531659141344cd1fd0a4f28419497f9722a3daafe3b4186f6b6457e091a36000805473ffffffffffffffffffffffffffffffffffffffff1916600160a060020a0392909216919091179055565b8154818355818111156106115760008381526020902061061191810190830161052391905b808211156111375760008155600101611123565b509056004f776e61626c653a2063616c6c6572206973206e6f7420746865206f776e6572a165627a7a7230582077e474b015c7eaccddc01c020274f0c6318cbf7ce423cb101a780682caa022370029",
  "source": "pragma solidity ^0.4.26;\nimport \"./SafeMath.sol\";\nimport \"./FNXCoin.sol\";\nimport \"./Ownable.sol\";\nimport \"./OptionsToken.sol\";\nimport \"./CompoundOracleInterface.sol\";\nimport \"./OptionsFormulas.sol\";\nimport \"./TransactionFee.sol\";\ncontract OptionsVault is TransactionFee\n{\n    using SafeMath for uint256;\n    enum OptionsType{\n        OptCall,\n        OptPut\n    }\n    struct OptionsInfo{\n        OptionsType\toptType;\n        //Collateral currency address. If this address equals 0, it means that it is Eth;\n        address\t\tcollateralCurrency;\n        //underlying assets type;\n        uint32\t\tunderlyingAssets;\n        uint256\t\texpiration;\n        uint256      strikePrice;\n        bool        isExercised;\n    }\n    struct IndexValue\n    {\n        uint keyIndex;\n        OptionsInfo options;\n        address[] writers;\n    }\n    struct KeyFlag { address key; bool deleted; }\n    mapping(address => IndexValue) internal optionsMap;\n    //collateral => writer => amount\n    mapping(address => mapping(address => uint256)) writerVaults;\n    //options => writer =>  amount\n    mapping(address => mapping(address => uint256)) writerOptions;\n    KeyFlag[] internal optionsTokenList;\n    uint internal size = 0;\n    function _insert(address key, \n                OptionsType optType,\n                address collateral,\n                uint32 underlyingAssets,\n                uint256 expiration,\n                uint256 strikePriceValue) internal returns (bool replaced)\n    {\n        uint keyIndex = optionsMap[key].keyIndex;\n        optionsMap[key].options.optType = optType;\n        optionsMap[key].options.collateralCurrency = collateral;\n        optionsMap[key].options.underlyingAssets = underlyingAssets;\n        optionsMap[key].options.expiration = expiration;\n        optionsMap[key].options.strikePrice = strikePriceValue;\n        optionsMap[key].options.isExercised = false;\n        if (keyIndex > 0)\n            return true;\n        else\n        {\n            keyIndex = optionsTokenList.length++;\n            optionsMap[key].keyIndex = keyIndex + 1;\n            optionsTokenList[keyIndex].key = key;\n            size++;\n            return false;\n        }\n    }\n    function _insertWriter( address key, uint256 amount,uint256 mintOptTokenAmount) internal returns (bool){\n        uint256 i = _findWriter(key,msg.sender);\n        if (i == optionsMap[key].writers.length){\n            optionsMap[key].writers.push(msg.sender);\n        }\n        OptionsInfo storage options = optionsMap[key].options;\n        writerVaults[options.collateralCurrency][msg.sender] = amount.add(writerVaults[options.collateralCurrency][msg.sender]);\n        writerOptions[key][msg.sender] = mintOptTokenAmount.add(writerOptions[key][msg.sender]);\n        return true;\n    }\n    function _findWriter(address key,address writer) internal view returns (uint256){\n        address[] storage writers = optionsMap[key].writers;\n        for (uint256 i=0;i<writers.length;i++ ){\n            if (writers[i] == writer){\n                break;\n            }\n        }\n        return i;\n    }\n    function _remove(address key) internal returns (bool)\n    {\n        uint keyIndex = optionsMap[key].keyIndex;\n        if (keyIndex == 0)\n            return false;\n        address[] storage writers = optionsMap[key].writers;\n        for (uint256 i=0;i<writers.length;i++ ){\n            delete writerOptions[key][writers[i]];\n        }\n        delete optionsMap[key];\n        optionsTokenList[keyIndex - 1].deleted = true;\n\n        size --;\n        return true;\n    }\n    function _contains(address key) internal view returns (bool)\n    {\n        return optionsMap[key].keyIndex > 0;\n    }\n    function _iterate_start() internal view returns (uint)\n    {\n        return _iterate_next(uint(-1));\n    }\n    function _iterate_valid(uint keyIndex) internal view returns (bool)\n    {\n        return keyIndex < optionsTokenList.length;\n    }\n    function _iterate_next( uint keyIndex) internal view returns (uint)\n    {\n        keyIndex++;\n        while (keyIndex < optionsTokenList.length && optionsTokenList[keyIndex].deleted)\n            keyIndex++;\n        return keyIndex;\n    }\n    function getOptionsTokenList()public view returns (address[]){\n        address[] memory optionsToken = new address[](size);\n        uint256 index = 0;\n        for(uint256 i=0;i<optionsTokenList.length;i++){\n            if(!optionsTokenList[i].deleted){\n                optionsToken[index] = optionsTokenList[i].key;\n                index++;\n            }\n        }\n        return optionsToken;\n    }\n    function getOptionsTokenWriterList(address tokenAddress)public view returns (address[]){\n            return optionsMap[tokenAddress].writers;\n    }\n    function getOptionsTokenInfo(address tokenAddress)public view returns (uint8,address,uint32,uint256,uint256,bool){\n        if (_contains(tokenAddress)){\n            OptionsInfo storage options = optionsMap[tokenAddress].options;\n            return (uint8(options.optType),options.collateralCurrency,options.underlyingAssets,\n                options.strikePrice,options.expiration,options.isExercised);\n        }\n    }\n}\ncontract OptionsManager is OptionsVault {\n    using SafeMath for uint256;\n    IOptFormulas internal _optionsFormulas;\n    ICompoundOracle internal _oracle;\n    uint256 private _calDecimal = 10000000000;\n    // Number(2,-1) = 20%\n    Number public liquidationIncentive = Number(2, -1);\n    \n    event CreateOptions(address indexed collateral,address indexed tokenAddress, uint32 indexed underlyingAssets,uint256 strikePrice,uint256 expiration,uint8 optType);\n    event AddCollateral(address indexed optionsToken,uint256 indexed amount,uint256 mintOptionsTokenAmount);\n    event WithdrawCollateral(address indexed optionsToken,uint256 amount);\n    event Exercise(address indexed Sender,address indexed optionsToken);\n    event Liquidate(address indexed Sender,address indexed optionsToken,address indexed writer,uint256 amount);\n    event BurnOptionsToken(address indexed optionsToken,address indexed writer,uint256 amount);\n    event DebugEvent(uint256 value0,uint256 value1,uint256 value2);\n    //*******************getter***********************\n    function getOracleAddress() public view returns(address){\n        return address(_oracle);\n    }\n    function getFormulasAddress() public view returns(address){\n        return address(_optionsFormulas);\n    }\n    function getLiquidationIncentive()public view returns (uint256,int32){\n        return (liquidationIncentive.value,liquidationIncentive.exponent);\n    }\n    //*******************setter***********************\n    function setOracleAddress(address oracle)public onlyOwner{\n        _oracle = ICompoundOracle(oracle);\n    }\n    function setFormulasAddress(address formulas)public onlyOwner{\n        _optionsFormulas = IOptFormulas(formulas);\n    }\n    function setLiquidationIncentive(uint256 value,int32 exponent)public onlyOwner{\n        liquidationIncentive.value = value;\n        liquidationIncentive.exponent = exponent;\n    }\n\n    /**\n        * @dev  create an empty options token by owner;\n        * @param optionsTokenName new migration options token name;\n        * @param collateral The collateral asset\n        * @param underlyingAssets underlying assets index, start at 1.\n        * @param strikePrice The amount of strike asset that will be paid out per oToken\n        * @param expiration The time at which the options expires\n        * @param optType options type,0 is call options,1 is put options\n        */\n    function createOptionsToken(string optionsTokenName,address collateral,\n    uint32 underlyingAssets,\n    uint256 strikePrice,\n    uint256 expiration,\n    uint8 optType)\n    public onlyOwner{\n        require(underlyingAssets>0 , \"underlying cannot be zero\");\n        require(isEligibleAddress(collateral) , \"collateral is unsupported token\");\n//        expiration = expiration.add(now);\n        //new OptionsToken(expiration,optionsTokenName);\n        address newToken = _optionsFormulas.createNewToken(expiration,optionsTokenName);\n        assert(newToken != 0);\n        _insert(newToken,OptionsType(optType),collateral,underlyingAssets,expiration,strikePrice);\n        emit CreateOptions(collateral,newToken,underlyingAssets,strikePrice,expiration,optType);\n    }\n     /**\n        * @dev  add Collateral. Any writer can add collateral to an exist options token,and mint options token;\n        * @param optionsToken The Options token address.\n        * @param collateral The collateral asset\n        * @param amount The amount of collateral asset\n        * @param mintOptionsTokenAmount The amount of options token will be minted and sent to the writer;\n        */   \n    function addCollateral(address optionsToken,address collateral,uint256 amount,uint256 mintOptionsTokenAmount)public payable{\n        require(_contains(optionsToken),\"This OptionsToken does not exist\");\n        require(!_isExpired(optionsMap[optionsToken]), \"This OptionsToken expired\");\n        require(optionsMap[optionsToken].options.collateralCurrency == collateral,\"Collateral currency type error\");\n        _mintOptionsToken(optionsToken,collateral,amount,mintOptionsTokenAmount);\n        emit AddCollateral(optionsToken,amount,mintOptionsTokenAmount);\n    }\n     /**\n        * @dev  Withdraw Collateral. Any writer can withdraw his collateral if his collateral assets are surplus;\n        * @param collateral The collateral address.\n        * @param amount The amount  collateral asset which will be Withdrawn\n        */   \n    function withdrawCollateral(address collateral,uint256 amount)public{\n        require(isEligibleAddress(collateral) , \"collateral is unsupported token\");\n        writerVaults[collateral][msg.sender] = writerVaults[collateral][msg.sender].sub(amount);\n        require (_isSufficientCollateral(collateral,msg.sender,address(0),0,0),\"option token writter's Collateral is insufficient\");\n        _transferPayback(msg.sender,collateral,amount);\n        emit WithdrawCollateral(collateral,amount);\n\n    }\n    /**\n      * @dev  exercise all of the expired options token;\n      */  \n    function exercise()public{\n        for (uint keyIndex = _iterate_start();_iterate_valid(keyIndex);keyIndex = _iterate_next(keyIndex)){\n            IndexValue storage optionsItem = optionsMap[optionsTokenList[keyIndex].key];\n            _exercise(optionsTokenList[keyIndex].key,optionsItem);\n        }\n    }\n    /**\n      * @dev  liquidate if a writer's options collateral assets are insuficient;\n      * @param optionsToken The Options token address.\n      * @param writer The Options writer address.\n      * @param amount The amount  of optionsToken which will be liquidated\n      */  \n    function liquidate(address optionsToken,address writer,uint256 amount)public{\n        require(_contains(optionsToken),\"This OptionsToken does not exist\");\n        IndexValue storage optionsItem = optionsMap[optionsToken];\n        require(!_isExpired(optionsItem), \"OptionsToken expired\");\n        require(amount <= writerOptions[optionsToken][writer],\"liquidated token amount exceeds writter's mintToken amount\");\n        require(!_isSufficientCollateral(optionsItem.options.collateralCurrency,writer,\n            optionsToken,0,0),\"option token writter's Collateral is sufficient\");\n        OptionsToken optToken = OptionsToken(optionsToken);\n        optToken.transferFrom(msg.sender, address(this), amount);\n        uint256 tokenPrice = _oracle.getBuyOptionsPrice(optionsToken);\n        uint256 _payback = tokenPrice.mul(amount);\n        uint256 price = _oracle.getPrice(optionsItem.options.collateralCurrency);\n        _payback = _payback.div(price);\n        uint256 incentive = _calNumberMulUint(liquidationIncentive,_payback);\n        _payback = _payback.add(incentive);\n        if (_payback > writerVaults[optionsItem.options.collateralCurrency][writer]) {\n            _payback = writerVaults[optionsItem.options.collateralCurrency][writer];\n        }\n        uint256 _transFee = _calNumberMulUint(transactionFee,_payback);\n        \n        writerVaults[optionsItem.options.collateralCurrency][writer] = writerVaults[optionsItem.options.collateralCurrency][writer].sub(_payback);\n        _addTransactionFee(optionsItem.options.collateralCurrency,_transFee);\n        writerOptions[optionsToken][writer] = writerOptions[optionsToken][writer].sub(amount);\n        //transfer\n        _transferPayback(msg.sender,optionsItem.options.collateralCurrency,_payback.sub(_transFee));\n        IIterableToken itoken = IIterableToken(optionsToken);\n        itoken.burn(amount);\n        emit Liquidate(msg.sender,optionsToken,writer,amount);\n    }\n    /**\n      * @dev  A options writer burn some of his own token;\n      * @param optionsToken The Options token address.\n      * @param amount The amount of options token which will be burned\n      */     \n    function burnOptionsToken(address optionsToken,uint256 amount)public{\n       require(_contains(optionsToken),\"This OptionsToken does not exist\");\n        IndexValue storage optionsItem = optionsMap[optionsToken];\n        require(!_isExpired(optionsItem), \"OptionsToken expired\");\n        require(amount <= writerOptions[optionsToken][msg.sender],\"options writer's token is insufficient!\");\n        OptionsToken optToken = OptionsToken(optionsToken);\n        optToken.transferFrom(msg.sender, address(this), amount);\n        writerOptions[optionsToken][msg.sender] = writerOptions[optionsToken][msg.sender].sub(amount);\n        //burn\n        IIterableToken itoken = IIterableToken(optionsToken);\n        itoken.burn(amount);\n        emit BurnOptionsToken(optionsToken,msg.sender,amount);\n    }\n    /**\n      * @dev  exercise an options token;\n      * @param tokenAddress The Options token address.\n      * @param optionsItem The Options token information and writer information list.\n\n      */  \n    function _exercise(address tokenAddress,IndexValue storage optionsItem)internal {\n        emit DebugEvent(1111,optionsItem.options.expiration,now);\n        if (!_isExpired(optionsItem) || _isExercised(optionsItem)){\n            return;\n        }\n        if (optionsItem.writers.length == 0) {\n            optionsItem.options.isExercised = true;\n            _remove(tokenAddress);\n            return;\n        }\n        optionsItem.options.isExercised = true;\n        uint256 i=0;\n        uint256 value;\n        FNXCoin collateralToken = FNXCoin(optionsItem.options.collateralCurrency);\n        //calculate tokenPayback\n        uint256 tokenPayback = _calExerciseTokenPayback(tokenAddress,optionsItem);\n        emit DebugEvent(2222,tokenPayback,2222);\n        if (tokenPayback > 0 ){\n            //calculate balance pay back\n            IIterableToken iterToken = IIterableToken(tokenAddress);\n            (address[] memory accounts,uint256[] memory  balances) = iterToken.getAccountsAndBalances();\n            if (optionsItem.options.collateralCurrency == address(0)){\n                for (i=0;i<accounts.length;i++){\n                    if (balances[i]>0){\n                        if (writerOptions[tokenAddress][accounts[i]] == 0){ //not writer\n                            value = balances[i].mul(tokenPayback).div(_calDecimal);\n                            emit DebugEvent(3333,i,value);\n                            accounts[i].transfer(value);\n                        }\n                    }\n                }\n            }else{\n                for (i=0;i<accounts.length;i++){\n                    if (balances[i]>0){\n                        if (writerOptions[tokenAddress][accounts[i]] == 0){ //not writer\n                            value = balances[i].mul(tokenPayback).div(_calDecimal);\n                            collateralToken.transfer(accounts[i],value);\n                        }\n                    }\n                }\n            }\n        }\n        _remove(tokenAddress);\n        emit Exercise(msg.sender,tokenAddress);        \n    }\n    /**\n      * @dev  transfer collateral payback amount;\n      * @param recieptor payback recieptor\n      * @param collateral collateral address\n      * @param payback amount of collateral will payback \n      */\n    function _transferPayback(address recieptor,address collateral,uint256 payback)internal{\n        if (payback == 0){\n            return;\n        }\n        if (collateral == address(0)){\n            recieptor.transfer(payback);\n        }else{\n            FNXCoin collateralToken = FNXCoin(collateral);\n            collateralToken.transfer(recieptor,payback);\n        }\n    }\n    /**\n      * @dev  calculate an options token exercise payback and each writer's payment;\n      * @param optionsItem the options token information\n      */\n    function _calExerciseTokenPayback(address tokenAddress,IndexValue storage optionsItem) internal returns (uint256){\n        //calculate tokenPayback\n        uint256 underlyingPrice = _oracle.getUnderlyingPrice(optionsItem.options.underlyingAssets);\n        uint256 tokenPayback = 0;\n        if (optionsItem.options.optType == OptionsType.OptCall){\n            if (underlyingPrice > optionsItem.options.strikePrice){\n                tokenPayback = underlyingPrice.sub(optionsItem.options.strikePrice);\n            }\n        }else{\n            if ( underlyingPrice < optionsItem.options.strikePrice){\n                tokenPayback = optionsItem.options.strikePrice.sub(underlyingPrice);\n            }\n        }\n        if (tokenPayback == 0 ){\n            return 0;\n        }\n\n        //calculate all pay back collateral and transactionFee\n        uint256 allPayback = 0;\n        uint256 totalSuply = 0;\n\n        for(uint256 i=0;i<optionsItem.writers.length;i++){\n            (uint256 _payback,uint leftToken) = _CalWriterPayback(tokenAddress,optionsItem.writers[i],optionsItem.options.collateralCurrency,tokenPayback);\n            allPayback = allPayback.add(_payback);\n            totalSuply = totalSuply.add(leftToken);\n        }\n        emit DebugEvent(9,allPayback,totalSuply);\n        //assert iterToken.gettotalsuply != totalsuply\n        if (totalSuply == 0){\n            return 0;\n        }\n        return allPayback.mul(_calDecimal).div(totalSuply);    \n    }\n    function _CalWriterPayback(address tokenAddress, address writer,address collateral,uint256 tokenPayback)private returns (uint256,uint256){\n        uint256 collateralPrice = _oracle.getPrice(collateral);\n        assert(collateralPrice>0);\n        if(writerOptions[tokenAddress][writer] == 0){\n            return (0,0);\n        }\n        OptionsToken ercToken = OptionsToken(tokenAddress);\n        uint256 _payback = tokenPayback.mul(writerOptions[tokenAddress][writer]);\n        _payback = _payback.div(collateralPrice);\n        if (_payback >writerVaults[collateral][writer]) {\n            _payback = writerVaults[collateral][writer];\n        }\n        uint leftToken = writerOptions[tokenAddress][writer] - ercToken.balanceOf(writer);\n        _payback = _payback.mul(leftToken).div(writerOptions[tokenAddress][writer]);\n        uint256 _transFee =_calNumberMulUint(transactionFee,_payback);\n        \n        _addTransactionFee(collateral, _transFee);\n        \n        writerVaults[collateral][writer] =\n                writerVaults[collateral][writer].sub(_payback);  \n        return (_payback.sub(_transFee),leftToken);\n    }\n    /**\n      * @dev  mint options token. test if writer's collateral assets are sufficient;\n      * @param optionsToken the options token address\n      * @param collateral the collateral address\n      * @param amount the amount of adding collateral\n      * @param mintOptionsTokenAmount the amount of new mint options token;\n      */\n    function _mintOptionsToken(address optionsToken,address collateral,uint256 amount,uint256 mintOptionsTokenAmount)private returns(bool){\n        uint256 colAmount = 0;\n        if (collateral == address(0)){\n//            require(msg.value > 0,\"Must transfer some coins\");\n            colAmount = msg.value;\n        }else if (amount > 0){\n            FNXCoin oToken = FNXCoin(collateral);\n            oToken.transferFrom(msg.sender, address(this), amount);\n            colAmount = amount;\n        }\n        require(_isSufficientCollateral(collateral,msg.sender,optionsToken,colAmount,mintOptionsTokenAmount),\"Collateral is insufficient\");\n        _insertWriter(optionsToken,colAmount,mintOptionsTokenAmount);\n        //mint\n        if (mintOptionsTokenAmount>0){\n            IIterableToken itoken = IIterableToken(optionsToken);\n            itoken.mint(msg.sender,mintOptionsTokenAmount);\n        }\n        return true;\n    }\n    function _isSufficientCollateral(address collateral,address writer,address optionToken,uint256 newCollateral,uint256 newMintToken) internal view returns (bool){\n        uint256 totalUsd = calculateOptionsValueUSD(collateral,writer);\n        if(newMintToken>0 && _contains(optionToken)){\n            uint256 underlyingPrice = _oracle.getUnderlyingPrice(optionsMap[optionToken].options.underlyingAssets);\n            uint256 needCollateral = _optionsFormulas.getCollateralPrice(optionsMap[optionToken].options.strikePrice,\n                        underlyingPrice,uint8(optionsMap[optionToken].options.optType));\n            totalUsd = totalUsd.add(newMintToken.mul(needCollateral));\n        }\n        uint256 price = _oracle.getPrice(collateral);\n        uint256 totalColateral = price.mul(writerVaults[collateral][writer].add(newCollateral));\n        return totalColateral>=totalUsd;\n    } \n    function calculateMaxMintAmount(address collateral,address writer,address optionToken,uint256 newCollateral)public view returns(uint256){\n        uint256 price = _oracle.getPrice(collateral);\n        uint256 totalColateral = price.mul(writerVaults[collateral][writer].add(newCollateral));\n        totalColateral = totalColateral.sub(calculateOptionsValueUSD(collateral,writer));\n        uint256 underlyingPrice = _oracle.getUnderlyingPrice(optionsMap[optionToken].options.underlyingAssets);\n        uint256 needCollateral = _optionsFormulas.getCollateralPrice(optionsMap[optionToken].options.strikePrice,\n                    underlyingPrice,uint8(optionsMap[optionToken].options.optType));\n        return totalColateral.div(needCollateral);\n    }\n    function calculateOptionsValueUSD(address collateral,address writer)public view returns(uint256){\n        uint256 totalUsd = 0;\n        address[] memory tokenList = getOptionsTokenList();\n        for(uint256 i=0;i<tokenList.length;i++){\n            OptionsInfo storage options = optionsMap[tokenList[i]].options;\n            if (options.collateralCurrency != collateral){\n                continue;\n            }\n            uint256 tokenAmount = writerOptions[tokenList[i]][writer];\n            uint256 underlyingPrice = _oracle.getUnderlyingPrice(options.underlyingAssets);\n            uint256 needCollateral = _optionsFormulas.getCollateralPrice(options.strikePrice,underlyingPrice,uint8(options.optType));\n            totalUsd = totalUsd.add(tokenAmount.mul(needCollateral));\n        }\n        return totalUsd;\n    }\n    function _calCollateralValue(address collateral,uint256 amount)internal view returns(uint256){\n        uint256 price = _oracle.getPrice(collateral);\n        uint256 value = amount.mul(price);\n        return value;\n    }\n    function _calNumberMulUint(Number number,uint256 value) internal pure returns (uint256){\n        uint256 result = number.value.mul(value);\n        if (number.exponent > 0) {\n            result = result.mul(10**uint256(number.exponent));\n        } else {\n            result = result.div(10**uint256(-1*number.exponent));\n        }\n        return result;\n    }\n    function _isExpired(IndexValue storage optionsItem) internal view returns (bool){\n        return optionsItem.options.expiration<now;\n    }\n    function _isExercised(IndexValue storage optionsItem) internal view returns (bool){\n        return optionsItem.options.isExercised;\n    }\n}\n",
  "sourcePath": "C:\\work\\solidity\\OptionsContract\\contracts\\ManagerContract.sol",
  "compiler": {
    "name": "solc",
    "version": "0.4.26+commit.4563c3fc.Emscripten.clang"
  },
  "schemaVersion": "3.1.0",
  "updatedAt": "2020-07-02T06:06:02.638Z",
  "devdoc": {
    "methods": {
      "addWhiteList(address)": {
        "details": "Implementation of add an eligible address into the whitelist.\r",
        "params": {
          "addAddress": "new eligible address.\r"
        }
      },
      "getTransactionFee()": {
        "details": "Returns the rate of trasaction fee.\r"
      },
      "getWhiteList()": {
        "details": "Implementation of getting the eligible whitelist.\r"
      },
      "isEligibleAddress(address)": {
        "details": "Implementation of testing whether the input address is eligible.\r",
        "params": {
          "tmpAddress": "input address for testing.\r"
        }
      },
      "isOwner()": {
        "details": "Returns true if the caller is the current owner."
      },
      "owner()": {
        "details": "Returns the address of the current owner."
      },
      "removeWhiteList(address)": {
        "details": "Implementation of revoke an invalid address from the whitelist.\r",
        "params": {
          "removeAddress": "revoked address.\r"
        }
      },
      "renounceOwnership()": {
        "details": "Leaves the contract without owner. It will not be possible to call `onlyOwner` functions anymore. Can only be called by the current owner.     * NOTE: Renouncing ownership will leave the contract without an owner, thereby removing any functionality that is only available to the owner."
      },
      "setTransactionFee(uint256,int32)": {
        "details": "set the rate of trasaction fee.\r",
        "params": {
          "exponent": "the exponent figures of transaction fee.\r transaction fee = Number(value,exponent);\r",
          "value": "the significant figures of transaction fee .\r"
        }
      },
      "transferOwnership(address)": {
        "details": "Transfers ownership of the contract to a new account (`newOwner`). Can only be called by the current owner."
      }
    }
  },
  "userdoc": {
    "methods": {}
  }
}