{
  "contractName": "OptionsVault",
  "abi": [
    {
      "constant": true,
      "inputs": [],
      "name": "getWhiteList",
      "outputs": [
        {
          "name": "",
          "type": "address[]"
        }
      ],
      "payable": false,
      "stateMutability": "view",
      "type": "function"
    },
    {
      "constant": false,
      "inputs": [
        {
          "name": "removeAddress",
          "type": "address"
        }
      ],
      "name": "removeWhiteList",
      "outputs": [],
      "payable": false,
      "stateMutability": "nonpayable",
      "type": "function"
    },
    {
      "constant": false,
      "inputs": [],
      "name": "redeemAll",
      "outputs": [],
      "payable": false,
      "stateMutability": "nonpayable",
      "type": "function"
    },
    {
      "constant": true,
      "inputs": [
        {
          "name": "",
          "type": "uint256"
        }
      ],
      "name": "whiteList",
      "outputs": [
        {
          "name": "",
          "type": "address"
        }
      ],
      "payable": false,
      "stateMutability": "view",
      "type": "function"
    },
    {
      "constant": false,
      "inputs": [],
      "name": "renounceOwnership",
      "outputs": [],
      "payable": false,
      "stateMutability": "nonpayable",
      "type": "function"
    },
    {
      "constant": true,
      "inputs": [
        {
          "name": "tmpAddress",
          "type": "address"
        }
      ],
      "name": "isEligibleAddress",
      "outputs": [
        {
          "name": "",
          "type": "bool"
        }
      ],
      "payable": false,
      "stateMutability": "view",
      "type": "function"
    },
    {
      "constant": true,
      "inputs": [],
      "name": "getTransactionFee",
      "outputs": [
        {
          "name": "",
          "type": "uint256"
        },
        {
          "name": "",
          "type": "int32"
        }
      ],
      "payable": false,
      "stateMutability": "view",
      "type": "function"
    },
    {
      "constant": true,
      "inputs": [],
      "name": "owner",
      "outputs": [
        {
          "name": "",
          "type": "address"
        }
      ],
      "payable": false,
      "stateMutability": "view",
      "type": "function"
    },
    {
      "constant": true,
      "inputs": [],
      "name": "isOwner",
      "outputs": [
        {
          "name": "",
          "type": "bool"
        }
      ],
      "payable": false,
      "stateMutability": "view",
      "type": "function"
    },
    {
      "constant": false,
      "inputs": [
        {
          "name": "currency",
          "type": "address"
        }
      ],
      "name": "redeem",
      "outputs": [],
      "payable": false,
      "stateMutability": "nonpayable",
      "type": "function"
    },
    {
      "constant": true,
      "inputs": [
        {
          "name": "",
          "type": "address"
        }
      ],
      "name": "managerFee",
      "outputs": [
        {
          "name": "",
          "type": "uint256"
        }
      ],
      "payable": false,
      "stateMutability": "view",
      "type": "function"
    },
    {
      "constant": true,
      "inputs": [],
      "name": "transactionFee",
      "outputs": [
        {
          "name": "value",
          "type": "uint256"
        },
        {
          "name": "exponent",
          "type": "int32"
        }
      ],
      "payable": false,
      "stateMutability": "view",
      "type": "function"
    },
    {
      "constant": true,
      "inputs": [
        {
          "name": "settlement",
          "type": "address"
        }
      ],
      "name": "getFeeBalance",
      "outputs": [
        {
          "name": "",
          "type": "uint256"
        }
      ],
      "payable": false,
      "stateMutability": "view",
      "type": "function"
    },
    {
      "constant": false,
      "inputs": [
        {
          "name": "value",
          "type": "uint256"
        },
        {
          "name": "exponent",
          "type": "int32"
        }
      ],
      "name": "setTransactionFee",
      "outputs": [],
      "payable": false,
      "stateMutability": "nonpayable",
      "type": "function"
    },
    {
      "constant": false,
      "inputs": [
        {
          "name": "addAddress",
          "type": "address"
        }
      ],
      "name": "addWhiteList",
      "outputs": [],
      "payable": false,
      "stateMutability": "nonpayable",
      "type": "function"
    },
    {
      "constant": true,
      "inputs": [],
      "name": "getAllFeeBalances",
      "outputs": [
        {
          "name": "",
          "type": "address[]"
        },
        {
          "name": "",
          "type": "uint256[]"
        }
      ],
      "payable": false,
      "stateMutability": "view",
      "type": "function"
    },
    {
      "constant": false,
      "inputs": [
        {
          "name": "newOwner",
          "type": "address"
        }
      ],
      "name": "transferOwnership",
      "outputs": [],
      "payable": false,
      "stateMutability": "nonpayable",
      "type": "function"
    },
    {
      "anonymous": false,
      "inputs": [
        {
          "indexed": true,
          "name": "collateral",
          "type": "address"
        },
        {
          "indexed": true,
          "name": "recipient",
          "type": "address"
        },
        {
          "indexed": false,
          "name": "payback",
          "type": "uint256"
        }
      ],
      "name": "Transferback",
      "type": "event"
    },
    {
      "anonymous": false,
      "inputs": [
        {
          "indexed": true,
          "name": "previousOwner",
          "type": "address"
        },
        {
          "indexed": true,
          "name": "newOwner",
          "type": "address"
        }
      ],
      "name": "OwnershipTransferred",
      "type": "event"
    },
    {
      "constant": true,
      "inputs": [],
      "name": "getOptionsTokenList",
      "outputs": [
        {
          "name": "",
          "type": "address[]"
        }
      ],
      "payable": false,
      "stateMutability": "view",
      "type": "function"
    },
    {
      "constant": true,
      "inputs": [
        {
          "name": "tokenAddress",
          "type": "address"
        }
      ],
      "name": "getOptionsTokenWriterList",
      "outputs": [
        {
          "name": "",
          "type": "address[]"
        }
      ],
      "payable": false,
      "stateMutability": "view",
      "type": "function"
    },
    {
      "constant": true,
      "inputs": [
        {
          "name": "writer",
          "type": "address"
        },
        {
          "name": "collateral",
          "type": "address"
        }
      ],
      "name": "getWriterCollateralBalance",
      "outputs": [
        {
          "name": "",
          "type": "uint256"
        }
      ],
      "payable": false,
      "stateMutability": "view",
      "type": "function"
    },
    {
      "constant": true,
      "inputs": [
        {
          "name": "writer",
          "type": "address"
        },
        {
          "name": "tokenAddress",
          "type": "address"
        }
      ],
      "name": "getWriterOptionsTokenBalance",
      "outputs": [
        {
          "name": "",
          "type": "uint256"
        }
      ],
      "payable": false,
      "stateMutability": "view",
      "type": "function"
    },
    {
      "constant": true,
      "inputs": [
        {
          "name": "tokenAddress",
          "type": "address"
        }
      ],
      "name": "getOptionsTokenInfo",
      "outputs": [
        {
          "name": "",
          "type": "uint8"
        },
        {
          "name": "",
          "type": "address"
        },
        {
          "name": "",
          "type": "uint32"
        },
        {
          "name": "",
          "type": "uint256"
        },
        {
          "name": "",
          "type": "uint256"
        },
        {
          "name": "",
          "type": "bool"
        }
      ],
      "payable": false,
      "stateMutability": "view",
      "type": "function"
    }
  ],
  "bytecode": "0x60c060408190526003608081905260021960a05280556004805463fffffffd63ffffffff19909116179055600060098190558054600160a060020a0319163317808255600160a060020a0316917f8be0079c531659141344cd1fd0a4f28419497f9722a3daafe3b4186f6b6457e0908290a3611243806100806000396000f3006080604052600436106101275763ffffffff7c010000000000000000000000000000000000000000000000000000000060003504166309a9d76c811461012c5780632042e5c2146101915780632f4350c2146101b45780633c03c859146101c95780634caf1d1a146102305780635c475d42146102515780636485121014610285578063715018a6146102be578063817bf86d146102d357806385d79102146103085780638da5cb5b1461033b5780638f32d59b146103505780639142e2661461036557806395a2251f1461038c5780639965a4d5146103ad5780639ed3edf0146103ce578063c53ca5a9146103e3578063c78f6803146103f8578063e4a9d2be14610419578063e7cd4a0414610437578063f20568cd14610458578063f2fde38b14610506575b600080fd5b34801561013857600080fd5b50610141610527565b60408051602080825283518183015283519192839290830191858101910280838360005b8381101561017d578181015183820152602001610165565b505050509050019250505060405180910390f35b34801561019d57600080fd5b506101b2600160a060020a036004351661058a565b005b3480156101c057600080fd5b506101b261067b565b3480156101d557600080fd5b506101ea600160a060020a0360043516610879565b6040805160ff9097168752600160a060020a03909516602087015263ffffffff9093168585015260608501919091526080840152151560a0830152519081900360c00190f35b34801561023c57600080fd5b50610141600160a060020a036004351661091d565b34801561025d57600080fd5b50610269600435610996565b60408051600160a060020a039092168252519081900360200190f35b34801561029157600080fd5b506102ac600160a060020a03600435811690602435166109be565b60408051918252519081900360200190f35b3480156102ca57600080fd5b506101b26109ea565b3480156102df57600080fd5b506102f4600160a060020a0360043516610a8d565b604080519115158252519081900360200190f35b34801561031457600080fd5b5061031d610aa4565b60408051928352600391820b90910b60208301528051918290030190f35b34801561034757600080fd5b50610269610ab2565b34801561035c57600080fd5b506102f4610ac1565b34801561037157600080fd5b506102ac600160a060020a0360043581169060243516610ad2565b34801561039857600080fd5b506101b2600160a060020a0360043516610afe565b3480156103b957600080fd5b506102ac600160a060020a0360043516610cad565b3480156103da57600080fd5b5061031d610cbf565b3480156103ef57600080fd5b50610141610ccc565b34801561040457600080fd5b506102ac600160a060020a0360043516610db1565b34801561042557600080fd5b506101b260043560243560030b610dcc565b34801561044357600080fd5b506101b2600160a060020a0360043516610e39565b34801561046457600080fd5b5061046d610efa565b604051808060200180602001838103835285818151815260200191508051906020019060200280838360005b838110156104b1578181015183820152602001610499565b50505050905001838103825284818151815260200191508051906020019060200280838360005b838110156104f05781810151838201526020016104d8565b5050505090500194505050505060405180910390f35b34801561051257600080fd5b506101b2600160a060020a0360043516611003565b6060600180548060200260200160405190810160405280929190818152602001828054801561057f57602002820191906000526020600020905b8154600160a060020a03168152600190910190602001808311610561575b505050505090505b90565b6000610594610ac1565b15156105d8576040805160e560020a62461bcd02815260206004820181905260248201526000805160206111f8833981519152604482015290519081900360640190fd5b6105e18261105b565b600154909150811015610677576001546000190181146106625760018054600019810190811061060d57fe5b60009182526020909120015460018054600160a060020a03909216918390811061063357fe5b9060005260206000200160006101000a815481600160a060020a030219169083600160a060020a031602179055505b60018054906106759060001983016111ba565b505b5050565b6000806000610688610ac1565b15156106cc576040805160e560020a62461bcd02815260206004820181905260248201526000805160206111f8833981519152604482015290519081900360640190fd5b600092505b60015483101561067557600260006001858154811015156106ee57fe5b6000918252602080832090910154600160a060020a03168352820192909252604001812054925082111561086e5760006002600060018681548110151561073157fe5b6000918252602080832090910154600160a060020a03168352820192909252604001902055600180548490811061076457fe5b600091825260208220015460018054600160a060020a039092169350908590811061078b57fe5b600091825260209091200154600160a060020a031614156107d957604051339083156108fc029084906000818181858888f193505050501580156107d3573d6000803e3d6000fd5b5061086e565b604080517fa9059cbb000000000000000000000000000000000000000000000000000000008152336004820152602481018490529051600160a060020a0383169163a9059cbb9160448083019260209291908290030181600087803b15801561084157600080fd5b505af1158015610855573d6000803e3d6000fd5b505050506040513d602081101561086b57600080fd5b50505b6001909201916106d1565b600080600080600080600061088d886110b0565b156109135750600160a060020a038716600090815260056020526040902060019081018054909160ff909116908111156108c357fe5b8154600283015460018401546003850154939a506101008304600160a060020a03169950750100000000000000000000000000000000000000000090920463ffffffff1697509550935060ff1691505b5091939550919395565b600160a060020a03811660009081526005602081815260409283902090910180548351818402810184019094528084526060939283018282801561098a57602002820191906000526020600020905b8154600160a060020a0316815260019091019060200180831161096c575b50505050509050919050565b60018054829081106109a457fe5b600091825260209091200154600160a060020a0316905081565b600160a060020a0380821660009081526007602090815260408083209386168352929052205492915050565b6109f2610ac1565b1515610a36576040805160e560020a62461bcd02815260206004820181905260248201526000805160206111f8833981519152604482015290519081900360640190fd5b60008054604051600160a060020a03909116907f8be0079c531659141344cd1fd0a4f28419497f9722a3daafe3b4186f6b6457e0908390a36000805473ffffffffffffffffffffffffffffffffffffffff19169055565b600080610a998361105b565b600154119392505050565b6003805460045490910b9091565b600054600160a060020a031690565b600054600160a060020a0316331490565b600160a060020a0380821660009081526006602090815260408083209386168352929052205492915050565b600080610b09610ac1565b1515610b4d576040805160e560020a62461bcd02815260206004820181905260248201526000805160206111f8833981519152604482015290519081900360640190fd5b600160a060020a03831660009081526002602052604081205492508211610bbe576040805160e560020a62461bcd02815260206004820152601260248201527f4974277320656d7074792062616c616e63650000000000000000000000000000604482015290519081900360640190fd5b600160a060020a0383166000818152600260205260408120551515610c1057604051339083156108fc029084906000818181858888f19350505050158015610c0a573d6000803e3d6000fd5b50610675565b50604080517fa9059cbb0000000000000000000000000000000000000000000000000000000081523360048201526024810183905290518391600160a060020a0383169163a9059cbb916044808201926020929091908290030181600087803b158015610c7c57600080fd5b505af1158015610c90573d6000803e3d6000fd5b505050506040513d6020811015610ca657600080fd5b5050505050565b60026020526000908152604090205481565b6003805460045490910b82565b606080600080600954604051908082528060200260200182016040528015610cfe578160200160208202803883390190505b50925060009150600090505b600854811015610da9576008805482908110610d2257fe5b60009182526020909120015474010000000000000000000000000000000000000000900460ff161515610da1576008805482908110610d5d57fe5b6000918252602090912001548351600160a060020a0390911690849084908110610d8357fe5b600160a060020a039092166020928302909101909101526001909101905b600101610d0a565b509092915050565b600160a060020a031660009081526002602052604090205490565b610dd4610ac1565b1515610e18576040805160e560020a62461bcd02815260206004820181905260248201526000805160206111f8833981519152604482015290519081900360640190fd5b6003918255600480549190920b63ffffffff1663ffffffff19909116179055565b6000610e43610ac1565b1515610e87576040805160e560020a62461bcd02815260206004820181905260248201526000805160206111f8833981519152604482015290519081900360640190fd5b610e908261105b565b600154909150811415610677576001805480820182556000919091527fb10e2d527612073b26eecdfd717e6a320cf44b4afac2b0732d9fcbe2b7fa0cf6018054600160a060020a03841673ffffffffffffffffffffffffffffffffffffffff199091161790555050565b60608060606000600180549050604051908082528060200260200182016040528015610f30578160200160208202803883390190505b509150600090505b600154811015610f9a5760026000600183815481101515610f5557fe5b6000918252602080832090910154600160a060020a031683528201929092526040019020548251839083908110610f8857fe5b60209081029091010152600101610f38565b60018281805480602002602001604051908101604052809291908181526020018280548015610ff257602002820191906000526020600020905b8154600160a060020a03168152600190910190602001808311610fd4575b505050505091509350935050509091565b61100b610ac1565b151561104f576040805160e560020a62461bcd02815260206004820181905260248201526000805160206111f8833981519152604482015290519081900360640190fd5b611058816110cc565b50565b6000805b6001548110156110aa5782600160a060020a031660018281548110151561108257fe5b600091825260209091200154600160a060020a031614156110a2576110aa565b60010161105f565b92915050565b600160a060020a03166000908152600560205260408120541190565b600160a060020a0381161515611152576040805160e560020a62461bcd02815260206004820152602660248201527f4f776e61626c653a206e6577206f776e657220697320746865207a65726f206160448201527f6464726573730000000000000000000000000000000000000000000000000000606482015290519081900360840190fd5b60008054604051600160a060020a03808516939216917f8be0079c531659141344cd1fd0a4f28419497f9722a3daafe3b4186f6b6457e091a36000805473ffffffffffffffffffffffffffffffffffffffff1916600160a060020a0392909216919091179055565b8154818355818111156106755760008381526020902061067591810190830161058791905b808211156111f357600081556001016111df565b509056004f776e61626c653a2063616c6c6572206973206e6f7420746865206f776e6572a165627a7a72305820ed63bf0fa425b46b88db82d9957fefc7b5bda5b5eafee9c20a76cc60e0d8488b0029",
  "source": "pragma solidity ^0.4.26;\r\nimport \"./SafeMath.sol\";\r\nimport \"./IERC20.sol\";\r\nimport \"./Ownable.sol\";\r\nimport \"./ReentrancyGuard.sol\";\r\nimport \"./OptionsToken.sol\";\r\nimport \"./CompoundOracleInterface.sol\";\r\nimport \"./OptionsFormulas.sol\";\r\nimport \"./TransactionFee.sol\";\r\ncontract OptionsVault is TransactionFee\r\n{\r\n    using SafeMath for uint256;\r\n    enum OptionsType{\r\n        OptCall,\r\n        OptPut\r\n    }\r\n    struct OptionsInfo{\r\n        OptionsType\toptType;\r\n        //Collateral currency address. If this address equals 0, it means that it is Eth;\r\n        address\t\tcollateralCurrency;\r\n        //underlying assets type;\r\n        uint32\t\tunderlyingAssets;\r\n        uint256\t\texpiration;\r\n        uint256      strikePrice;\r\n        bool        isExercised;\r\n    }\r\n    struct IndexValue\r\n    {\r\n        uint keyIndex;\r\n        OptionsInfo options;\r\n        address[] writers;\r\n    }\r\n    struct KeyFlag { address key; bool deleted; }\r\n    mapping(address => IndexValue) internal optionsMap;\r\n    //collateral => writer => amount\r\n    mapping(address => mapping(address => uint256)) writerVaults;\r\n    //options => writer =>  amount\r\n    mapping(address => mapping(address => uint256)) writerOptions;\r\n    KeyFlag[] internal optionsTokenList;\r\n    uint internal size = 0;\r\n    function _insert(address key, \r\n                OptionsType optType,\r\n                address collateral,\r\n                uint32 underlyingAssets,\r\n                uint256 expiration,\r\n                uint256 strikePriceValue) internal returns (bool replaced)\r\n    {\r\n        uint keyIndex = optionsMap[key].keyIndex;\r\n        optionsMap[key].options.optType = optType;\r\n        optionsMap[key].options.collateralCurrency = collateral;\r\n        optionsMap[key].options.underlyingAssets = underlyingAssets;\r\n        optionsMap[key].options.expiration = expiration;\r\n        optionsMap[key].options.strikePrice = strikePriceValue;\r\n        optionsMap[key].options.isExercised = false;\r\n        if (keyIndex > 0)\r\n            return true;\r\n        else\r\n        {\r\n            keyIndex = optionsTokenList.length++;\r\n            optionsMap[key].keyIndex = keyIndex + 1;\r\n            optionsTokenList[keyIndex].key = key;\r\n            size++;\r\n            return false;\r\n        }\r\n    }\r\n    function _insertWriter( address key, uint256 amount,uint256 mintOptTokenAmount) internal returns (bool){\r\n        uint256 i = _findWriter(key,msg.sender);\r\n        if (i == optionsMap[key].writers.length){\r\n            optionsMap[key].writers.push(msg.sender);\r\n        }\r\n        OptionsInfo storage options = optionsMap[key].options;\r\n        writerVaults[options.collateralCurrency][msg.sender] = amount.add(writerVaults[options.collateralCurrency][msg.sender]);\r\n        writerOptions[key][msg.sender] = mintOptTokenAmount.add(writerOptions[key][msg.sender]);\r\n        return true;\r\n    }\r\n    function _findWriter(address key,address writer) internal view returns (uint256){\r\n        address[] storage writers = optionsMap[key].writers;\r\n        for (uint256 i=0;i<writers.length;i++ ){\r\n            if (writers[i] == writer){\r\n                break;\r\n            }\r\n        }\r\n        return i;\r\n    }\r\n    function _remove(address key) internal returns (bool)\r\n    {\r\n        uint keyIndex = optionsMap[key].keyIndex;\r\n        if (keyIndex == 0)\r\n            return false;\r\n        address[] storage writers = optionsMap[key].writers;\r\n        for (uint256 i=0;i<writers.length;i++ ){\r\n            delete writerOptions[key][writers[i]];\r\n        }\r\n        delete optionsMap[key];\r\n        optionsTokenList[keyIndex - 1].deleted = true;\r\n\r\n        size --;\r\n        return true;\r\n    }\r\n    function _contains(address key) internal view returns (bool)\r\n    {\r\n        return optionsMap[key].keyIndex > 0;\r\n    }\r\n    function _iterate_start() internal view returns (uint)\r\n    {\r\n        return _iterate_next(uint(-1));\r\n    }\r\n    function _iterate_valid(uint keyIndex) internal view returns (bool)\r\n    {\r\n        return keyIndex < optionsTokenList.length;\r\n    }\r\n    function _iterate_next( uint keyIndex) internal view returns (uint)\r\n    {\r\n        keyIndex++;\r\n        while (keyIndex < optionsTokenList.length && optionsTokenList[keyIndex].deleted)\r\n            keyIndex++;\r\n        return keyIndex;\r\n    }\r\n    function getOptionsTokenList()public view returns (address[]){\r\n        address[] memory optionsToken = new address[](size);\r\n        uint256 index = 0;\r\n        for(uint256 i=0;i<optionsTokenList.length;i++){\r\n            if(!optionsTokenList[i].deleted){\r\n                optionsToken[index] = optionsTokenList[i].key;\r\n                index++;\r\n            }\r\n        }\r\n        return optionsToken;\r\n    }\r\n    function getOptionsTokenWriterList(address tokenAddress)public view returns (address[]){\r\n            return optionsMap[tokenAddress].writers;\r\n    }\r\n    function getWriterCollateralBalance(address writer,address collateral)public view returns (uint256){\r\n            return writerVaults[collateral][writer];\r\n    }\r\n    function getWriterOptionsTokenBalance(address writer,address tokenAddress)public view returns (uint256){\r\n            return writerOptions[tokenAddress][writer];\r\n    }\r\n    function getOptionsTokenInfo(address tokenAddress)public view returns (uint8,address,uint32,uint256,uint256,bool){\r\n        if (_contains(tokenAddress)){\r\n            OptionsInfo storage options = optionsMap[tokenAddress].options;\r\n            return (uint8(options.optType),options.collateralCurrency,options.underlyingAssets,\r\n                options.strikePrice,options.expiration,options.isExercised);\r\n        }\r\n    }\r\n}\r\ncontract OptionsManager is OptionsVault,ReentrancyGuard {\r\n    using SafeMath for uint256;\r\n    IOptFormulas internal _optionsFormulas;\r\n    ICompoundOracle internal _oracle;\r\n    uint256 private _calDecimal = 10000000000;\r\n    // Number(2,-1) = 20%\r\n    Number public liquidationIncentive = Number(2, -1);\r\n    \r\n    event CreateOptions(address indexed collateral,address indexed tokenAddress, uint32 indexed underlyingAssets,uint256 strikePrice,uint256 expiration,uint8 optType);\r\n    event AddCollateral(address indexed optionsToken,uint256 indexed amount,uint256 mintOptionsTokenAmount);\r\n    event WithdrawCollateral(address indexed optionsToken,uint256 amount);\r\n    event Exercise(address indexed Sender,address indexed optionsToken,uint256 unitPrice);\r\n    event Transferback(address indexed collateral,address indexed recipient,uint256 payback);\r\n    event Liquidate(address indexed Sender,address indexed optionsToken,address indexed writer,uint256 amount);\r\n    event BurnOptionsToken(address indexed optionsToken,address indexed writer,uint256 amount);\r\n    //*******************getter***********************\r\n    function getOracleAddress() public view returns(address){\r\n        return address(_oracle);\r\n    }\r\n    function getFormulasAddress() public view returns(address){\r\n        return address(_optionsFormulas);\r\n    }\r\n    function getLiquidationIncentive()public view returns (uint256,int32){\r\n        return (liquidationIncentive.value,liquidationIncentive.exponent);\r\n    }\r\n    //*******************setter***********************\r\n    function setOracleAddress(address oracle)public onlyOwner{\r\n        _oracle = ICompoundOracle(oracle);\r\n    }\r\n    function setFormulasAddress(address formulas)public onlyOwner{\r\n        _optionsFormulas = IOptFormulas(formulas);\r\n    }\r\n    function setLiquidationIncentive(uint256 value,int32 exponent)public onlyOwner{\r\n        liquidationIncentive.value = value;\r\n        liquidationIncentive.exponent = exponent;\r\n    }\r\n\r\n    /**\r\n        * @dev  create an empty options token by owner;\r\n        * @param optionsTokenName new migration options token name;\r\n        * @param collateral The collateral asset\r\n        * @param underlyingAssets underlying assets index, start at 1.\r\n        * @param strikePrice The amount of strike asset that will be paid out per oToken\r\n        * @param expiration The time at which the options expires\r\n        * @param optType options type,0 is call options,1 is put options\r\n        */\r\n    function createOptionsToken(string optionsTokenName,address collateral,\r\n    uint32 underlyingAssets,\r\n    uint256 strikePrice,\r\n    uint256 expiration,\r\n    uint8 optType)\r\n    public onlyOwner nonReentrant{\r\n        require(underlyingAssets>0 , \"underlying cannot be zero\");\r\n        require(isEligibleAddress(collateral) , \"collateral is unsupported token\");\r\n//        expiration = expiration.add(now);\r\n        //new OptionsToken(expiration,optionsTokenName);\r\n        address newToken = _optionsFormulas.createNewToken(expiration,optionsTokenName);\r\n        assert(newToken != 0);\r\n        _insert(newToken,OptionsType(optType),collateral,underlyingAssets,expiration,strikePrice);\r\n        emit CreateOptions(collateral,newToken,underlyingAssets,strikePrice,expiration,optType);\r\n    }\r\n     /**\r\n        * @dev  add Collateral. Any writer can add collateral to an exist options token,and mint options token;\r\n        * @param optionsToken The Options token address.\r\n        * @param collateral The collateral asset\r\n        * @param amount The amount of collateral asset\r\n        * @param mintOptionsTokenAmount The amount of options token will be minted and sent to the writer;\r\n        */   \r\n    function addCollateral(address optionsToken,address collateral,uint256 amount,uint256 mintOptionsTokenAmount)public payable nonReentrant{\r\n        require(_contains(optionsToken),\"This OptionsToken does not exist\");\r\n        require(!_isExpired(optionsMap[optionsToken]), \"This OptionsToken expired\");\r\n        require(optionsMap[optionsToken].options.collateralCurrency == collateral,\"Collateral currency type error\");\r\n        _mintOptionsToken(optionsToken,collateral,amount,mintOptionsTokenAmount);\r\n        emit AddCollateral(optionsToken,amount,mintOptionsTokenAmount);\r\n    }\r\n     /**\r\n        * @dev  Withdraw Collateral. Any writer can withdraw his collateral if his collateral assets are surplus;\r\n        * @param collateral The collateral address.\r\n        * @param amount The amount  collateral asset which will be Withdrawn\r\n        */   \r\n    function withdrawCollateral(address collateral,uint256 amount)public nonReentrant{\r\n        require(isEligibleAddress(collateral) , \"collateral is unsupported token\");\r\n        writerVaults[collateral][msg.sender] = writerVaults[collateral][msg.sender].sub(amount);\r\n        require (_isSufficientCollateral(collateral,msg.sender,address(0),0,0),\"option token writter's Collateral is insufficient\");\r\n        _transferPayback(msg.sender,collateral,amount);\r\n        emit WithdrawCollateral(collateral,amount);\r\n\r\n    }\r\n    /**\r\n      * @dev  exercise all of the expired options token;\r\n      */  \r\n    function exercise()public nonReentrant{\r\n        for (uint keyIndex = _iterate_start();_iterate_valid(keyIndex);keyIndex = _iterate_next(keyIndex)){\r\n            IndexValue storage optionsItem = optionsMap[optionsTokenList[keyIndex].key];\r\n            _exercise(optionsTokenList[keyIndex].key,optionsItem);\r\n        }\r\n    }\r\n    /**\r\n      * @dev  liquidate if a writer's options collateral assets are insuficient;\r\n      * @param optionsToken The Options token address.\r\n      * @param writer The Options writer address.\r\n      * @param amount The amount  of optionsToken which will be liquidated\r\n      */  \r\n    function liquidate(address optionsToken,address writer,uint256 amount)public nonReentrant{\r\n        require(_contains(optionsToken),\"This OptionsToken does not exist\");\r\n        IndexValue storage optionsItem = optionsMap[optionsToken];\r\n        require(!_isExpired(optionsItem), \"OptionsToken expired\");\r\n        require(amount <= writerOptions[optionsToken][writer],\"liquidated token amount exceeds writter's mintToken amount\");\r\n        require(!_isSufficientCollateral(optionsItem.options.collateralCurrency,writer,\r\n            optionsToken,0,0),\"option token writter's Collateral is sufficient\");\r\n        IERC20 optToken = IERC20(optionsToken);\r\n        optToken.transferFrom(msg.sender, address(this), amount);\r\n        uint256 tokenPrice = _oracle.getBuyOptionsPrice(optionsToken);\r\n        uint256 _payback = tokenPrice.mul(amount);\r\n        uint256 price = _oracle.getPrice(optionsItem.options.collateralCurrency);\r\n        _payback = _payback.div(price);\r\n        uint256 incentive = _calNumberMulUint(liquidationIncentive,_payback);\r\n        _payback = _payback.add(incentive);\r\n        if (_payback > writerVaults[optionsItem.options.collateralCurrency][writer]) {\r\n            _payback = writerVaults[optionsItem.options.collateralCurrency][writer];\r\n        }\r\n        uint256 _transFee = _calNumberMulUint(transactionFee,_payback);\r\n        \r\n        writerVaults[optionsItem.options.collateralCurrency][writer] = writerVaults[optionsItem.options.collateralCurrency][writer].sub(_payback);\r\n        _addTransactionFee(optionsItem.options.collateralCurrency,_transFee);\r\n        writerOptions[optionsToken][writer] = writerOptions[optionsToken][writer].sub(amount);\r\n        //transfer\r\n        _transferPayback(msg.sender,optionsItem.options.collateralCurrency,_payback.sub(_transFee));\r\n        IIterableToken itoken = IIterableToken(optionsToken);\r\n        itoken.burn(amount);\r\n        emit Liquidate(msg.sender,optionsToken,writer,amount);\r\n    }\r\n    /**\r\n      * @dev  A options writer burn some of his own token;\r\n      * @param optionsToken The Options token address.\r\n      * @param amount The amount of options token which will be burned\r\n      */     \r\n    function burnOptionsToken(address optionsToken,uint256 amount)public nonReentrant{\r\n       require(_contains(optionsToken),\"This OptionsToken does not exist\");\r\n        IndexValue storage optionsItem = optionsMap[optionsToken];\r\n        require(!_isExpired(optionsItem), \"OptionsToken expired\");\r\n        require(amount <= writerOptions[optionsToken][msg.sender],\"options writer's token is insufficient!\");\r\n        IERC20 optToken = IERC20(optionsToken);\r\n        optToken.transferFrom(msg.sender, address(this), amount);\r\n        writerOptions[optionsToken][msg.sender] = writerOptions[optionsToken][msg.sender].sub(amount);\r\n        //burn\r\n        IIterableToken itoken = IIterableToken(optionsToken);\r\n        itoken.burn(amount);\r\n        emit BurnOptionsToken(optionsToken,msg.sender,amount);\r\n    }\r\n    /**\r\n      * @dev  exercise an options token;\r\n      * @param tokenAddress The Options token address.\r\n      * @param optionsItem The Options token information and writer information list.\r\n\r\n      */  \r\n    function _exercise(address tokenAddress,IndexValue storage optionsItem)internal {\r\n        if (!_isExpired(optionsItem) || _isExercised(optionsItem)){\r\n            return;\r\n        }\r\n        if (optionsItem.writers.length == 0) {\r\n            optionsItem.options.isExercised = true;\r\n            _remove(tokenAddress);\r\n            return;\r\n        }\r\n        optionsItem.options.isExercised = true;\r\n        uint256 i=0;\r\n        uint256 value;\r\n        IERC20 collateralToken = IERC20(optionsItem.options.collateralCurrency);\r\n        //calculate tokenPayback\r\n        uint256 tokenPayback = _calExerciseTokenPayback(tokenAddress,optionsItem);\r\n        if (tokenPayback > 0 ){\r\n            //calculate balance pay back\r\n            IIterableToken iterToken = IIterableToken(tokenAddress);\r\n            (address[] memory accounts,uint256[] memory  balances) = iterToken.getAccountsAndBalances();\r\n            if (optionsItem.options.collateralCurrency == address(0)){\r\n                for (i=0;i<accounts.length;i++){\r\n                    if (balances[i]>0){\r\n                        if (writerOptions[tokenAddress][accounts[i]] == 0){ //not writer\r\n                            value = balances[i].mul(tokenPayback).div(_calDecimal);\r\n                            accounts[i].transfer(value);\r\n                            emit Transferback(optionsItem.options.collateralCurrency,accounts[i],value);\r\n                        }\r\n                    }\r\n                }\r\n            }else{\r\n                for (i=0;i<accounts.length;i++){\r\n                    if (balances[i]>0){\r\n                        if (writerOptions[tokenAddress][accounts[i]] == 0){ //not writer\r\n                            value = balances[i].mul(tokenPayback).div(_calDecimal);\r\n                            collateralToken.transfer(accounts[i],value);\r\n                            emit Transferback(optionsItem.options.collateralCurrency,accounts[i],value);\r\n                        }\r\n                    }\r\n                }\r\n            }\r\n        }\r\n        _remove(tokenAddress);\r\n        emit Exercise(msg.sender,tokenAddress,tokenPayback);\r\n    }\r\n    /**\r\n      * @dev  transfer collateral payback amount;\r\n      * @param recieptor payback recieptor\r\n      * @param collateral collateral address\r\n      * @param payback amount of collateral will payback \r\n      */\r\n    function _transferPayback(address recieptor,address collateral,uint256 payback)internal{\r\n        if (payback == 0){\r\n            return;\r\n        }\r\n        if (collateral == address(0)){\r\n            recieptor.transfer(payback);\r\n            emit Transferback(collateral,recieptor,payback);\r\n        }else{\r\n            IERC20 collateralToken = IERC20(collateral);\r\n            collateralToken.transfer(recieptor,payback);\r\n            emit Transferback(collateral,recieptor,payback);\r\n        }\r\n    }\r\n    /**\r\n      * @dev  calculate an options token exercise payback and each writer's payment;\r\n      * @param optionsItem the options token information\r\n      */\r\n    function _calExerciseTokenPayback(address tokenAddress,IndexValue storage optionsItem) internal returns (uint256){\r\n        //calculate tokenPayback\r\n        uint256 underlyingPrice = _oracle.getUnderlyingPrice(optionsItem.options.underlyingAssets);\r\n        uint256 tokenPayback = 0;\r\n        if (optionsItem.options.optType == OptionsType.OptCall){\r\n            if (underlyingPrice > optionsItem.options.strikePrice){\r\n                tokenPayback = underlyingPrice.sub(optionsItem.options.strikePrice);\r\n            }\r\n        }else{\r\n            if ( underlyingPrice < optionsItem.options.strikePrice){\r\n                tokenPayback = optionsItem.options.strikePrice.sub(underlyingPrice);\r\n            }\r\n        }\r\n        if (tokenPayback == 0 ){\r\n            return 0;\r\n        }\r\n\r\n        //calculate all pay back collateral and transactionFee\r\n        uint256 allPayback = 0;\r\n        uint256 totalSuply = 0;\r\n\r\n        for(uint256 i=0;i<optionsItem.writers.length;i++){\r\n            (uint256 _payback,uint leftToken) = _CalWriterPayback(tokenAddress,optionsItem.writers[i],optionsItem.options.collateralCurrency,tokenPayback);\r\n            allPayback = allPayback.add(_payback);\r\n            totalSuply = totalSuply.add(leftToken);\r\n        }\r\n        //assert iterToken.gettotalsuply != totalsuply\r\n        if (totalSuply == 0){\r\n            return 0;\r\n        }\r\n        return allPayback.mul(_calDecimal).div(totalSuply);    \r\n    }\r\n    function _CalWriterPayback(address tokenAddress, address writer,address collateral,uint256 tokenPayback)private returns (uint256,uint256){\r\n        uint256 collateralPrice = _oracle.getPrice(collateral);\r\n        assert(collateralPrice>0);\r\n        if(writerOptions[tokenAddress][writer] == 0){\r\n            return (0,0);\r\n        }\r\n        IERC20 ercToken = IERC20(tokenAddress);\r\n        uint256 _payback = tokenPayback.mul(writerOptions[tokenAddress][writer]);\r\n        _payback = _payback.div(collateralPrice);\r\n        if (_payback >writerVaults[collateral][writer]) {\r\n            _payback = writerVaults[collateral][writer];\r\n        }\r\n        uint leftToken = writerOptions[tokenAddress][writer] - ercToken.balanceOf(writer);\r\n        _payback = _payback.mul(leftToken).div(writerOptions[tokenAddress][writer]);\r\n        uint256 _transFee =_calNumberMulUint(transactionFee,_payback);\r\n        \r\n        _addTransactionFee(collateral, _transFee);\r\n        \r\n        writerVaults[collateral][writer] =\r\n                writerVaults[collateral][writer].sub(_payback);  \r\n        return (_payback.sub(_transFee),leftToken);\r\n    }\r\n    /**\r\n      * @dev  mint options token. test if writer's collateral assets are sufficient;\r\n      * @param optionsToken the options token address\r\n      * @param collateral the collateral address\r\n      * @param amount the amount of adding collateral\r\n      * @param mintOptionsTokenAmount the amount of new mint options token;\r\n      */\r\n    function _mintOptionsToken(address optionsToken,address collateral,uint256 amount,uint256 mintOptionsTokenAmount)private returns(bool){\r\n        uint256 colAmount = 0;\r\n        if (collateral == address(0)){\r\n//            require(msg.value > 0,\"Must transfer some coins\");\r\n            colAmount = msg.value;\r\n        }else if (amount > 0){\r\n            IERC20 oToken = IERC20(collateral);\r\n            oToken.transferFrom(msg.sender, address(this), amount);\r\n            colAmount = amount;\r\n        }\r\n        require(_isSufficientCollateral(collateral,msg.sender,optionsToken,colAmount,mintOptionsTokenAmount),\"Collateral is insufficient\");\r\n        _insertWriter(optionsToken,colAmount,mintOptionsTokenAmount);\r\n        //mint\r\n        if (mintOptionsTokenAmount>0){\r\n            IIterableToken itoken = IIterableToken(optionsToken);\r\n            itoken.mint(msg.sender,mintOptionsTokenAmount);\r\n        }\r\n        return true;\r\n    }\r\n    function _isSufficientCollateral(address collateral,address writer,address optionToken,uint256 newCollateral,uint256 newMintToken) internal view returns (bool){\r\n        uint256 totalUsd = calculateOptionsValueUSD(collateral,writer);\r\n        if(newMintToken>0 && _contains(optionToken)){\r\n            uint256 underlyingPrice = _oracle.getUnderlyingPrice(optionsMap[optionToken].options.underlyingAssets);\r\n            uint256 needCollateral = _optionsFormulas.getCollateralPrice(optionsMap[optionToken].options.strikePrice,\r\n                        underlyingPrice,uint8(optionsMap[optionToken].options.optType));\r\n            totalUsd = totalUsd.add(newMintToken.mul(needCollateral));\r\n        }\r\n        uint256 price = _oracle.getPrice(collateral);\r\n        uint256 totalColateral = price.mul(writerVaults[collateral][writer].add(newCollateral));\r\n        return totalColateral>=totalUsd;\r\n    } \r\n    function calculateMaxMintAmount(address collateral,address writer,address optionToken,uint256 newCollateral)public view returns(uint256){\r\n        uint256 price = _oracle.getPrice(collateral);\r\n        uint256 totalColateral = price.mul(writerVaults[collateral][writer].add(newCollateral));\r\n        totalColateral = totalColateral.sub(calculateOptionsValueUSD(collateral,writer));\r\n        uint256 underlyingPrice = _oracle.getUnderlyingPrice(optionsMap[optionToken].options.underlyingAssets);\r\n        uint256 needCollateral = _optionsFormulas.getCollateralPrice(optionsMap[optionToken].options.strikePrice,\r\n                    underlyingPrice,uint8(optionsMap[optionToken].options.optType));\r\n        return totalColateral.div(needCollateral);\r\n    }\r\n    function calculateOptionsValueUSD(address collateral,address writer)public view returns(uint256){\r\n        uint256 totalUsd = 0;\r\n        address[] memory tokenList = getOptionsTokenList();\r\n        for(uint256 i=0;i<tokenList.length;i++){\r\n            OptionsInfo storage options = optionsMap[tokenList[i]].options;\r\n            if (options.collateralCurrency != collateral){\r\n                continue;\r\n            }\r\n            uint256 tokenAmount = writerOptions[tokenList[i]][writer];\r\n            uint256 underlyingPrice = _oracle.getUnderlyingPrice(options.underlyingAssets);\r\n            uint256 needCollateral = _optionsFormulas.getCollateralPrice(options.strikePrice,underlyingPrice,uint8(options.optType));\r\n            totalUsd = totalUsd.add(tokenAmount.mul(needCollateral));\r\n        }\r\n        return totalUsd;\r\n    }\r\n    function _calCollateralValue(address collateral,uint256 amount)internal view returns(uint256){\r\n        uint256 price = _oracle.getPrice(collateral);\r\n        uint256 value = amount.mul(price);\r\n        return value;\r\n    }\r\n    function _calNumberMulUint(Number number,uint256 value) internal pure returns (uint256){\r\n        uint256 result = number.value.mul(value);\r\n        if (number.exponent > 0) {\r\n            result = result.mul(10**uint256(number.exponent));\r\n        } else {\r\n            result = result.div(10**uint256(-1*number.exponent));\r\n        }\r\n        return result;\r\n    }\r\n    function _isExpired(IndexValue storage optionsItem) internal view returns (bool){\r\n        return optionsItem.options.expiration<now;\r\n    }\r\n    function _isExercised(IndexValue storage optionsItem) internal view returns (bool){\r\n        return optionsItem.options.isExercised;\r\n    }\r\n}",
  "sourcePath": "C:\\work\\solidity\\OptionsContract\\contracts\\ManagerContract.sol",
  "compiler": {
    "name": "solc",
    "version": "0.4.26+commit.4563c3fc.Emscripten.clang"
  },
  "schemaVersion": "3.1.0",
  "updatedAt": "2020-07-04T15:17:54.739Z",
  "devdoc": {
    "methods": {
      "addWhiteList(address)": {
        "details": "Implementation of add an eligible address into the whitelist.\r",
        "params": {
          "addAddress": "new eligible address.\r"
        }
      },
      "getTransactionFee()": {
        "details": "Returns the rate of trasaction fee.\r"
      },
      "getWhiteList()": {
        "details": "Implementation of getting the eligible whitelist.\r"
      },
      "isEligibleAddress(address)": {
        "details": "Implementation of testing whether the input address is eligible.\r",
        "params": {
          "tmpAddress": "input address for testing.\r"
        }
      },
      "isOwner()": {
        "details": "Returns true if the caller is the current owner."
      },
      "owner()": {
        "details": "Returns the address of the current owner."
      },
      "removeWhiteList(address)": {
        "details": "Implementation of revoke an invalid address from the whitelist.\r",
        "params": {
          "removeAddress": "revoked address.\r"
        }
      },
      "renounceOwnership()": {
        "details": "Leaves the contract without owner. It will not be possible to call `onlyOwner` functions anymore. Can only be called by the current owner.     * NOTE: Renouncing ownership will leave the contract without an owner, thereby removing any functionality that is only available to the owner."
      },
      "setTransactionFee(uint256,int32)": {
        "details": "set the rate of trasaction fee.\r",
        "params": {
          "exponent": "the exponent figures of transaction fee.\r transaction fee = Number(value,exponent);\r",
          "value": "the significant figures of transaction fee .\r"
        }
      },
      "transferOwnership(address)": {
        "details": "Transfers ownership of the contract to a new account (`newOwner`). Can only be called by the current owner."
      }
    }
  },
  "userdoc": {
    "methods": {}
  }
}