{
  "contractName": "OptionsCalculate",
  "abi": [
    {
      "constant": false,
      "inputs": [],
      "name": "renounceOwnership",
      "outputs": [],
      "payable": false,
      "stateMutability": "nonpayable",
      "type": "function"
    },
    {
      "constant": true,
      "inputs": [],
      "name": "owner",
      "outputs": [
        {
          "name": "",
          "type": "address"
        }
      ],
      "payable": false,
      "stateMutability": "view",
      "type": "function"
    },
    {
      "constant": true,
      "inputs": [],
      "name": "isOwner",
      "outputs": [
        {
          "name": "",
          "type": "bool"
        }
      ],
      "payable": false,
      "stateMutability": "view",
      "type": "function"
    },
    {
      "constant": false,
      "inputs": [
        {
          "name": "newOwner",
          "type": "address"
        }
      ],
      "name": "transferOwnership",
      "outputs": [],
      "payable": false,
      "stateMutability": "nonpayable",
      "type": "function"
    },
    {
      "inputs": [],
      "payable": false,
      "stateMutability": "nonpayable",
      "type": "constructor"
    },
    {
      "anonymous": false,
      "inputs": [
        {
          "indexed": true,
          "name": "previousOwner",
          "type": "address"
        },
        {
          "indexed": true,
          "name": "newOwner",
          "type": "address"
        }
      ],
      "name": "OwnershipTransferred",
      "type": "event"
    },
    {
      "constant": true,
      "inputs": [],
      "name": "getOracleAddress",
      "outputs": [
        {
          "name": "",
          "type": "address"
        }
      ],
      "payable": false,
      "stateMutability": "view",
      "type": "function"
    },
    {
      "constant": true,
      "inputs": [],
      "name": "getFormulasAddress",
      "outputs": [
        {
          "name": "",
          "type": "address"
        }
      ],
      "payable": false,
      "stateMutability": "view",
      "type": "function"
    },
    {
      "constant": false,
      "inputs": [
        {
          "name": "oracle",
          "type": "address"
        }
      ],
      "name": "setOracleAddress",
      "outputs": [],
      "payable": false,
      "stateMutability": "nonpayable",
      "type": "function"
    },
    {
      "constant": false,
      "inputs": [
        {
          "name": "formulas",
          "type": "address"
        }
      ],
      "name": "setFormulasAddress",
      "outputs": [],
      "payable": false,
      "stateMutability": "nonpayable",
      "type": "function"
    }
  ],
  "bytecode": "0x60806040526402540be40060035534801561001957600080fd5b5060008054600160a060020a0319163317808255604051600160a060020a039190911691907f8be0079c531659141344cd1fd0a4f28419497f9722a3daafe3b4186f6b6457e0908290a36104f9806100726000396000f30060806040526004361061008d5763ffffffff7c010000000000000000000000000000000000000000000000000000000060003504166315f9739881146100925780634c69c00f146100b5578063715018a6146100d65780638da5cb5b146100eb5780638f32d59b1461011c578063b18b78dd14610145578063d7a41b091461015a578063f2fde38b1461016f575b600080fd5b34801561009e57600080fd5b506100b3600160a060020a0360043516610190565b005b3480156100c157600080fd5b506100b3600160a060020a036004351661020b565b3480156100e257600080fd5b506100b3610286565b3480156100f757600080fd5b50610100610329565b60408051600160a060020a039092168252519081900360200190f35b34801561012857600080fd5b50610131610338565b604080519115158252519081900360200190f35b34801561015157600080fd5b50610100610349565b34801561016657600080fd5b50610100610358565b34801561017b57600080fd5b506100b3600160a060020a0360043516610367565b610198610338565b15156101dc576040805160e560020a62461bcd02815260206004820181905260248201526000805160206104ae833981519152604482015290519081900360640190fd5b6001805473ffffffffffffffffffffffffffffffffffffffff1916600160a060020a0392909216919091179055565b610213610338565b1515610257576040805160e560020a62461bcd02815260206004820181905260248201526000805160206104ae833981519152604482015290519081900360640190fd5b6002805473ffffffffffffffffffffffffffffffffffffffff1916600160a060020a0392909216919091179055565b61028e610338565b15156102d2576040805160e560020a62461bcd02815260206004820181905260248201526000805160206104ae833981519152604482015290519081900360640190fd5b60008054604051600160a060020a03909116907f8be0079c531659141344cd1fd0a4f28419497f9722a3daafe3b4186f6b6457e0908390a36000805473ffffffffffffffffffffffffffffffffffffffff19169055565b600054600160a060020a031690565b600054600160a060020a0316331490565b600254600160a060020a031690565b600154600160a060020a031690565b61036f610338565b15156103b3576040805160e560020a62461bcd02815260206004820181905260248201526000805160206104ae833981519152604482015290519081900360640190fd5b6103bc816103bf565b50565b600160a060020a0381161515610445576040805160e560020a62461bcd02815260206004820152602660248201527f4f776e61626c653a206e6577206f776e657220697320746865207a65726f206160448201527f6464726573730000000000000000000000000000000000000000000000000000606482015290519081900360840190fd5b60008054604051600160a060020a03808516939216917f8be0079c531659141344cd1fd0a4f28419497f9722a3daafe3b4186f6b6457e091a36000805473ffffffffffffffffffffffffffffffffffffffff1916600160a060020a039290921691909117905556004f776e61626c653a2063616c6c6572206973206e6f7420746865206f776e6572a165627a7a72305820cfec71a094ef8e0373ec169a479e7ff59784c8a3df432121fc593636bb071ac60029",
  "source": "pragma solidity ^0.4.26;\r\n\r\nimport \"./Ownable.sol\";\r\nimport \"./SafeMath.sol\";\r\nimport \"./OptionsFormulas.sol\";\r\nimport \"./CompoundOracleInterface.sol\";\r\ncontract OptionsCalculate is Ownable{\r\n    using SafeMath for uint256;\r\n    constructor () public {\r\n\r\n    }\r\n    IOptFormulas internal _optionsFormulas;\r\n    ICompoundOracle internal _oracle;\r\n    uint256 private _calDecimal = 10000000000;\r\n    // Number(2,-1) = 20%\r\n//    Number public liquidationIncentive = Number(2, -1);\r\n\r\n    //*******************getter***********************\r\n    function getOracleAddress() public view returns(address){\r\n        return address(_oracle);\r\n    }\r\n    function getFormulasAddress() public view returns(address){\r\n        return address(_optionsFormulas);\r\n    }\r\n//    function getLiquidationIncentive()public view returns (uint256,int32){\r\n//        return (liquidationIncentive.value,liquidationIncentive.exponent);\r\n//    }\r\n    //*******************setter***********************\r\n    function setOracleAddress(address oracle)public onlyOwner{\r\n        _oracle = ICompoundOracle(oracle);\r\n    }\r\n    function setFormulasAddress(address formulas)public onlyOwner{\r\n        _optionsFormulas = IOptFormulas(formulas);\r\n    }\r\n//    function setLiquidationIncentive(uint256 value,int32 exponent)public onlyOwner{\r\n//        liquidationIncentive.value = value;\r\n//        liquidationIncentive.exponent = exponent;\r\n//    }\r\n    function calculateMaxMintAmount(address collateral,uint256 collateralAmount,uint256 strikePrice,uint256 underlying,uint8 optType) internal view returns (uint256){\r\n        uint256 collateralValue = _calCollateralValue(collateral,collateralAmount);\r\n        uint256 underlyingPrice = _oracle.getUnderlyingPrice(underlying);\r\n        uint256 needCollateral = 0;\r\n        if (optType == 0){\r\n            needCollateral = _optionsFormulas.callCollateralPrice(strikePrice,underlyingPrice);\r\n            return collateralValue.div(needCollateral);\r\n        }else{\r\n            needCollateral = _optionsFormulas.putCollateralPrice(strikePrice,underlyingPrice);\r\n            return collateralValue.div(needCollateral);\r\n        }\r\n    }\r\n    function _calCollateralValue(address collateral,uint256 amount)internal view returns(uint256){\r\n        uint256 price = _oracle.getPrice(collateral);\r\n        uint256 value = amount.mul(price);\r\n        return value;\r\n    }\r\n}",
  "sourcePath": "C:\\work\\solidity\\OptionsContract\\contracts\\OptionsCalculate.sol",
  "compiler": {
    "name": "solc",
    "version": "0.4.26+commit.4563c3fc.Emscripten.clang"
  },
  "schemaVersion": "3.1.0",
  "updatedAt": "2020-06-04T09:15:56.576Z",
  "devdoc": {
    "methods": {
      "isOwner()": {
        "details": "Returns true if the caller is the current owner."
      },
      "owner()": {
        "details": "Returns the address of the current owner."
      },
      "renounceOwnership()": {
        "details": "Leaves the contract without owner. It will not be possible to call `onlyOwner` functions anymore. Can only be called by the current owner.     * NOTE: Renouncing ownership will leave the contract without an owner, thereby removing any functionality that is only available to the owner."
      },
      "transferOwnership(address)": {
        "details": "Transfers ownership of the contract to a new account (`newOwner`). Can only be called by the current owner."
      }
    }
  },
  "userdoc": {
    "methods": {}
  }
}