{
  "contractName": "OptionsManager",
  "abi": [
    {
      "constant": true,
      "inputs": [],
      "name": "getWhiteList",
      "outputs": [
        {
          "name": "",
          "type": "address[]"
        }
      ],
      "payable": false,
      "stateMutability": "view",
      "type": "function"
    },
    {
      "constant": false,
      "inputs": [
        {
          "name": "removeAddress",
          "type": "address"
        }
      ],
      "name": "removeWhiteList",
      "outputs": [],
      "payable": false,
      "stateMutability": "nonpayable",
      "type": "function"
    },
    {
      "constant": false,
      "inputs": [],
      "name": "redeemAll",
      "outputs": [],
      "payable": false,
      "stateMutability": "nonpayable",
      "type": "function"
    },
    {
      "constant": true,
      "inputs": [
        {
          "name": "tokenAddress",
          "type": "address"
        }
      ],
      "name": "getOptionsTokenInfo",
      "outputs": [
        {
          "name": "",
          "type": "uint8"
        },
        {
          "name": "",
          "type": "address"
        },
        {
          "name": "",
          "type": "uint32"
        },
        {
          "name": "",
          "type": "uint256"
        },
        {
          "name": "",
          "type": "uint256"
        },
        {
          "name": "",
          "type": "bool"
        }
      ],
      "payable": false,
      "stateMutability": "view",
      "type": "function"
    },
    {
      "constant": true,
      "inputs": [
        {
          "name": "tokenAddress",
          "type": "address"
        }
      ],
      "name": "getOptionsTokenWriterList",
      "outputs": [
        {
          "name": "",
          "type": "address[]"
        }
      ],
      "payable": false,
      "stateMutability": "view",
      "type": "function"
    },
    {
      "constant": true,
      "inputs": [
        {
          "name": "",
          "type": "uint256"
        }
      ],
      "name": "whiteList",
      "outputs": [
        {
          "name": "",
          "type": "address"
        }
      ],
      "payable": false,
      "stateMutability": "view",
      "type": "function"
    },
    {
      "constant": true,
      "inputs": [
        {
          "name": "writer",
          "type": "address"
        },
        {
          "name": "tokenAddress",
          "type": "address"
        }
      ],
      "name": "getWriterOptionsTokenBalance",
      "outputs": [
        {
          "name": "",
          "type": "uint256"
        }
      ],
      "payable": false,
      "stateMutability": "view",
      "type": "function"
    },
    {
      "constant": false,
      "inputs": [],
      "name": "renounceOwnership",
      "outputs": [],
      "payable": false,
      "stateMutability": "nonpayable",
      "type": "function"
    },
    {
      "constant": true,
      "inputs": [
        {
          "name": "tmpAddress",
          "type": "address"
        }
      ],
      "name": "isEligibleAddress",
      "outputs": [
        {
          "name": "",
          "type": "bool"
        }
      ],
      "payable": false,
      "stateMutability": "view",
      "type": "function"
    },
    {
      "constant": true,
      "inputs": [],
      "name": "getTransactionFee",
      "outputs": [
        {
          "name": "",
          "type": "uint256"
        },
        {
          "name": "",
          "type": "int32"
        }
      ],
      "payable": false,
      "stateMutability": "view",
      "type": "function"
    },
    {
      "constant": true,
      "inputs": [],
      "name": "liquidationIncentive",
      "outputs": [
        {
          "name": "value",
          "type": "uint256"
        },
        {
          "name": "exponent",
          "type": "int32"
        }
      ],
      "payable": false,
      "stateMutability": "view",
      "type": "function"
    },
    {
      "constant": true,
      "inputs": [],
      "name": "owner",
      "outputs": [
        {
          "name": "",
          "type": "address"
        }
      ],
      "payable": false,
      "stateMutability": "view",
      "type": "function"
    },
    {
      "constant": true,
      "inputs": [],
      "name": "isOwner",
      "outputs": [
        {
          "name": "",
          "type": "bool"
        }
      ],
      "payable": false,
      "stateMutability": "view",
      "type": "function"
    },
    {
      "constant": true,
      "inputs": [
        {
          "name": "writer",
          "type": "address"
        },
        {
          "name": "collateral",
          "type": "address"
        }
      ],
      "name": "getWriterCollateralBalance",
      "outputs": [
        {
          "name": "",
          "type": "uint256"
        }
      ],
      "payable": false,
      "stateMutability": "view",
      "type": "function"
    },
    {
      "constant": false,
      "inputs": [
        {
          "name": "currency",
          "type": "address"
        }
      ],
      "name": "redeem",
      "outputs": [],
      "payable": false,
      "stateMutability": "nonpayable",
      "type": "function"
    },
    {
      "constant": true,
      "inputs": [
        {
          "name": "",
          "type": "address"
        }
      ],
      "name": "managerFee",
      "outputs": [
        {
          "name": "",
          "type": "uint256"
        }
      ],
      "payable": false,
      "stateMutability": "view",
      "type": "function"
    },
    {
      "constant": true,
      "inputs": [],
      "name": "transactionFee",
      "outputs": [
        {
          "name": "value",
          "type": "uint256"
        },
        {
          "name": "exponent",
          "type": "int32"
        }
      ],
      "payable": false,
      "stateMutability": "view",
      "type": "function"
    },
    {
      "constant": true,
      "inputs": [],
      "name": "getOptionsTokenList",
      "outputs": [
        {
          "name": "",
          "type": "address[]"
        }
      ],
      "payable": false,
      "stateMutability": "view",
      "type": "function"
    },
    {
      "constant": true,
      "inputs": [
        {
          "name": "settlement",
          "type": "address"
        }
      ],
      "name": "getFeeBalance",
      "outputs": [
        {
          "name": "",
          "type": "uint256"
        }
      ],
      "payable": false,
      "stateMutability": "view",
      "type": "function"
    },
    {
      "constant": false,
      "inputs": [
        {
          "name": "value",
          "type": "uint256"
        },
        {
          "name": "exponent",
          "type": "int32"
        }
      ],
      "name": "setTransactionFee",
      "outputs": [],
      "payable": false,
      "stateMutability": "nonpayable",
      "type": "function"
    },
    {
      "constant": false,
      "inputs": [
        {
          "name": "addAddress",
          "type": "address"
        }
      ],
      "name": "addWhiteList",
      "outputs": [],
      "payable": false,
      "stateMutability": "nonpayable",
      "type": "function"
    },
    {
      "constant": true,
      "inputs": [],
      "name": "getAllFeeBalances",
      "outputs": [
        {
          "name": "",
          "type": "address[]"
        },
        {
          "name": "",
          "type": "uint256[]"
        }
      ],
      "payable": false,
      "stateMutability": "view",
      "type": "function"
    },
    {
      "constant": false,
      "inputs": [
        {
          "name": "newOwner",
          "type": "address"
        }
      ],
      "name": "transferOwnership",
      "outputs": [],
      "payable": false,
      "stateMutability": "nonpayable",
      "type": "function"
    },
    {
      "anonymous": false,
      "inputs": [
        {
          "indexed": true,
          "name": "collateral",
          "type": "address"
        },
        {
          "indexed": true,
          "name": "tokenAddress",
          "type": "address"
        },
        {
          "indexed": true,
          "name": "underlyingAssets",
          "type": "uint32"
        },
        {
          "indexed": false,
          "name": "strikePrice",
          "type": "uint256"
        },
        {
          "indexed": false,
          "name": "expiration",
          "type": "uint256"
        },
        {
          "indexed": false,
          "name": "optType",
          "type": "uint8"
        }
      ],
      "name": "CreateOptions",
      "type": "event"
    },
    {
      "anonymous": false,
      "inputs": [
        {
          "indexed": true,
          "name": "optionsToken",
          "type": "address"
        },
        {
          "indexed": true,
          "name": "amount",
          "type": "uint256"
        },
        {
          "indexed": false,
          "name": "mintOptionsTokenAmount",
          "type": "uint256"
        }
      ],
      "name": "AddCollateral",
      "type": "event"
    },
    {
      "anonymous": false,
      "inputs": [
        {
          "indexed": true,
          "name": "Sender",
          "type": "address"
        },
        {
          "indexed": true,
          "name": "collateral",
          "type": "address"
        },
        {
          "indexed": false,
          "name": "amount",
          "type": "uint256"
        }
      ],
      "name": "WithdrawCollateral",
      "type": "event"
    },
    {
      "anonymous": false,
      "inputs": [
        {
          "indexed": true,
          "name": "Sender",
          "type": "address"
        },
        {
          "indexed": true,
          "name": "optionsToken",
          "type": "address"
        },
        {
          "indexed": false,
          "name": "unitPrice",
          "type": "uint256"
        }
      ],
      "name": "Exercise",
      "type": "event"
    },
    {
      "anonymous": false,
      "inputs": [
        {
          "indexed": true,
          "name": "optionsToken",
          "type": "address"
        },
        {
          "indexed": true,
          "name": "recieptor",
          "type": "address"
        },
        {
          "indexed": true,
          "name": "collateral",
          "type": "address"
        },
        {
          "indexed": false,
          "name": "payback",
          "type": "uint256"
        }
      ],
      "name": "ExercisePayback",
      "type": "event"
    },
    {
      "anonymous": false,
      "inputs": [
        {
          "indexed": true,
          "name": "Sender",
          "type": "address"
        },
        {
          "indexed": true,
          "name": "optionsToken",
          "type": "address"
        },
        {
          "indexed": true,
          "name": "writer",
          "type": "address"
        },
        {
          "indexed": false,
          "name": "amount",
          "type": "uint256"
        },
        {
          "indexed": false,
          "name": "payback",
          "type": "uint256"
        }
      ],
      "name": "Liquidate",
      "type": "event"
    },
    {
      "anonymous": false,
      "inputs": [
        {
          "indexed": true,
          "name": "optionsToken",
          "type": "address"
        },
        {
          "indexed": true,
          "name": "writer",
          "type": "address"
        },
        {
          "indexed": false,
          "name": "amount",
          "type": "uint256"
        }
      ],
      "name": "BurnOptionsToken",
      "type": "event"
    },
    {
      "anonymous": false,
      "inputs": [
        {
          "indexed": true,
          "name": "recieptor",
          "type": "address"
        },
        {
          "indexed": true,
          "name": "collateral",
          "type": "address"
        },
        {
          "indexed": false,
          "name": "payback",
          "type": "uint256"
        }
      ],
      "name": "TransferPayback",
      "type": "event"
    },
    {
      "anonymous": false,
      "inputs": [
        {
          "indexed": true,
          "name": "previousOwner",
          "type": "address"
        },
        {
          "indexed": true,
          "name": "newOwner",
          "type": "address"
        }
      ],
      "name": "OwnershipTransferred",
      "type": "event"
    },
    {
      "constant": true,
      "inputs": [],
      "name": "getOracleAddress",
      "outputs": [
        {
          "name": "",
          "type": "address"
        }
      ],
      "payable": false,
      "stateMutability": "view",
      "type": "function"
    },
    {
      "constant": true,
      "inputs": [],
      "name": "getFormulasAddress",
      "outputs": [
        {
          "name": "",
          "type": "address"
        }
      ],
      "payable": false,
      "stateMutability": "view",
      "type": "function"
    },
    {
      "constant": true,
      "inputs": [],
      "name": "getLiquidationIncentive",
      "outputs": [
        {
          "name": "",
          "type": "uint256"
        },
        {
          "name": "",
          "type": "int32"
        }
      ],
      "payable": false,
      "stateMutability": "view",
      "type": "function"
    },
    {
      "constant": false,
      "inputs": [
        {
          "name": "oracle",
          "type": "address"
        }
      ],
      "name": "setOracleAddress",
      "outputs": [],
      "payable": false,
      "stateMutability": "nonpayable",
      "type": "function"
    },
    {
      "constant": false,
      "inputs": [
        {
          "name": "formulas",
          "type": "address"
        }
      ],
      "name": "setFormulasAddress",
      "outputs": [],
      "payable": false,
      "stateMutability": "nonpayable",
      "type": "function"
    },
    {
      "constant": false,
      "inputs": [
        {
          "name": "value",
          "type": "uint256"
        },
        {
          "name": "exponent",
          "type": "int32"
        }
      ],
      "name": "setLiquidationIncentive",
      "outputs": [],
      "payable": false,
      "stateMutability": "nonpayable",
      "type": "function"
    },
    {
      "constant": false,
      "inputs": [
        {
          "name": "optionsTokenName",
          "type": "string"
        },
        {
          "name": "collateral",
          "type": "address"
        },
        {
          "name": "underlyingAssets",
          "type": "uint32"
        },
        {
          "name": "strikePrice",
          "type": "uint256"
        },
        {
          "name": "expiration",
          "type": "uint256"
        },
        {
          "name": "optType",
          "type": "uint8"
        }
      ],
      "name": "createOptionsToken",
      "outputs": [],
      "payable": false,
      "stateMutability": "nonpayable",
      "type": "function"
    },
    {
      "constant": false,
      "inputs": [
        {
          "name": "optionsToken",
          "type": "address"
        },
        {
          "name": "collateral",
          "type": "address"
        },
        {
          "name": "amount",
          "type": "uint256"
        },
        {
          "name": "mintOptionsTokenAmount",
          "type": "uint256"
        }
      ],
      "name": "addCollateral",
      "outputs": [],
      "payable": true,
      "stateMutability": "payable",
      "type": "function"
    },
    {
      "constant": false,
      "inputs": [
        {
          "name": "collateral",
          "type": "address"
        },
        {
          "name": "amount",
          "type": "uint256"
        }
      ],
      "name": "withdrawCollateral",
      "outputs": [],
      "payable": false,
      "stateMutability": "nonpayable",
      "type": "function"
    },
    {
      "constant": false,
      "inputs": [],
      "name": "exercise",
      "outputs": [],
      "payable": false,
      "stateMutability": "nonpayable",
      "type": "function"
    },
    {
      "constant": false,
      "inputs": [
        {
          "name": "optionsToken",
          "type": "address"
        },
        {
          "name": "writer",
          "type": "address"
        },
        {
          "name": "amount",
          "type": "uint256"
        }
      ],
      "name": "liquidate",
      "outputs": [],
      "payable": false,
      "stateMutability": "nonpayable",
      "type": "function"
    },
    {
      "constant": false,
      "inputs": [
        {
          "name": "optionsToken",
          "type": "address"
        },
        {
          "name": "amount",
          "type": "uint256"
        }
      ],
      "name": "burnOptionsToken",
      "outputs": [],
      "payable": false,
      "stateMutability": "nonpayable",
      "type": "function"
    },
    {
      "constant": true,
      "inputs": [
        {
          "name": "collateral",
          "type": "address"
        },
        {
          "name": "writer",
          "type": "address"
        },
        {
          "name": "optionToken",
          "type": "address"
        },
        {
          "name": "newCollateral",
          "type": "uint256"
        }
      ],
      "name": "calculateMaxMintAmount",
      "outputs": [
        {
          "name": "",
          "type": "uint256"
        }
      ],
      "payable": false,
      "stateMutability": "view",
      "type": "function"
    },
    {
      "constant": true,
      "inputs": [
        {
          "name": "collateral",
          "type": "address"
        },
        {
          "name": "writer",
          "type": "address"
        }
      ],
      "name": "calculateOptionsValueUSD",
      "outputs": [
        {
          "name": "",
          "type": "uint256"
        }
      ],
      "payable": false,
      "stateMutability": "view",
      "type": "function"
    }
  ],
  "bytecode": "0x6003608081905260021960a05280556004805463fffffffd63ffffffff199182161790915560006009819055600a805460ff191690556402540be400600c556101006040819052600260c081905260001960e052600d55600e805490931663ffffffff179092558054600160a060020a0319163317808255600160a060020a0316917f8be0079c531659141344cd1fd0a4f28419497f9722a3daafe3b4186f6b6457e0908290a36145e1806100b56000396000f3006080604052600436106101b35763ffffffff60e060020a60003504166309a9d76c81146101b85780630d16ddef1461021d578063106234f61461024357806315f97398146102635780632042e5c21461028457806326c01303146102a55780632f4350c2146102cf5780632f742b0d146102e4578063350c35e9146103025780633c03c859146103265780634c69c00f1461038d5780634caf1d1a146103ae5780635c475d42146103cf5780636485121014610403578063715018a61461043c578063817bf86d1461045157806385d79102146104865780638c765e94146104b95780638da5cb5b146104ce5780638f32d59b146104e35780639142e266146104f857806395a2251f1461051f5780639965a4d5146105405780639ed3edf014610561578063ace2d1c314610576578063b18b78dd146105f8578063c29a1d581461060d578063c53ca5a914610622578063c78f680314610637578063d32cb0fe14610658578063d7a41b091461066d578063d813f30d14610682578063e4a9d2be146106b2578063e7cd4a04146106d0578063f20568cd146106f1578063f2fde38b1461079f578063f6c0b5e7146107c0575b600080fd5b3480156101c457600080fd5b506101cd6107e7565b60408051602080825283518183015283519192839290830191858101910280838360005b838110156102095781810151838201526020016101f1565b505050509050019250505060405180910390f35b34801561022957600080fd5b50610241600160a060020a036004351660243561084a565b005b610241600160a060020a0360043581169060243516604435606435610bb2565b34801561026f57600080fd5b50610241600160a060020a0360043516610d7d565b34801561029057600080fd5b50610241600160a060020a0360043516610dfe565b3480156102b157600080fd5b50610241600160a060020a0360043581169060243516604435610eef565b3480156102db57600080fd5b50610241611621565b3480156102f057600080fd5b5061024160043560243560030b61181f565b34801561030e57600080fd5b50610241600160a060020a0360043516602435611892565b34801561033257600080fd5b50610347600160a060020a0360043516611a4b565b6040805160ff9097168752600160a060020a03909516602087015263ffffffff9093168585015260608501919091526080840152151560a0830152519081900360c00190f35b34801561039957600080fd5b50610241600160a060020a0360043516611add565b3480156103ba57600080fd5b506101cd600160a060020a0360043516611b58565b3480156103db57600080fd5b506103e7600435611bd1565b60408051600160a060020a039092168252519081900360200190f35b34801561040f57600080fd5b5061042a600160a060020a0360043581169060243516611bf9565b60408051918252519081900360200190f35b34801561044857600080fd5b50610241611c25565b34801561045d57600080fd5b50610472600160a060020a0360043516611cc8565b604080519115158252519081900360200190f35b34801561049257600080fd5b5061049b611cdf565b60408051928352600391820b90910b60208301528051918290030190f35b3480156104c557600080fd5b5061049b611ced565b3480156104da57600080fd5b506103e7611cf9565b3480156104ef57600080fd5b50610472611d08565b34801561050457600080fd5b5061042a600160a060020a0360043581169060243516611d19565b34801561052b57600080fd5b50610241600160a060020a0360043516611d45565b34801561054c57600080fd5b5061042a600160a060020a0360043516611ef4565b34801561056d57600080fd5b5061049b611f06565b34801561058257600080fd5b506040805160206004803580820135601f810184900484028501840190955284845261024194369492936024939284019190819084018382808284375094975050508335600160a060020a03169450505050602081013563ffffffff16906040810135906060810135906080013560ff16611f13565b34801561060457600080fd5b506103e76121d8565b34801561061957600080fd5b5061049b6121e7565b34801561062e57600080fd5b506101cd6121f4565b34801561064357600080fd5b5061042a600160a060020a03600435166122d9565b34801561066457600080fd5b506102416122f4565b34801561067957600080fd5b506103e76123b4565b34801561068e57600080fd5b5061042a600160a060020a03600435811690602435811690604435166064356123c8565b3480156106be57600080fd5b5061024160043560243560030b612639565b3480156106dc57600080fd5b50610241600160a060020a03600435166126a6565b3480156106fd57600080fd5b50610706612767565b604051808060200180602001838103835285818151815260200191508051906020019060200280838360005b8381101561074a578181015183820152602001610732565b50505050905001838103825284818151815260200191508051906020019060200280838360005b83811015610789578181015183820152602001610771565b5050505090500194505050505060405180910390f35b3480156107ab57600080fd5b50610241600160a060020a0360043516612870565b3480156107cc57600080fd5b5061042a600160a060020a03600435811690602435166128c8565b6060600180548060200260200160405190810160405280929190818152602001828054801561083f57602002820191906000526020600020905b8154600160a060020a03168152600190910190602001808311610821575b505050505090505b90565b600a546000908190819060ff161561086157600080fd5b600a805460ff1916600117905561087785612af2565b15156108cd576040805160e560020a62461bcd02815260206004820181905260248201527f54686973204f7074696f6e73546f6b656e20646f6573206e6f74206578697374604482015290519081900360640190fd5b600160a060020a038516600090815260056020526040902092506108f083612b0e565b15610945576040805160e560020a62461bcd02815260206004820152601460248201527f4f7074696f6e73546f6b656e2065787069726564000000000000000000000000604482015290519081900360640190fd5b600160a060020a03851660009081526007602090815260408083203384529091529020548411156109e6576040805160e560020a62461bcd02815260206004820152602760248201527f6f7074696f6e7320777269746572277320746f6b656e20697320696e7375666660448201527f696369656e742100000000000000000000000000000000000000000000000000606482015290519081900360840190fd5b604080517f23b872dd000000000000000000000000000000000000000000000000000000008152336004820152306024820152604481018690529051869350600160a060020a038416916323b872dd9160648083019260209291908290030181600087803b158015610a5757600080fd5b505af1158015610a6b573d6000803e3d6000fd5b505050506040513d6020811015610a8157600080fd5b5050600160a060020a0385166000908152600760209081526040808320338452909152902054610ab7908563ffffffff612b1716565b600160a060020a038616600081815260076020908152604080832033845282528083209490945583517f42966c6800000000000000000000000000000000000000000000000000000000815260048101899052935189955092936342966c689360248083019491928390030190829087803b158015610b3557600080fd5b505af1158015610b49573d6000803e3d6000fd5b505050506040513d6020811015610b5f57600080fd5b50506040805185815290513391600160a060020a038816917ffe68fc7ba09a6abb1767a96ffea3997ded00405745f637384f3da154e7bd03189181900360200190a35050600a805460ff19169055505050565b600a5460ff1615610bc257600080fd5b600a805460ff19166001179055610bd884612af2565b1515610c2e576040805160e560020a62461bcd02815260206004820181905260248201527f54686973204f7074696f6e73546f6b656e20646f6573206e6f74206578697374604482015290519081900360640190fd5b600160a060020a0384166000908152600560205260409020610c4f90612b0e565b15610ca4576040805160e560020a62461bcd02815260206004820152601960248201527f54686973204f7074696f6e73546f6b656e206578706972656400000000000000604482015290519081900360640190fd5b600160a060020a038481166000908152600560205260409020600101546101009004811690841614610d20576040805160e560020a62461bcd02815260206004820152601e60248201527f436f6c6c61746572616c2063757272656e63792074797065206572726f720000604482015290519081900360640190fd5b610d2c84848484612b60565b506040805182815290518391600160a060020a038716917fe3f4fa74d049cf7d64965afd6ce83c826cd313cec824ecfb9aacf36886090b499181900360200190a35050600a805460ff191690555050565b610d85611d08565b1515610dc9576040805160e560020a62461bcd0281526020600482018190526024820152600080516020614596833981519152604482015290519081900360640190fd5b600a8054600160a060020a039092166101000274ffffffffffffffffffffffffffffffffffffffff0019909216919091179055565b6000610e08611d08565b1515610e4c576040805160e560020a62461bcd0281526020600482018190526024820152600080516020614596833981519152604482015290519081900360640190fd5b610e5582612d46565b600154909150811015610eeb57600154600019018114610ed657600180546000198101908110610e8157fe5b60009182526020909120015460018054600160a060020a039092169183908110610ea757fe5b9060005260206000200160006101000a815481600160a060020a030219169083600160a060020a031602179055505b6001805490610ee99060001983016144e7565b505b5050565b600a54600090819081908190819081908190819060ff1615610f1057600080fd5b600a805460ff19166001179055610f268b612af2565b1515610f7c576040805160e560020a62461bcd02815260206004820181905260248201527f54686973204f7074696f6e73546f6b656e20646f6573206e6f74206578697374604482015290519081900360640190fd5b600160a060020a038b1660009081526005602052604090209750610f9f88612b0e565b15610ff4576040805160e560020a62461bcd02815260206004820152601460248201527f4f7074696f6e73546f6b656e2065787069726564000000000000000000000000604482015290519081900360640190fd5b600160a060020a03808c166000908152600760209081526040808320938e1683529290522054891115611097576040805160e560020a62461bcd02815260206004820152603a60248201527f6c69717569646174656420746f6b656e20616d6f756e7420657863656564732060448201527f777269747465722773206d696e74546f6b656e20616d6f756e74000000000000606482015290519081900360840190fd5b60018801546110b8906101009004600160a060020a03168b8d600080612d9b565b15611133576040805160e560020a62461bcd02815260206004820152602f60248201527f6f7074696f6e20746f6b656e2077726974746572277320436f6c6c617465726160448201527f6c2069732073756666696369656e740000000000000000000000000000000000606482015290519081900360840190fd5b604080517f23b872dd000000000000000000000000000000000000000000000000000000008152336004820152306024820152604481018b905290518c9850600160a060020a038916916323b872dd9160648083019260209291908290030181600087803b1580156111a457600080fd5b505af11580156111b8573d6000803e3d6000fd5b505050506040513d60208110156111ce57600080fd5b5050600b54604080517f8618b1d8000000000000000000000000000000000000000000000000000000008152600160a060020a038e8116600483015291519190921691638618b1d89160248083019260209291908290030181600087803b15801561123857600080fd5b505af115801561124c573d6000803e3d6000fd5b505050506040513d602081101561126257600080fd5b50519550611276868a63ffffffff61302816565b600b5460018a01546040805160e060020a6341976e09028152600160a060020a036101009093048316600482015290519398509116916341976e09916024808201926020929091908290030181600087803b1580156112d457600080fd5b505af11580156112e8573d6000803e3d6000fd5b505050506040513d60208110156112fe57600080fd5b50519350611312858563ffffffff6130d216565b60408051808201909152600d548152600e54600390810b810b900b602082015290955061133f9086613114565b9250611351858463ffffffff61318716565b6001890154600160a060020a0361010090910481166000908152600660209081526040808320938f16835292905220549095508511156113be576001880154600160a060020a0361010090910481166000908152600660209081526040808320938e168352929052205494505b60408051808201909152600380548252600454810b810b900b60208201526113e69086613114565b6001890154600160a060020a0361010090910481166000908152600660209081526040808320938f1683529290522054909250611429908663ffffffff612b1716565b600660008a60010160000160019054906101000a9004600160a060020a0316600160a060020a0316600160a060020a0316815260200190815260200160002060008c600160a060020a0316600160a060020a03168152602001908152602001600020819055506114b38860010160000160019054906101000a9004600160a060020a0316836131e4565b600160a060020a03808c166000908152600760209081526040808320938e16835292905220546114e9908a63ffffffff612b1716565b600160a060020a03808d1660009081526007602090815260408083208f851684529091529020919091556001890154611539913391610100900416611534888663ffffffff612b1716565b61322d565b8a905080600160a060020a03166342966c688a6040518263ffffffff1660e060020a02815260040180828152602001915050602060405180830381600087803b15801561158557600080fd5b505af1158015611599573d6000803e3d6000fd5b505050506040513d60208110156115af57600080fd5b5050600160a060020a03808b16908c16337f8246cc71ab01533b5bebc672a636df812f10637ad720797319d5741d5ebb39628c6115f28a8863ffffffff612b1716565b6040805192835260208301919091528051918290030190a45050600a805460ff19169055505050505050505050565b600080600061162e611d08565b1515611672576040805160e560020a62461bcd0281526020600482018190526024820152600080516020614596833981519152604482015290519081900360640190fd5b600092505b600154831015610ee9576002600060018581548110151561169457fe5b6000918252602080832090910154600160a060020a031683528201929092526040018120549250821115611814576000600260006001868154811015156116d757fe5b6000918252602080832090910154600160a060020a03168352820192909252604001902055600180548490811061170a57fe5b600091825260208220015460018054600160a060020a039092169350908590811061173157fe5b600091825260209091200154600160a060020a0316141561177f57604051339083156108fc029084906000818181858888f19350505050158015611779573d6000803e3d6000fd5b50611814565b604080517fa9059cbb000000000000000000000000000000000000000000000000000000008152336004820152602481018490529051600160a060020a0383169163a9059cbb9160448083019260209291908290030181600087803b1580156117e757600080fd5b505af11580156117fb573d6000803e3d6000fd5b505050506040513d602081101561181157600080fd5b50505b600190920191611677565b611827611d08565b151561186b576040805160e560020a62461bcd0281526020600482018190526024820152600080516020614596833981519152604482015290519081900360640190fd5b600d91909155600e805460039290920b63ffffffff1663ffffffff19909216919091179055565b600a5460ff16156118a257600080fd5b600a805460ff191660011790556118b882611cc8565b151561190e576040805160e560020a62461bcd02815260206004820152601f60248201527f636f6c6c61746572616c20697320756e737570706f7274656420746f6b656e00604482015290519081900360640190fd5b600160a060020a0382166000908152600660209081526040808320338452909152902054611942908263ffffffff612b1716565b600160a060020a03831660009081526006602090815260408083203380855292528220929092556119769184918080612d9b565b15156119f2576040805160e560020a62461bcd02815260206004820152603160248201527f6f7074696f6e20746f6b656e2077726974746572277320436f6c6c617465726160448201527f6c20697320696e73756666696369656e74000000000000000000000000000000606482015290519081900360840190fd5b6119fd33838361322d565b604080518281529051600160a060020a0384169133917f1607da8e9144035d8537941425741e9e3569c81d34a7f8e0c5c44635dc7169219181900360200190a35050600a805460ff19169055565b6000806000806000806000611a5f88612af2565b15611ad35750600160a060020a038716600090815260056020526040902060019081018054909160ff90911690811115611a9557fe5b8154600283015460018401546003850154939a506101008304600160a060020a0316995060a860020a90920463ffffffff1697509550935060ff1691505b5091939550919395565b611ae5611d08565b1515611b29576040805160e560020a62461bcd0281526020600482018190526024820152600080516020614596833981519152604482015290519081900360640190fd5b600b805473ffffffffffffffffffffffffffffffffffffffff1916600160a060020a0392909216919091179055565b600160a060020a038116600090815260056020818152604092839020909101805483518184028101840190945280845260609392830182828015611bc557602002820191906000526020600020905b8154600160a060020a03168152600190910190602001808311611ba7575b50505050509050919050565b6001805482908110611bdf57fe5b600091825260209091200154600160a060020a0316905081565b600160a060020a0380821660009081526007602090815260408083209386168352929052205492915050565b611c2d611d08565b1515611c71576040805160e560020a62461bcd0281526020600482018190526024820152600080516020614596833981519152604482015290519081900360640190fd5b60008054604051600160a060020a03909116907f8be0079c531659141344cd1fd0a4f28419497f9722a3daafe3b4186f6b6457e0908390a36000805473ffffffffffffffffffffffffffffffffffffffff19169055565b600080611cd483612d46565b600154119392505050565b6003805460045490910b9091565b600d54600e5460030b82565b600054600160a060020a031690565b600054600160a060020a0316331490565b600160a060020a0380821660009081526006602090815260408083209386168352929052205492915050565b600080611d50611d08565b1515611d94576040805160e560020a62461bcd0281526020600482018190526024820152600080516020614596833981519152604482015290519081900360640190fd5b600160a060020a03831660009081526002602052604081205492508211611e05576040805160e560020a62461bcd02815260206004820152601260248201527f4974277320656d7074792062616c616e63650000000000000000000000000000604482015290519081900360640190fd5b600160a060020a0383166000818152600260205260408120551515611e5757604051339083156108fc029084906000818181858888f19350505050158015611e51573d6000803e3d6000fd5b50610ee9565b50604080517fa9059cbb0000000000000000000000000000000000000000000000000000000081523360048201526024810183905290518391600160a060020a0383169163a9059cbb916044808201926020929091908290030181600087803b158015611ec357600080fd5b505af1158015611ed7573d6000803e3d6000fd5b505050506040513d6020811015611eed57600080fd5b5050505050565b60026020526000908152604090205481565b6003805460045490910b82565b6000611f1d611d08565b1515611f61576040805160e560020a62461bcd0281526020600482018190526024820152600080516020614596833981519152604482015290519081900360640190fd5b600a5460ff1615611f7157600080fd5b600a805460ff19166001179055600063ffffffff861611611fdc576040805160e560020a62461bcd02815260206004820152601960248201527f756e6465726c79696e672063616e6e6f74206265207a65726f00000000000000604482015290519081900360640190fd5b611fe586611cc8565b151561203b576040805160e560020a62461bcd02815260206004820152601f60248201527f636f6c6c61746572616c20697320756e737570706f7274656420746f6b656e00604482015290519081900360640190fd5b600a54604080517f3100efb500000000000000000000000000000000000000000000000000000000815260048101868152602482019283528a5160448301528a51610100909404600160a060020a031693633100efb59388938d9392606490910190602085019080838360005b838110156120c05781810151838201526020016120a8565b50505050905090810190601f1680156120ed5780820380516001836020036101000a031916815260200191505b509350505050602060405180830381600087803b15801561210d57600080fd5b505af1158015612121573d6000803e3d6000fd5b505050506040513d602081101561213757600080fd5b50519050600160a060020a038116151561214d57fe5b612169818360ff16600181111561216057fe5b88888789613373565b50604080518581526020810185905260ff841681830152905163ffffffff871691600160a060020a0380851692908a16917f68dad8f7f6397def927954dc03de752cd1ad9bebbff66bf0bce60af9f2f05f68919081900360600190a45050600a805460ff191690555050505050565b600b54600160a060020a031690565b600d54600e5460030b9091565b606080600080600954604051908082528060200260200182016040528015612226578160200160208202803883390190505b50925060009150600090505b6008548110156122d157600880548290811061224a57fe5b60009182526020909120015474010000000000000000000000000000000000000000900460ff1615156122c957600880548290811061228557fe5b6000918252602090912001548351600160a060020a03909116908490849081106122ab57fe5b600160a060020a039092166020928302909101909101526001909101905b600101612232565b509092915050565b600160a060020a031660009081526002602052604090205490565b600a54600090819060ff161561230957600080fd5b600a805460ff1916600117905561231e6134da565b91505b61232a826134ec565b156123a6576005600060088481548110151561234257fe5b6000918252602080832090910154600160a060020a03168352820192909252604001902060088054919250612396918490811061237b57fe5b600091825260209091200154600160a060020a0316826134f3565b61239f82613a80565b9150612321565b5050600a805460ff19169055565b600a546101009004600160a060020a031690565b600b546040805160e060020a6341976e09028152600160a060020a0387811660048301529151600093849384938493849392909216916341976e099160248082019260209290919082900301818787803b15801561242557600080fd5b505af1158015612439573d6000803e3d6000fd5b505050506040513d602081101561244f57600080fd5b5051600160a060020a03808b166000908152600660209081526040808320938d168352929052205490945061249b9061248e908863ffffffff61318716565b859063ffffffff61302816565b92506124b76124aa8a8a6128c8565b849063ffffffff612b1716565b600b54600160a060020a03898116600090815260056020908152604080832060010154815160e060020a63da66325702815260a860020a90910463ffffffff1660048201529051959850929093169363da663257936024808501949193918390030190829087803b15801561252b57600080fd5b505af115801561253f573d6000803e3d6000fd5b505050506040513d602081101561255557600080fd5b5051600a54600160a060020a03898116600090815260056020526040902060038101546001918201549496506101009093049091169263fc75ee509291869160ff16908111156125a157fe5b6040518463ffffffff1660e060020a028152600401808481526020018381526020018260ff1660ff1681526020019350505050602060405180830381600087803b1580156125ee57600080fd5b505af1158015612602573d6000803e3d6000fd5b505050506040513d602081101561261857600080fd5b5051905061262c838263ffffffff6130d216565b9998505050505050505050565b612641611d08565b1515612685576040805160e560020a62461bcd0281526020600482018190526024820152600080516020614596833981519152604482015290519081900360640190fd5b6003918255600480549190920b63ffffffff1663ffffffff19909116179055565b60006126b0611d08565b15156126f4576040805160e560020a62461bcd0281526020600482018190526024820152600080516020614596833981519152604482015290519081900360640190fd5b6126fd82612d46565b600154909150811415610eeb576001805480820182556000919091527fb10e2d527612073b26eecdfd717e6a320cf44b4afac2b0732d9fcbe2b7fa0cf6018054600160a060020a03841673ffffffffffffffffffffffffffffffffffffffff199091161790555050565b6060806060600060018054905060405190808252806020026020018201604052801561279d578160200160208202803883390190505b509150600090505b60015481101561280757600260006001838154811015156127c257fe5b6000918252602080832090910154600160a060020a0316835282019290925260400190205482518390839081106127f557fe5b602090810290910101526001016127a5565b6001828180548060200260200160405190810160405280929190818152602001828054801561285f57602002820191906000526020600020905b8154600160a060020a03168152600190910190602001808311612841575b505050505091509350935050509091565b612878611d08565b15156128bc576040805160e560020a62461bcd0281526020600482018190526024820152600080516020614596833981519152604482015290519081900360640190fd5b6128c581613adc565b50565b600080606081808080806128da6121f4565b9550600094505b8551851015612ae1576005600087878151811015156128fc57fe5b6020908102909101810151600160a060020a03908116835290820192909252604001600020600101805490955061010090048116908b161461293d57612ad6565b60076000878781518110151561294f57fe5b602090810291909101810151600160a060020a03908116835282820193909352604091820160009081208d85168252825282812054600b548954855160e060020a63da66325702815260a860020a90910463ffffffff16600482015294519198509094169363da6632579360248082019493918390030190829087803b1580156129d857600080fd5b505af11580156129ec573d6000803e3d6000fd5b505050506040513d6020811015612a0257600080fd5b5051600a5460028601548654929450610100909104600160a060020a03169163fc75ee509190859060ff166001811115612a3857fe5b6040518463ffffffff1660e060020a028152600401808481526020018381526020018260ff1660ff1681526020019350505050602060405180830381600087803b158015612a8557600080fd5b505af1158015612a99573d6000803e3d6000fd5b505050506040513d6020811015612aaf57600080fd5b50519050612ad3612ac6848363ffffffff61302816565b889063ffffffff61318716565b96505b6001909401936128e1565b8697505b5050505050505092915050565b600160a060020a03166000908152600560205260408120541190565b60020154421190565b6000612b5983836040805190810160405280601e81526020017f536166654d6174683a207375627472616374696f6e206f766572666c6f770000815250613bca565b9392505050565b6000808080600160a060020a0387161515612b7d57349250612c27565b6000861115612c2757604080517f23b872dd000000000000000000000000000000000000000000000000000000008152336004820152306024820152604481018890529051889350600160a060020a038416916323b872dd9160648083019260209291908290030181600087803b158015612bf757600080fd5b505af1158015612c0b573d6000803e3d6000fd5b505050506040513d6020811015612c2157600080fd5b50869350505b612c3487338a8689612d9b565b1515612c8a576040805160e560020a62461bcd02815260206004820152601a60248201527f436f6c6c61746572616c20697320696e73756666696369656e74000000000000604482015290519081900360640190fd5b612c95888487613c67565b506000851115612d385750604080517f40c10f190000000000000000000000000000000000000000000000000000000081523360048201526024810186905290518891600160a060020a038316916340c10f19916044808201926020929091908290030181600087803b158015612d0b57600080fd5b505af1158015612d1f573d6000803e3d6000fd5b505050506040513d6020811015612d3557600080fd5b50505b506001979650505050505050565b6000805b600154811015612d955782600160a060020a0316600182815481101515612d6d57fe5b600091825260209091200154600160a060020a03161415612d8d57612d95565b600101612d4a565b92915050565b600080600080600080612dae8b8b6128c8565b9450600087118015612dc45750612dc489612af2565b15612f4d57600b54600160a060020a038a8116600090815260056020908152604080832060010154815160e060020a63da66325702815260a860020a90910463ffffffff1660048201529051939094169363da6632579360248083019491928390030190829087803b158015612e3957600080fd5b505af1158015612e4d573d6000803e3d6000fd5b505050506040513d6020811015612e6357600080fd5b5051600a54600160a060020a038b8116600090815260056020526040902060038101546001918201549498506101009093049091169263fc75ee509291889160ff1690811115612eaf57fe5b6040518463ffffffff1660e060020a028152600401808481526020018381526020018260ff1660ff1681526020019350505050602060405180830381600087803b158015612efc57600080fd5b505af1158015612f10573d6000803e3d6000fd5b505050506040513d6020811015612f2657600080fd5b50519250612f4a612f3d888563ffffffff61302816565b869063ffffffff61318716565b94505b600b546040805160e060020a6341976e09028152600160a060020a038e81166004830152915191909216916341976e099160248083019260209291908290030181600087803b158015612f9f57600080fd5b505af1158015612fb3573d6000803e3d6000fd5b505050506040513d6020811015612fc957600080fd5b5051600160a060020a03808d166000908152600660209081526040808320938f168352929052205490925061301590613008908a63ffffffff61318716565b839063ffffffff61302816565b94909410159a9950505050505050505050565b60008083151561303b57600091506130cb565b5082820282848281151561304b57fe5b04146130c7576040805160e560020a62461bcd02815260206004820152602160248201527f536166654d6174683a206d756c7469706c69636174696f6e206f766572666c6f60448201527f7700000000000000000000000000000000000000000000000000000000000000606482015290519081900360840190fd5b8091505b5092915050565b6000612b5983836040805190810160405280601a81526020017f536166654d6174683a206469766973696f6e206279207a65726f000000000000815250613dbc565b8151600090819061312b908463ffffffff61302816565b90506000846020015160030b131561316057602084015161315990829060030b600a0a63ffffffff61302816565b90506130c7565b602084015161317f90829060000360030b600a0a63ffffffff6130d216565b949350505050565b6000828201838110156130c7576040805160e560020a62461bcd02815260206004820152601b60248201527f536166654d6174683a206164646974696f6e206f766572666c6f770000000000604482015290519081900360640190fd5b600160a060020a03821660009081526002602052604090205461320d908263ffffffff61318716565b600160a060020a0390921660009081526002602052604090209190915550565b600081151561323b5761336d565b600160a060020a038316151561328757604051600160a060020a0385169083156108fc029084906000818181858888f19350505050158015613281573d6000803e3d6000fd5b50613321565b50604080517fa9059cbb000000000000000000000000000000000000000000000000000000008152600160a060020a038581166004830152602482018490529151849283169163a9059cbb9160448083019260209291908290030181600087803b1580156132f457600080fd5b505af1158015613308573d6000803e3d6000fd5b505050506040513d602081101561331e57600080fd5b50505b82600160a060020a031684600160a060020a03167f8aaaec2388cc390cde69685f78340e15f36d424b6b6b595f549dd883931f9c9b846040518082815260200191505060405180910390a35b50505050565b600160a060020a03861660009081526005602052604081208054600191820180549192899260ff19169083818111156133a857fe5b0217905550600160a060020a03888116600090815260056020526040812060018101805474ffffffffffffffffffffffffffffffffffffffff001916610100948b16949094029390931778ffffffff000000000000000000000000000000000000000000191660a860020a63ffffffff8a16021790925560028201869055600382018590556004909101805460ff1916905581111561344a57600191506134cf565b600880549061345c906001830161450b565b600160a060020a03891660009081526005602052604090206001820190556008805491925089918390811061348d57fe5b60009182526020822001805473ffffffffffffffffffffffffffffffffffffffff1916600160a060020a03939093169290921790915560098054600101905591505b509695505050505050565b60006134e7600019613a80565b905090565b6008541190565b600080600080600060608061350788612b0e565b1580613517575061351788613e28565b1561352157613a75565b6005880154151561354a5760048801805460ff1916600117905561354489613e32565b50613a75565b60048801805460ff1916600190811790915588015460009750600160a060020a0361010090910416945061357e8989613fb8565b93506000841115613a2a5788925082600160a060020a0316632ea628ae6040518163ffffffff1660e060020a028152600401600060405180830381600087803b1580156135ca57600080fd5b505af11580156135de573d6000803e3d6000fd5b505050506040513d6000823e601f3d908101601f19168201604090815281101561360757600080fd5b81019080805164010000000081111561361f57600080fd5b8201602081018481111561363257600080fd5b815185602082028301116401000000008211171561364f57600080fd5b5050929190602001805164010000000081111561366b57600080fd5b8201602081018481111561367e57600080fd5b815185602082028301116401000000008211171561369b57600080fd5b505060018d015494965094505050506101009004600160a060020a0316151561385d57600096505b815187101561385857600081888151811015156136dc57fe5b90602001906020020151111561384d57600160a060020a0389166000908152600760205260408120835190919084908a90811061371557fe5b90602001906020020151600160a060020a0316600160a060020a03168152602001908152602001600020546000141561384d57613782600c5461377686848b81518110151561376057fe5b602090810290910101519063ffffffff61302816565b9063ffffffff6130d216565b9550818781518110151561379257fe5b90602001906020020151600160a060020a03166108fc879081150290604051600060405180830381858888f193505050501580156137d4573d6000803e3d6000fd5b5060018801548251610100909104600160a060020a0316908390899081106137f857fe5b90602001906020020151600160a060020a03168a600160a060020a03167fc355fdccbe3a565b38d05c14329b671aa7667fb743a041eec8ac220ca13a2f75896040518082815260200191505060405180910390a45b6001909601956136c3565b613a2a565b600096505b8151871015613a2a576000818881518110151561387b57fe5b906020019060200201511115613a1f57600160a060020a0389166000908152600760205260408120835190919084908a9081106138b457fe5b90602001906020020151600160a060020a0316600160a060020a031681526020019081526020016000205460001415613a1f576138ff600c5461377686848b81518110151561376057fe5b955084600160a060020a031663a9059cbb838981518110151561391e57fe5b90602001906020020151886040518363ffffffff1660e060020a0281526004018083600160a060020a0316600160a060020a0316815260200182815260200192505050602060405180830381600087803b15801561397b57600080fd5b505af115801561398f573d6000803e3d6000fd5b505050506040513d60208110156139a557600080fd5b505060018801548251610100909104600160a060020a0316908390899081106139ca57fe5b90602001906020020151600160a060020a03168a600160a060020a03167fc355fdccbe3a565b38d05c14329b671aa7667fb743a041eec8ac220ca13a2f75896040518082815260200191505060405180910390a45b600190960195613862565b613a3389613e32565b50604080518581529051600160a060020a038b169133917f74a74f3b8db8a456ae15afb234896ed77440e955883c925b5c0e861dbb7c2dc19181900360200190a35b505050505050505050565b60010160005b60085482108015613ac857506008805483908110613aa057fe5b60009182526020909120015474010000000000000000000000000000000000000000900460ff165b15613ad857600190910190613a86565b5090565b600160a060020a0381161515613b62576040805160e560020a62461bcd02815260206004820152602660248201527f4f776e61626c653a206e6577206f776e657220697320746865207a65726f206160448201527f6464726573730000000000000000000000000000000000000000000000000000606482015290519081900360840190fd5b60008054604051600160a060020a03808516939216917f8be0079c531659141344cd1fd0a4f28419497f9722a3daafe3b4186f6b6457e091a36000805473ffffffffffffffffffffffffffffffffffffffff1916600160a060020a0392909216919091179055565b6000808285851115613c5d5760405160e560020a62461bcd0281526004018080602001828103825283818151815260200191508051906020019080838360005b83811015613c22578181015183820152602001613c0a565b50505050905090810190601f168015613c4f5780820380516001836020036101000a031916815260200191505b509250505060405180910390fd5b5050509103919050565b6000806000613c768633614196565b600160a060020a03871660009081526005602081905260409091200154909250821415613ce657600160a060020a038616600090815260056020818152604083209091018054600181018255908352912001805473ffffffffffffffffffffffffffffffffffffffff1916331790555b50600160a060020a03808616600090815260056020908152604080832060010180546101009004909416835260068252808320338452909152902054613d3390869063ffffffff61318716565b8154600160a060020a03610100909104811660009081526006602090815260408083203380855290835281842095909555928a1682526007815282822093825292909252902054613d8b90859063ffffffff61318716565b600160a060020a03871660009081526007602090815260408083203384529091529020556001925050509392505050565b60008082818511613e125760405160e560020a62461bcd02815260040180806020018281038252838181518152602001915080519060200190808383600083811015613c22578181015183820152602001613c0a565b508385811515613e1e57fe5b0495945050505050565b6004015460ff1690565b600160a060020a0381166000908152600560205260408120548180821515613e5d5760009350613fb0565b5050600160a060020a0383166000908152600560208190526040822001905b8154811015613edb57600160a060020a03851660009081526007602052604081208354909190849084908110613eae57fe5b6000918252602080832090910154600160a060020a03168352820192909252604001812055600101613e7c565b600160a060020a0385166000908152600560208190526040822082815560018101805478ffffffffffffffffffffffffffffffffffffffffffffffffff19169055600281018390556003810183905560048101805460ff191690559190613f449083018261452f565b50506001600860018503815481101515613f5a57fe5b60009182526020909120018054911515740100000000000000000000000000000000000000000274ff00000000000000000000000000000000000000001990921691909117905560098054600019019055600193505b505050919050565b600b5460018201546040805160e060020a63da66325702815260a860020a90920463ffffffff166004830152516000928392839283928392839283928392600160a060020a039091169163da6632579160248082019260209290919082900301818787803b15801561402957600080fd5b505af115801561403d573d6000803e3d6000fd5b505050506040513d602081101561405357600080fd5b5051965060009550856001808b015460ff169081111561406f57fe5b141561409f57600389015487111561409a57600389015461409790889063ffffffff612b1716565b95505b6140c3565b60038901548710156140c35760038901546140c0908863ffffffff612b1716565b95505b8515156140d35760009750612ae5565b6000945060009350600092505b600589015483101561415f5761412b8a8a6005018581548110151561410157fe5b60009182526020909120015460018c0154600160a060020a039182169161010090910416896141fc565b9092509050614140858363ffffffff61318716565b9450614152848263ffffffff61318716565b93506001909201916140e0565b83151561416f5760009750612ae5565b61418884613776600c548861302890919063ffffffff16565b9a9950505050505050505050565b600160a060020a0382166000908152600560208190526040822001815b815481101561317f5783600160a060020a031682828154811015156141d457fe5b600091825260209091200154600160a060020a031614156141f45761317f565b6001016141b3565b600b546040805160e060020a6341976e09028152600160a060020a03858116600483015291516000938493849384938493849384939116916341976e099160248082019260209290919082900301818787803b15801561425b57600080fd5b505af115801561426f573d6000803e3d6000fd5b505050506040513d602081101561428557600080fd5b505194506000851161429357fe5b600160a060020a03808c166000908152600760209081526040808320938e168352929052205415156142cb57600096508695506144d9565b600160a060020a03808c166000908152600760209081526040808320938e16835292905220548b945061430590899063ffffffff61302816565b9250614317838663ffffffff6130d216565b600160a060020a03808b166000908152600660209081526040808320938f168352929052205490935083111561437057600160a060020a03808a166000908152600660209081526040808320938e168352929052205492505b83600160a060020a03166370a082318b6040518263ffffffff1660e060020a0281526004018082600160a060020a0316600160a060020a03168152602001915050602060405180830381600087803b1580156143cb57600080fd5b505af11580156143df573d6000803e3d6000fd5b505050506040513d60208110156143f557600080fd5b5051600160a060020a038c81166000908152600760209081526040808320938f16835292905220549081039250614430906137768585613028565b60408051808201909152600380548252600454810b810b900b602082015290935061445b9084613114565b905061446789826131e4565b600160a060020a03808a166000908152600660209081526040808320938e168352929052205461449d908463ffffffff612b1716565b600160a060020a03808b166000908152600660209081526040808320938f16835292905220556144d3838263ffffffff612b1716565b82965096505b505050505094509492505050565b815481835581811115610ee957600083815260209020610ee9918101908301614549565b815481835581811115610ee957600083815260209020610ee9918101908301614563565b50805460008255906000526020600020908101906128c591905b61084791905b80821115613ad8576000815560010161454f565b61084791905b80821115613ad857805474ffffffffffffffffffffffffffffffffffffffffff1916815560010161456956004f776e61626c653a2063616c6c6572206973206e6f7420746865206f776e6572a165627a7a72305820c9420d450075ebb54b912b122901faec26b2b7b613af2f9ea0eaeee3280ec65b0029",
  "source": "pragma solidity ^0.4.26;\r\nimport \"./SafeMath.sol\";\r\nimport \"./IERC20.sol\";\r\nimport \"./Ownable.sol\";\r\nimport \"./ReentrancyGuard.sol\";\r\nimport \"./OptionsToken.sol\";\r\nimport \"./CompoundOracleInterface.sol\";\r\nimport \"./OptionsFormulas.sol\";\r\nimport \"./TransactionFee.sol\";\r\ncontract OptionsVault is TransactionFee\r\n{\r\n    using SafeMath for uint256;\r\n    enum OptionsType{\r\n        OptCall,\r\n        OptPut\r\n    }\r\n    struct OptionsInfo{\r\n        OptionsType\toptType;\r\n        //Collateral currency address. If this address equals 0, it means that it is Eth;\r\n        address\t\tcollateralCurrency;\r\n        //underlying assets type;\r\n        uint32\t\tunderlyingAssets;\r\n        uint256\t\texpiration;\r\n        uint256      strikePrice;\r\n        bool        isExercised;\r\n    }\r\n    struct IndexValue\r\n    {\r\n        uint keyIndex;\r\n        OptionsInfo options;\r\n        address[] writers;\r\n    }\r\n    struct KeyFlag { address key; bool deleted; }\r\n    mapping(address => IndexValue) internal optionsMap;\r\n    //collateral => writer => amount\r\n    mapping(address => mapping(address => uint256)) writerVaults;\r\n    //options => writer =>  amount\r\n    mapping(address => mapping(address => uint256)) writerOptions;\r\n    KeyFlag[] internal optionsTokenList;\r\n    uint internal size = 0;\r\n    function _insert(address key, \r\n                OptionsType optType,\r\n                address collateral,\r\n                uint32 underlyingAssets,\r\n                uint256 expiration,\r\n                uint256 strikePriceValue) internal returns (bool replaced)\r\n    {\r\n        uint keyIndex = optionsMap[key].keyIndex;\r\n        optionsMap[key].options.optType = optType;\r\n        optionsMap[key].options.collateralCurrency = collateral;\r\n        optionsMap[key].options.underlyingAssets = underlyingAssets;\r\n        optionsMap[key].options.expiration = expiration;\r\n        optionsMap[key].options.strikePrice = strikePriceValue;\r\n        optionsMap[key].options.isExercised = false;\r\n        if (keyIndex > 0)\r\n            return true;\r\n        else\r\n        {\r\n            keyIndex = optionsTokenList.length++;\r\n            optionsMap[key].keyIndex = keyIndex + 1;\r\n            optionsTokenList[keyIndex].key = key;\r\n            size++;\r\n            return false;\r\n        }\r\n    }\r\n    function _insertWriter( address key, uint256 amount,uint256 mintOptTokenAmount) internal returns (bool){\r\n        uint256 i = _findWriter(key,msg.sender);\r\n        if (i == optionsMap[key].writers.length){\r\n            optionsMap[key].writers.push(msg.sender);\r\n        }\r\n        OptionsInfo storage options = optionsMap[key].options;\r\n        writerVaults[options.collateralCurrency][msg.sender] = amount.add(writerVaults[options.collateralCurrency][msg.sender]);\r\n        writerOptions[key][msg.sender] = mintOptTokenAmount.add(writerOptions[key][msg.sender]);\r\n        return true;\r\n    }\r\n    function _findWriter(address key,address writer) internal view returns (uint256){\r\n        address[] storage writers = optionsMap[key].writers;\r\n        for (uint256 i=0;i<writers.length;i++ ){\r\n            if (writers[i] == writer){\r\n                break;\r\n            }\r\n        }\r\n        return i;\r\n    }\r\n    function _remove(address key) internal returns (bool)\r\n    {\r\n        uint keyIndex = optionsMap[key].keyIndex;\r\n        if (keyIndex == 0)\r\n            return false;\r\n        address[] storage writers = optionsMap[key].writers;\r\n        for (uint256 i=0;i<writers.length;i++ ){\r\n            delete writerOptions[key][writers[i]];\r\n        }\r\n        delete optionsMap[key];\r\n        optionsTokenList[keyIndex - 1].deleted = true;\r\n\r\n        size --;\r\n        return true;\r\n    }\r\n    function _contains(address key) internal view returns (bool)\r\n    {\r\n        return optionsMap[key].keyIndex > 0;\r\n    }\r\n    function _iterate_start() internal view returns (uint)\r\n    {\r\n        return _iterate_next(uint(-1));\r\n    }\r\n    function _iterate_valid(uint keyIndex) internal view returns (bool)\r\n    {\r\n        return keyIndex < optionsTokenList.length;\r\n    }\r\n    function _iterate_next( uint keyIndex) internal view returns (uint)\r\n    {\r\n        keyIndex++;\r\n        while (keyIndex < optionsTokenList.length && optionsTokenList[keyIndex].deleted)\r\n            keyIndex++;\r\n        return keyIndex;\r\n    }\r\n    function getOptionsTokenList()public view returns (address[]){\r\n        address[] memory optionsToken = new address[](size);\r\n        uint256 index = 0;\r\n        for(uint256 i=0;i<optionsTokenList.length;i++){\r\n            if(!optionsTokenList[i].deleted){\r\n                optionsToken[index] = optionsTokenList[i].key;\r\n                index++;\r\n            }\r\n        }\r\n        return optionsToken;\r\n    }\r\n    function getOptionsTokenWriterList(address tokenAddress)public view returns (address[]){\r\n            return optionsMap[tokenAddress].writers;\r\n    }\r\n    function getWriterCollateralBalance(address writer,address collateral)public view returns (uint256){\r\n            return writerVaults[collateral][writer];\r\n    }\r\n    function getWriterOptionsTokenBalance(address writer,address tokenAddress)public view returns (uint256){\r\n            return writerOptions[tokenAddress][writer];\r\n    }\r\n    function getOptionsTokenInfo(address tokenAddress)public view returns (uint8,address,uint32,uint256,uint256,bool){\r\n        if (_contains(tokenAddress)){\r\n            OptionsInfo storage options = optionsMap[tokenAddress].options;\r\n            return (uint8(options.optType),options.collateralCurrency,options.underlyingAssets,\r\n                options.strikePrice,options.expiration,options.isExercised);\r\n        }\r\n    }\r\n}\r\ncontract OptionsManager is OptionsVault,ReentrancyGuard {\r\n    using SafeMath for uint256;\r\n    IOptFormulas internal _optionsFormulas;\r\n    ICompoundOracle internal _oracle;\r\n    uint256 private _calDecimal = 10000000000;\r\n    // Number(2,-1) = 20%\r\n    Number public liquidationIncentive = Number(2, -1);\r\n    \r\n    event CreateOptions(address indexed collateral,address indexed tokenAddress, uint32 indexed underlyingAssets,uint256 strikePrice,uint256 expiration,uint8 optType);\r\n    event AddCollateral(address indexed optionsToken,uint256 indexed amount,uint256 mintOptionsTokenAmount);\r\n    event WithdrawCollateral(address indexed Sender,address indexed collateral,uint256 amount);\r\n    event Exercise(address indexed Sender,address indexed optionsToken,uint256 unitPrice);\r\n    event ExercisePayback(address indexed optionsToken,address indexed recieptor,address indexed collateral,uint256 payback);\r\n    event Liquidate(address indexed Sender,address indexed optionsToken,address indexed writer,uint256 amount,uint256 payback);\r\n    event BurnOptionsToken(address indexed optionsToken,address indexed writer,uint256 amount);\r\n    //*******************getter***********************\r\n    function getOracleAddress() public view returns(address){\r\n        return address(_oracle);\r\n    }\r\n    function getFormulasAddress() public view returns(address){\r\n        return address(_optionsFormulas);\r\n    }\r\n    function getLiquidationIncentive()public view returns (uint256,int32){\r\n        return (liquidationIncentive.value,liquidationIncentive.exponent);\r\n    }\r\n    //*******************setter***********************\r\n    function setOracleAddress(address oracle)public onlyOwner{\r\n        _oracle = ICompoundOracle(oracle);\r\n    }\r\n    function setFormulasAddress(address formulas)public onlyOwner{\r\n        _optionsFormulas = IOptFormulas(formulas);\r\n    }\r\n    function setLiquidationIncentive(uint256 value,int32 exponent)public onlyOwner{\r\n        liquidationIncentive.value = value;\r\n        liquidationIncentive.exponent = exponent;\r\n    }\r\n\r\n    /**\r\n        * @dev  create an empty options token by owner;\r\n        * @param optionsTokenName new migration options token name;\r\n        * @param collateral The collateral asset\r\n        * @param underlyingAssets underlying assets index, start at 1.\r\n        * @param strikePrice The amount of strike asset that will be paid out per oToken\r\n        * @param expiration The time at which the options expires\r\n        * @param optType options type,0 is call options,1 is put options\r\n        */\r\n    function createOptionsToken(string optionsTokenName,address collateral,\r\n    uint32 underlyingAssets,\r\n    uint256 strikePrice,\r\n    uint256 expiration,\r\n    uint8 optType)\r\n    public onlyOwner nonReentrant{\r\n        require(underlyingAssets>0 , \"underlying cannot be zero\");\r\n        require(isEligibleAddress(collateral) , \"collateral is unsupported token\");\r\n//        expiration = expiration.add(now);\r\n        //new OptionsToken(expiration,optionsTokenName);\r\n        address newToken = _optionsFormulas.createNewToken(expiration,optionsTokenName);\r\n        assert(newToken != 0);\r\n        _insert(newToken,OptionsType(optType),collateral,underlyingAssets,expiration,strikePrice);\r\n        emit CreateOptions(collateral,newToken,underlyingAssets,strikePrice,expiration,optType);\r\n    }\r\n     /**\r\n        * @dev  add Collateral. Any writer can add collateral to an exist options token,and mint options token;\r\n        * @param optionsToken The Options token address.\r\n        * @param collateral The collateral asset\r\n        * @param amount The amount of collateral asset\r\n        * @param mintOptionsTokenAmount The amount of options token will be minted and sent to the writer;\r\n        */   \r\n    function addCollateral(address optionsToken,address collateral,uint256 amount,uint256 mintOptionsTokenAmount)public payable nonReentrant{\r\n        require(_contains(optionsToken),\"This OptionsToken does not exist\");\r\n        require(!_isExpired(optionsMap[optionsToken]), \"This OptionsToken expired\");\r\n        require(optionsMap[optionsToken].options.collateralCurrency == collateral,\"Collateral currency type error\");\r\n        _mintOptionsToken(optionsToken,collateral,amount,mintOptionsTokenAmount);\r\n        emit AddCollateral(optionsToken,amount,mintOptionsTokenAmount);\r\n    }\r\n     /**\r\n        * @dev  Withdraw Collateral. Any writer can withdraw his collateral if his collateral assets are surplus;\r\n        * @param collateral The collateral address.\r\n        * @param amount The amount  collateral asset which will be Withdrawn\r\n        */   \r\n    function withdrawCollateral(address collateral,uint256 amount)public nonReentrant{\r\n        require(isEligibleAddress(collateral) , \"collateral is unsupported token\");\r\n        writerVaults[collateral][msg.sender] = writerVaults[collateral][msg.sender].sub(amount);\r\n        require (_isSufficientCollateral(collateral,msg.sender,address(0),0,0),\"option token writter's Collateral is insufficient\");\r\n        _transferPayback(msg.sender,collateral,amount);\r\n        emit WithdrawCollateral(msg.sender,collateral,amount);\r\n\r\n    }\r\n    /**\r\n      * @dev  exercise all of the expired options token;\r\n      */  \r\n    function exercise()public nonReentrant{\r\n        for (uint keyIndex = _iterate_start();_iterate_valid(keyIndex);keyIndex = _iterate_next(keyIndex)){\r\n            IndexValue storage optionsItem = optionsMap[optionsTokenList[keyIndex].key];\r\n            _exercise(optionsTokenList[keyIndex].key,optionsItem);\r\n        }\r\n    }\r\n    /**\r\n      * @dev  liquidate if a writer's options collateral assets are insuficient;\r\n      * @param optionsToken The Options token address.\r\n      * @param writer The Options writer address.\r\n      * @param amount The amount  of optionsToken which will be liquidated\r\n      */  \r\n    function liquidate(address optionsToken,address writer,uint256 amount)public nonReentrant{\r\n        require(_contains(optionsToken),\"This OptionsToken does not exist\");\r\n        IndexValue storage optionsItem = optionsMap[optionsToken];\r\n        require(!_isExpired(optionsItem), \"OptionsToken expired\");\r\n        require(amount <= writerOptions[optionsToken][writer],\"liquidated token amount exceeds writter's mintToken amount\");\r\n        require(!_isSufficientCollateral(optionsItem.options.collateralCurrency,writer,\r\n            optionsToken,0,0),\"option token writter's Collateral is sufficient\");\r\n        IERC20 optToken = IERC20(optionsToken);\r\n        optToken.transferFrom(msg.sender, address(this), amount);\r\n        uint256 tokenPrice = _oracle.getBuyOptionsPrice(optionsToken);\r\n        uint256 _payback = tokenPrice.mul(amount);\r\n        uint256 price = _oracle.getPrice(optionsItem.options.collateralCurrency);\r\n        _payback = _payback.div(price);\r\n        uint256 incentive = _calNumberMulUint(liquidationIncentive,_payback);\r\n        _payback = _payback.add(incentive);\r\n        if (_payback > writerVaults[optionsItem.options.collateralCurrency][writer]) {\r\n            _payback = writerVaults[optionsItem.options.collateralCurrency][writer];\r\n        }\r\n        uint256 _transFee = _calNumberMulUint(transactionFee,_payback);\r\n        \r\n        writerVaults[optionsItem.options.collateralCurrency][writer] = writerVaults[optionsItem.options.collateralCurrency][writer].sub(_payback);\r\n        _addTransactionFee(optionsItem.options.collateralCurrency,_transFee);\r\n        writerOptions[optionsToken][writer] = writerOptions[optionsToken][writer].sub(amount);\r\n        //transfer\r\n        _transferPayback(msg.sender,optionsItem.options.collateralCurrency,_payback.sub(_transFee));\r\n        IIterableToken itoken = IIterableToken(optionsToken);\r\n        itoken.burn(amount);\r\n        emit Liquidate(msg.sender,optionsToken,writer,amount,_payback.sub(_transFee));\r\n    }\r\n    /**\r\n      * @dev  A options writer burn some of his own token;\r\n      * @param optionsToken The Options token address.\r\n      * @param amount The amount of options token which will be burned\r\n      */     \r\n    function burnOptionsToken(address optionsToken,uint256 amount)public nonReentrant{\r\n       require(_contains(optionsToken),\"This OptionsToken does not exist\");\r\n        IndexValue storage optionsItem = optionsMap[optionsToken];\r\n        require(!_isExpired(optionsItem), \"OptionsToken expired\");\r\n        require(amount <= writerOptions[optionsToken][msg.sender],\"options writer's token is insufficient!\");\r\n        IERC20 optToken = IERC20(optionsToken);\r\n        optToken.transferFrom(msg.sender, address(this), amount);\r\n        writerOptions[optionsToken][msg.sender] = writerOptions[optionsToken][msg.sender].sub(amount);\r\n        //burn\r\n        IIterableToken itoken = IIterableToken(optionsToken);\r\n        itoken.burn(amount);\r\n        emit BurnOptionsToken(optionsToken,msg.sender,amount);\r\n    }\r\n    /**\r\n      * @dev  exercise an options token;\r\n      * @param tokenAddress The Options token address.\r\n      * @param optionsItem The Options token information and writer information list.\r\n\r\n      */  \r\n    function _exercise(address tokenAddress,IndexValue storage optionsItem)internal {\r\n        if (!_isExpired(optionsItem) || _isExercised(optionsItem)){\r\n            return;\r\n        }\r\n        if (optionsItem.writers.length == 0) {\r\n            optionsItem.options.isExercised = true;\r\n            _remove(tokenAddress);\r\n            return;\r\n        }\r\n        optionsItem.options.isExercised = true;\r\n        uint256 i=0;\r\n        uint256 value;\r\n        IERC20 collateralToken = IERC20(optionsItem.options.collateralCurrency);\r\n        //calculate tokenPayback\r\n        uint256 tokenPayback = _calExerciseTokenPayback(tokenAddress,optionsItem);\r\n        if (tokenPayback > 0 ){\r\n            //calculate balance pay back\r\n            IIterableToken iterToken = IIterableToken(tokenAddress);\r\n            (address[] memory accounts,uint256[] memory  balances) = iterToken.getAccountsAndBalances();\r\n            if (optionsItem.options.collateralCurrency == address(0)){\r\n                for (i=0;i<accounts.length;i++){\r\n                    if (balances[i]>0){\r\n                        if (writerOptions[tokenAddress][accounts[i]] == 0){ //not writer\r\n                            value = balances[i].mul(tokenPayback).div(_calDecimal);\r\n                            accounts[i].transfer(value);\r\n                            emit ExercisePayback(tokenAddress,accounts[i],optionsItem.options.collateralCurrency,value);\r\n                        }\r\n                    }\r\n                }\r\n            }else{\r\n                for (i=0;i<accounts.length;i++){\r\n                    if (balances[i]>0){\r\n                        if (writerOptions[tokenAddress][accounts[i]] == 0){ //not writer\r\n                            value = balances[i].mul(tokenPayback).div(_calDecimal);\r\n                            collateralToken.transfer(accounts[i],value);\r\n                            emit ExercisePayback(tokenAddress,accounts[i],optionsItem.options.collateralCurrency,value);\r\n                        }\r\n                    }\r\n                }\r\n            }\r\n        }\r\n        _remove(tokenAddress);\r\n        emit Exercise(msg.sender,tokenAddress,tokenPayback);\r\n    }\r\n    /**\r\n      * @dev  calculate an options token exercise payback and each writer's payment;\r\n      * @param optionsItem the options token information\r\n      */\r\n    function _calExerciseTokenPayback(address tokenAddress,IndexValue storage optionsItem) internal returns (uint256){\r\n        //calculate tokenPayback\r\n        uint256 underlyingPrice = _oracle.getUnderlyingPrice(optionsItem.options.underlyingAssets);\r\n        uint256 tokenPayback = 0;\r\n        if (optionsItem.options.optType == OptionsType.OptCall){\r\n            if (underlyingPrice > optionsItem.options.strikePrice){\r\n                tokenPayback = underlyingPrice.sub(optionsItem.options.strikePrice);\r\n            }\r\n        }else{\r\n            if ( underlyingPrice < optionsItem.options.strikePrice){\r\n                tokenPayback = optionsItem.options.strikePrice.sub(underlyingPrice);\r\n            }\r\n        }\r\n        if (tokenPayback == 0 ){\r\n            return 0;\r\n        }\r\n\r\n        //calculate all pay back collateral and transactionFee\r\n        uint256 allPayback = 0;\r\n        uint256 totalSuply = 0;\r\n\r\n        for(uint256 i=0;i<optionsItem.writers.length;i++){\r\n            (uint256 _payback,uint leftToken) = _CalWriterPayback(tokenAddress,optionsItem.writers[i],optionsItem.options.collateralCurrency,tokenPayback);\r\n            allPayback = allPayback.add(_payback);\r\n            totalSuply = totalSuply.add(leftToken);\r\n        }\r\n        //assert iterToken.gettotalsuply != totalsuply\r\n        if (totalSuply == 0){\r\n            return 0;\r\n        }\r\n        return allPayback.mul(_calDecimal).div(totalSuply);    \r\n    }\r\n    function _CalWriterPayback(address tokenAddress, address writer,address collateral,uint256 tokenPayback)private returns (uint256,uint256){\r\n        uint256 collateralPrice = _oracle.getPrice(collateral);\r\n        assert(collateralPrice>0);\r\n        if(writerOptions[tokenAddress][writer] == 0){\r\n            return (0,0);\r\n        }\r\n        IERC20 ercToken = IERC20(tokenAddress);\r\n        uint256 _payback = tokenPayback.mul(writerOptions[tokenAddress][writer]);\r\n        _payback = _payback.div(collateralPrice);\r\n        if (_payback >writerVaults[collateral][writer]) {\r\n            _payback = writerVaults[collateral][writer];\r\n        }\r\n        uint leftToken = writerOptions[tokenAddress][writer] - ercToken.balanceOf(writer);\r\n        _payback = _payback.mul(leftToken).div(writerOptions[tokenAddress][writer]);\r\n        uint256 _transFee =_calNumberMulUint(transactionFee,_payback);\r\n        \r\n        _addTransactionFee(collateral, _transFee);\r\n        \r\n        writerVaults[collateral][writer] =\r\n                writerVaults[collateral][writer].sub(_payback);  \r\n        return (_payback.sub(_transFee),leftToken);\r\n    }\r\n    /**\r\n      * @dev  mint options token. test if writer's collateral assets are sufficient;\r\n      * @param optionsToken the options token address\r\n      * @param collateral the collateral address\r\n      * @param amount the amount of adding collateral\r\n      * @param mintOptionsTokenAmount the amount of new mint options token;\r\n      */\r\n    function _mintOptionsToken(address optionsToken,address collateral,uint256 amount,uint256 mintOptionsTokenAmount)private returns(bool){\r\n        uint256 colAmount = 0;\r\n        if (collateral == address(0)){\r\n//            require(msg.value > 0,\"Must transfer some coins\");\r\n            colAmount = msg.value;\r\n        }else if (amount > 0){\r\n            IERC20 oToken = IERC20(collateral);\r\n            oToken.transferFrom(msg.sender, address(this), amount);\r\n            colAmount = amount;\r\n        }\r\n        require(_isSufficientCollateral(collateral,msg.sender,optionsToken,colAmount,mintOptionsTokenAmount),\"Collateral is insufficient\");\r\n        _insertWriter(optionsToken,colAmount,mintOptionsTokenAmount);\r\n        //mint\r\n        if (mintOptionsTokenAmount>0){\r\n            IIterableToken itoken = IIterableToken(optionsToken);\r\n            itoken.mint(msg.sender,mintOptionsTokenAmount);\r\n        }\r\n        return true;\r\n    }\r\n    function _isSufficientCollateral(address collateral,address writer,address optionToken,uint256 newCollateral,uint256 newMintToken) internal view returns (bool){\r\n        uint256 totalUsd = calculateOptionsValueUSD(collateral,writer);\r\n        if(newMintToken>0 && _contains(optionToken)){\r\n            uint256 underlyingPrice = _oracle.getUnderlyingPrice(optionsMap[optionToken].options.underlyingAssets);\r\n            uint256 needCollateral = _optionsFormulas.getCollateralPrice(optionsMap[optionToken].options.strikePrice,\r\n                        underlyingPrice,uint8(optionsMap[optionToken].options.optType));\r\n            totalUsd = totalUsd.add(newMintToken.mul(needCollateral));\r\n        }\r\n        uint256 price = _oracle.getPrice(collateral);\r\n        uint256 totalColateral = price.mul(writerVaults[collateral][writer].add(newCollateral));\r\n        return totalColateral>=totalUsd;\r\n    } \r\n    function calculateMaxMintAmount(address collateral,address writer,address optionToken,uint256 newCollateral)public view returns(uint256){\r\n        uint256 price = _oracle.getPrice(collateral);\r\n        uint256 totalColateral = price.mul(writerVaults[collateral][writer].add(newCollateral));\r\n        totalColateral = totalColateral.sub(calculateOptionsValueUSD(collateral,writer));\r\n        uint256 underlyingPrice = _oracle.getUnderlyingPrice(optionsMap[optionToken].options.underlyingAssets);\r\n        uint256 needCollateral = _optionsFormulas.getCollateralPrice(optionsMap[optionToken].options.strikePrice,\r\n                    underlyingPrice,uint8(optionsMap[optionToken].options.optType));\r\n        return totalColateral.div(needCollateral);\r\n    }\r\n    function calculateOptionsValueUSD(address collateral,address writer)public view returns(uint256){\r\n        uint256 totalUsd = 0;\r\n        address[] memory tokenList = getOptionsTokenList();\r\n        for(uint256 i=0;i<tokenList.length;i++){\r\n            OptionsInfo storage options = optionsMap[tokenList[i]].options;\r\n            if (options.collateralCurrency != collateral){\r\n                continue;\r\n            }\r\n            uint256 tokenAmount = writerOptions[tokenList[i]][writer];\r\n            uint256 underlyingPrice = _oracle.getUnderlyingPrice(options.underlyingAssets);\r\n            uint256 needCollateral = _optionsFormulas.getCollateralPrice(options.strikePrice,underlyingPrice,uint8(options.optType));\r\n            totalUsd = totalUsd.add(tokenAmount.mul(needCollateral));\r\n        }\r\n        return totalUsd;\r\n    }\r\n    function _calCollateralValue(address collateral,uint256 amount)internal view returns(uint256){\r\n        uint256 price = _oracle.getPrice(collateral);\r\n        uint256 value = amount.mul(price);\r\n        return value;\r\n    }\r\n    function _calNumberMulUint(Number number,uint256 value) internal pure returns (uint256){\r\n        uint256 result = number.value.mul(value);\r\n        if (number.exponent > 0) {\r\n            result = result.mul(10**uint256(number.exponent));\r\n        } else {\r\n            result = result.div(10**uint256(-1*number.exponent));\r\n        }\r\n        return result;\r\n    }\r\n    function _isExpired(IndexValue storage optionsItem) internal view returns (bool){\r\n        return optionsItem.options.expiration<now;\r\n    }\r\n    function _isExercised(IndexValue storage optionsItem) internal view returns (bool){\r\n        return optionsItem.options.isExercised;\r\n    }\r\n}",
  "sourcePath": "C:\\work\\solidity\\OptionsContract\\contracts\\ManagerContract.sol",
  "compiler": {
    "name": "solc",
    "version": "0.4.26+commit.4563c3fc.Emscripten.clang"
  },
  "schemaVersion": "3.1.0",
  "updatedAt": "2020-07-06T03:57:21.627Z",
  "devdoc": {
    "methods": {
      "addCollateral(address,address,uint256,uint256)": {
        "details": "add Collateral. Any writer can add collateral to an exist options token,and mint options token;\r",
        "params": {
          "amount": "The amount of collateral asset\r",
          "collateral": "The collateral asset\r",
          "mintOptionsTokenAmount": "The amount of options token will be minted and sent to the writer;\r",
          "optionsToken": "The Options token address.\r"
        }
      },
      "addWhiteList(address)": {
        "details": "Implementation of add an eligible address into the whitelist.\r",
        "params": {
          "addAddress": "new eligible address.\r"
        }
      },
      "burnOptionsToken(address,uint256)": {
        "details": "A options writer burn some of his own token;\r",
        "params": {
          "amount": "The amount of options token which will be burned\r",
          "optionsToken": "The Options token address.\r"
        }
      },
      "createOptionsToken(string,address,uint32,uint256,uint256,uint8)": {
        "details": "create an empty options token by owner;\r",
        "params": {
          "collateral": "The collateral asset\r",
          "expiration": "The time at which the options expires\r",
          "optType": "options type,0 is call options,1 is put options\r",
          "optionsTokenName": "new migration options token name;\r",
          "strikePrice": "The amount of strike asset that will be paid out per oToken\r",
          "underlyingAssets": "underlying assets index, start at 1.\r"
        }
      },
      "exercise()": {
        "details": "exercise all of the expired options token;\r"
      },
      "getTransactionFee()": {
        "details": "Returns the rate of trasaction fee.\r"
      },
      "getWhiteList()": {
        "details": "Implementation of getting the eligible whitelist.\r"
      },
      "isEligibleAddress(address)": {
        "details": "Implementation of testing whether the input address is eligible.\r",
        "params": {
          "tmpAddress": "input address for testing.\r"
        }
      },
      "isOwner()": {
        "details": "Returns true if the caller is the current owner."
      },
      "liquidate(address,address,uint256)": {
        "details": "liquidate if a writer's options collateral assets are insuficient;\r",
        "params": {
          "amount": "The amount  of optionsToken which will be liquidated\r",
          "optionsToken": "The Options token address.\r",
          "writer": "The Options writer address.\r"
        }
      },
      "owner()": {
        "details": "Returns the address of the current owner."
      },
      "removeWhiteList(address)": {
        "details": "Implementation of revoke an invalid address from the whitelist.\r",
        "params": {
          "removeAddress": "revoked address.\r"
        }
      },
      "renounceOwnership()": {
        "details": "Leaves the contract without owner. It will not be possible to call `onlyOwner` functions anymore. Can only be called by the current owner.     * NOTE: Renouncing ownership will leave the contract without an owner, thereby removing any functionality that is only available to the owner."
      },
      "setTransactionFee(uint256,int32)": {
        "details": "set the rate of trasaction fee.\r",
        "params": {
          "exponent": "the exponent figures of transaction fee.\r transaction fee = Number(value,exponent);\r",
          "value": "the significant figures of transaction fee .\r"
        }
      },
      "transferOwnership(address)": {
        "details": "Transfers ownership of the contract to a new account (`newOwner`). Can only be called by the current owner."
      },
      "withdrawCollateral(address,uint256)": {
        "details": "Withdraw Collateral. Any writer can withdraw his collateral if his collateral assets are surplus;\r",
        "params": {
          "amount": "The amount  collateral asset which will be Withdrawn\r",
          "collateral": "The collateral address.\r"
        }
      }
    }
  },
  "userdoc": {
    "methods": {}
  }
}