{
  "contractName": "OptionsToken",
  "abi": [
    {
      "constant": true,
      "inputs": [],
      "name": "name",
      "outputs": [
        {
          "name": "",
          "type": "string"
        }
      ],
      "payable": false,
      "stateMutability": "view",
      "type": "function"
    },
    {
      "constant": true,
      "inputs": [],
      "name": "iterate_balance_start",
      "outputs": [
        {
          "name": "",
          "type": "uint256"
        }
      ],
      "payable": false,
      "stateMutability": "view",
      "type": "function"
    },
    {
      "constant": true,
      "inputs": [],
      "name": "getAccountsAndBalances",
      "outputs": [
        {
          "name": "",
          "type": "address[]"
        },
        {
          "name": "",
          "type": "uint256[]"
        }
      ],
      "payable": false,
      "stateMutability": "view",
      "type": "function"
    },
    {
      "constant": true,
      "inputs": [],
      "name": "decimals",
      "outputs": [
        {
          "name": "",
          "type": "uint8"
        }
      ],
      "payable": false,
      "stateMutability": "view",
      "type": "function"
    },
    {
      "constant": true,
      "inputs": [
        {
          "name": "keyIndex",
          "type": "uint256"
        }
      ],
      "name": "iterate_balance_valid",
      "outputs": [
        {
          "name": "",
          "type": "bool"
        }
      ],
      "payable": false,
      "stateMutability": "view",
      "type": "function"
    },
    {
      "constant": true,
      "inputs": [
        {
          "name": "key",
          "type": "address"
        }
      ],
      "name": "contains",
      "outputs": [
        {
          "name": "",
          "type": "bool"
        }
      ],
      "payable": false,
      "stateMutability": "view",
      "type": "function"
    },
    {
      "constant": false,
      "inputs": [],
      "name": "renounceOwnership",
      "outputs": [],
      "payable": false,
      "stateMutability": "nonpayable",
      "type": "function"
    },
    {
      "constant": true,
      "inputs": [],
      "name": "getExpration",
      "outputs": [
        {
          "name": "",
          "type": "uint256"
        }
      ],
      "payable": false,
      "stateMutability": "view",
      "type": "function"
    },
    {
      "constant": true,
      "inputs": [],
      "name": "owner",
      "outputs": [
        {
          "name": "",
          "type": "address"
        }
      ],
      "payable": false,
      "stateMutability": "view",
      "type": "function"
    },
    {
      "constant": true,
      "inputs": [],
      "name": "isOwner",
      "outputs": [
        {
          "name": "",
          "type": "bool"
        }
      ],
      "payable": false,
      "stateMutability": "view",
      "type": "function"
    },
    {
      "constant": true,
      "inputs": [],
      "name": "symbol",
      "outputs": [
        {
          "name": "",
          "type": "string"
        }
      ],
      "payable": false,
      "stateMutability": "view",
      "type": "function"
    },
    {
      "constant": true,
      "inputs": [
        {
          "name": "keyIndex",
          "type": "uint256"
        }
      ],
      "name": "iterate_balance_get",
      "outputs": [
        {
          "name": "key",
          "type": "address"
        },
        {
          "name": "value",
          "type": "uint256"
        }
      ],
      "payable": false,
      "stateMutability": "view",
      "type": "function"
    },
    {
      "constant": true,
      "inputs": [
        {
          "name": "keyIndex",
          "type": "uint256"
        }
      ],
      "name": "iterate_balance_next",
      "outputs": [
        {
          "name": "",
          "type": "uint256"
        }
      ],
      "payable": false,
      "stateMutability": "view",
      "type": "function"
    },
    {
      "constant": false,
      "inputs": [
        {
          "name": "managerAddress",
          "type": "address"
        }
      ],
      "name": "setManager",
      "outputs": [],
      "payable": false,
      "stateMutability": "nonpayable",
      "type": "function"
    },
    {
      "constant": true,
      "inputs": [],
      "name": "getManager",
      "outputs": [
        {
          "name": "",
          "type": "address"
        }
      ],
      "payable": false,
      "stateMutability": "view",
      "type": "function"
    },
    {
      "constant": false,
      "inputs": [
        {
          "name": "expiration",
          "type": "uint256"
        }
      ],
      "name": "setExpration",
      "outputs": [],
      "payable": false,
      "stateMutability": "nonpayable",
      "type": "function"
    },
    {
      "constant": false,
      "inputs": [
        {
          "name": "newOwner",
          "type": "address"
        }
      ],
      "name": "transferOwnership",
      "outputs": [],
      "payable": false,
      "stateMutability": "nonpayable",
      "type": "function"
    },
    {
      "inputs": [
        {
          "name": "expiration",
          "type": "uint256"
        },
        {
          "name": "tokenName",
          "type": "string"
        }
      ],
      "payable": false,
      "stateMutability": "nonpayable",
      "type": "constructor"
    },
    {
      "anonymous": false,
      "inputs": [
        {
          "indexed": true,
          "name": "from",
          "type": "address"
        },
        {
          "indexed": true,
          "name": "to",
          "type": "address"
        },
        {
          "indexed": false,
          "name": "value",
          "type": "uint256"
        }
      ],
      "name": "Transfer",
      "type": "event"
    },
    {
      "anonymous": false,
      "inputs": [
        {
          "indexed": true,
          "name": "owner",
          "type": "address"
        },
        {
          "indexed": true,
          "name": "spender",
          "type": "address"
        },
        {
          "indexed": false,
          "name": "value",
          "type": "uint256"
        }
      ],
      "name": "Approval",
      "type": "event"
    },
    {
      "anonymous": false,
      "inputs": [
        {
          "indexed": true,
          "name": "previousOwner",
          "type": "address"
        },
        {
          "indexed": true,
          "name": "newOwner",
          "type": "address"
        }
      ],
      "name": "OwnershipTransferred",
      "type": "event"
    },
    {
      "constant": true,
      "inputs": [],
      "name": "totalSupply",
      "outputs": [
        {
          "name": "",
          "type": "uint256"
        }
      ],
      "payable": false,
      "stateMutability": "view",
      "type": "function"
    },
    {
      "constant": true,
      "inputs": [
        {
          "name": "account",
          "type": "address"
        }
      ],
      "name": "balanceOf",
      "outputs": [
        {
          "name": "",
          "type": "uint256"
        }
      ],
      "payable": false,
      "stateMutability": "view",
      "type": "function"
    },
    {
      "constant": false,
      "inputs": [
        {
          "name": "recipient",
          "type": "address"
        },
        {
          "name": "amount",
          "type": "uint256"
        }
      ],
      "name": "transfer",
      "outputs": [
        {
          "name": "",
          "type": "bool"
        }
      ],
      "payable": false,
      "stateMutability": "nonpayable",
      "type": "function"
    },
    {
      "constant": true,
      "inputs": [
        {
          "name": "owner",
          "type": "address"
        },
        {
          "name": "spender",
          "type": "address"
        }
      ],
      "name": "allowance",
      "outputs": [
        {
          "name": "",
          "type": "uint256"
        }
      ],
      "payable": false,
      "stateMutability": "view",
      "type": "function"
    },
    {
      "constant": false,
      "inputs": [
        {
          "name": "spender",
          "type": "address"
        },
        {
          "name": "amount",
          "type": "uint256"
        }
      ],
      "name": "approve",
      "outputs": [
        {
          "name": "",
          "type": "bool"
        }
      ],
      "payable": false,
      "stateMutability": "nonpayable",
      "type": "function"
    },
    {
      "constant": false,
      "inputs": [
        {
          "name": "sender",
          "type": "address"
        },
        {
          "name": "recipient",
          "type": "address"
        },
        {
          "name": "amount",
          "type": "uint256"
        }
      ],
      "name": "transferFrom",
      "outputs": [
        {
          "name": "",
          "type": "bool"
        }
      ],
      "payable": false,
      "stateMutability": "nonpayable",
      "type": "function"
    },
    {
      "constant": false,
      "inputs": [
        {
          "name": "spender",
          "type": "address"
        },
        {
          "name": "addedValue",
          "type": "uint256"
        }
      ],
      "name": "increaseAllowance",
      "outputs": [
        {
          "name": "",
          "type": "bool"
        }
      ],
      "payable": false,
      "stateMutability": "nonpayable",
      "type": "function"
    },
    {
      "constant": false,
      "inputs": [
        {
          "name": "spender",
          "type": "address"
        },
        {
          "name": "subtractedValue",
          "type": "uint256"
        }
      ],
      "name": "decreaseAllowance",
      "outputs": [
        {
          "name": "",
          "type": "bool"
        }
      ],
      "payable": false,
      "stateMutability": "nonpayable",
      "type": "function"
    },
    {
      "constant": false,
      "inputs": [
        {
          "name": "amount",
          "type": "uint256"
        }
      ],
      "name": "burn",
      "outputs": [
        {
          "name": "",
          "type": "bool"
        }
      ],
      "payable": false,
      "stateMutability": "nonpayable",
      "type": "function"
    },
    {
      "constant": false,
      "inputs": [
        {
          "name": "account",
          "type": "address"
        },
        {
          "name": "amount",
          "type": "uint256"
        }
      ],
      "name": "mint",
      "outputs": [
        {
          "name": "",
          "type": "bool"
        }
      ],
      "payable": false,
      "stateMutability": "nonpayable",
      "type": "function"
    }
  ],
  "bytecode": "0x60c0604052600c60808190527f4f7074696f6e73546f6b656e000000000000000000000000000000000000000060a090815262000040916006919062000264565b5060408051808201909152600c8082527f4f7074696f6e73546f6b656e00000000000000000000000000000000000000006020909201918252620000879160079162000264565b5060006009553480156200009a57600080fd5b5060405162001e0938038062001e098339810160408190528151602083015160008054600160a060020a031916331780825592949190910192600160a060020a0392909216917f8be0079c531659141344cd1fd0a4f28419497f9722a3daafe3b4186f6b6457e0908290a362000119826401000000006200014b810204565b6200012d33640100000000620001c0810204565b80516200014290600690602084019062000264565b50505062000306565b6200015e64010000000062000252810204565b1515620001bb57604080517f08c379a0000000000000000000000000000000000000000000000000000000008152602060048201819052602482015260008051602062001de9833981519152604482015290519081900360640190fd5b600155565b620001d364010000000062000252810204565b15156200023057604080517f08c379a0000000000000000000000000000000000000000000000000000000008152602060048201819052602482015260008051602062001de9833981519152604482015290519081900360640190fd5b60028054600160a060020a031916600160a060020a0392909216919091179055565b600054600160a060020a031633145b90565b828054600181600116156101000203166002900490600052602060002090601f016020900481019282601f10620002a757805160ff1916838001178555620002d7565b82800160010185558215620002d7579182015b82811115620002d7578251825591602001919060010190620002ba565b50620002e5929150620002e9565b5090565b6200026191905b80821115620002e55760008155600101620002f0565b611ad380620003166000396000f30060806040526004361061015e5763ffffffff7c010000000000000000000000000000000000000000000000000000000060003504166306fdde038114610163578063095ea7b3146101ed57806318160ddd1461022557806323b872dd1461024c57806326eb2757146102765780632ea628ae1461028b578063313ce56714610339578063395093511461036457806340c10f191461038857806342966c68146103ac57806350b1ab2c146103c45780635dbe47e8146103dc57806370a08231146103fd578063715018a61461041e57806386a8a503146104355780638da5cb5b1461044a5780638f32d59b1461047b57806395d89b4114610490578063a457c2d7146104a5578063a522f95b146104c9578063a9059cbb14610504578063ccb66dc414610528578063d0ebdbe714610540578063d500958414610561578063dd62ed3e14610576578063e2eea0ba1461059d578063f2fde38b146105b5575b600080fd5b34801561016f57600080fd5b506101786105d6565b6040805160208082528351818301528351919283929083019185019080838360005b838110156101b257818101518382015260200161019a565b50505050905090810190601f1680156101df5780820380516001836020036101000a031916815260200191505b509250505060405180910390f35b3480156101f957600080fd5b50610211600160a060020a0360043516602435610664565b604080519115158252519081900360200190f35b34801561023157600080fd5b5061023a6106c2565b60408051918252519081900360200190f35b34801561025857600080fd5b50610211600160a060020a03600435811690602435166044356106c9565b34801561028257600080fd5b5061023a6107c4565b34801561029757600080fd5b506102a06107d9565b604051808060200180602001838103835285818151815260200191508051906020019060200280838360005b838110156102e45781810151838201526020016102cc565b50505050905001838103825284818151815260200191508051906020019060200280838360005b8381101561032357818101518382015260200161030b565b5050505090500194505050505060405180910390f35b34801561034557600080fd5b5061034e610957565b6040805160ff9092168252519081900360200190f35b34801561037057600080fd5b50610211600160a060020a036004351660243561095c565b34801561039457600080fd5b50610211600160a060020a03600435166024356109e1565b3480156103b857600080fd5b50610211600435610abd565b3480156103d057600080fd5b50610211600435610ba1565b3480156103e857600080fd5b50610211600160a060020a0360043516610ba8565b34801561040957600080fd5b5061023a600160a060020a0360043516610bc4565b34801561042a57600080fd5b50610433610be2565b005b34801561044157600080fd5b5061023a610c85565b34801561045657600080fd5b5061045f610c8b565b60408051600160a060020a039092168252519081900360200190f35b34801561048757600080fd5b50610211610c9a565b34801561049c57600080fd5b50610178610cab565b3480156104b157600080fd5b50610211600160a060020a0360043516602435610d06565b3480156104d557600080fd5b506104e1600435610de5565b60408051600160a060020a03909316835260208301919091528051918290030190f35b34801561051057600080fd5b50610211600160a060020a0360043516602435610e2a565b34801561053457600080fd5b5061023a600435610e7f565b34801561054c57600080fd5b50610433600160a060020a0360043516610ed7565b34801561056d57600080fd5b5061045f610f52565b34801561058257600080fd5b5061023a600160a060020a0360043581169060243516610f61565b3480156105a957600080fd5b50610433600435610f8c565b3480156105c157600080fd5b50610433600160a060020a0360043516610fdd565b6006805460408051602060026001851615610100026000190190941693909304601f8101849004840282018401909252818152929183018282801561065c5780601f106106315761010080835404028352916020019161065c565b820191906000526020600020905b81548152906001019060200180831161063f57829003601f168201915b505050505081565b60015460009042106106ae576040805160e560020a62461bcd0281526020600482015260106024820152600080516020611a88833981519152604482015290519081900360640190fd5b6106b9338484611035565b50600192915050565b6009545b90565b6001546000904210610713576040805160e560020a62461bcd0281526020600482015260106024820152600080516020611a88833981519152604482015290519081900360640190fd5b61071e8484846111a2565b60408051606081018252602881527f45524332303a207472616e7366657220616d6f756e74206578636565647320616020808301919091527f6c6c6f77616e636500000000000000000000000000000000000000000000000082840152600160a060020a03871660009081526008825283812033808352925292909220546107ba92879290916107b591879063ffffffff61131216565b611035565b5060019392505050565b60006000196107d281610e7f565b91505b5090565b606080606080600080600360020154604051908082528060200260200182016040528015610811578160200160208202803883390190505b509350600360020154604051908082528060200260200182016040528015610843578160200160208202803883390190505b50925060009150600090505b60045481101561094c57600480548290811061086757fe5b60009182526020909120015474010000000000000000000000000000000000000000900460ff161561089857610944565b60048054829081106108a657fe5b6000918252602090912001548451600160a060020a03909116908590849081106108cc57fe5b600160a060020a0390921660209283029091019091015283516003906000908690859081106108f757fe5b90602001906020020151600160a060020a0316600160a060020a0316815260200190815260200160002060010154838381518110151561093357fe5b602090810290910101526001909101905b60010161084f565b509194909350915050565b601281565b60015460009042106109a6576040805160e560020a62461bcd0281526020600482015260106024820152600080516020611a88833981519152604482015290519081900360640190fd5b336000818152600860209081526040808320600160a060020a03881684529091529020546106b9919085906107b5908663ffffffff6113af16565b6001546000904210610a2b576040805160e560020a62461bcd0281526020600482015260106024820152600080516020611a88833981519152604482015290519081900360640190fd5b600254600160a060020a03163314610ab3576040805160e560020a62461bcd02815260206004820152602660248201527f4d616e6167657261626c653a2063616c6c6572206973206e6f7420746865204d60448201527f616e616765720000000000000000000000000000000000000000000000000000606482015290519081900360840190fd5b6106b98383611417565b6001546000904210610b07576040805160e560020a62461bcd0281526020600482015260106024820152600080516020611a88833981519152604482015290519081900360640190fd5b600254600160a060020a03163314610b8f576040805160e560020a62461bcd02815260206004820152602660248201527f4d616e6167657261626c653a2063616c6c6572206973206e6f7420746865204d60448201527f616e616765720000000000000000000000000000000000000000000000000000606482015290519081900360840190fd5b610b9933836114dc565b506001919050565b6004541190565b600160a060020a03166000908152600360205260408120541190565b600160a060020a031660009081526003602052604090206001015490565b610bea610c9a565b1515610c2e576040805160e560020a62461bcd0281526020600482018190526024820152600080516020611a68833981519152604482015290519081900360640190fd5b60008054604051600160a060020a03909116907f8be0079c531659141344cd1fd0a4f28419497f9722a3daafe3b4186f6b6457e0908390a36000805473ffffffffffffffffffffffffffffffffffffffff19169055565b60015490565b600054600160a060020a031690565b600054600160a060020a0316331490565b6007805460408051602060026001851615610100026000190190941693909304601f8101849004840282018401909252818152929183018282801561065c5780601f106106315761010080835404028352916020019161065c565b6001546000904210610d50576040805160e560020a62461bcd0281526020600482015260106024820152600080516020611a88833981519152604482015290519081900360640190fd5b60408051606081018252602581527f45524332303a2064656372656173656420616c6c6f77616e63652062656c6f776020808301919091527f207a65726f0000000000000000000000000000000000000000000000000000008284015233600081815260088352848120600160a060020a0389168252909252929020546106b9929186916107b591879063ffffffff61131216565b60048054600091829184908110610df857fe5b6000918252602080832090910154600160a060020a031680835260039091526040909120600101549094909350915050565b6001546000904210610e74576040805160e560020a62461bcd0281526020600482015260106024820152600080516020611a88833981519152604482015290519081900360640190fd5b6106b93384846111a2565b60010160005b60045482108015610ec757506004805483908110610e9f57fe5b60009182526020909120015474010000000000000000000000000000000000000000900460ff165b156107d557600190910190610e85565b610edf610c9a565b1515610f23576040805160e560020a62461bcd0281526020600482018190526024820152600080516020611a68833981519152604482015290519081900360640190fd5b6002805473ffffffffffffffffffffffffffffffffffffffff1916600160a060020a0392909216919091179055565b600254600160a060020a031690565b600160a060020a03918216600090815260086020908152604080832093909416825291909152205490565b610f94610c9a565b1515610fd8576040805160e560020a62461bcd0281526020600482018190526024820152600080516020611a68833981519152604482015290519081900360640190fd5b600155565b610fe5610c9a565b1515611029576040805160e560020a62461bcd0281526020600482018190526024820152600080516020611a68833981519152604482015290519081900360640190fd5b611032816115c7565b50565b600160a060020a03831615156110ba576040805160e560020a62461bcd028152602060048201526024808201527f45524332303a20617070726f76652066726f6d20746865207a65726f2061646460448201527f7265737300000000000000000000000000000000000000000000000000000000606482015290519081900360840190fd5b600160a060020a0382161515611140576040805160e560020a62461bcd02815260206004820152602260248201527f45524332303a20617070726f766520746f20746865207a65726f20616464726560448201527f7373000000000000000000000000000000000000000000000000000000000000606482015290519081900360840190fd5b600160a060020a03808416600081815260086020908152604080832094871680845294825291829020859055815185815291517f8c5be1e5ebec7d5bd14f71427d1e84f3dd0314c0f7b2291e5b200ac8c7c3b9259281900390910190a3505050565b600160a060020a0383161515611228576040805160e560020a62461bcd02815260206004820152602560248201527f45524332303a207472616e736665722066726f6d20746865207a65726f20616460448201527f6472657373000000000000000000000000000000000000000000000000000000606482015290519081900360840190fd5b600160a060020a03821615156112ae576040805160e560020a62461bcd02815260206004820152602360248201527f45524332303a207472616e7366657220746f20746865207a65726f206164647260448201527f6573730000000000000000000000000000000000000000000000000000000000606482015290519081900360840190fd5b6112b883826116b5565b6112c28282611795565b81600160a060020a031683600160a060020a03167fddf252ad1be2c89b69c2b068fc378daa952ba7f163c4a11628f55a4df523b3ef836040518082815260200191505060405180910390a3505050565b60008082858511156113a55760405160e560020a62461bcd0281526004018080602001828103825283818151815260200191508051906020019080838360005b8381101561136a578181015183820152602001611352565b50505050905090810190601f1680156113975780820380516001836020036101000a031916815260200191505b509250505060405180910390fd5b5050509103919050565b60008282018381101561140c576040805160e560020a62461bcd02815260206004820152601b60248201527f536166654d6174683a206164646974696f6e206f766572666c6f770000000000604482015290519081900360640190fd5b8091505b5092915050565b600160a060020a0382161515611477576040805160e560020a62461bcd02815260206004820152601f60248201527f45524332303a206d696e7420746f20746865207a65726f206164647265737300604482015290519081900360640190fd5b60095461148a908263ffffffff6113af16565b6009556114978282611795565b604080518281529051600160a060020a038416916000917fddf252ad1be2c89b69c2b068fc378daa952ba7f163c4a11628f55a4df523b3ef9181900360200190a35050565b600160a060020a0382161515611562576040805160e560020a62461bcd02815260206004820152602160248201527f45524332303a206275726e2066726f6d20746865207a65726f2061646472657360448201527f7300000000000000000000000000000000000000000000000000000000000000606482015290519081900360840190fd5b61156c82826116b5565b60095461157f908263ffffffff61185616565b600955604080518281529051600091600160a060020a038516917fddf252ad1be2c89b69c2b068fc378daa952ba7f163c4a11628f55a4df523b3ef9181900360200190a35050565b600160a060020a038116151561164d576040805160e560020a62461bcd02815260206004820152602660248201527f4f776e61626c653a206e6577206f776e657220697320746865207a65726f206160448201527f6464726573730000000000000000000000000000000000000000000000000000606482015290519081900360840190fd5b60008054604051600160a060020a03808516939216917f8be0079c531659141344cd1fd0a4f28419497f9722a3daafe3b4186f6b6457e091a36000805473ffffffffffffffffffffffffffffffffffffffff1916600160a060020a0392909216919091179055565b6000600160a060020a038316151561173d576040805160e560020a62461bcd02815260206004820152602360248201527f45524332303a207472616e7366657220746f20746865207a65726f206164647260448201527f6573730000000000000000000000000000000000000000000000000000000000606482015290519081900360840190fd5b50600160a060020a03821660009081526003602052604090206001015461176a818363ffffffff61185616565b905060008111156117855761177f838261189f565b50611790565b61178e8361195b565b505b505050565b6000600160a060020a038316151561181d576040805160e560020a62461bcd02815260206004820152602360248201527f45524332303a207472616e7366657220746f20746865207a65726f206164647260448201527f6573730000000000000000000000000000000000000000000000000000000000606482015290519081900360840190fd5b50600160a060020a03821660009081526003602052604090206001015461184a818363ffffffff6113af16565b905061178e838261189f565b600061189883836040805190810160405280601e81526020017f536166654d6174683a207375627472616374696f6e206f766572666c6f770000815250611312565b9392505050565b600160a060020a038216600090815260036020526040812080546001909101839055818111156118d25760019150611410565b60048054906118e49060018301611a16565b600160a060020a03851660009081526003602052604090206001820190556004805491925085918390811061191557fe5b60009182526020822001805473ffffffffffffffffffffffffffffffffffffffff1916600160a060020a0393909316929092179091556005805460010190559150611410565b600160a060020a0381166000908152600360205260408120548015156119845760009150611a10565b600160a060020a03831660009081526003602052604081208181556001908101919091556004805460001984019081106119ba57fe5b60009182526020909120018054911515740100000000000000000000000000000000000000000274ff00000000000000000000000000000000000000001990921691909117905560058054600019019055600191505b50919050565b815481835581811115611790576000838152602090206117909181019083016106c691905b808211156107d557805474ffffffffffffffffffffffffffffffffffffffffff19168155600101611a3b56004f776e61626c653a2063616c6c6572206973206e6f7420746865206f776e6572546f6b656e206973204578706972656400000000000000000000000000000000a165627a7a7230582058a7fe34ee50152ac9709679875f42757e5017b144556ad058f66f909779d2c600294f776e61626c653a2063616c6c6572206973206e6f7420746865206f776e6572",
  "source": "pragma solidity ^0.4.26;\nimport \"./Ownable.sol\";\nimport \"./IERC20.sol\";\nimport \"./SafeMath.sol\";\nimport \"./IIterableToken.sol\";\ncontract BalanceMapping is IIterableToken\n{\n    itmap internal _balances;\n    struct itmap\n    {\n        mapping(address => IndexValue) data;\n        KeyFlag[] keys;\n        uint size;\n    }\n    struct IndexValue { uint keyIndex; uint256 value; }\n    struct KeyFlag { address key; bool deleted; }\n    function insert(address key, uint256 value) internal returns (bool)\n    {\n        uint keyIndex = _balances.data[key].keyIndex;\n        _balances.data[key].value = value;\n        if (keyIndex > 0)\n           return true;\n        else\n        {\n            keyIndex = _balances.keys.length++;\n            _balances.data[key].keyIndex = keyIndex + 1;\n            _balances.keys[keyIndex].key = key;\n            _balances.size++;\n            return false;\n        }\n    }\n    function remove(address key)internal returns (bool)\n    {\n        uint keyIndex = _balances.data[key].keyIndex;\n        if (keyIndex == 0)\n            return false;\n        delete _balances.data[key];\n        _balances.keys[keyIndex - 1].deleted = true;\n        _balances.size --;\n        return true;\n    }\n    function getAccountsAndBalances()public view returns (address[],uint256[]){\n        address[] memory accounts = new address[](_balances.size);\n        uint256[] memory balances = new uint256[](_balances.size);\n        uint256 keyIndex = 0;\n        for (uint256 i=0;i<_balances.keys.length;i++){\n            if(_balances.keys[i].deleted){\n                continue;\n            }\n            accounts[keyIndex] = _balances.keys[i].key;\n            balances[keyIndex] = _balances.data[accounts[keyIndex]].value;\n            keyIndex++;\n        }\n        return (accounts,balances);\n    } \n    function contains(address key)public view returns (bool)\n    {\n        return _balances.data[key].keyIndex > 0;\n    }\n    function iterate_balance_start()public view returns (uint)\n    {\n        uint keyIndex = uint(-1);\n        return iterate_balance_next(keyIndex);\n    }\n    function iterate_balance_valid(uint keyIndex)public view returns (bool)\n    {\n        return keyIndex < _balances.keys.length;\n    }\n    function iterate_balance_next(uint keyIndex)public view returns (uint)\n    {\n        keyIndex++;\n        while (keyIndex < _balances.keys.length && _balances.keys[keyIndex].deleted)\n            keyIndex++;\n        return keyIndex;\n    }\n    function iterate_balance_get(uint keyIndex)public view returns (address key, uint256 value)\n    {\n        key = _balances.keys[keyIndex].key;\n        value = _balances.data[key].value;\n    }\n}\ncontract Expration is Ownable {\n\n    uint256  private _expiration;\n\n    modifier notExpired() {\n        require(now < _expiration,\"Token is Expired\");\n        _;\n    }\n\n    modifier isExpired() {\n        require(now >= _expiration,\"Token is not Expired\");\n        _;\n    }\n\n    /// @notice function Emergency situation that requires\n    /// @notice contribution period to stop or not.\n    function setExpration(uint256 expiration)\n    public\n    onlyOwner\n    {\n        _expiration = expiration;\n    }\n    function getExpration()public view returns (uint256) {\n        return _expiration;\n    }\n}\ncontract Managerable is Expration {\n\n    address private _managerAddress;\n\n    modifier onlyManager() {\n        require(_managerAddress == msg.sender,\"Managerable: caller is not the Manager\");\n        _;\n    }\n    /// @notice function Emergency situation that requires\n    /// @notice contribution period to stop or not.\n    function setManager(address managerAddress)\n    public\n    onlyOwner\n    {\n        _managerAddress = managerAddress;\n    }\n    function getManager()public view returns (address) {\n        return _managerAddress;\n    }\n}\n/**\n * @dev Implementation of the {IERC20} interface.\n *\n * This implementation is agnostic to the way tokens are created. This means\n * that a supply mechanism has to be added in a derived contract using {_mint}.\n * For a generic mechanism see {ERC20Mintable}.\n *\n * TIP: For a detailed writeup see our guide\n * https://forum.zeppelin.solutions/t/how-to-implement-erc20-supply-mechanisms/226[How\n * to implement supply mechanisms].\n *\n * We have followed general OpenZeppelin guidelines: functions revert instead\n * of returning `false` on failure. This behavior is nonetheless conventional\n * and does not conflict with the expectations of ERC20 applications.\n *\n * Additionally, an {Approval} event is emitted on calls to {transferFrom}.\n * This allows applications to reconstruct the allowance for all accounts just\n * by listening to said events. Other implementations of the EIP may not emit\n * these events, as it isn't required by the specification.\n *\n * Finally, the non-standard {decreaseAllowance} and {increaseAllowance}\n * functions have been added to mitigate the well-known issues around setting\n * allowances. See {IERC20-approve}.\n */\ncontract OptionsToken is Managerable, IERC20,BalanceMapping  {\n    using SafeMath for uint256;\n    string public name = \"OptionsToken\";\n    string public symbol = \"OptionsToken\";\n    uint8 public constant decimals = 18;\n    \n\n\n    mapping (address => mapping (address => uint256)) private _allowances;\n\n    uint256 private _totalSupply = 0;\n\n    constructor (uint256 expiration,string tokenName) public{\n        setExpration(expiration);\n        setManager(msg.sender);\n        name = tokenName;\n    }\n    /**\n     * @dev See {IERC20-totalSupply}.\n     */\n    function totalSupply() public view returns (uint256) {\n        return _totalSupply;\n    }\n\n\n    /**\n     * @dev See {IERC20-balanceOf}.\n     */\n    function balanceOf(address account) public view returns (uint256) {\n        return _balances.data[account].value;\n    }\n    /**\n     * @dev See {IERC20-transfer}.\n     *\n     * Requirements:\n     *\n     * - `recipient` cannot be the zero address.\n     * - the caller must have a balance of at least `amount`.\n     */\n    function transfer(address recipient, uint256 amount)\n    public\n    notExpired\n    returns (bool)\n    {\n        _transfer(msg.sender, recipient, amount);\n        return true;\n    }\n\n    /**\n     * @dev See {IERC20-allowance}.\n     */\n    function allowance(address owner, address spender) public view returns (uint256) {\n        return _allowances[owner][spender];\n    }\n\n    /**\n     * @dev See {IERC20-approve}.\n     *\n     * Requirements:\n     *\n     * - `spender` cannot be the zero address.\n     */\n    function approve(address spender, uint256 amount)\n    public\n    notExpired\n    returns (bool) {\n        _approve(msg.sender, spender, amount);\n        return true;\n    }\n\n    /**\n     * @dev See {IERC20-transferFrom}.\n     *\n     * Emits an {Approval} event indicating the updated allowance. This is not\n     * required by the EIP. See the note at the beginning of {ERC20};\n     *\n     * Requirements:\n     * - `sender` and `recipient` cannot be the zero address.\n     * - `sender` must have a balance of at least `amount`.\n     * - the caller must have allowance for `sender`'s tokens of at least\n     * `amount`.\n     */\n    function transferFrom(address sender, address recipient, uint256 amount)\n    public\n    notExpired\n    returns (bool) {\n        _transfer(sender, recipient, amount);\n        _approve(sender, msg.sender, _allowances[sender][msg.sender].sub(amount, \"ERC20: transfer amount exceeds allowance\"));\n        return true;\n    }\n\n    /**\n     * @dev Atomically increases the allowance granted to `spender` by the caller.\n     *\n     * This is an alternative to {approve} that can be used as a mitigation for\n     * problems described in {IERC20-approve}.\n     *\n     * Emits an {Approval} event indicating the updated allowance.\n     *\n     * Requirements:\n     *\n     * - `spender` cannot be the zero address.\n     */\n    function increaseAllowance(address spender, uint256 addedValue)\n    public\n    notExpired\n    returns (bool) {\n        _approve(msg.sender, spender, _allowances[msg.sender][spender].add(addedValue));\n        return true;\n    }\n\n    /**\n     * @dev Atomically decreases the allowance granted to `spender` by the caller.\n     *\n     * This is an alternative to {approve} that can be used as a mitigation for\n     * problems described in {IERC20-approve}.\n     *\n     * Emits an {Approval} event indicating the updated allowance.\n     *\n     * Requirements:\n     *\n     * - `spender` cannot be the zero address.\n     * - `spender` must have allowance for the caller of at least\n     * `subtractedValue`.\n     */\n    function decreaseAllowance(address spender, uint256 subtractedValue)\n    public\n    notExpired\n    returns (bool) {\n        _approve(msg.sender, spender, _allowances[msg.sender][spender].sub(subtractedValue, \"ERC20: decreased allowance below zero\"));\n        return true;\n    }\n\n    function burn(uint256 amount) public notExpired onlyManager returns (bool){\n        _burn(msg.sender, amount);\n        return true;\n    }\n    function mint(address account,uint256 amount) public notExpired onlyManager returns (bool){\n        _mint(account,amount);\n        return true;\n    }\n    /**\n     * @dev add `recipient`'s balance to iterable mapping balances.\n     */\n    function _addBalance(address recipient, uint256 amount) internal {\n        require(recipient != address(0), \"ERC20: transfer to the zero address\");\n\n        uint256 balance = _balances.data[recipient].value;\n        balance = balance.add(amount);\n\n        insert(recipient,balance);\n    }\n    /**\n     * @dev add `recipient`'s balance to iterable mapping balances.\n     */\n    function _subBalance(address recipient, uint256 amount) internal {\n        require(recipient != address(0), \"ERC20: transfer to the zero address\");\n\n        uint256 balance = _balances.data[recipient].value;\n        balance = balance.sub(amount);\n\n        if (balance > 0){\n            insert(recipient,balance);\n        }else{\n            remove(recipient);\n        }\n    }\n    /**\n     * @dev Moves tokens `amount` from `sender` to `recipient`.\n     *\n     * This is internal function is equivalent to {transfer}, and can be used to\n     * e.g. implement automatic token fees, slashing mechanisms, etc.\n     *\n     * Emits a {Transfer} event.\n     *\n     * Requirements:\n     *\n     * - `sender` cannot be the zero address.\n     * - `recipient` cannot be the zero address.\n     * - `sender` must have a balance of at least `amount`.\n     */\n    function _transfer(address sender, address recipient, uint256 amount) internal {\n        require(sender != address(0), \"ERC20: transfer from the zero address\");\n        require(recipient != address(0), \"ERC20: transfer to the zero address\");\n        _subBalance(sender,amount);\n        _addBalance(recipient,amount);\n        emit Transfer(sender, recipient, amount);\n    }\n\n    /** @dev Creates `amount` tokens and assigns them to `account`, increasing\n     * the total supply.\n     *\n     * Emits a {Transfer} event with `from` set to the zero address.\n     *\n     * Requirements\n     *\n     * - `to` cannot be the zero address.\n     */\n    function _mint(address account, uint256 amount) internal {\n        require(account != address(0), \"ERC20: mint to the zero address\");\n\n        _totalSupply = _totalSupply.add(amount);\n        _addBalance(account,amount);\n        emit Transfer(address(0), account, amount);\n    }\n\n    /**\n    * @dev Destroys `amount` tokens from `account`, reducing the\n    * total supply.\n    *\n    * Emits a {Transfer} event with `to` set to the zero address.\n    *\n    * Requirements\n    *\n    * - `account` cannot be the zero address.\n    * - `account` must have at least `amount` tokens.\n    */\n    function _burn(address account, uint256 amount) internal {\n        require(account != address(0), \"ERC20: burn from the zero address\");\n\n        _subBalance(account,amount);\n        _totalSupply = _totalSupply.sub(amount);\n        emit Transfer(account, address(0), amount);\n    }\n\n    /**\n     * @dev Sets `amount` as the allowance of `spender` over the `owner`s tokens.\n     *\n     * This is internal function is equivalent to `approve`, and can be used to\n     * e.g. set automatic allowances for certain subsystems, etc.\n     *\n     * Emits an {Approval} event.\n     *\n     * Requirements:\n     *\n     * - `owner` cannot be the zero address.\n     * - `spender` cannot be the zero address.\n     */\n    function _approve(address owner, address spender, uint256 amount) internal {\n        require(owner != address(0), \"ERC20: approve from the zero address\");\n        require(spender != address(0), \"ERC20: approve to the zero address\");\n\n        _allowances[owner][spender] = amount;\n        emit Approval(owner, spender, amount);\n    }\n\n    /**\n     * @dev Destroys `amount` tokens from `account`.`amount` is then deducted\n     * from the caller's allowance.\n     *\n     * See {_burn} and {_approve}.\n     */\n    function _burnFrom(address account, uint256 amount) internal {\n        _burn(account, amount);\n        _approve(account, msg.sender, _allowances[account][msg.sender].sub(amount, \"ERC20: burn amount exceeds allowance\"));\n    }\n}\n",
  "sourcePath": "C:\\work\\solidity\\OptionsContract\\contracts\\OptionsToken.sol",
  "compiler": {
    "name": "solc",
    "version": "0.4.26+commit.4563c3fc.Emscripten.clang"
  },
  "schemaVersion": "3.1.0",
  "updatedAt": "2020-07-06T03:57:21.775Z",
  "devdoc": {
    "methods": {
      "allowance(address,address)": {
        "details": "See {IERC20-allowance}."
      },
      "approve(address,uint256)": {
        "details": "See {IERC20-approve}.     * Requirements:     * - `spender` cannot be the zero address."
      },
      "balanceOf(address)": {
        "details": "See {IERC20-balanceOf}."
      },
      "decreaseAllowance(address,uint256)": {
        "details": "Atomically decreases the allowance granted to `spender` by the caller.     * This is an alternative to {approve} that can be used as a mitigation for problems described in {IERC20-approve}.     * Emits an {Approval} event indicating the updated allowance.     * Requirements:     * - `spender` cannot be the zero address. - `spender` must have allowance for the caller of at least `subtractedValue`."
      },
      "increaseAllowance(address,uint256)": {
        "details": "Atomically increases the allowance granted to `spender` by the caller.     * This is an alternative to {approve} that can be used as a mitigation for problems described in {IERC20-approve}.     * Emits an {Approval} event indicating the updated allowance.     * Requirements:     * - `spender` cannot be the zero address."
      },
      "isOwner()": {
        "details": "Returns true if the caller is the current owner."
      },
      "owner()": {
        "details": "Returns the address of the current owner."
      },
      "renounceOwnership()": {
        "details": "Leaves the contract without owner. It will not be possible to call `onlyOwner` functions anymore. Can only be called by the current owner.     * NOTE: Renouncing ownership will leave the contract without an owner, thereby removing any functionality that is only available to the owner."
      },
      "totalSupply()": {
        "details": "See {IERC20-totalSupply}."
      },
      "transfer(address,uint256)": {
        "details": "See {IERC20-transfer}.     * Requirements:     * - `recipient` cannot be the zero address. - the caller must have a balance of at least `amount`."
      },
      "transferFrom(address,address,uint256)": {
        "details": "See {IERC20-transferFrom}.     * Emits an {Approval} event indicating the updated allowance. This is not required by the EIP. See the note at the beginning of {ERC20};     * Requirements: - `sender` and `recipient` cannot be the zero address. - `sender` must have a balance of at least `amount`. - the caller must have allowance for `sender`'s tokens of at least `amount`."
      },
      "transferOwnership(address)": {
        "details": "Transfers ownership of the contract to a new account (`newOwner`). Can only be called by the current owner."
      }
    }
  },
  "userdoc": {
    "methods": {
      "setExpration(uint256)": {
        "notice": "function Emergency situation that requirescontribution period to stop or not."
      },
      "setManager(address)": {
        "notice": "function Emergency situation that requirescontribution period to stop or not."
      }
    }
  }
}