{
  "contractName": "OptionsModify",
  "abi": [
    {
      "constant": true,
      "inputs": [],
      "name": "getWhiteList",
      "outputs": [
        {
          "name": "",
          "type": "address[]"
        }
      ],
      "payable": false,
      "stateMutability": "view",
      "type": "function"
    },
    {
      "constant": false,
      "inputs": [
        {
          "name": "removeAddress",
          "type": "address"
        }
      ],
      "name": "removeWhiteList",
      "outputs": [],
      "payable": false,
      "stateMutability": "nonpayable",
      "type": "function"
    },
    {
      "constant": false,
      "inputs": [],
      "name": "redeemAll",
      "outputs": [],
      "payable": false,
      "stateMutability": "nonpayable",
      "type": "function"
    },
    {
      "constant": true,
      "inputs": [
        {
          "name": "",
          "type": "uint256"
        }
      ],
      "name": "whiteList",
      "outputs": [
        {
          "name": "",
          "type": "address"
        }
      ],
      "payable": false,
      "stateMutability": "view",
      "type": "function"
    },
    {
      "constant": false,
      "inputs": [],
      "name": "renounceOwnership",
      "outputs": [],
      "payable": false,
      "stateMutability": "nonpayable",
      "type": "function"
    },
    {
      "constant": true,
      "inputs": [
        {
          "name": "tmpAddress",
          "type": "address"
        }
      ],
      "name": "isEligibleAddress",
      "outputs": [
        {
          "name": "",
          "type": "bool"
        }
      ],
      "payable": false,
      "stateMutability": "view",
      "type": "function"
    },
    {
      "constant": true,
      "inputs": [],
      "name": "getTransactionFee",
      "outputs": [
        {
          "name": "",
          "type": "uint256"
        },
        {
          "name": "",
          "type": "int32"
        }
      ],
      "payable": false,
      "stateMutability": "view",
      "type": "function"
    },
    {
      "constant": true,
      "inputs": [],
      "name": "owner",
      "outputs": [
        {
          "name": "",
          "type": "address"
        }
      ],
      "payable": false,
      "stateMutability": "view",
      "type": "function"
    },
    {
      "constant": true,
      "inputs": [],
      "name": "isOwner",
      "outputs": [
        {
          "name": "",
          "type": "bool"
        }
      ],
      "payable": false,
      "stateMutability": "view",
      "type": "function"
    },
    {
      "constant": false,
      "inputs": [
        {
          "name": "collateral",
          "type": "address"
        }
      ],
      "name": "redeem",
      "outputs": [],
      "payable": false,
      "stateMutability": "nonpayable",
      "type": "function"
    },
    {
      "constant": true,
      "inputs": [
        {
          "name": "",
          "type": "address"
        }
      ],
      "name": "managerFee",
      "outputs": [
        {
          "name": "",
          "type": "uint256"
        }
      ],
      "payable": false,
      "stateMutability": "view",
      "type": "function"
    },
    {
      "constant": true,
      "inputs": [],
      "name": "transactionFee",
      "outputs": [
        {
          "name": "value",
          "type": "uint256"
        },
        {
          "name": "exponent",
          "type": "int32"
        }
      ],
      "payable": false,
      "stateMutability": "view",
      "type": "function"
    },
    {
      "constant": false,
      "inputs": [
        {
          "name": "value",
          "type": "uint256"
        },
        {
          "name": "exponent",
          "type": "int32"
        }
      ],
      "name": "setTransactionFee",
      "outputs": [],
      "payable": false,
      "stateMutability": "nonpayable",
      "type": "function"
    },
    {
      "constant": false,
      "inputs": [
        {
          "name": "addAddress",
          "type": "address"
        }
      ],
      "name": "addWhiteList",
      "outputs": [],
      "payable": false,
      "stateMutability": "nonpayable",
      "type": "function"
    },
    {
      "constant": false,
      "inputs": [
        {
          "name": "newOwner",
          "type": "address"
        }
      ],
      "name": "transferOwnership",
      "outputs": [],
      "payable": false,
      "stateMutability": "nonpayable",
      "type": "function"
    },
    {
      "anonymous": false,
      "inputs": [
        {
          "indexed": true,
          "name": "previousOwner",
          "type": "address"
        },
        {
          "indexed": true,
          "name": "newOwner",
          "type": "address"
        }
      ],
      "name": "OwnershipTransferred",
      "type": "event"
    }
  ],
  "bytecode": "0x60806040526040805190810160405280600081526020017ffffffffffffffffffffffffffffffffffffffffffffffffffffffffffffffffd60030b81525060036000820151816000015560208201518160010160006101000a81548163ffffffff021916908360030b63ffffffff16021790555050506000600755336000806101000a81548173ffffffffffffffffffffffffffffffffffffffff021916908373ffffffffffffffffffffffffffffffffffffffff1602179055506000809054906101000a900473ffffffffffffffffffffffffffffffffffffffff1673ffffffffffffffffffffffffffffffffffffffff16600073ffffffffffffffffffffffffffffffffffffffff167f8be0079c531659141344cd1fd0a4f28419497f9722a3daafe3b4186f6b6457e060405160405180910390a36114b5806101456000396000f3006080604052600436106100db576000357c0100000000000000000000000000000000000000000000000000000000900463ffffffff16806309a9d76c146100e05780632042e5c21461014c5780632f4350c21461018f5780635c475d42146101a6578063715018a614610213578063817bf86d1461022a57806385d79102146102855780638da5cb5b146102bd5780638f32d59b1461031457806395a2251f146103435780639965a4d5146103865780639ed3edf0146103dd578063e4a9d2be14610415578063e7cd4a041461044f578063f2fde38b14610492575b600080fd5b3480156100ec57600080fd5b506100f56104d5565b6040518080602001828103825283818151815260200191508051906020019060200280838360005b8381101561013857808201518184015260208101905061011d565b505050509050019250505060405180910390f35b34801561015857600080fd5b5061018d600480360381019080803573ffffffffffffffffffffffffffffffffffffffff169060200190929190505050610563565b005b34801561019b57600080fd5b506101a4610735565b005b3480156101b257600080fd5b506101d160048036038101908080359060200190929190505050610ab3565b604051808273ffffffffffffffffffffffffffffffffffffffff1673ffffffffffffffffffffffffffffffffffffffff16815260200191505060405180910390f35b34801561021f57600080fd5b50610228610af1565b005b34801561023657600080fd5b5061026b600480360381019080803573ffffffffffffffffffffffffffffffffffffffff169060200190929190505050610c2c565b604051808215151515815260200191505060405180910390f35b34801561029157600080fd5b5061029a610ccf565b604051808381526020018260030b60030b81526020019250505060405180910390f35b3480156102c957600080fd5b506102d2610cf3565b604051808273ffffffffffffffffffffffffffffffffffffffff1673ffffffffffffffffffffffffffffffffffffffff16815260200191505060405180910390f35b34801561032057600080fd5b50610329610d1c565b604051808215151515815260200191505060405180910390f35b34801561034f57600080fd5b50610384600480360381019080803573ffffffffffffffffffffffffffffffffffffffff169060200190929190505050610d73565b005b34801561039257600080fd5b506103c7600480360381019080803573ffffffffffffffffffffffffffffffffffffffff16906020019092919050505061105a565b6040518082815260200191505060405180910390f35b3480156103e957600080fd5b506103f2611072565b604051808381526020018260030b60030b81526020019250505060405180910390f35b34801561042157600080fd5b5061044d60048036038101908080359060200190929190803560030b9060200190929190505050611091565b005b34801561045b57600080fd5b50610490600480360381019080803573ffffffffffffffffffffffffffffffffffffffff169060200190929190505050611142565b005b34801561049e57600080fd5b506104d3600480360381019080803573ffffffffffffffffffffffffffffffffffffffff169060200190929190505050611227565b005b6060600180548060200260200160405190810160405280929190818152602001828054801561055957602002820191906000526020600020905b8160009054906101000a900473ffffffffffffffffffffffffffffffffffffffff1673ffffffffffffffffffffffffffffffffffffffff168152602001906001019080831161050f575b5050505050905090565b600061056d610d1c565b15156105e1576040517f08c379a00000000000000000000000000000000000000000000000000000000081526004018080602001828103825260208152602001807f4f776e61626c653a2063616c6c6572206973206e6f7420746865206f776e657281525060200191505060405180910390fd5b600090505b600180549050811015610730578173ffffffffffffffffffffffffffffffffffffffff1660018281548110151561061957fe5b9060005260206000200160009054906101000a900473ffffffffffffffffffffffffffffffffffffffff1673ffffffffffffffffffffffffffffffffffffffff161415610723576001808054905003811415156107085760018080805490500381548110151561068557fe5b9060005260206000200160009054906101000a900473ffffffffffffffffffffffffffffffffffffffff166001828154811015156106bf57fe5b9060005260206000200160006101000a81548173ffffffffffffffffffffffffffffffffffffffff021916908373ffffffffffffffffffffffffffffffffffffffff1602179055505b600180548091906001900361071d9190611438565b50610731565b80806001019150506105e6565b5b5050565b6000806000610742610d1c565b15156107b6576040517f08c379a00000000000000000000000000000000000000000000000000000000081526004018080602001828103825260208152602001807f4f776e61626c653a2063616c6c6572206973206e6f7420746865206f776e657281525060200191505060405180910390fd5b600092505b600180549050831015610aae57600260006001858154811015156107db57fe5b9060005260206000200160009054906101000a900473ffffffffffffffffffffffffffffffffffffffff1673ffffffffffffffffffffffffffffffffffffffff1673ffffffffffffffffffffffffffffffffffffffff1681526020019081526020016000205491506000821115610aa15760006002600060018681548110151561086157fe5b9060005260206000200160009054906101000a900473ffffffffffffffffffffffffffffffffffffffff1673ffffffffffffffffffffffffffffffffffffffff1673ffffffffffffffffffffffffffffffffffffffff168152602001908152602001600020819055506001838154811015156108d957fe5b9060005260206000200160009054906101000a900473ffffffffffffffffffffffffffffffffffffffff169050600073ffffffffffffffffffffffffffffffffffffffff1660018481548110151561092d57fe5b9060005260206000200160009054906101000a900473ffffffffffffffffffffffffffffffffffffffff1673ffffffffffffffffffffffffffffffffffffffff1614156109c0573373ffffffffffffffffffffffffffffffffffffffff166108fc839081150290604051600060405180830381858888f193505050501580156109ba573d6000803e3d6000fd5b50610aa0565b8073ffffffffffffffffffffffffffffffffffffffff1663a9059cbb33846040518363ffffffff167c0100000000000000000000000000000000000000000000000000000000028152600401808373ffffffffffffffffffffffffffffffffffffffff1673ffffffffffffffffffffffffffffffffffffffff16815260200182815260200192505050602060405180830381600087803b158015610a6357600080fd5b505af1158015610a77573d6000803e3d6000fd5b505050506040513d6020811015610a8d57600080fd5b8101908080519060200190929190505050505b5b82806001019350506107bb565b505050565b600181815481101515610ac257fe5b906000526020600020016000915054906101000a900473ffffffffffffffffffffffffffffffffffffffff1681565b610af9610d1c565b1515610b6d576040517f08c379a00000000000000000000000000000000000000000000000000000000081526004018080602001828103825260208152602001807f4f776e61626c653a2063616c6c6572206973206e6f7420746865206f776e657281525060200191505060405180910390fd5b600073ffffffffffffffffffffffffffffffffffffffff166000809054906101000a900473ffffffffffffffffffffffffffffffffffffffff1673ffffffffffffffffffffffffffffffffffffffff167f8be0079c531659141344cd1fd0a4f28419497f9722a3daafe3b4186f6b6457e060405160405180910390a360008060006101000a81548173ffffffffffffffffffffffffffffffffffffffff021916908373ffffffffffffffffffffffffffffffffffffffff160217905550565b600080600090505b600180549050811015610cc4578273ffffffffffffffffffffffffffffffffffffffff16600182815481101515610c6757fe5b9060005260206000200160009054906101000a900473ffffffffffffffffffffffffffffffffffffffff1673ffffffffffffffffffffffffffffffffffffffff161415610cb75760019150610cc9565b8080600101915050610c34565b600091505b50919050565b600080600360000154600360010160009054906101000a900460030b915091509091565b60008060009054906101000a900473ffffffffffffffffffffffffffffffffffffffff16905090565b60008060009054906101000a900473ffffffffffffffffffffffffffffffffffffffff1673ffffffffffffffffffffffffffffffffffffffff163373ffffffffffffffffffffffffffffffffffffffff1614905090565b600080610d7e610d1c565b1515610df2576040517f08c379a00000000000000000000000000000000000000000000000000000000081526004018080602001828103825260208152602001807f4f776e61626c653a2063616c6c6572206973206e6f7420746865206f776e657281525060200191505060405180910390fd5b600260008473ffffffffffffffffffffffffffffffffffffffff1673ffffffffffffffffffffffffffffffffffffffff168152602001908152602001600020549150600082111515610eac576040517f08c379a00000000000000000000000000000000000000000000000000000000081526004018080602001828103825260128152602001807f4974277320656d7074792062616c616e6365000000000000000000000000000081525060200191505060405180910390fd5b6000600260008573ffffffffffffffffffffffffffffffffffffffff1673ffffffffffffffffffffffffffffffffffffffff16815260200190815260200160002081905550829050600073ffffffffffffffffffffffffffffffffffffffff168373ffffffffffffffffffffffffffffffffffffffff161415610f75573373ffffffffffffffffffffffffffffffffffffffff166108fc839081150290604051600060405180830381858888f19350505050158015610f6f573d6000803e3d6000fd5b50611055565b8073ffffffffffffffffffffffffffffffffffffffff1663a9059cbb33846040518363ffffffff167c0100000000000000000000000000000000000000000000000000000000028152600401808373ffffffffffffffffffffffffffffffffffffffff1673ffffffffffffffffffffffffffffffffffffffff16815260200182815260200192505050602060405180830381600087803b15801561101857600080fd5b505af115801561102c573d6000803e3d6000fd5b505050506040513d602081101561104257600080fd5b8101908080519060200190929190505050505b505050565b60026020528060005260406000206000915090505481565b60038060000154908060010160009054906101000a900460030b905082565b611099610d1c565b151561110d576040517f08c379a00000000000000000000000000000000000000000000000000000000081526004018080602001828103825260208152602001807f4f776e61626c653a2063616c6c6572206973206e6f7420746865206f776e657281525060200191505060405180910390fd5b8160036000018190555080600360010160006101000a81548163ffffffff021916908360030b63ffffffff1602179055505050565b61114a610d1c565b15156111be576040517f08c379a00000000000000000000000000000000000000000000000000000000081526004018080602001828103825260208152602001807f4f776e61626c653a2063616c6c6572206973206e6f7420746865206f776e657281525060200191505060405180910390fd5b60018190806001815401808255809150509060018203906000526020600020016000909192909190916101000a81548173ffffffffffffffffffffffffffffffffffffffff021916908373ffffffffffffffffffffffffffffffffffffffff1602179055505050565b61122f610d1c565b15156112a3576040517f08c379a00000000000000000000000000000000000000000000000000000000081526004018080602001828103825260208152602001807f4f776e61626c653a2063616c6c6572206973206e6f7420746865206f776e657281525060200191505060405180910390fd5b6112ac816112af565b50565b600073ffffffffffffffffffffffffffffffffffffffff168173ffffffffffffffffffffffffffffffffffffffff161415151561137a576040517f08c379a00000000000000000000000000000000000000000000000000000000081526004018080602001828103825260268152602001807f4f776e61626c653a206e6577206f776e657220697320746865207a65726f206181526020017f646472657373000000000000000000000000000000000000000000000000000081525060400191505060405180910390fd5b8073ffffffffffffffffffffffffffffffffffffffff166000809054906101000a900473ffffffffffffffffffffffffffffffffffffffff1673ffffffffffffffffffffffffffffffffffffffff167f8be0079c531659141344cd1fd0a4f28419497f9722a3daafe3b4186f6b6457e060405160405180910390a3806000806101000a81548173ffffffffffffffffffffffffffffffffffffffff021916908373ffffffffffffffffffffffffffffffffffffffff16021790555050565b81548183558181111561145f5781836000526020600020918201910161145e9190611464565b5b505050565b61148691905b8082111561148257600081600090555060010161146a565b5090565b905600a165627a7a72305820b70c5b482207eb01a4e763ac5312dd14aa31c06be34730e3a082f760d3791df30029",
  "source": "pragma solidity ^0.4.26;\nimport \"./SafeMath.sol\";\nimport \"./Ownable.sol\";\nimport \"./OptionsToken.sol\";\nimport \"./CompoundOracleInterface.sol\";\nimport \"./OptionsFormulas.sol\";\nimport \"./TransactionFee.sol\";\ncontract OptionsVault is TransactionFee\n{\n    using SafeMath for uint256;\n    enum OptionsType{\n        OptCall,\n        OptPut\n    }\n    struct OptionsInfo{\n        OptionsType\toptType;\n        //Collateral currency address. If this address equals 0, it means that it is Eth;\n        address\t\tcollateralCurrency;\n        //underlying assets type;\n        uint32\t\tunderlyingAssets;\n        uint256\t\texpiration;\n        uint256      strikePrice;\n        bool        isExercised;\n    }\n    // Keeps track of the OptionsWriter Info\n    struct OptionsWriter {\n        //Options wrter address;\n        address\t\twriter;\n        //collateral amount.\n        uint256\t\tcollateralAmount;\n        //mint optionsToken amount\n        uint256     OptionsTokenAmount;\n\n    }\n    struct IndexValue\n    {\n        uint keyIndex;\n        OptionsInfo options;\n        OptionsWriter[] writers;\n    }\n    struct KeyFlag { address key; bool deleted; }\n    mapping(address => IndexValue) internal optionsMap;\n    KeyFlag[] internal optionsTokenList;\n    uint internal size = 0;\n    function _insert(address key, \n                OptionsType optType,\n                address collateral,\n                uint32 underlyingAssets,\n                uint256 expiration,\n                uint256 strikePriceValue,\n                int32 strikePirceExponent) internal returns (bool replaced)\n    {\n        uint keyIndex = optionsMap[key].keyIndex;\n        optionsMap[key].options.optType = optType;\n        optionsMap[key].options.collateralCurrency = collateral;\n        optionsMap[key].options.underlyingAssets = underlyingAssets;\n        optionsMap[key].options.expiration = expiration;\n        optionsMap[key].options.strikePrice = strikePriceValue;\n        optionsMap[key].options.isExercised = false;\n        if (keyIndex > 0)\n            return true;\n        else\n        {\n            keyIndex = optionsTokenList.length++;\n            optionsMap[key].keyIndex = keyIndex + 1;\n            optionsTokenList[keyIndex].key = key;\n            size++;\n            return false;\n        }\n    }\n    function _insertWriter( address key, uint256 amount,uint256 mintOptTokenAmount) internal returns (bool){\n        OptionsWriter[] storage writers = optionsMap[key].writers;\n        uint256 index = writers.length;\n        for (uint256 i=0;i<writers.length;i++ ){\n            if (writers[i].writer == msg.sender){\n                index = i;\n                break;\n            }\n        }\n        if (index == writers.length){\n            optionsMap[key].writers.push(OptionsWriter(msg.sender,amount,mintOptTokenAmount));\n        }else{\n            optionsMap[key].writers[index].collateralAmount = optionsMap[key].writers[i].collateralAmount.add(amount);\n            optionsMap[key].writers[index].OptionsTokenAmount = optionsMap[key].writers[i].OptionsTokenAmount.add(mintOptTokenAmount);\n        }\n        return true;\n    }\n    function _remove(address key) internal returns (bool)\n    {\n        uint keyIndex = optionsMap[key].keyIndex;\n        if (keyIndex == 0)\n            return false;\n        delete optionsMap[key];\n        optionsTokenList[keyIndex - 1].deleted = true;\n        size --;\n        return true;\n    }\n    function _contains(address key) internal view returns (bool)\n    {\n        return optionsMap[key].keyIndex > 0;\n    }\n    function _iterate_start() internal view returns (uint)\n    {\n        return _iterate_next(uint(-1));\n    }\n    function _iterate_valid(uint keyIndex) internal view returns (bool)\n    {\n        return keyIndex < optionsTokenList.length;\n    }\n    function _iterate_next( uint keyIndex) internal view returns (uint)\n    {\n        keyIndex++;\n        while (keyIndex < optionsTokenList.length && optionsTokenList[keyIndex].deleted)\n            keyIndex++;\n        return keyIndex;\n    }\n}\ncontract OptionsModify is OptionsVault {\n    using SafeMath for uint256;\n\n\n}\ncontract OptionsManager is OptionsVault {\n\n\n    constructor() public {\n        \n    }\n    IOptFormulas internal _optionsFormulas;\n    ICompoundOracle internal _oracle;\n\n    // Number(10,-3) = 0.3%\n    Number public liquidationIncentive = Number(10, -3);\n    \n    event CreateOptions (address indexed collateral,address indexed tokenAddress, uint32 indexed underlyingAssets,uint256 strikePrice,uint256 expiration,uint8 optType);\n    event AddCollateral(address indexed optionsToken,uint256 indexed amount,uint256 mintOptionsTokenAmount);\n    event WithdrawCollateral(address indexed optionsToken,uint256 amount);\n    event Exercise(address indexed Sender,address indexed optionsToken);\n    event Liquidate(address indexed Sender,address indexed optionsToken,address indexed writer,uint256 amount);\n    event BurnOptionsToken(address indexed optionsToken,address indexed writer,uint256 amount);\n\n\n\n\n    //*******************getter***********************\n    function getOracleAddress() public view returns(address){\n        return address(_oracle);\n    }\n    function getFormulasAddress() public view returns(address){\n        return address(_optionsFormulas);\n    }\n    function getCollateralList()public view returns (address[]){\n        return getWhiteList();\n    }\n    function getLiquidationIncentive()public view returns (uint256,int32){\n        return (liquidationIncentive.value,liquidationIncentive.exponent);\n    }\n    //*******************setter***********************\n    function setOracleAddress(address oracle)public onlyOwner{\n        _oracle = ICompoundOracle(oracle);\n    }\n    function setFormulasAddress(address formulas)public onlyOwner{\n        _optionsFormulas = IOptFormulas(formulas);\n    }\n    function addCollateralCurrency(address tokenAddress)public onlyOwner{\n        addWhiteList(tokenAddress);\n    }\n    function removeCollateralCurrency(address tokenAddress)public onlyOwner{\n        removeWhiteList(tokenAddress);\n    }\n    function setLiquidationIncentive(uint256 value,int32 exponent)public onlyOwner{\n        liquidationIncentive.value = value;\n        liquidationIncentive.exponent = exponent;\n    }\n    /**\n        * @param collateral The collateral asset\n        * @param collExp The precision of the collateral (-18 if ETH)\n        */\n    function createOptionsToken(address collateral,\n    int32 collExp,\n    uint32 underlyingAssets,\n    uint256 strikePrice,\n    int32 strikeExp,\n    uint256 expiration,\n    uint8 optType)\n    public onlyOwner{\n        require(isCollateralCurrency(collateral) , \"It is unsupported token\");\n        address newToken = new OptionsToken(expiration,\"otoken\");\n        assert(newToken != 0);\n        _insert(newToken,OptionsType(optType),collateral,underlyingAssets,expiration,strikePrice,strikeExp);\n        emit CreateOptions(collateral,newToken,underlyingAssets,strikePrice,expiration,optType);\n        \n    }\n    function addCollateral(address optionsToken,address collateral,uint256 amount,uint256 mintOptionsTokenAmount)public payable{\n        require(_contains(optionsToken),\"This OptionsToken does not exist\");\n        require(!_isExpired(optionsMap[optionsToken]), \"This OptionsToken expired\");\n        require(optionsMap[optionsToken].options.collateralCurrency == collateral,\"Collateral currency type error\");\n\n        _mintOptionsToken(optionsToken,collateral,amount,mintOptionsTokenAmount);\n        emit AddCollateral(optionsToken,amount,mintOptionsTokenAmount);\n    }\n    function withdrawCollateral(address OptionsToken,uint256 amount)public{\n        require(_contains(OptionsToken),\"This OptionsToken does not exist\");\n        require(!_isExpired(optionsMap[OptionsToken]), \"This OptionsToken expired\");\n        OptionsWriter[] storage writers = optionsMap[OptionsToken].writers;\n        uint256 index = writers.length;\n        for (uint256 i=0;i<writers.length;i++){\n            if (writers[i].writer == msg.sender){\n                index = i;\n                break;\n            }\n        }\n        if (index != writers.length){\n            uint256 allCollateral = writers[index].collateralAmount.sub(amount);\n            uint256 allMintToken = writers[index].OptionsTokenAmount;\n            if (_isSufficientCollateral(optionsMap[OptionsToken].options,allCollateral,allMintToken)){\n                if (optionsMap[OptionsToken].options.collateralCurrency == address (0)){\n                    msg.sender.transfer(amount);\n                }else{\n                    IERC20 oToken = IERC20(optionsMap[OptionsToken].options.collateralCurrency);\n                    oToken.transfer(msg.sender,amount);\n                }\n                optionsMap[OptionsToken].writers[index].collateralAmount = allCollateral;\n                emit WithdrawCollateral(OptionsToken,amount);\n            }else{\n\n            }\n        }else{\n\n        }\n    }\n    function exercise()public{\n        for (uint keyIndex = _iterate_start();_iterate_valid(keyIndex);keyIndex = _iterate_next(keyIndex)){\n            IndexValue storage optionsItem = optionsMap[optionsTokenList[keyIndex].key];\n            _exercise(optionsTokenList[keyIndex].key,optionsItem);\n        }\n    }\n    function liquidate(address optionsToken,address writer,uint256 amount)public{\n        require(_contains(optionsToken),\"This OptionsToken does not exist\");\n        IndexValue storage optionsItem = optionsMap[optionsToken];\n        require(!_isExpired(optionsItem), \"OptionsToken expired\");\n        uint256 index = optionsItem.writers.length;\n        for(uint256 i=0;i<optionsItem.writers.length;i++){\n            if(optionsItem.writers[i].writer == writer){\n                index = i;\n                break;\n            }\n        }\n        if (index != optionsItem.writers.length) {\n            if( amount > optionsItem.writers[index].OptionsTokenAmount){\n                return;\n            }\n            if (_isSufficientCollateral(optionsItem.options,\n                optionsItem.writers[index].collateralAmount,\n                optionsItem.writers[index].OptionsTokenAmount)){\n                return;\n            }\n            IERC20 optToken = IERC20(optionsToken);\n            optToken.transferFrom(msg.sender, address(this), amount);\n            uint256 tokenPrice = _oracle.getOptionsPrice(optionsToken);\n            uint256 _payback = tokenPrice.mul(amount);\n            uint256 price = _oracle.getPrice(optionsItem.options.collateralCurrency);\n            _payback = _payback.div(price);\n            uint256 incentive = _calNumberMulUint(liquidationIncentive,_payback);\n            _payback = _payback.add(incentive);\n            uint256 _transFee;\n            (_payback,_transFee) = _calSufficientPayback(_payback,optionsItem.writers[i].collateralAmount);\n            optionsItem.writers[index].collateralAmount = optionsItem.writers[index].collateralAmount.sub(_payback);\n            optionsItem.writers[index].collateralAmount = optionsItem.writers[index].collateralAmount.sub(_transFee);\n            managerFee[optionsItem.options.collateralCurrency] = managerFee[optionsItem.options.collateralCurrency].add(_transFee);\n            optionsItem.writers[index].OptionsTokenAmount = optionsItem.writers[index].OptionsTokenAmount.sub(amount);\n            //transfer\n            optToken.transfer(msg.sender,_payback);\n            IIterableToken itoken = IIterableToken(optionsToken);\n            itoken.burn(amount);\n            emit Liquidate(msg.sender,optionsToken,writer,amount);\n        }\n    }\n    function burnOptionsToken(address optionsToken,uint256 amount)public{\n       require(_contains(optionsToken),\"This OptionsToken does not exist\");\n        IndexValue storage optionsItem = optionsMap[optionsToken];\n        require(!_isExpired(optionsItem), \"OptionsToken expired\");\n        uint256 index = optionsItem.writers.length;\n        for(uint256 i=0;i<optionsItem.writers.length;i++){\n            if(optionsItem.writers[i].writer == msg.sender){\n                index = i;\n                break;\n            }\n        }\n        if (index != optionsItem.writers.length) {\n            if( amount > optionsItem.writers[index].OptionsTokenAmount){\n                return;\n            }\n            IERC20 optToken = IERC20(optionsToken);\n            optToken.transferFrom(msg.sender, address(this), amount);\n            optionsItem.writers[index].OptionsTokenAmount = optionsItem.writers[index].OptionsTokenAmount.sub(amount);\n            //burn\n            IIterableToken itoken = IIterableToken(optionsToken);\n            itoken.burn(amount);\n            emit BurnOptionsToken(optionsToken,msg.sender,amount);\n        }\n    }\n    function redeem(address collateral)public onlyOwner{\n        uint256 fee = managerFee[collateral];\n        require (fee > 0, \"It's empty balance\");\n        managerFee[collateral] = 0;\n        IERC20 collateralToken = IERC20(collateral);\n        if (isETH(collateralToken)){\n            msg.sender.transfer(fee);\n        }else{\n            collateralToken.transfer(msg.sender,fee);\n        }\n    }\n\n    function isETH(IERC20 _ierc20) public pure returns (bool) {\n        return _ierc20 == IERC20(0);\n    }\n    function isCollateralCurrency(address _collateral) public view returns (bool){\n        return isEligibleAddress(_collateral);\n    }\n    function _exercise(address tokenAddress,IndexValue storage optionsItem)internal {\n        if (!_isExpired(optionsItem)  || _isExercised(optionsItem)) {\n            return;\n        }\n\n        optionsItem.options.isExercised = true;\n        //calculate tokenPayback\n        uint256 tokenPayback = _calExerciseTokenPayback(optionsItem);\n         if (tokenPayback == 0 ){\n            return;\n        }\n       //calculate balance pay back\n        IIterableToken iterToken = IIterableToken(tokenAddress);\n        IERC20 collateralToken = IERC20(optionsItem.options.collateralCurrency);\n        for (uint keyIndex = iterToken.iterate_balance_start();\n            iterToken.iterate_balance_valid(keyIndex);\n            keyIndex = iterToken.iterate_balance_next(keyIndex)){\n            address addr;\n            uint256 balance;\n            (addr,balance) = iterToken.iterate_balance_get(keyIndex);\n            uint256 _payback = balance.mul(tokenPayback);\n            if (isETH(collateralToken)){\n                addr.transfer(_payback);\n            }else{\n                collateralToken.transfer(addr,_payback);\n            }\n        }\n        emit Exercise(msg.sender,tokenAddress);\n    }\n    function _calExerciseTokenPayback(IndexValue storage optionsItem) internal returns (uint256){\n        //calculate tokenPayback\n        uint256 underlyingPrice = _oracle.getUnderlyingPrice(optionsItem.options.underlyingAssets);\n        uint256 tokenPayback = 0;\n        if (optionsItem.options.optType == OptionsType.OptCall){\n            if (underlyingPrice > optionsItem.options.strikePrice){\n                tokenPayback = underlyingPrice.sub(optionsItem.options.strikePrice);\n            }\n        }else{\n            if ( underlyingPrice < optionsItem.options.strikePrice){\n                tokenPayback = optionsItem.options.strikePrice.sub(underlyingPrice);\n            }\n        }\n        if (tokenPayback == 0 ){\n            return;\n        }\n        uint256 collateralPrice = _oracle.getPrice(optionsItem.options.collateralCurrency);\n        assert(collateralPrice>0);\n        //calculate all pay back collateral and transactionFee\n        uint256 allPayback = 0;\n        uint256 allTransFee = 0;\n        uint256 totalSuply = 0;\n        for(uint256 i=0;i<optionsItem.writers.length;i++){\n            uint256 _payback = tokenPayback.mul(optionsItem.writers[i].OptionsTokenAmount);\n            _payback = _payback.div(collateralPrice);\n            uint256 _transFee;\n            (_payback,_transFee) = _calSufficientPayback(_payback,optionsItem.writers[i].collateralAmount);\n            uint256 bothPay = _payback.add(_transFee);\n            optionsItem.writers[i].collateralAmount = optionsItem.writers[i].collateralAmount.sub(bothPay);\n            allPayback = allPayback.add(_payback);\n            allTransFee = allTransFee.add(_transFee);\n            totalSuply = totalSuply.add(optionsItem.writers[i].OptionsTokenAmount);\n        }\n        //assert iterToken.gettotalsuply != totalsuply\n        managerFee[optionsItem.options.collateralCurrency] =\n            managerFee[optionsItem.options.collateralCurrency].add(allTransFee);\n        tokenPayback = allPayback.div(totalSuply);    \n        return tokenPayback;\n    }\n    function _mintOptionsToken(address optionsToken,address collateral,uint256 amount,uint256 mintOptionsTokenAmount)private returns(bool){\n        uint256 allCollateral = 0;\n        uint256 allMintToken = 0;\n        OptionsWriter[] storage writers = optionsMap[optionsToken].writers;\n        uint256 index = writers.length;\n        for (uint256 i=0;i<writers.length;i++){\n            if (writers[i].writer == msg.sender){\n                index = i;\n                break;\n            }\n        }\n        if(index != writers.length){\n            allCollateral = writers[index].collateralAmount;\n            allMintToken = writers[index].OptionsTokenAmount;\n        }\n        allMintToken = allMintToken.add(mintOptionsTokenAmount);\n\n        if (collateral == address(0)){\n            require(msg.value > 0,\"Must transfer some coins\");\n            allCollateral = allCollateral.add(msg.value);\n        }else{\n            IERC20 oToken = IERC20(collateral);\n            oToken.transferFrom(msg.sender, address(this), amount);\n            allCollateral = allCollateral.add(amount);\n        }\n        if (_isSufficientCollateral(optionsMap[optionsToken].options,allCollateral,allMintToken)){\n            if (index == writers.length){\n                optionsMap[optionsToken].writers.push(OptionsWriter(msg.sender,allCollateral,allMintToken));\n            }else{\n                optionsMap[optionsToken].writers[index].collateralAmount = allCollateral;\n                optionsMap[optionsToken].writers[index].OptionsTokenAmount = allMintToken;\n            }\n            //mint\n            IIterableToken itoken = IIterableToken(optionsToken);\n            itoken.mint(msg.sender,amount);\n\n        }else{\n            return false;\n        }\n        return true;\n    }\n    function _burnOptionsToken(address OptionsToken,uint256 burnOptionsTokenAmount)private returns(bool){\n        uint256 allCollateral = 0;\n        uint256 allMintToken = 0;\n        OptionsWriter[] storage writers = optionsMap[OptionsToken].writers;\n        uint256 index = writers.length;\n        for (uint256 i=0;i<writers.length;i++){\n            if (writers[i].writer == msg.sender){\n                index = i;\n                break;\n            }\n        }\n        if(index!= writers.length){\n            allCollateral = writers[index].collateralAmount;\n            allMintToken = writers[index].OptionsTokenAmount;\n        }else{\n            return false;\n        }\n        allMintToken = allMintToken.sub(burnOptionsTokenAmount);\n\n        if (_isSufficientCollateral(optionsMap[OptionsToken].options,allCollateral,allMintToken)){\n            optionsMap[OptionsToken].writers[index].collateralAmount = allCollateral;\n            optionsMap[OptionsToken].writers[index].OptionsTokenAmount = allMintToken;\n        }else{\n            return false;\n        }\n        return true;\n    }\n    function _calSufficientPayback(uint256 payback,uint256 colleteralAmount)internal view returns(uint256,uint256){\n        uint256 _transFee = _calNumberMulUint(transactionFee,payback);\n        uint256 bothPay = payback.add(_transFee);\n        if (bothPay>colleteralAmount){\n            bothPay = colleteralAmount;\n            _transFee = _calNumberMulUint(transactionFee,bothPay);\n            payback = bothPay.sub(_transFee);\n        }\n        return (payback,_transFee);\n    }\n    function _isSufficientCollateral(OptionsInfo storage options,uint256 allCollateral,uint256 allMintToken) internal view returns (bool){\n        uint256 collateralValue = _calCollateralValue(options.collateralCurrency,allCollateral);\n        uint256 underlyingPrice = _oracle.getUnderlyingPrice(options.underlyingAssets);\n        uint256 needCollateral = 0;\n        if (options.optType == OptionsType.OptCall){\n            needCollateral = _optionsFormulas.callCollateralPrice(options.strikePrice,underlyingPrice);\n            needCollateral = needCollateral.mul(allMintToken);\n            if (needCollateral > collateralValue){\n                return false;\n            }\n        }else{\n            needCollateral = _optionsFormulas.putCollateralPrice(options.strikePrice,underlyingPrice);\n            needCollateral = needCollateral.mul(allMintToken);\n            if (needCollateral > collateralValue){\n                return false;\n            }\n        }\n        return true;\n    }\n\n    function _calCollateralValue(address collateral,uint256 amount)internal view returns(uint256){\n        uint256 price = _oracle.getPrice(collateral);\n        uint256 value = amount.mul(price);\n        return value;\n    }\n    function _calNumberMulUint(Number number,uint256 value) internal pure returns (uint256){\n        uint256 result = number.value.mul(value);\n        if (number.exponent > 0) {\n            result = result.mul(10**uint256(number.exponent));\n        } else {\n            result = result.div(10**uint256(-1*number.exponent));\n        }\n        return result;\n    }\n    function _isExpired(IndexValue storage optionsItem) internal view returns (bool){\n        return optionsItem.options.expiration<now;\n    }\n    function _isExercised(IndexValue storage optionsItem) internal view returns (bool){\n        return optionsItem.options.isExercised;\n    }\n}\n",
  "sourcePath": "C:\\work\\solidity\\OptionsContract\\contracts\\ManagerContract.sol",
  "compiler": {
    "name": "solc",
    "version": "0.4.26+commit.4563c3fc.Emscripten.clang"
  },
  "schemaVersion": "3.1.0",
  "updatedAt": "2020-05-22T07:46:34.694Z",
  "devdoc": {
    "methods": {
      "addWhiteList(address)": {
        "details": "Implementation of add an eligible address into the whitelist.\r",
        "params": {
          "addAddress": "new eligible address.\r"
        }
      },
      "getTransactionFee()": {
        "details": "Returns the rate of trasaction fee.\r"
      },
      "getWhiteList()": {
        "details": "Implementation of getting the eligible whitelist.\r"
      },
      "isEligibleAddress(address)": {
        "details": "Implementation of testing whether the input address is eligible.\r",
        "params": {
          "tmpAddress": "input address for testing.\r"
        }
      },
      "isOwner()": {
        "details": "Returns true if the caller is the current owner."
      },
      "owner()": {
        "details": "Returns the address of the current owner."
      },
      "removeWhiteList(address)": {
        "details": "Implementation of revoke an invalid address from the whitelist.\r",
        "params": {
          "removeAddress": "revoked address.\r"
        }
      },
      "renounceOwnership()": {
        "details": "Leaves the contract without owner. It will not be possible to call `onlyOwner` functions anymore. Can only be called by the current owner.     * NOTE: Renouncing ownership will leave the contract without an owner, thereby removing any functionality that is only available to the owner."
      },
      "setTransactionFee(uint256,int32)": {
        "details": "set the rate of trasaction fee.\r",
        "params": {
          "exponent": "the exponent figures of transaction fee.\r transaction fee = Number(value,exponent);\r",
          "value": "the significant figures of transaction fee .\r"
        }
      },
      "transferOwnership(address)": {
        "details": "Transfers ownership of the contract to a new account (`newOwner`). Can only be called by the current owner."
      }
    }
  },
  "userdoc": {
    "methods": {}
  }
}