{
  "contractName": "OptionsFormulas",
  "abi": [
    {
      "constant": false,
      "inputs": [],
      "name": "renounceOwnership",
      "outputs": [],
      "payable": false,
      "stateMutability": "nonpayable",
      "type": "function"
    },
    {
      "constant": true,
      "inputs": [],
      "name": "owner",
      "outputs": [
        {
          "name": "",
          "type": "address"
        }
      ],
      "payable": false,
      "stateMutability": "view",
      "type": "function"
    },
    {
      "constant": true,
      "inputs": [],
      "name": "isOwner",
      "outputs": [
        {
          "name": "",
          "type": "bool"
        }
      ],
      "payable": false,
      "stateMutability": "view",
      "type": "function"
    },
    {
      "constant": true,
      "inputs": [],
      "name": "callCollateral",
      "outputs": [
        {
          "components": [
            {
              "name": "value",
              "type": "int256"
            },
            {
              "name": "exponent",
              "type": "int32"
            }
          ],
          "name": "lowerLimit",
          "type": "tuple"
        },
        {
          "components": [
            {
              "name": "value",
              "type": "int256"
            },
            {
              "name": "exponent",
              "type": "int32"
            }
          ],
          "name": "lowerDemarcation",
          "type": "tuple"
        },
        {
          "components": [
            {
              "name": "value",
              "type": "int256"
            },
            {
              "name": "exponent",
              "type": "int32"
            }
          ],
          "name": "upperDemarcation",
          "type": "tuple"
        },
        {
          "components": [
            {
              "components": [
                {
                  "name": "value",
                  "type": "int256"
                },
                {
                  "name": "exponent",
                  "type": "int32"
                }
              ],
              "name": "strikeSlope",
              "type": "tuple"
            },
            {
              "components": [
                {
                  "name": "value",
                  "type": "int256"
                },
                {
                  "name": "exponent",
                  "type": "int32"
                }
              ],
              "name": "priceSlope",
              "type": "tuple"
            }
          ],
          "name": "lowerSegment",
          "type": "tuple"
        },
        {
          "components": [
            {
              "components": [
                {
                  "name": "value",
                  "type": "int256"
                },
                {
                  "name": "exponent",
                  "type": "int32"
                }
              ],
              "name": "strikeSlope",
              "type": "tuple"
            },
            {
              "components": [
                {
                  "name": "value",
                  "type": "int256"
                },
                {
                  "name": "exponent",
                  "type": "int32"
                }
              ],
              "name": "priceSlope",
              "type": "tuple"
            }
          ],
          "name": "midSegment",
          "type": "tuple"
        },
        {
          "components": [
            {
              "components": [
                {
                  "name": "value",
                  "type": "int256"
                },
                {
                  "name": "exponent",
                  "type": "int32"
                }
              ],
              "name": "strikeSlope",
              "type": "tuple"
            },
            {
              "components": [
                {
                  "name": "value",
                  "type": "int256"
                },
                {
                  "name": "exponent",
                  "type": "int32"
                }
              ],
              "name": "priceSlope",
              "type": "tuple"
            }
          ],
          "name": "upperSegment",
          "type": "tuple"
        }
      ],
      "payable": false,
      "stateMutability": "view",
      "type": "function"
    },
    {
      "constant": true,
      "inputs": [],
      "name": "putCollateral",
      "outputs": [
        {
          "components": [
            {
              "name": "value",
              "type": "int256"
            },
            {
              "name": "exponent",
              "type": "int32"
            }
          ],
          "name": "lowerLimit",
          "type": "tuple"
        },
        {
          "components": [
            {
              "name": "value",
              "type": "int256"
            },
            {
              "name": "exponent",
              "type": "int32"
            }
          ],
          "name": "lowerDemarcation",
          "type": "tuple"
        },
        {
          "components": [
            {
              "name": "value",
              "type": "int256"
            },
            {
              "name": "exponent",
              "type": "int32"
            }
          ],
          "name": "upperDemarcation",
          "type": "tuple"
        },
        {
          "components": [
            {
              "components": [
                {
                  "name": "value",
                  "type": "int256"
                },
                {
                  "name": "exponent",
                  "type": "int32"
                }
              ],
              "name": "strikeSlope",
              "type": "tuple"
            },
            {
              "components": [
                {
                  "name": "value",
                  "type": "int256"
                },
                {
                  "name": "exponent",
                  "type": "int32"
                }
              ],
              "name": "priceSlope",
              "type": "tuple"
            }
          ],
          "name": "lowerSegment",
          "type": "tuple"
        },
        {
          "components": [
            {
              "components": [
                {
                  "name": "value",
                  "type": "int256"
                },
                {
                  "name": "exponent",
                  "type": "int32"
                }
              ],
              "name": "strikeSlope",
              "type": "tuple"
            },
            {
              "components": [
                {
                  "name": "value",
                  "type": "int256"
                },
                {
                  "name": "exponent",
                  "type": "int32"
                }
              ],
              "name": "priceSlope",
              "type": "tuple"
            }
          ],
          "name": "midSegment",
          "type": "tuple"
        },
        {
          "components": [
            {
              "components": [
                {
                  "name": "value",
                  "type": "int256"
                },
                {
                  "name": "exponent",
                  "type": "int32"
                }
              ],
              "name": "strikeSlope",
              "type": "tuple"
            },
            {
              "components": [
                {
                  "name": "value",
                  "type": "int256"
                },
                {
                  "name": "exponent",
                  "type": "int32"
                }
              ],
              "name": "priceSlope",
              "type": "tuple"
            }
          ],
          "name": "upperSegment",
          "type": "tuple"
        }
      ],
      "payable": false,
      "stateMutability": "view",
      "type": "function"
    },
    {
      "constant": false,
      "inputs": [
        {
          "name": "newOwner",
          "type": "address"
        }
      ],
      "name": "transferOwnership",
      "outputs": [],
      "payable": false,
      "stateMutability": "nonpayable",
      "type": "function"
    },
    {
      "inputs": [],
      "payable": false,
      "stateMutability": "nonpayable",
      "type": "constructor"
    },
    {
      "anonymous": false,
      "inputs": [
        {
          "indexed": true,
          "name": "previousOwner",
          "type": "address"
        },
        {
          "indexed": true,
          "name": "newOwner",
          "type": "address"
        }
      ],
      "name": "OwnershipTransferred",
      "type": "event"
    },
    {
      "constant": true,
      "inputs": [],
      "name": "getCallLowerDemarcation",
      "outputs": [
        {
          "name": "",
          "type": "int256"
        },
        {
          "name": "",
          "type": "int32"
        }
      ],
      "payable": false,
      "stateMutability": "view",
      "type": "function"
    },
    {
      "constant": true,
      "inputs": [],
      "name": "getCallUpperDemarcation",
      "outputs": [
        {
          "name": "",
          "type": "int256"
        },
        {
          "name": "",
          "type": "int32"
        }
      ],
      "payable": false,
      "stateMutability": "view",
      "type": "function"
    },
    {
      "constant": true,
      "inputs": [],
      "name": "getCallLowerLimit",
      "outputs": [
        {
          "name": "",
          "type": "int256"
        },
        {
          "name": "",
          "type": "int32"
        }
      ],
      "payable": false,
      "stateMutability": "view",
      "type": "function"
    },
    {
      "constant": true,
      "inputs": [],
      "name": "getCallLowerSegment",
      "outputs": [
        {
          "name": "",
          "type": "int256"
        },
        {
          "name": "",
          "type": "int32"
        },
        {
          "name": "",
          "type": "int256"
        },
        {
          "name": "",
          "type": "int32"
        }
      ],
      "payable": false,
      "stateMutability": "view",
      "type": "function"
    },
    {
      "constant": true,
      "inputs": [],
      "name": "getCallMidSegment",
      "outputs": [
        {
          "name": "",
          "type": "int256"
        },
        {
          "name": "",
          "type": "int32"
        },
        {
          "name": "",
          "type": "int256"
        },
        {
          "name": "",
          "type": "int32"
        }
      ],
      "payable": false,
      "stateMutability": "view",
      "type": "function"
    },
    {
      "constant": true,
      "inputs": [],
      "name": "getCallUpperSegment",
      "outputs": [
        {
          "name": "",
          "type": "int256"
        },
        {
          "name": "",
          "type": "int32"
        },
        {
          "name": "",
          "type": "int256"
        },
        {
          "name": "",
          "type": "int32"
        }
      ],
      "payable": false,
      "stateMutability": "view",
      "type": "function"
    },
    {
      "constant": true,
      "inputs": [],
      "name": "getPutLowerDemarcation",
      "outputs": [
        {
          "name": "",
          "type": "int256"
        },
        {
          "name": "",
          "type": "int32"
        }
      ],
      "payable": false,
      "stateMutability": "view",
      "type": "function"
    },
    {
      "constant": true,
      "inputs": [],
      "name": "getPutUpperDemarcation",
      "outputs": [
        {
          "name": "",
          "type": "int256"
        },
        {
          "name": "",
          "type": "int32"
        }
      ],
      "payable": false,
      "stateMutability": "view",
      "type": "function"
    },
    {
      "constant": true,
      "inputs": [],
      "name": "getPutLowerLimit",
      "outputs": [
        {
          "name": "",
          "type": "int256"
        },
        {
          "name": "",
          "type": "int32"
        }
      ],
      "payable": false,
      "stateMutability": "view",
      "type": "function"
    },
    {
      "constant": true,
      "inputs": [],
      "name": "getPutLowerSegment",
      "outputs": [
        {
          "name": "",
          "type": "int256"
        },
        {
          "name": "",
          "type": "int32"
        },
        {
          "name": "",
          "type": "int256"
        },
        {
          "name": "",
          "type": "int32"
        }
      ],
      "payable": false,
      "stateMutability": "view",
      "type": "function"
    },
    {
      "constant": true,
      "inputs": [],
      "name": "getPutMidSegment",
      "outputs": [
        {
          "name": "",
          "type": "int256"
        },
        {
          "name": "",
          "type": "int32"
        },
        {
          "name": "",
          "type": "int256"
        },
        {
          "name": "",
          "type": "int32"
        }
      ],
      "payable": false,
      "stateMutability": "view",
      "type": "function"
    },
    {
      "constant": true,
      "inputs": [],
      "name": "getPutUpperSegment",
      "outputs": [
        {
          "name": "",
          "type": "int256"
        },
        {
          "name": "",
          "type": "int32"
        },
        {
          "name": "",
          "type": "int256"
        },
        {
          "name": "",
          "type": "int32"
        }
      ],
      "payable": false,
      "stateMutability": "view",
      "type": "function"
    },
    {
      "constant": false,
      "inputs": [
        {
          "name": "_value",
          "type": "int256"
        },
        {
          "name": "_exponent",
          "type": "int32"
        }
      ],
      "name": "setCallLowerDemarcation",
      "outputs": [],
      "payable": false,
      "stateMutability": "nonpayable",
      "type": "function"
    },
    {
      "constant": false,
      "inputs": [
        {
          "name": "_value",
          "type": "int256"
        },
        {
          "name": "_exponent",
          "type": "int32"
        }
      ],
      "name": "setCallUpperDemarcation",
      "outputs": [],
      "payable": false,
      "stateMutability": "nonpayable",
      "type": "function"
    },
    {
      "constant": false,
      "inputs": [
        {
          "name": "_value",
          "type": "int256"
        },
        {
          "name": "_exponent",
          "type": "int32"
        }
      ],
      "name": "setCallLowerLimit",
      "outputs": [],
      "payable": false,
      "stateMutability": "nonpayable",
      "type": "function"
    },
    {
      "constant": false,
      "inputs": [
        {
          "name": "_strikeSlopeValue",
          "type": "int256"
        },
        {
          "name": "_strickSlopeExponent",
          "type": "int32"
        },
        {
          "name": "_priceSlopeValue",
          "type": "int256"
        },
        {
          "name": "_priceSlopeExponent",
          "type": "int32"
        }
      ],
      "name": "setCallLowerSegment",
      "outputs": [],
      "payable": false,
      "stateMutability": "nonpayable",
      "type": "function"
    },
    {
      "constant": false,
      "inputs": [
        {
          "name": "_strikeSlopeValue",
          "type": "int256"
        },
        {
          "name": "_strickSlopeExponent",
          "type": "int32"
        },
        {
          "name": "_priceSlopeValue",
          "type": "int256"
        },
        {
          "name": "_priceSlopeExponent",
          "type": "int32"
        }
      ],
      "name": "setCallMidSegment",
      "outputs": [],
      "payable": false,
      "stateMutability": "nonpayable",
      "type": "function"
    },
    {
      "constant": false,
      "inputs": [
        {
          "name": "_strikeSlopeValue",
          "type": "int256"
        },
        {
          "name": "_strickSlopeExponent",
          "type": "int32"
        },
        {
          "name": "_priceSlopeValue",
          "type": "int256"
        },
        {
          "name": "_priceSlopeExponent",
          "type": "int32"
        }
      ],
      "name": "setCallUpperSegment",
      "outputs": [],
      "payable": false,
      "stateMutability": "nonpayable",
      "type": "function"
    },
    {
      "constant": false,
      "inputs": [
        {
          "name": "_value",
          "type": "int256"
        },
        {
          "name": "_exponent",
          "type": "int32"
        }
      ],
      "name": "setPutLowerDemarcation",
      "outputs": [],
      "payable": false,
      "stateMutability": "nonpayable",
      "type": "function"
    },
    {
      "constant": false,
      "inputs": [
        {
          "name": "_value",
          "type": "int256"
        },
        {
          "name": "_exponent",
          "type": "int32"
        }
      ],
      "name": "setPutUpperDemarcation",
      "outputs": [],
      "payable": false,
      "stateMutability": "nonpayable",
      "type": "function"
    },
    {
      "constant": false,
      "inputs": [
        {
          "name": "_value",
          "type": "int256"
        },
        {
          "name": "_exponent",
          "type": "int32"
        }
      ],
      "name": "setPutLowerLimit",
      "outputs": [],
      "payable": false,
      "stateMutability": "nonpayable",
      "type": "function"
    },
    {
      "constant": false,
      "inputs": [
        {
          "name": "_strikeSlopeValue",
          "type": "int256"
        },
        {
          "name": "_strickSlopeExponent",
          "type": "int32"
        },
        {
          "name": "_priceSlopeValue",
          "type": "int256"
        },
        {
          "name": "_priceSlopeExponent",
          "type": "int32"
        }
      ],
      "name": "setPutLowerSegment",
      "outputs": [],
      "payable": false,
      "stateMutability": "nonpayable",
      "type": "function"
    },
    {
      "constant": false,
      "inputs": [
        {
          "name": "_strikeSlopeValue",
          "type": "int256"
        },
        {
          "name": "_strickSlopeExponent",
          "type": "int32"
        },
        {
          "name": "_priceSlopeValue",
          "type": "int256"
        },
        {
          "name": "_priceSlopeExponent",
          "type": "int32"
        }
      ],
      "name": "setPutMidSegment",
      "outputs": [],
      "payable": false,
      "stateMutability": "nonpayable",
      "type": "function"
    },
    {
      "constant": false,
      "inputs": [
        {
          "name": "_strikeSlopeValue",
          "type": "int256"
        },
        {
          "name": "_strickSlopeExponent",
          "type": "int32"
        },
        {
          "name": "_priceSlopeValue",
          "type": "int256"
        },
        {
          "name": "_priceSlopeExponent",
          "type": "int32"
        }
      ],
      "name": "setPutUpperSegment",
      "outputs": [],
      "payable": false,
      "stateMutability": "nonpayable",
      "type": "function"
    },
    {
      "constant": true,
      "inputs": [
        {
          "name": "_strikePrice",
          "type": "uint256"
        },
        {
          "name": "_currentPrice",
          "type": "uint256"
        },
        {
          "name": "optType",
          "type": "uint8"
        }
      ],
      "name": "getCollateralPrice",
      "outputs": [
        {
          "name": "",
          "type": "uint256"
        }
      ],
      "payable": false,
      "stateMutability": "view",
      "type": "function"
    },
    {
      "constant": true,
      "inputs": [
        {
          "name": "_strikePrice",
          "type": "uint256"
        },
        {
          "name": "_currentPrice",
          "type": "uint256"
        }
      ],
      "name": "callCollateralPrice",
      "outputs": [
        {
          "name": "",
          "type": "uint256"
        }
      ],
      "payable": false,
      "stateMutability": "view",
      "type": "function"
    },
    {
      "constant": true,
      "inputs": [
        {
          "name": "_strikePrice",
          "type": "uint256"
        },
        {
          "name": "_currentPrice",
          "type": "uint256"
        }
      ],
      "name": "putCollateralPrice",
      "outputs": [
        {
          "name": "",
          "type": "uint256"
        }
      ],
      "payable": false,
      "stateMutability": "view",
      "type": "function"
    },
    {
      "constant": false,
      "inputs": [
        {
          "name": "expiration",
          "type": "uint256"
        },
        {
          "name": "optionsTokenName",
          "type": "string"
        }
      ],
      "name": "createNewToken",
      "outputs": [
        {
          "name": "",
          "type": "address"
        }
      ],
      "payable": false,
      "stateMutability": "nonpayable",
      "type": "function"
    }
  ],
  "bytecode": "0x608060405234801561001057600080fd5b5060008054600160a060020a0319163317808255604051600160a060020a039190911691907f8be0079c531659141344cd1fd0a4f28419497f9722a3daafe3b4186f6b6457e0908290a360408051908101604052806001815260200160011960030b81525060016000016000820151816000015560208201518160010160006101000a81548163ffffffff021916908360030b63ffffffff16021790555090505060408051908101604052806009815260200160001960030b81525060016002016000820151816000015560208201518160010160006101000a81548163ffffffff021916908360030b63ffffffff1602179055509050506040805190810160405280600d815260200160001960030b81525060016004016000820151816000015560208201518160010160006101000a81548163ffffffff021916908360030b63ffffffff160217905550905050604080519081016040528060008152602001600060030b81525060016006016000016000820151816000015560208201518160010160006101000a81548163ffffffff021916908360030b63ffffffff160217905550905050604080519081016040528064014b230ce4815260200160091960030b81525060016006016002016000820151816000015560208201518160010160006101000a81548163ffffffff021916908360030b63ffffffff16021790555090505060408051908101604052806005815260200160001960030b8152506001600a016000016000820151816000015560208201518160010160006101000a81548163ffffffff021916908360030b63ffffffff160217905550905050604080519081016040528060008152602001600060030b8152506001600a016002016000820151816000015560208201518160010160006101000a81548163ffffffff021916908360030b63ffffffff1602179055509050506040805190810160405280600719815260200160001960030b8152506001600e016000016000820151816000015560208201518160010160006101000a81548163ffffffff021916908360030b63ffffffff160217905550905050604080519081016040528060018152602001600060030b8152506001600e016002016000820151816000015560208201518160010160006101000a81548163ffffffff021916908360030b63ffffffff16021790555090505060408051908101604052806001815260200160011960030b81525060136000016000820151816000015560208201518160010160006101000a81548163ffffffff021916908360030b63ffffffff16021790555090505060408051908101604052806007815260200160001960030b81525060136002016000820151816000015560208201518160010160006101000a81548163ffffffff021916908360030b63ffffffff1602179055509050506040805190810160405280600b815260200160001960030b81525060136004016000820151816000015560208201518160010160006101000a81548163ffffffff021916908360030b63ffffffff1602179055509050506040805190810160405280600c815260200160001960030b81525060136006016000016000820151816000015560208201518160010160006101000a81548163ffffffff021916908360030b63ffffffff16021790555090505060408051908101604052806000198152602001600060030b81525060136006016002016000820151816000015560208201518160010160006101000a81548163ffffffff021916908360030b63ffffffff16021790555090505060408051908101604052806005815260200160001960030b8152506013600a016000016000820151816000015560208201518160010160006101000a81548163ffffffff021916908360030b63ffffffff160217905550905050604080519081016040528060008152602001600060030b8152506013600a016002016000820151816000015560208201518160010160006101000a81548163ffffffff021916908360030b63ffffffff16021790555090505060408051908101604052806402964619c7815260200160091960030b8152506013600e016000016000820151816000015560208201518160010160006101000a81548163ffffffff021916908360030b63ffffffff160217905550905050604080519081016040528064014b230ce319815260200160091960030b8152506013600e016002016000820151816000015560208201518160010160006101000a81548163ffffffff021916908360030b63ffffffff16021790555090505061381b806106b56000396000f300608060405260043610620001cd5763ffffffff7c0100000000000000000000000000000000000000000000000000000000600035041662f8c0d88114620001d257806309bf0aeb14620002025780630d7307741462000225578063121bcbd314620002525780633100efb514620002735780633b8f8c8514620002f05780634621fba6146200031d57806353076dec146200033e57806362b745cf14620003745780636541e880146200039557806370c6d11814620003dc578063715018a614620003f45780637e8db4cf146200040c5780637fc23984146200042d57806384dd5a7314620004455780638cde3f8714620004635780638da5cb5b146200047b5780638f32d59b146200049357806393d7e49614620004bf5780639ad6ab3d14620004d75780639b1a7ebf14620004ef578063a51e8c27146200053a578063a767741a1462000567578063b167cd051462000594578063babfcbe714620005ac578063bb619dce14620005c4578063c43e5ccb14620005e5578063c682c4021462000612578063c9e13d45146200062a578063e01a1fa51462000642578063e0a801a1146200066f578063f2fde38b1462000687578063f573d24214620006ab578063fc75ee5014620006c3575b600080fd5b348015620001df57600080fd5b50620001f0600435602435620006e7565b60408051918252519081900360200190f35b3480156200020f57600080fd5b506200022360043560243560030b620006fe565b005b3480156200023257600080fd5b5062000223600435602435600390810b9060443590606435900b62000775565b3480156200025f57600080fd5b506200022360043560243560030b62000802565b3480156200028057600080fd5b5060408051602060046024803582810135601f8101859004850286018501909652858552620002d4958335953695604494919390910191908190840183828082843750949750620008799650505050505050565b60408051600160a060020a039092168252519081900360200190f35b348015620002fd57600080fd5b5062000223600435602435600390810b9060443590606435900b62000a1d565b3480156200032a57600080fd5b506200022360043560243560030b62000aaa565b3480156200034b57600080fd5b506200035662000b21565b60408051928352600391820b90910b60208301528051918290030190f35b3480156200038157600080fd5b506200022360043560243560030b62000b2e565b348015620003a257600080fd5b50620003ad62000ba5565b60408051948552600393840b840b602086015284810192909252820b90910b6060830152519081900360800190f35b348015620003e957600080fd5b50620003ad62000bbe565b3480156200040157600080fd5b506200022362000bd7565b3480156200041957600080fd5b506200022360043560243560030b62000c7e565b3480156200043a57600080fd5b50620003ad62000cf5565b3480156200045257600080fd5b50620001f060043560243562000d0e565b3480156200047057600080fd5b506200035662000d1e565b3480156200048857600080fd5b50620002d462000d2c565b348015620004a057600080fd5b50620004ab62000d3b565b604080519115158252519081900360200190f35b348015620004cc57600080fd5b506200035662000d4c565b348015620004e457600080fd5b506200035662000d59565b348015620004fc57600080fd5b506200050762000d66565b604080519687526020870195909552858501939093526060850191909152608084015260a0830152519081900360c00190f35b3480156200054757600080fd5b5062000223600435602435600390810b9060443590606435900b62000e89565b3480156200057457600080fd5b5062000223600435602435600390810b9060443590606435900b62000f16565b348015620005a157600080fd5b506200035662000fa3565b348015620005b957600080fd5b506200050762000fb0565b348015620005d157600080fd5b506200022360043560243560030b620010d3565b348015620005f257600080fd5b5062000223600435602435600390810b9060443590606435900b62001144565b3480156200061f57600080fd5b50620003ad620011d1565b3480156200063757600080fd5b50620003ad620011ea565b3480156200064f57600080fd5b5062000223600435602435600390810b9060443590606435900b62001203565b3480156200067c57600080fd5b506200035662001290565b3480156200069457600080fd5b5062000223600160a060020a03600435166200129d565b348015620006b857600080fd5b50620003ad620012fb565b348015620006d057600080fd5b50620001f060043560243560ff6044351662001314565b6000620006f76001848462001346565b9392505050565b6200070862000d3b565b15156200074e576040805160e560020a62461bcd0281526020600482018190526024820152600080516020620037d0833981519152604482015290519081900360640190fd5b6013919091556014805460039290920b63ffffffff1663ffffffff19909216919091179055565b6200077f62000d3b565b1515620007c5576040805160e560020a62461bcd0281526020600482018190526024820152600080516020620037d0833981519152604482015290519081900360640190fd5b60219390935560228054600393840b63ffffffff90811663ffffffff1992831617909255602392909255602480549490930b169216919091179055565b6200080c62000d3b565b151562000852576040805160e560020a62461bcd0281526020600482018190526024820152600080516020620037d0833981519152604482015290519081900360640190fd5b6005919091556006805460039290920b63ffffffff1663ffffffff19909216919091179055565b600080838362000888620019b5565b828152604060208083018281528451928401929092528351606084019185019080838360005b83811015620008c8578181015183820152602001620008ae565b50505050905090810190601f168015620008f65780820380516001836020036101000a031916815260200191505b509350505050604051809103906000f08015801562000919573d6000803e3d6000fd5b50604080517fd0ebdbe70000000000000000000000000000000000000000000000000000000081523360048201529051919250600160a060020a0383169163d0ebdbe79160248082019260009290919082900301818387803b1580156200097f57600080fd5b505af115801562000994573d6000803e3d6000fd5b5050604080517ff2fde38b0000000000000000000000000000000000000000000000000000000081523360048201529051600160a060020a038516935063f2fde38b9250602480830192600092919082900301818387803b158015620009f957600080fd5b505af115801562000a0e573d6000803e3d6000fd5b505050508091505b5092915050565b62000a2762000d3b565b151562000a6d576040805160e560020a62461bcd0281526020600482018190526024820152600080516020620037d0833981519152604482015290519081900360640190fd5b601d93909355601e8054600393840b63ffffffff90811663ffffffff1992831617909255601f92909255602080549490930b169216919091179055565b62000ab462000d3b565b151562000afa576040805160e560020a62461bcd0281526020600482018190526024820152600080516020620037d0833981519152604482015290519081900360640190fd5b6017919091556018805460039290920b63ffffffff1663ffffffff19909216919091179055565b60155460165460030b9091565b62000b3862000d3b565b151562000b7e576040805160e560020a62461bcd0281526020600482018190526024820152600080516020620037d0833981519152604482015290519081900360640190fd5b6001919091556002805460039290920b63ffffffff1663ffffffff19909216919091179055565b600754600854600954600a54600392830b920b90919293565b601954601a54601b54601c54600392830b920b90919293565b62000be162000d3b565b151562000c27576040805160e560020a62461bcd0281526020600482018190526024820152600080516020620037d0833981519152604482015290519081900360640190fd5b60008054604051600160a060020a03909116907f8be0079c531659141344cd1fd0a4f28419497f9722a3daafe3b4186f6b6457e0908390a36000805473ffffffffffffffffffffffffffffffffffffffff19169055565b62000c8862000d3b565b151562000cce576040805160e560020a62461bcd0281526020600482018190526024820152600080516020620037d0833981519152604482015290519081900360640190fd5b6015919091556016805460039290920b63ffffffff1663ffffffff19909216919091179055565b602154602254602354602454600392830b920b90919293565b6000620006f76013848462001346565b6003805460045490910b9091565b600054600160a060020a031690565b600054600160a060020a0316331490565b60055460065460030b9091565b60135460145460030b9091565b6040805180820182526001548152600254600390810b810b810b6020808401919091528351808501855282548152600454830b830b830b81830152845180860186526005548152600654840b840b840b81840152855160808082018852600754828901908152600854870b870b870b6060808501919091529083528851808a018a526009548152600a54880b880b880b818801528387015288518083018a52600b54818b01908152600c54890b890b890b8284015281528951808b018b52600d548152600e54890b890b890b818901528188015289519283018a52600f54838b01908152601054890b890b890b928401929092529082528851808a019099526011548952601254870b870b90960b88860152938401969096529394909392909186565b62000e9362000d3b565b151562000ed9576040805160e560020a62461bcd0281526020600482018190526024820152600080516020620037d0833981519152604482015290519081900360640190fd5b601993909355601a8054600393840b63ffffffff90811663ffffffff1992831617909255601b92909255601c80549490930b169216919091179055565b62000f2062000d3b565b151562000f66576040805160e560020a62461bcd0281526020600482018190526024820152600080516020620037d0833981519152604482015290519081900360640190fd5b600b93909355600c8054600393840b63ffffffff90811663ffffffff1992831617909255600d92909255600e80549490930b169216919091179055565b60015460025460030b9091565b6040805180820182526013548152601454600390810b810b810b602080840191909152835180850185526015548152601654830b830b830b81830152845180860186526017548152601854840b840b840b81840152855160808082018852601954828901908152601a54870b870b870b6060808501919091529083528851808a018a52601b548152601c54880b880b880b818801528387015288518083018a52601d54818b01908152601e54890b890b890b8284015281528951808b018b52601f5481528754890b890b890b818901528188015289519283018a52602154838b01908152602254890b890b890b928401929092529082528851808a019099526023548952602454870b870b90960b88860152938401969096529394909392909186565b620010dd62000d3b565b151562001123576040805160e560020a62461bcd0281526020600482018190526024820152600080516020620037d0833981519152604482015290519081900360640190fd5b6003918255600480549190920b63ffffffff1663ffffffff19909116179055565b6200114e62000d3b565b151562001194576040805160e560020a62461bcd0281526020600482018190526024820152600080516020620037d0833981519152604482015290519081900360640190fd5b600f9390935560108054600393840b63ffffffff90811663ffffffff1992831617909255601192909255601280549490930b169216919091179055565b600f54601054601154601254600392830b920b90919293565b601d54601e54601f54602054600392830b920b90919293565b6200120d62000d3b565b151562001253576040805160e560020a62461bcd0281526020600482018190526024820152600080516020620037d0833981519152604482015290519081900360640190fd5b60079390935560088054600393840b63ffffffff90811663ffffffff1992831617909255600992909255600a80549490930b169216919091179055565b60175460185460030b9091565b620012a762000d3b565b1515620012ed576040805160e560020a62461bcd0281526020600482018190526024820152600080516020620037d0833981519152604482015290519081900360640190fd5b620012f88162001482565b50565b600b54600c54600d54600e54600392830b920b90919293565b600060ff82161562001332576200132c848462000d0e565b6200133e565b6200133e8484620006e7565b949350505050565b6040805180820190915260028401548152600380850154810b810b900b6020820152600090819081908190819081908190819062001385908b62001571565b955095508415156200139357fe5b6040805180820190915260048c0154815260058c0154600390810b810b900b6020820152620013c3908b62001571565b93509350821515620013d157fe5b83891115620013f257620013ea8b600e018b8b62001616565b96506200141e565b858911156200140b57620013ea8b600a018b8b62001616565b6200141b8b6006018b8b62001616565b96505b604080518082019091528b54815260018c0154600390810b810b900b60208201526200144b908b62001571565b915091508015156200145957fe5b8115156200146657600191505b8187101562001473578196505b50949998505050505050505050565b600160a060020a038116151562001509576040805160e560020a62461bcd02815260206004820152602660248201527f4f776e61626c653a206e6577206f776e657220697320746865207a65726f206160448201527f6464726573730000000000000000000000000000000000000000000000000000606482015290519081900360840190fd5b60008054604051600160a060020a03808516939216917f8be0079c531659141344cd1fd0a4f28419497f9722a3daafe3b4186f6b6457e091a36000805473ffffffffffffffffffffffffffffffffffffffff1916600160a060020a0392909216919091179055565b8151600090819081131581816200159f57855162001599906000038663ffffffff6200171b16565b620015b3565b8551620015b3908663ffffffff6200171b16565b90506000866020015160030b13620015ec576020860151620015e690829060000360030b600a0a63ffffffff620017be16565b6200160a565b60208601516200160a90829060030b600a0a63ffffffff6200171b16565b96919550909350505050565b60408051808201909152835481526001840154600390810b810b900b60208201526000908190819081908190819062001650908962001571565b6040805180820190915260028c015481526003808d0154810b810b900b6020820152919550935062001683908862001571565b91509150828015620016925750805b15620016b257620016aa848363ffffffff6200180216565b94506200170e565b8215620016e75781841115620016dc57620016d4848363ffffffff6200186016565b9450620016e1565b600094505b6200170e565b8015620017095783821115620016dc57620016d4828563ffffffff6200186016565b600094505b5092979650505050505050565b60008083151562001730576000915062000a16565b508282028284828115156200174157fe5b0414620006f7576040805160e560020a62461bcd02815260206004820152602160248201527f536166654d6174683a206d756c7469706c69636174696f6e206f766572666c6f60448201527f7700000000000000000000000000000000000000000000000000000000000000606482015290519081900360840190fd5b6000620006f783836040805190810160405280601a81526020017f536166654d6174683a206469766973696f6e206279207a65726f000000000000815250620018a4565b600082820183811015620006f7576040805160e560020a62461bcd02815260206004820152601b60248201527f536166654d6174683a206164646974696f6e206f766572666c6f770000000000604482015290519081900360640190fd5b6000620006f783836040805190810160405280601e81526020017f536166654d6174683a207375627472616374696f6e206f766572666c6f77000081525062001951565b600080828185116200193a5760405160e560020a62461bcd0281526004018080602001828103825283818151815260200191508051906020019080838360005b83811015620018fe578181015183820152602001620018e4565b50505050905090810190601f1680156200192c5780820380516001836020036101000a031916815260200191505b509250505060405180910390fd5b5083858115156200194757fe5b0495945050505050565b6000808285851115620019ab5760405160e560020a62461bcd02815260040180806020018281038252838181518152602001915080519060200190808383600083811015620018fe578181015183820152602001620018e4565b5050509103919050565b604051611e0980620019c783390190560060c0604052600c60808190527f4f7074696f6e73546f6b656e000000000000000000000000000000000000000060a090815262000040916006919062000264565b5060408051808201909152600c8082527f4f7074696f6e73546f6b656e00000000000000000000000000000000000000006020909201918252620000879160079162000264565b5060006009553480156200009a57600080fd5b5060405162001e0938038062001e098339810160408190528151602083015160008054600160a060020a031916331780825592949190910192600160a060020a0392909216917f8be0079c531659141344cd1fd0a4f28419497f9722a3daafe3b4186f6b6457e0908290a362000119826401000000006200014b810204565b6200012d33640100000000620001c0810204565b80516200014290600690602084019062000264565b50505062000306565b6200015e64010000000062000252810204565b1515620001bb57604080517f08c379a0000000000000000000000000000000000000000000000000000000008152602060048201819052602482015260008051602062001de9833981519152604482015290519081900360640190fd5b600155565b620001d364010000000062000252810204565b15156200023057604080517f08c379a0000000000000000000000000000000000000000000000000000000008152602060048201819052602482015260008051602062001de9833981519152604482015290519081900360640190fd5b60028054600160a060020a031916600160a060020a0392909216919091179055565b600054600160a060020a031633145b90565b828054600181600116156101000203166002900490600052602060002090601f016020900481019282601f10620002a757805160ff1916838001178555620002d7565b82800160010185558215620002d7579182015b82811115620002d7578251825591602001919060010190620002ba565b50620002e5929150620002e9565b5090565b6200026191905b80821115620002e55760008155600101620002f0565b611ad380620003166000396000f30060806040526004361061015e5763ffffffff7c010000000000000000000000000000000000000000000000000000000060003504166306fdde038114610163578063095ea7b3146101ed57806318160ddd1461022557806323b872dd1461024c57806326eb2757146102765780632ea628ae1461028b578063313ce56714610339578063395093511461036457806340c10f191461038857806342966c68146103ac57806350b1ab2c146103c45780635dbe47e8146103dc57806370a08231146103fd578063715018a61461041e57806386a8a503146104355780638da5cb5b1461044a5780638f32d59b1461047b57806395d89b4114610490578063a457c2d7146104a5578063a522f95b146104c9578063a9059cbb14610504578063ccb66dc414610528578063d0ebdbe714610540578063d500958414610561578063dd62ed3e14610576578063e2eea0ba1461059d578063f2fde38b146105b5575b600080fd5b34801561016f57600080fd5b506101786105d6565b6040805160208082528351818301528351919283929083019185019080838360005b838110156101b257818101518382015260200161019a565b50505050905090810190601f1680156101df5780820380516001836020036101000a031916815260200191505b509250505060405180910390f35b3480156101f957600080fd5b50610211600160a060020a0360043516602435610664565b604080519115158252519081900360200190f35b34801561023157600080fd5b5061023a6106c2565b60408051918252519081900360200190f35b34801561025857600080fd5b50610211600160a060020a03600435811690602435166044356106c9565b34801561028257600080fd5b5061023a6107c4565b34801561029757600080fd5b506102a06107d9565b604051808060200180602001838103835285818151815260200191508051906020019060200280838360005b838110156102e45781810151838201526020016102cc565b50505050905001838103825284818151815260200191508051906020019060200280838360005b8381101561032357818101518382015260200161030b565b5050505090500194505050505060405180910390f35b34801561034557600080fd5b5061034e610957565b6040805160ff9092168252519081900360200190f35b34801561037057600080fd5b50610211600160a060020a036004351660243561095c565b34801561039457600080fd5b50610211600160a060020a03600435166024356109e1565b3480156103b857600080fd5b50610211600435610abd565b3480156103d057600080fd5b50610211600435610ba1565b3480156103e857600080fd5b50610211600160a060020a0360043516610ba8565b34801561040957600080fd5b5061023a600160a060020a0360043516610bc4565b34801561042a57600080fd5b50610433610be2565b005b34801561044157600080fd5b5061023a610c85565b34801561045657600080fd5b5061045f610c8b565b60408051600160a060020a039092168252519081900360200190f35b34801561048757600080fd5b50610211610c9a565b34801561049c57600080fd5b50610178610cab565b3480156104b157600080fd5b50610211600160a060020a0360043516602435610d06565b3480156104d557600080fd5b506104e1600435610de5565b60408051600160a060020a03909316835260208301919091528051918290030190f35b34801561051057600080fd5b50610211600160a060020a0360043516602435610e2a565b34801561053457600080fd5b5061023a600435610e7f565b34801561054c57600080fd5b50610433600160a060020a0360043516610ed7565b34801561056d57600080fd5b5061045f610f52565b34801561058257600080fd5b5061023a600160a060020a0360043581169060243516610f61565b3480156105a957600080fd5b50610433600435610f8c565b3480156105c157600080fd5b50610433600160a060020a0360043516610fdd565b6006805460408051602060026001851615610100026000190190941693909304601f8101849004840282018401909252818152929183018282801561065c5780601f106106315761010080835404028352916020019161065c565b820191906000526020600020905b81548152906001019060200180831161063f57829003601f168201915b505050505081565b60015460009042106106ae576040805160e560020a62461bcd0281526020600482015260106024820152600080516020611a88833981519152604482015290519081900360640190fd5b6106b9338484611035565b50600192915050565b6009545b90565b6001546000904210610713576040805160e560020a62461bcd0281526020600482015260106024820152600080516020611a88833981519152604482015290519081900360640190fd5b61071e8484846111a2565b60408051606081018252602881527f45524332303a207472616e7366657220616d6f756e74206578636565647320616020808301919091527f6c6c6f77616e636500000000000000000000000000000000000000000000000082840152600160a060020a03871660009081526008825283812033808352925292909220546107ba92879290916107b591879063ffffffff61131216565b611035565b5060019392505050565b60006000196107d281610e7f565b91505b5090565b606080606080600080600360020154604051908082528060200260200182016040528015610811578160200160208202803883390190505b509350600360020154604051908082528060200260200182016040528015610843578160200160208202803883390190505b50925060009150600090505b60045481101561094c57600480548290811061086757fe5b60009182526020909120015474010000000000000000000000000000000000000000900460ff161561089857610944565b60048054829081106108a657fe5b6000918252602090912001548451600160a060020a03909116908590849081106108cc57fe5b600160a060020a0390921660209283029091019091015283516003906000908690859081106108f757fe5b90602001906020020151600160a060020a0316600160a060020a0316815260200190815260200160002060010154838381518110151561093357fe5b602090810290910101526001909101905b60010161084f565b509194909350915050565b601281565b60015460009042106109a6576040805160e560020a62461bcd0281526020600482015260106024820152600080516020611a88833981519152604482015290519081900360640190fd5b336000818152600860209081526040808320600160a060020a03881684529091529020546106b9919085906107b5908663ffffffff6113af16565b6001546000904210610a2b576040805160e560020a62461bcd0281526020600482015260106024820152600080516020611a88833981519152604482015290519081900360640190fd5b600254600160a060020a03163314610ab3576040805160e560020a62461bcd02815260206004820152602660248201527f4d616e6167657261626c653a2063616c6c6572206973206e6f7420746865204d60448201527f616e616765720000000000000000000000000000000000000000000000000000606482015290519081900360840190fd5b6106b98383611417565b6001546000904210610b07576040805160e560020a62461bcd0281526020600482015260106024820152600080516020611a88833981519152604482015290519081900360640190fd5b600254600160a060020a03163314610b8f576040805160e560020a62461bcd02815260206004820152602660248201527f4d616e6167657261626c653a2063616c6c6572206973206e6f7420746865204d60448201527f616e616765720000000000000000000000000000000000000000000000000000606482015290519081900360840190fd5b610b9933836114dc565b506001919050565b6004541190565b600160a060020a03166000908152600360205260408120541190565b600160a060020a031660009081526003602052604090206001015490565b610bea610c9a565b1515610c2e576040805160e560020a62461bcd0281526020600482018190526024820152600080516020611a68833981519152604482015290519081900360640190fd5b60008054604051600160a060020a03909116907f8be0079c531659141344cd1fd0a4f28419497f9722a3daafe3b4186f6b6457e0908390a36000805473ffffffffffffffffffffffffffffffffffffffff19169055565b60015490565b600054600160a060020a031690565b600054600160a060020a0316331490565b6007805460408051602060026001851615610100026000190190941693909304601f8101849004840282018401909252818152929183018282801561065c5780601f106106315761010080835404028352916020019161065c565b6001546000904210610d50576040805160e560020a62461bcd0281526020600482015260106024820152600080516020611a88833981519152604482015290519081900360640190fd5b60408051606081018252602581527f45524332303a2064656372656173656420616c6c6f77616e63652062656c6f776020808301919091527f207a65726f0000000000000000000000000000000000000000000000000000008284015233600081815260088352848120600160a060020a0389168252909252929020546106b9929186916107b591879063ffffffff61131216565b60048054600091829184908110610df857fe5b6000918252602080832090910154600160a060020a031680835260039091526040909120600101549094909350915050565b6001546000904210610e74576040805160e560020a62461bcd0281526020600482015260106024820152600080516020611a88833981519152604482015290519081900360640190fd5b6106b93384846111a2565b60010160005b60045482108015610ec757506004805483908110610e9f57fe5b60009182526020909120015474010000000000000000000000000000000000000000900460ff165b156107d557600190910190610e85565b610edf610c9a565b1515610f23576040805160e560020a62461bcd0281526020600482018190526024820152600080516020611a68833981519152604482015290519081900360640190fd5b6002805473ffffffffffffffffffffffffffffffffffffffff1916600160a060020a0392909216919091179055565b600254600160a060020a031690565b600160a060020a03918216600090815260086020908152604080832093909416825291909152205490565b610f94610c9a565b1515610fd8576040805160e560020a62461bcd0281526020600482018190526024820152600080516020611a68833981519152604482015290519081900360640190fd5b600155565b610fe5610c9a565b1515611029576040805160e560020a62461bcd0281526020600482018190526024820152600080516020611a68833981519152604482015290519081900360640190fd5b611032816115c7565b50565b600160a060020a03831615156110ba576040805160e560020a62461bcd028152602060048201526024808201527f45524332303a20617070726f76652066726f6d20746865207a65726f2061646460448201527f7265737300000000000000000000000000000000000000000000000000000000606482015290519081900360840190fd5b600160a060020a0382161515611140576040805160e560020a62461bcd02815260206004820152602260248201527f45524332303a20617070726f766520746f20746865207a65726f20616464726560448201527f7373000000000000000000000000000000000000000000000000000000000000606482015290519081900360840190fd5b600160a060020a03808416600081815260086020908152604080832094871680845294825291829020859055815185815291517f8c5be1e5ebec7d5bd14f71427d1e84f3dd0314c0f7b2291e5b200ac8c7c3b9259281900390910190a3505050565b600160a060020a0383161515611228576040805160e560020a62461bcd02815260206004820152602560248201527f45524332303a207472616e736665722066726f6d20746865207a65726f20616460448201527f6472657373000000000000000000000000000000000000000000000000000000606482015290519081900360840190fd5b600160a060020a03821615156112ae576040805160e560020a62461bcd02815260206004820152602360248201527f45524332303a207472616e7366657220746f20746865207a65726f206164647260448201527f6573730000000000000000000000000000000000000000000000000000000000606482015290519081900360840190fd5b6112b883826116b5565b6112c28282611795565b81600160a060020a031683600160a060020a03167fddf252ad1be2c89b69c2b068fc378daa952ba7f163c4a11628f55a4df523b3ef836040518082815260200191505060405180910390a3505050565b60008082858511156113a55760405160e560020a62461bcd0281526004018080602001828103825283818151815260200191508051906020019080838360005b8381101561136a578181015183820152602001611352565b50505050905090810190601f1680156113975780820380516001836020036101000a031916815260200191505b509250505060405180910390fd5b5050509103919050565b60008282018381101561140c576040805160e560020a62461bcd02815260206004820152601b60248201527f536166654d6174683a206164646974696f6e206f766572666c6f770000000000604482015290519081900360640190fd5b8091505b5092915050565b600160a060020a0382161515611477576040805160e560020a62461bcd02815260206004820152601f60248201527f45524332303a206d696e7420746f20746865207a65726f206164647265737300604482015290519081900360640190fd5b60095461148a908263ffffffff6113af16565b6009556114978282611795565b604080518281529051600160a060020a038416916000917fddf252ad1be2c89b69c2b068fc378daa952ba7f163c4a11628f55a4df523b3ef9181900360200190a35050565b600160a060020a0382161515611562576040805160e560020a62461bcd02815260206004820152602160248201527f45524332303a206275726e2066726f6d20746865207a65726f2061646472657360448201527f7300000000000000000000000000000000000000000000000000000000000000606482015290519081900360840190fd5b61156c82826116b5565b60095461157f908263ffffffff61185616565b600955604080518281529051600091600160a060020a038516917fddf252ad1be2c89b69c2b068fc378daa952ba7f163c4a11628f55a4df523b3ef9181900360200190a35050565b600160a060020a038116151561164d576040805160e560020a62461bcd02815260206004820152602660248201527f4f776e61626c653a206e6577206f776e657220697320746865207a65726f206160448201527f6464726573730000000000000000000000000000000000000000000000000000606482015290519081900360840190fd5b60008054604051600160a060020a03808516939216917f8be0079c531659141344cd1fd0a4f28419497f9722a3daafe3b4186f6b6457e091a36000805473ffffffffffffffffffffffffffffffffffffffff1916600160a060020a0392909216919091179055565b6000600160a060020a038316151561173d576040805160e560020a62461bcd02815260206004820152602360248201527f45524332303a207472616e7366657220746f20746865207a65726f206164647260448201527f6573730000000000000000000000000000000000000000000000000000000000606482015290519081900360840190fd5b50600160a060020a03821660009081526003602052604090206001015461176a818363ffffffff61185616565b905060008111156117855761177f838261189f565b50611790565b61178e8361195b565b505b505050565b6000600160a060020a038316151561181d576040805160e560020a62461bcd02815260206004820152602360248201527f45524332303a207472616e7366657220746f20746865207a65726f206164647260448201527f6573730000000000000000000000000000000000000000000000000000000000606482015290519081900360840190fd5b50600160a060020a03821660009081526003602052604090206001015461184a818363ffffffff6113af16565b905061178e838261189f565b600061189883836040805190810160405280601e81526020017f536166654d6174683a207375627472616374696f6e206f766572666c6f770000815250611312565b9392505050565b600160a060020a038216600090815260036020526040812080546001909101839055818111156118d25760019150611410565b60048054906118e49060018301611a16565b600160a060020a03851660009081526003602052604090206001820190556004805491925085918390811061191557fe5b60009182526020822001805473ffffffffffffffffffffffffffffffffffffffff1916600160a060020a0393909316929092179091556005805460010190559150611410565b600160a060020a0381166000908152600360205260408120548015156119845760009150611a10565b600160a060020a03831660009081526003602052604081208181556001908101919091556004805460001984019081106119ba57fe5b60009182526020909120018054911515740100000000000000000000000000000000000000000274ff00000000000000000000000000000000000000001990921691909117905560058054600019019055600191505b50919050565b815481835581811115611790576000838152602090206117909181019083016106c691905b808211156107d557805474ffffffffffffffffffffffffffffffffffffffffff19168155600101611a3b56004f776e61626c653a2063616c6c6572206973206e6f7420746865206f776e6572546f6b656e206973204578706972656400000000000000000000000000000000a165627a7a7230582058a7fe34ee50152ac9709679875f42757e5017b144556ad058f66f909779d2c600294f776e61626c653a2063616c6c6572206973206e6f7420746865206f776e65724f776e61626c653a2063616c6c6572206973206e6f7420746865206f776e6572a165627a7a7230582035e25d955530a0087f8bee4298b7c2dcad94fb91f23eb3641301eb86cfaded680029",
  "source": "pragma solidity ^0.4.26;\r\n\r\nimport \"./Ownable.sol\";\r\nimport \"./SafeMath.sol\";\r\nimport \"./OptionsToken.sol\";\r\ninterface IOptFormulas {\r\n    function getCollateralPrice(uint256 _strikePrice,uint256 _currentPrice,uint8 optType)external view returns(uint256);\r\n    function createNewToken(uint256 expiration,string optionsTokenName)external returns(address);\r\n}\r\n\r\ncontract OptionsFormulas is Ownable{\r\n    using SafeMath for uint256;\r\n    /* represents floting point numbers, where number = value * 10 ** exponent\r\n        i.e 0.1 = 10 * 10 ** -3 */\r\n    struct Number {\r\n        int256 value;\r\n        int32 exponent;\r\n    }\r\n    struct CollateralSegment {\r\n        Number strikeSlope;\r\n        Number priceSlope;\r\n    }\r\n    struct ThreeSegments {\r\n        //the lower limit of the result\r\n        Number lowerLimit;\r\n        // three segments demarcation points\r\n        Number lowerDemarcation;\r\n        Number upperDemarcation;\r\n        //Lower segment\r\n        CollateralSegment lowerSegment;\r\n        CollateralSegment midSegment;\r\n        CollateralSegment upperSegment;\r\n    }\r\n\r\n    ThreeSegments public callCollateral;\r\n    ThreeSegments public putCollateral;\r\n    constructor () public {\r\n        //call options formulas\r\n        \r\n        callCollateral.lowerLimit = Number(1,-2);\r\n        //from 0.9*strikeprice to 1.3*strikeprice\r\n        callCollateral.lowerDemarcation = Number(9,-1);\r\n        callCollateral.upperDemarcation = Number(13,-1);\r\n        // LowerSegment formulas is NeedCollateral = 0*strikeprice + 5/9*price;\r\n        callCollateral.lowerSegment.strikeSlope = Number(0,0);\r\n        callCollateral.lowerSegment.priceSlope = Number(5555555556,-10);\r\n        //midSegment formulas is NeedCollateral = 0.5*strikeprice + 0*price;\r\n        callCollateral.midSegment.strikeSlope = Number(5,-1);\r\n        callCollateral.midSegment.priceSlope = Number(0,0);\r\n        //UpperSegment formulas is NeedCollateral = 1*price - 0.8*strikeprice\r\n        callCollateral.upperSegment.strikeSlope = Number(-8,-1);\r\n        callCollateral.upperSegment.priceSlope = Number(1,0);\r\n        //Put options formulas\r\n        \r\n        putCollateral.lowerLimit = Number(1,-2);\r\n        //from 0.7*strikeprice to 1.1*strikeprice\r\n        putCollateral.lowerDemarcation = Number(7,-1);\r\n        putCollateral.upperDemarcation = Number(11,-1);\r\n        // LowerSegment formulas is NeedCollateral = 1.2*strikeprice -price;\r\n        putCollateral.lowerSegment.strikeSlope = Number(12,-1);\r\n        putCollateral.lowerSegment.priceSlope = Number(-1,0);\r\n        //midSegment formulas is NeedCollateral = 0.5*strikeprice + 0*price;\r\n        putCollateral.midSegment.strikeSlope = Number(5,-1);\r\n        putCollateral.midSegment.priceSlope = Number(0,0);\r\n        //UpperSegment formulas is NeedCollateral = -5/9*price + 10/9*strikeprice\r\n        putCollateral.upperSegment.strikeSlope = Number(11111111111,-10);\r\n        putCollateral.upperSegment.priceSlope = Number(-5555555556,-10);     \r\n    }\r\n    //*****************************getter**********************************\r\n\r\n    //****************************Call Formulas***************************\r\n    function getCallLowerDemarcation()public view returns (int256,int32){\r\n        return (callCollateral.lowerDemarcation.value,callCollateral.lowerDemarcation.exponent);\r\n    }\r\n    function getCallUpperDemarcation()public view returns (int256,int32){\r\n        return (callCollateral.upperDemarcation.value,callCollateral.upperDemarcation.exponent);\r\n    }\r\n    function getCallLowerLimit()public view returns (int256,int32){\r\n        return (callCollateral.lowerLimit.value,callCollateral.lowerLimit.exponent);\r\n    }\r\n    function getCallLowerSegment()public view returns(int256,int32,int256,int32){\r\n        return (callCollateral.lowerSegment.strikeSlope.value,callCollateral.lowerSegment.strikeSlope.exponent,\r\n        callCollateral.lowerSegment.priceSlope.value,callCollateral.lowerSegment.priceSlope.exponent);\r\n    }\r\n    function getCallMidSegment()public view returns(int256,int32,int256,int32){\r\n        return (callCollateral.midSegment.strikeSlope.value,callCollateral.midSegment.strikeSlope.exponent,\r\n        callCollateral.midSegment.priceSlope.value,callCollateral.midSegment.priceSlope.exponent);\r\n    }\r\n    function getCallUpperSegment()public view returns(int256,int32,int256,int32){\r\n        return (callCollateral.upperSegment.strikeSlope.value,callCollateral.upperSegment.strikeSlope.exponent,\r\n        callCollateral.upperSegment.priceSlope.value,callCollateral.upperSegment.priceSlope.exponent);\r\n    }\r\n\r\n    //****************************Put Formulas***************************\r\n    function getPutLowerDemarcation()public view returns (int256,int32){\r\n        return (putCollateral.lowerDemarcation.value,putCollateral.lowerDemarcation.exponent);\r\n    }\r\n    function getPutUpperDemarcation()public view returns (int256,int32){\r\n        return (putCollateral.upperDemarcation.value,putCollateral.upperDemarcation.exponent);\r\n    }\r\n    function getPutLowerLimit()public view returns (int256,int32){\r\n        return (putCollateral.lowerLimit.value,putCollateral.lowerLimit.exponent);\r\n    }\r\n    function getPutLowerSegment()public view returns(int256,int32,int256,int32){\r\n        return (putCollateral.lowerSegment.strikeSlope.value,putCollateral.lowerSegment.strikeSlope.exponent,\r\n        putCollateral.lowerSegment.priceSlope.value,putCollateral.lowerSegment.priceSlope.exponent);\r\n    }\r\n    function getPutMidSegment()public view returns(int256,int32,int256,int32){\r\n        return (putCollateral.midSegment.strikeSlope.value,putCollateral.midSegment.strikeSlope.exponent,\r\n        putCollateral.midSegment.priceSlope.value,putCollateral.midSegment.priceSlope.exponent);\r\n    }\r\n    function getPutUpperSegment()public view returns(int256,int32,int256,int32){\r\n        return (putCollateral.upperSegment.strikeSlope.value,putCollateral.upperSegment.strikeSlope.exponent,\r\n        putCollateral.upperSegment.priceSlope.value,putCollateral.upperSegment.priceSlope.exponent);\r\n    }\r\n    //*****************************setter**********************************\r\n\r\n    //****************************Call Formulas***************************\r\n    function setCallLowerDemarcation(int256 _value,int32 _exponent)public onlyOwner{\r\n        callCollateral.lowerDemarcation.value = _value;\r\n        callCollateral.lowerDemarcation.exponent = _exponent;\r\n    }\r\n    function setCallUpperDemarcation(int256 _value,int32 _exponent)public onlyOwner{\r\n        callCollateral.upperDemarcation.value = _value;\r\n        callCollateral.upperDemarcation.exponent = _exponent;\r\n    }\r\n    function setCallLowerLimit(int256 _value,int32 _exponent)public onlyOwner{\r\n        callCollateral.lowerLimit.value = _value;\r\n        callCollateral.lowerLimit.exponent = _exponent;\r\n    }\r\n    function setCallLowerSegment(int256 _strikeSlopeValue,\r\n                                int32 _strickSlopeExponent,\r\n                                int256 _priceSlopeValue,\r\n                                int32 _priceSlopeExponent)public onlyOwner\r\n    {\r\n        callCollateral.lowerSegment.strikeSlope.value = _strikeSlopeValue;\r\n        callCollateral.lowerSegment.strikeSlope.exponent = _strickSlopeExponent;\r\n        callCollateral.lowerSegment.priceSlope.value = _priceSlopeValue;\r\n        callCollateral.lowerSegment.priceSlope.exponent = _priceSlopeExponent;\r\n    }\r\n    function setCallMidSegment(int256 _strikeSlopeValue,\r\n        int32 _strickSlopeExponent,\r\n        int256 _priceSlopeValue,\r\n        int32 _priceSlopeExponent)public onlyOwner\r\n    {\r\n        callCollateral.midSegment.strikeSlope.value = _strikeSlopeValue;\r\n        callCollateral.midSegment.strikeSlope.exponent = _strickSlopeExponent;\r\n        callCollateral.midSegment.priceSlope.value = _priceSlopeValue;\r\n        callCollateral.midSegment.priceSlope.exponent = _priceSlopeExponent;\r\n    }\r\n    function setCallUpperSegment(int256 _strikeSlopeValue,\r\n        int32 _strickSlopeExponent,\r\n        int256 _priceSlopeValue,\r\n        int32 _priceSlopeExponent)public onlyOwner\r\n    {\r\n        callCollateral.upperSegment.strikeSlope.value = _strikeSlopeValue;\r\n        callCollateral.upperSegment.strikeSlope.exponent = _strickSlopeExponent;\r\n        callCollateral.upperSegment.priceSlope.value = _priceSlopeValue;\r\n        callCollateral.upperSegment.priceSlope.exponent = _priceSlopeExponent;\r\n    }\r\n\r\n    //****************************Put Formulas***************************\r\n    function setPutLowerDemarcation(int256 _value,int32 _exponent)public onlyOwner{\r\n        putCollateral.lowerDemarcation.value = _value;\r\n        putCollateral.lowerDemarcation.exponent = _exponent;\r\n    }\r\n    function setPutUpperDemarcation(int256 _value,int32 _exponent)public onlyOwner{\r\n        putCollateral.upperDemarcation.value = _value;\r\n        putCollateral.upperDemarcation.exponent = _exponent;\r\n    }\r\n    function setPutLowerLimit(int256 _value,int32 _exponent)public onlyOwner{\r\n        putCollateral.lowerLimit.value = _value;\r\n        putCollateral.lowerLimit.exponent = _exponent;\r\n    }\r\n    function setPutLowerSegment(int256 _strikeSlopeValue,\r\n        int32 _strickSlopeExponent,\r\n        int256 _priceSlopeValue,\r\n        int32 _priceSlopeExponent)public onlyOwner\r\n    {\r\n        putCollateral.lowerSegment.strikeSlope.value = _strikeSlopeValue;\r\n        putCollateral.lowerSegment.strikeSlope.exponent = _strickSlopeExponent;\r\n        putCollateral.lowerSegment.priceSlope.value = _priceSlopeValue;\r\n        putCollateral.lowerSegment.priceSlope.exponent = _priceSlopeExponent;\r\n    }\r\n    function setPutMidSegment(int256 _strikeSlopeValue,\r\n        int32 _strickSlopeExponent,\r\n        int256 _priceSlopeValue,\r\n        int32 _priceSlopeExponent)public onlyOwner\r\n    {\r\n        putCollateral.midSegment.strikeSlope.value = _strikeSlopeValue;\r\n        putCollateral.midSegment.strikeSlope.exponent = _strickSlopeExponent;\r\n        putCollateral.midSegment.priceSlope.value = _priceSlopeValue;\r\n        putCollateral.midSegment.priceSlope.exponent = _priceSlopeExponent;\r\n    }\r\n    function setPutUpperSegment(int256 _strikeSlopeValue,\r\n        int32 _strickSlopeExponent,\r\n        int256 _priceSlopeValue,\r\n        int32 _priceSlopeExponent)public onlyOwner\r\n    {\r\n        putCollateral.upperSegment.strikeSlope.value = _strikeSlopeValue;\r\n        putCollateral.upperSegment.strikeSlope.exponent = _strickSlopeExponent;\r\n        putCollateral.upperSegment.priceSlope.value = _priceSlopeValue;\r\n        putCollateral.upperSegment.priceSlope.exponent = _priceSlopeExponent;\r\n    }\r\n    //****************************Formulas call***********************************************\r\n    function getCollateralPrice(uint256 _strikePrice,uint256 _currentPrice,uint8 optType)public view returns(uint256){\r\n        return (optType == 0) ? callCollateralPrice(_strikePrice,_currentPrice) : putCollateralPrice(_strikePrice,_currentPrice);\r\n    }\r\n    function callCollateralPrice(uint256 _strikePrice,uint256 _currentPrice)public view returns(uint256){\r\n        return _calCollateralPrice(callCollateral,_strikePrice,_currentPrice);\r\n    }\r\n    function putCollateralPrice(uint256 _strikePrice,uint256 _currentPrice)public view returns(uint256){\r\n        return _calCollateralPrice(putCollateral,_strikePrice,_currentPrice);\r\n    }\r\n    function createNewToken(uint256 expiration,string optionsTokenName)public returns(address){\r\n        OptionsToken optionsToken = new OptionsToken(expiration,optionsTokenName);\r\n        optionsToken.setManager(msg.sender);\r\n        optionsToken.transferOwnership(msg.sender);\r\n        return optionsToken;\r\n    }\r\n    //******************************Internal functions******************************************\r\n    function _calNumberMulUint(Number number,uint256 value) internal pure returns (uint256,bool){\r\n        bool bSignFlag = number.value >= 0;\r\n        uint256 result = bSignFlag ? uint256(number.value).mul(value) : uint256(-1*number.value).mul(value);\r\n        result = number.exponent > 0 ? result.mul(10**uint256(number.exponent)) : result.div(10**uint256(-1*number.exponent));\r\n        return (result , bSignFlag);\r\n    }\r\n    function _calSegmentPrice(CollateralSegment storage _segment,uint256 _strikePrice,uint256 _currentPrice)\r\n            internal view\r\n            returns (uint256){\r\n        uint256 result;\r\n        (uint256 strikeResult,bool strikeSign) = _calNumberMulUint(_segment.strikeSlope,_strikePrice);\r\n        (uint256 priceResult,bool priceSign) = _calNumberMulUint(_segment.priceSlope,_currentPrice);\r\n        if (strikeSign && priceSign){\r\n            result = strikeResult.add(priceResult);\r\n        }else if(strikeSign){\r\n            if(strikeResult > priceResult){\r\n                result = strikeResult.sub(priceResult);\r\n            }else{\r\n                result = 0;\r\n            }\r\n        }else if(priceSign) {\r\n            if (priceResult > strikeResult){\r\n                result = priceResult.sub(strikeResult);\r\n            }else{\r\n                result = 0;\r\n            }\r\n        }else{\r\n            result = 0;\r\n        }\r\n        return result;\r\n    }\r\n    function _calCollateralPrice(ThreeSegments storage _collateral,uint256 _strikePrice,uint256 _currentPrice)\r\n            internal view\r\n            returns (uint256){\r\n        uint256 result;\r\n        (uint256 lowerDemarcation,bool lowerSign) = _calNumberMulUint(_collateral.lowerDemarcation,_strikePrice);\r\n        assert(lowerSign);\r\n        (uint256 upperDemarcation,bool upperSign) = _calNumberMulUint(_collateral.upperDemarcation,_strikePrice);\r\n        assert(upperSign);\r\n        if (_currentPrice > upperDemarcation){\r\n            result = _calSegmentPrice(_collateral.upperSegment,_strikePrice,_currentPrice);\r\n        }else if(_currentPrice>lowerDemarcation){\r\n            result = _calSegmentPrice(_collateral.midSegment,_strikePrice,_currentPrice);\r\n        }else{\r\n            result = _calSegmentPrice(_collateral.lowerSegment,_strikePrice,_currentPrice);\r\n        }\r\n        (uint256 lowerLimit,bool limitSign) = _calNumberMulUint(_collateral.lowerLimit,_strikePrice);\r\n        assert(limitSign);\r\n        if (lowerLimit == 0){\r\n            lowerLimit = 1;\r\n        }\r\n        if (result<lowerLimit){\r\n            result = lowerLimit;\r\n        }\r\n        return result;\r\n    }\r\n}",
  "sourcePath": "C:\\work\\solidity\\OptionsContract\\contracts\\OptionsFormulas.sol",
  "compiler": {
    "name": "solc",
    "version": "0.4.26+commit.4563c3fc.Emscripten.clang"
  },
  "schemaVersion": "3.1.0",
  "updatedAt": "2020-07-05T09:33:09.412Z",
  "networkType": "ethereum",
  "devdoc": {
    "methods": {
      "isOwner()": {
        "details": "Returns true if the caller is the current owner."
      },
      "owner()": {
        "details": "Returns the address of the current owner."
      },
      "renounceOwnership()": {
        "details": "Leaves the contract without owner. It will not be possible to call `onlyOwner` functions anymore. Can only be called by the current owner.     * NOTE: Renouncing ownership will leave the contract without an owner, thereby removing any functionality that is only available to the owner."
      },
      "transferOwnership(address)": {
        "details": "Transfers ownership of the contract to a new account (`newOwner`). Can only be called by the current owner."
      }
    }
  },
  "userdoc": {
    "methods": {}
  }
}