{
  "contractName": "TestCompoundOracle",
  "abi": [
    {
      "constant": false,
      "inputs": [
        {
          "name": "asset",
          "type": "address"
        },
        {
          "name": "price",
          "type": "uint256"
        }
      ],
      "name": "setPrice",
      "outputs": [],
      "payable": false,
      "stateMutability": "nonpayable",
      "type": "function"
    },
    {
      "constant": false,
      "inputs": [
        {
          "name": "assets",
          "type": "address[]"
        },
        {
          "name": "assetPrices",
          "type": "uint256[]"
        },
        {
          "name": "underlyings",
          "type": "uint256[]"
        },
        {
          "name": "ulPrices",
          "type": "uint256[]"
        }
      ],
      "name": "setPriceAndUnderlyingPrice",
      "outputs": [],
      "payable": false,
      "stateMutability": "nonpayable",
      "type": "function"
    },
    {
      "constant": true,
      "inputs": [
        {
          "name": "asset",
          "type": "address"
        }
      ],
      "name": "getPriceDetail",
      "outputs": [
        {
          "name": "",
          "type": "uint256"
        },
        {
          "name": "",
          "type": "uint256"
        }
      ],
      "payable": false,
      "stateMutability": "view",
      "type": "function"
    },
    {
      "constant": false,
      "inputs": [
        {
          "name": "optokens",
          "type": "address[]"
        },
        {
          "name": "buyPrices",
          "type": "uint256[]"
        },
        {
          "name": "SellPrices",
          "type": "uint256[]"
        }
      ],
      "name": "setOptionsBuyAndSellPrice",
      "outputs": [],
      "payable": false,
      "stateMutability": "nonpayable",
      "type": "function"
    },
    {
      "constant": true,
      "inputs": [],
      "name": "ValidUntil",
      "outputs": [
        {
          "name": "",
          "type": "uint256"
        }
      ],
      "payable": false,
      "stateMutability": "view",
      "type": "function"
    },
    {
      "constant": false,
      "inputs": [
        {
          "name": "optoken",
          "type": "address"
        },
        {
          "name": "price",
          "type": "uint256"
        }
      ],
      "name": "setSellOptionsPrice",
      "outputs": [],
      "payable": false,
      "stateMutability": "nonpayable",
      "type": "function"
    },
    {
      "constant": false,
      "inputs": [
        {
          "name": "timeLimit",
          "type": "uint256"
        }
      ],
      "name": "setValidUntil",
      "outputs": [],
      "payable": false,
      "stateMutability": "nonpayable",
      "type": "function"
    },
    {
      "constant": false,
      "inputs": [],
      "name": "renounceOwnership",
      "outputs": [],
      "payable": false,
      "stateMutability": "nonpayable",
      "type": "function"
    },
    {
      "constant": false,
      "inputs": [
        {
          "name": "underlying",
          "type": "uint256"
        },
        {
          "name": "price",
          "type": "uint256"
        }
      ],
      "name": "setUnderlyingPrice",
      "outputs": [],
      "payable": false,
      "stateMutability": "nonpayable",
      "type": "function"
    },
    {
      "constant": false,
      "inputs": [
        {
          "name": "optoken",
          "type": "address"
        },
        {
          "name": "price",
          "type": "uint256"
        }
      ],
      "name": "setBuyOptionsPrice",
      "outputs": [],
      "payable": false,
      "stateMutability": "nonpayable",
      "type": "function"
    },
    {
      "constant": true,
      "inputs": [],
      "name": "owner",
      "outputs": [
        {
          "name": "",
          "type": "address"
        }
      ],
      "payable": false,
      "stateMutability": "view",
      "type": "function"
    },
    {
      "constant": true,
      "inputs": [],
      "name": "isOwner",
      "outputs": [
        {
          "name": "",
          "type": "bool"
        }
      ],
      "payable": false,
      "stateMutability": "view",
      "type": "function"
    },
    {
      "constant": true,
      "inputs": [
        {
          "name": "oToken",
          "type": "address"
        }
      ],
      "name": "getSellOptionsPriceDetail",
      "outputs": [
        {
          "name": "",
          "type": "uint256"
        },
        {
          "name": "",
          "type": "uint256"
        }
      ],
      "payable": false,
      "stateMutability": "view",
      "type": "function"
    },
    {
      "constant": true,
      "inputs": [
        {
          "name": "oToken",
          "type": "address"
        }
      ],
      "name": "getBuyOptionsPriceDetail",
      "outputs": [
        {
          "name": "",
          "type": "uint256"
        },
        {
          "name": "",
          "type": "uint256"
        }
      ],
      "payable": false,
      "stateMutability": "view",
      "type": "function"
    },
    {
      "constant": true,
      "inputs": [
        {
          "name": "underlying",
          "type": "uint256"
        }
      ],
      "name": "getUnderlyingPriceDetail",
      "outputs": [
        {
          "name": "",
          "type": "uint256"
        },
        {
          "name": "",
          "type": "uint256"
        }
      ],
      "payable": false,
      "stateMutability": "view",
      "type": "function"
    },
    {
      "constant": false,
      "inputs": [
        {
          "name": "newOwner",
          "type": "address"
        }
      ],
      "name": "transferOwnership",
      "outputs": [],
      "payable": false,
      "stateMutability": "nonpayable",
      "type": "function"
    },
    {
      "anonymous": false,
      "inputs": [
        {
          "indexed": true,
          "name": "previousOwner",
          "type": "address"
        },
        {
          "indexed": true,
          "name": "newOwner",
          "type": "address"
        }
      ],
      "name": "OwnershipTransferred",
      "type": "event"
    },
    {
      "constant": true,
      "inputs": [
        {
          "name": "asset",
          "type": "address"
        }
      ],
      "name": "getPrice",
      "outputs": [
        {
          "name": "",
          "type": "uint256"
        }
      ],
      "payable": false,
      "stateMutability": "view",
      "type": "function"
    },
    {
      "constant": true,
      "inputs": [
        {
          "name": "cToken",
          "type": "uint256"
        }
      ],
      "name": "getUnderlyingPrice",
      "outputs": [
        {
          "name": "",
          "type": "uint256"
        }
      ],
      "payable": false,
      "stateMutability": "view",
      "type": "function"
    },
    {
      "constant": true,
      "inputs": [
        {
          "name": "oToken",
          "type": "address"
        }
      ],
      "name": "getSellOptionsPrice",
      "outputs": [
        {
          "name": "",
          "type": "uint256"
        }
      ],
      "payable": false,
      "stateMutability": "view",
      "type": "function"
    },
    {
      "constant": true,
      "inputs": [
        {
          "name": "oToken",
          "type": "address"
        }
      ],
      "name": "getBuyOptionsPrice",
      "outputs": [
        {
          "name": "",
          "type": "uint256"
        }
      ],
      "payable": false,
      "stateMutability": "view",
      "type": "function"
    },
    {
      "constant": true,
      "inputs": [
        {
          "name": "account",
          "type": "address"
        }
      ],
      "name": "getEthBalance",
      "outputs": [
        {
          "name": "",
          "type": "uint256"
        }
      ],
      "payable": false,
      "stateMutability": "view",
      "type": "function"
    }
  ],
  "bytecode": "0x6080604081905261025860015560008054600160a060020a0319163317808255600160a060020a0316917f8be0079c531659141344cd1fd0a4f28419497f9722a3daafe3b4186f6b6457e0908290a361102f8061005d6000396000f30060806040526004361061011b5763ffffffff7c0100000000000000000000000000000000000000000000000000000000600035041662e4768b81146101205780631410fa85146101465780631639f0fe1461024657806341976e091461028057806349b7482b146102b35780634af5b1e21461037a5780634d2301cc1461038f5780635fe1b456146103b0578063634099cc146103d4578063715018a6146103ec57806383532667146104015780638618b1d81461041c578063861f4d191461043d5780638da5cb5b146104615780638f32d59b146104925780639c662123146104bb578063ba5215fb146104dc578063cd75e52c146104fd578063cdad8beb1461051e578063da66325714610536578063f2fde38b1461054e575b600080fd5b34801561012c57600080fd5b50610144600160a060020a036004351660243561056f565b005b34801561015257600080fd5b506040805160206004803580820135838102808601850190965280855261014495369593946024949385019291829185019084908082843750506040805187358901803560208181028481018201909552818452989b9a998901989297509082019550935083925085019084908082843750506040805187358901803560208181028481018201909552818452989b9a998901989297509082019550935083925085019084908082843750506040805187358901803560208181028481018201909552818452989b9a9989019892975090820195509350839250850190849080828437509497506105e19650505050505050565b34801561025257600080fd5b50610267600160a060020a036004351661085c565b6040805192835260208301919091528051918290030190f35b34801561028c57600080fd5b506102a1600160a060020a036004351661087a565b60408051918252519081900360200190f35b3480156102bf57600080fd5b506040805160206004803580820135838102808601850190965280855261014495369593946024949385019291829185019084908082843750506040805187358901803560208181028481018201909552818452989b9a998901989297509082019550935083925085019084908082843750506040805187358901803560208181028481018201909552818452989b9a9989019892975090820195509350839250850190849080828437509497506108a29650505050505050565b34801561038657600080fd5b506102a1610ae3565b34801561039b57600080fd5b506102a1600160a060020a0360043516610ae9565b3480156103bc57600080fd5b50610144600160a060020a0360043516602435610af6565b3480156103e057600080fd5b50610144600435610b71565b3480156103f857600080fd5b50610144610bc2565b34801561040d57600080fd5b50610144600435602435610c65565b34801561042857600080fd5b506102a1600160a060020a0360043516610d25565b34801561044957600080fd5b50610144600160a060020a0360043516602435610d4b565b34801561046d57600080fd5b50610476610dca565b60408051600160a060020a039092168252519081900360200190f35b34801561049e57600080fd5b506104a7610dd9565b604080519115158252519081900360200190f35b3480156104c757600080fd5b50610267600160a060020a0360043516610dea565b3480156104e857600080fd5b50610267600160a060020a0360043516610e10565b34801561050957600080fd5b506102a1600160a060020a0360043516610e2c565b34801561052a57600080fd5b50610267600435610e52565b34801561054257600080fd5b506102a1600435610e5e565b34801561055a57600080fd5b50610144600160a060020a0360043516610e84565b610577610dd9565b15156105bb576040805160e560020a62461bcd0281526020600482018190526024820152600080516020610fe4833981519152604482015290519081900360640190fd5b600160a060020a0390911660009081526002602052604090206001810191909155429055565b60006105eb610dd9565b151561062f576040805160e560020a62461bcd0281526020600482018190526024820152600080516020610fe4833981519152604482015290519081900360640190fd5b83518551146106ae576040805160e560020a62461bcd02815260206004820152603160248201527f61737365747320616e6420617373657450726963657320617265206e6f74206f60448201527f66207468652073616d65206c656e677468000000000000000000000000000000606482015290519081900360840190fd5b815183511461072d576040805160e560020a62461bcd02815260206004820152603360248201527f756e6465726c79696e677320616e6420756c50726963657320617265206e6f7460448201527f206f66207468652073616d65206c656e67746800000000000000000000000000606482015290519081900360840190fd5b5060005b84518110156107ca57838181518110151561074857fe5b9060200190602002015160026000878481518110151561076457fe5b90602001906020020151600160a060020a03168152602001908152602001600020600101819055504260026000878481518110151561079f57fe5b6020908102909101810151600160a060020a0316825281019190915260400160002055600101610731565b5060005b82518110156108555781818151811015156107e557fe5b9060200190602002015160026000858481518110151561080157fe5b906020019060200201518152602001908152602001600020600101819055504260026000858481518110151561083357fe5b60209081029091018101518252810191909152604001600020556001016107ce565b5050505050565b60008061087183600160a060020a0316610edc565b91509150915091565b6000806108868361085c565b50905080156108975780915061089c565b603291505b50919050565b60008060006108af610dd9565b15156108f3576040805160e560020a62461bcd0281526020600482018190526024820152600080516020610fe4833981519152604482015290519081900360640190fd5b8451865114610972576040805160e560020a62461bcd02815260206004820152603160248201527f6f70746f6b656e7320616e642062757950726963657320617265206e6f74206f60448201527f66207468652073616d65206c656e677468000000000000000000000000000000606482015290519081900360840190fd5b83518651146109f1576040805160e560020a62461bcd02815260206004820152603260248201527f6f70746f6b656e7320616e642053656c6c50726963657320617265206e6f742060448201527f6f66207468652073616d65206c656e6774680000000000000000000000000000606482015290519081900360840190fd5b600092505b8551831015610a66578583815181101515610a0d57fe5b90602001906020020151600160a060020a0316600a0260010191508383815181101515610a3657fe5b602090810290910181015160008481526002909252604090912060018082019290925542905592909201916109f6565b600092505b8551831015610adb578583815181101515610a8257fe5b90602001906020020151600160a060020a0316600a0260020190508483815181101515610aab57fe5b60209081029091018101516000838152600290925260409091206001808201929092554290559290920191610a6b565b505050505050565b60015481565b600160a060020a03163190565b6000610b00610dd9565b1515610b44576040805160e560020a62461bcd0281526020600482018190526024820152600080516020610fe4833981519152604482015290519081900360640190fd5b506001600a600160a060020a03909316929092028201600090815260026020526040902091820155429055565b610b79610dd9565b1515610bbd576040805160e560020a62461bcd0281526020600482018190526024820152600080516020610fe4833981519152604482015290519081900360640190fd5b600155565b610bca610dd9565b1515610c0e576040805160e560020a62461bcd0281526020600482018190526024820152600080516020610fe4833981519152604482015290519081900360640190fd5b60008054604051600160a060020a03909116907f8be0079c531659141344cd1fd0a4f28419497f9722a3daafe3b4186f6b6457e0908390a36000805473ffffffffffffffffffffffffffffffffffffffff19169055565b610c6d610dd9565b1515610cb1576040805160e560020a62461bcd0281526020600482018190526024820152600080516020610fe4833981519152604482015290519081900360640190fd5b60008211610d09576040805160e560020a62461bcd02815260206004820152601960248201527f756e6465726c79696e672063616e6e6f74206265207a65726f00000000000000604482015290519081900360640190fd5b6000918252600260205260409091206001810191909155429055565b600080610d3183610e10565b5090508015610d425780915061089c565b50606e92915050565b6000610d55610dd9565b1515610d99576040805160e560020a62461bcd0281526020600482018190526024820152600080516020610fe4833981519152604482015290519081900360640190fd5b50600160a060020a0391909116600a0260029081016000908152602091909152604090206001810191909155429055565b600054600160a060020a031690565b600054600160a060020a0316331490565b6000806001600a600160a060020a0385160201610e0681610edc565b9250925050915091565b6000806002600a600160a060020a0385160201610e0681610edc565b600080610e3883610dea565b5090508015610e495780915061089c565b50605a92915050565b60008061087183610edc565b600080610e6a83610e52565b5090508015610e7b5780915061089c565b5060c892915050565b610e8c610dd9565b1515610ed0576040805160e560020a62461bcd0281526020600482018190526024820152600080516020610fe4833981519152604482015290519081900360640190fd5b610ed981610ef5565b50565b6000908152600260205260409020600181015490549091565b600160a060020a0381161515610f7b576040805160e560020a62461bcd02815260206004820152602660248201527f4f776e61626c653a206e6577206f776e657220697320746865207a65726f206160448201527f6464726573730000000000000000000000000000000000000000000000000000606482015290519081900360840190fd5b60008054604051600160a060020a03808516939216917f8be0079c531659141344cd1fd0a4f28419497f9722a3daafe3b4186f6b6457e091a36000805473ffffffffffffffffffffffffffffffffffffffff1916600160a060020a039290921691909117905556004f776e61626c653a2063616c6c6572206973206e6f7420746865206f776e6572a165627a7a723058202dea2dc568a0d562ef2b2f577a3936f04dd3e746cf3844a3b2e6245dfd94f1800029",
  "source": "pragma solidity ^0.4.26;\r\nimport \"./CompoundOracle.sol\";\r\n\r\ncontract TestCompoundOracle is CompoundOracle {\r\n    /**\r\n  * @notice retrieves price of an asset\r\n  * @dev function to get price for an asset\r\n  * @param asset Asset for which to get the price\r\n  * @return uint mantissa of asset price (scaled by 1e18) or zero if unset or contract paused\r\n  */\r\n    function getPrice(address asset) public view returns (uint){\r\n        (uint256 price,) = CompoundOracle.getPriceDetail(asset);\r\n        if (price != 0) {\r\n            return price;\r\n        }\r\n        return 50;\r\n    }\r\n    function getUnderlyingPrice(uint256 cToken) public view returns (uint){\r\n        (uint256 price,) = CompoundOracle.getUnderlyingPriceDetail(cToken);\r\n        if (price != 0) {\r\n            return price;\r\n        }\r\n        return 200;\r\n    }\r\n\r\n    function getSellOptionsPrice(address oToken) public view returns (uint){\r\n        (uint256 price,) = CompoundOracle.getSellOptionsPriceDetail(oToken);\r\n        if (price != 0) {\r\n            return price;\r\n        }\r\n        return 90;\r\n    }\r\n    function getBuyOptionsPrice(address oToken) public view returns (uint){\r\n        (uint256 price,) = CompoundOracle.getBuyOptionsPriceDetail(oToken);\r\n        if (price != 0) {\r\n            return price;\r\n        }\r\n        return 110;\r\n    }\r\n    function getEthBalance(address account) public view returns (uint) {\r\n        return account.balance;\r\n    }\r\n}\r\n",
  "sourcePath": "C:\\work\\solidity\\OptionsContract\\contracts\\TestCompoundOracle.sol",
  "compiler": {
    "name": "solc",
    "version": "0.4.26+commit.4563c3fc.Emscripten.clang"
  },
  "schemaVersion": "3.1.0",
  "updatedAt": "2020-07-02T06:06:02.752Z",
  "devdoc": {
    "methods": {
      "getPrice(address)": {
        "details": "function to get price for an asset\r",
        "params": {
          "asset": "Asset for which to get the price\r"
        },
        "return": "uint mantissa of asset price (scaled by 1e18) or zero if unset or contract paused\r"
      },
      "isOwner()": {
        "details": "Returns true if the caller is the current owner."
      },
      "owner()": {
        "details": "Returns the address of the current owner."
      },
      "renounceOwnership()": {
        "details": "Leaves the contract without owner. It will not be possible to call `onlyOwner` functions anymore. Can only be called by the current owner.     * NOTE: Renouncing ownership will leave the contract without an owner, thereby removing any functionality that is only available to the owner."
      },
      "setBuyOptionsPrice(address,uint256)": {
        "details": "function to set an options token buy price\r",
        "params": {
          "optoken": "options token for which to set the buy price\r",
          "price": "the options token buy price\r"
        }
      },
      "setOptionsBuyAndSellPrice(address[],uint256[],uint256[])": {
        "details": "function to set price of a group of option tokens buy and sell prices\r",
        "params": {
          "SellPrices": "a group of sell prices\r",
          "buyPrices": "a group of buy prices\r",
          "optokens": "a group of option tokens for which to set the buy and sell price\r"
        }
      },
      "setPrice(address,uint256)": {
        "details": "function to set price for an asset\r",
        "params": {
          "asset": "Asset for which to set the price\r",
          "price": "the Asset's price\r"
        }
      },
      "setPriceAndUnderlyingPrice(address[],uint256[],uint256[],uint256[])": {
        "details": "function to set a group of prices for assets and a group of prices for underlying\r",
        "params": {
          "assetPrices": "a set of the Asset's price\r",
          "assets": "a set of asset for which to set the price\r",
          "ulPrices": "a set of the underlyings's price\r",
          "underlyings": "a set of underlyings for which to set the price\r"
        }
      },
      "setSellOptionsPrice(address,uint256)": {
        "details": "function to set an options token sell price\r",
        "params": {
          "optoken": "options token for which to set the sell price\r",
          "price": "the options token sell price\r"
        }
      },
      "setUnderlyingPrice(uint256,uint256)": {
        "details": "function to set price for an underlying\r",
        "params": {
          "price": "the underlying's price\r",
          "underlying": "underlying for which to set the price\r"
        }
      },
      "transferOwnership(address)": {
        "details": "Transfers ownership of the contract to a new account (`newOwner`). Can only be called by the current owner."
      }
    }
  },
  "userdoc": {
    "methods": {
      "getPrice(address)": {
        "notice": "retrieves price of an asset\r"
      },
      "setBuyOptionsPrice(address,uint256)": {
        "notice": "set price of an options token buy price\r"
      },
      "setOptionsBuyAndSellPrice(address[],uint256[],uint256[])": {
        "notice": "set price of a group of option tokens buy and sell prices\r"
      },
      "setPrice(address,uint256)": {
        "notice": "set price of an asset\r"
      },
      "setPriceAndUnderlyingPrice(address[],uint256[],uint256[],uint256[])": {
        "notice": "set a group of prices for assets and a group of prices for underlying\r"
      },
      "setSellOptionsPrice(address,uint256)": {
        "notice": "set price of an options token sell price\r"
      },
      "setUnderlyingPrice(uint256,uint256)": {
        "notice": "set price of an underlying\r"
      }
    }
  }
}