{
  "contractName": "TransactionFee",
  "abi": [
    {
      "constant": true,
      "inputs": [],
      "name": "getWhiteList",
      "outputs": [
        {
          "name": "",
          "type": "address[]"
        }
      ],
      "payable": false,
      "stateMutability": "view",
      "type": "function"
    },
    {
      "constant": false,
      "inputs": [
        {
          "name": "removeAddress",
          "type": "address"
        }
      ],
      "name": "removeWhiteList",
      "outputs": [],
      "payable": false,
      "stateMutability": "nonpayable",
      "type": "function"
    },
    {
      "constant": true,
      "inputs": [
        {
          "name": "",
          "type": "uint256"
        }
      ],
      "name": "whiteList",
      "outputs": [
        {
          "name": "",
          "type": "address"
        }
      ],
      "payable": false,
      "stateMutability": "view",
      "type": "function"
    },
    {
      "constant": false,
      "inputs": [],
      "name": "renounceOwnership",
      "outputs": [],
      "payable": false,
      "stateMutability": "nonpayable",
      "type": "function"
    },
    {
      "constant": true,
      "inputs": [
        {
          "name": "tmpAddress",
          "type": "address"
        }
      ],
      "name": "isEligibleAddress",
      "outputs": [
        {
          "name": "",
          "type": "bool"
        }
      ],
      "payable": false,
      "stateMutability": "view",
      "type": "function"
    },
    {
      "constant": true,
      "inputs": [],
      "name": "owner",
      "outputs": [
        {
          "name": "",
          "type": "address"
        }
      ],
      "payable": false,
      "stateMutability": "view",
      "type": "function"
    },
    {
      "constant": true,
      "inputs": [],
      "name": "isOwner",
      "outputs": [
        {
          "name": "",
          "type": "bool"
        }
      ],
      "payable": false,
      "stateMutability": "view",
      "type": "function"
    },
    {
      "constant": true,
      "inputs": [
        {
          "name": "",
          "type": "address"
        }
      ],
      "name": "managerFee",
      "outputs": [
        {
          "name": "",
          "type": "uint256"
        }
      ],
      "payable": false,
      "stateMutability": "view",
      "type": "function"
    },
    {
      "constant": true,
      "inputs": [],
      "name": "transactionFee",
      "outputs": [
        {
          "name": "value",
          "type": "uint256"
        },
        {
          "name": "exponent",
          "type": "int32"
        }
      ],
      "payable": false,
      "stateMutability": "view",
      "type": "function"
    },
    {
      "constant": true,
      "inputs": [],
      "name": "halted",
      "outputs": [
        {
          "name": "",
          "type": "bool"
        }
      ],
      "payable": false,
      "stateMutability": "view",
      "type": "function"
    },
    {
      "constant": false,
      "inputs": [
        {
          "name": "addAddress",
          "type": "address"
        }
      ],
      "name": "addWhiteList",
      "outputs": [],
      "payable": false,
      "stateMutability": "nonpayable",
      "type": "function"
    },
    {
      "constant": false,
      "inputs": [
        {
          "name": "newOwner",
          "type": "address"
        }
      ],
      "name": "transferOwnership",
      "outputs": [],
      "payable": false,
      "stateMutability": "nonpayable",
      "type": "function"
    },
    {
      "constant": false,
      "inputs": [
        {
          "name": "halt",
          "type": "bool"
        }
      ],
      "name": "setHalt",
      "outputs": [],
      "payable": false,
      "stateMutability": "nonpayable",
      "type": "function"
    },
    {
      "anonymous": false,
      "inputs": [
        {
          "indexed": true,
          "name": "recieptor",
          "type": "address"
        },
        {
          "indexed": true,
          "name": "collateral",
          "type": "address"
        },
        {
          "indexed": false,
          "name": "payback",
          "type": "uint256"
        }
      ],
      "name": "TransferPayback",
      "type": "event"
    },
    {
      "anonymous": false,
      "inputs": [
        {
          "indexed": true,
          "name": "previousOwner",
          "type": "address"
        },
        {
          "indexed": true,
          "name": "newOwner",
          "type": "address"
        }
      ],
      "name": "OwnershipTransferred",
      "type": "event"
    },
    {
      "constant": true,
      "inputs": [],
      "name": "getTransactionFee",
      "outputs": [
        {
          "name": "",
          "type": "uint256"
        },
        {
          "name": "",
          "type": "int32"
        }
      ],
      "payable": false,
      "stateMutability": "view",
      "type": "function"
    },
    {
      "constant": false,
      "inputs": [
        {
          "name": "value",
          "type": "uint256"
        },
        {
          "name": "exponent",
          "type": "int32"
        }
      ],
      "name": "setTransactionFee",
      "outputs": [],
      "payable": false,
      "stateMutability": "nonpayable",
      "type": "function"
    },
    {
      "constant": true,
      "inputs": [
        {
          "name": "settlement",
          "type": "address"
        }
      ],
      "name": "getFeeBalance",
      "outputs": [
        {
          "name": "",
          "type": "uint256"
        }
      ],
      "payable": false,
      "stateMutability": "view",
      "type": "function"
    },
    {
      "constant": true,
      "inputs": [],
      "name": "getAllFeeBalances",
      "outputs": [
        {
          "name": "",
          "type": "address[]"
        },
        {
          "name": "",
          "type": "uint256[]"
        }
      ],
      "payable": false,
      "stateMutability": "view",
      "type": "function"
    },
    {
      "constant": false,
      "inputs": [
        {
          "name": "currency",
          "type": "address"
        }
      ],
      "name": "redeem",
      "outputs": [],
      "payable": false,
      "stateMutability": "nonpayable",
      "type": "function"
    },
    {
      "constant": false,
      "inputs": [],
      "name": "redeemAll",
      "outputs": [],
      "payable": false,
      "stateMutability": "nonpayable",
      "type": "function"
    }
  ],
  "bytecode": "0x6000805460c060408190526003608081905260021960a05280556004805463fffffffd63ffffffff19909116179055600160a860020a03199091163317808355600160a060020a031691907f8be0079c531659141344cd1fd0a4f28419497f9722a3daafe3b4186f6b6457e0908290a3610f9d8061007e6000396000f3006080604052600436106101065763ffffffff7c010000000000000000000000000000000000000000000000000000000060003504166309a9d76c811461010b5780632042e5c2146101705780632f4350c2146101935780635c475d42146101a8578063715018a6146101dc578063817bf86d146101f157806385d79102146102265780638da5cb5b146102595780638f32d59b1461026e57806395a2251f146102835780639965a4d5146102a45780639ed3edf0146102d7578063b9b8af0b146102ec578063c78f680314610301578063e4a9d2be14610322578063e7cd4a0414610340578063f20568cd14610361578063f2fde38b1461040f578063f495438714610430575b600080fd5b34801561011757600080fd5b5061012061044a565b60408051602080825283518183015283519192839290830191858101910280838360005b8381101561015c578181015183820152602001610144565b505050509050019250505060405180910390f35b34801561017c57600080fd5b50610191600160a060020a03600435166104ad565b005b34801561019f57600080fd5b5061019161059e565b3480156101b457600080fd5b506101c060043561079c565b60408051600160a060020a039092168252519081900360200190f35b3480156101e857600080fd5b506101916107c4565b3480156101fd57600080fd5b50610212600160a060020a0360043516610867565b604080519115158252519081900360200190f35b34801561023257600080fd5b5061023b61087e565b60408051928352600391820b90910b60208301528051918290030190f35b34801561026557600080fd5b506101c061088c565b34801561027a57600080fd5b5061021261089b565b34801561028f57600080fd5b50610191600160a060020a03600435166108ac565b3480156102b057600080fd5b506102c5600160a060020a0360043516610a5b565b60408051918252519081900360200190f35b3480156102e357600080fd5b5061023b610a6d565b3480156102f857600080fd5b50610212610a7a565b34801561030d57600080fd5b506102c5600160a060020a0360043516610a9b565b34801561032e57600080fd5b5061019160043560243560030b610ab6565b34801561034c57600080fd5b50610191600160a060020a0360043516610b23565b34801561036d57600080fd5b50610376610be4565b604051808060200180602001838103835285818151815260200191508051906020019060200280838360005b838110156103ba5781810151838201526020016103a2565b50505050905001838103825284818151815260200191508051906020019060200280838360005b838110156103f95781810151838201526020016103e1565b5050505090500194505050505060405180910390f35b34801561041b57600080fd5b50610191600160a060020a0360043516610ced565b34801561043c57600080fd5b506101916004351515610d45565b606060018054806020026020016040519081016040528092919081815260200182805480156104a257602002820191906000526020600020905b8154600160a060020a03168152600190910190602001808311610484575b505050505090505b90565b60006104b761089b565b15156104fb576040805160e560020a62461bcd0281526020600482018190526024820152600080516020610f52833981519152604482015290519081900360640190fd5b61050482610dd1565b60015490915081101561059a576001546000190181146105855760018054600019810190811061053057fe5b60009182526020909120015460018054600160a060020a03909216918390811061055657fe5b9060005260206000200160006101000a815481600160a060020a030219169083600160a060020a031602179055505b6001805490610598906000198301610f14565b505b5050565b60008060006105ab61089b565b15156105ef576040805160e560020a62461bcd0281526020600482018190526024820152600080516020610f52833981519152604482015290519081900360640190fd5b600092505b600154831015610598576002600060018581548110151561061157fe5b6000918252602080832090910154600160a060020a0316835282019290925260400181205492508211156107915760006002600060018681548110151561065457fe5b6000918252602080832090910154600160a060020a03168352820192909252604001902055600180548490811061068757fe5b600091825260208220015460018054600160a060020a03909216935090859081106106ae57fe5b600091825260209091200154600160a060020a031614156106fc57604051339083156108fc029084906000818181858888f193505050501580156106f6573d6000803e3d6000fd5b50610791565b604080517fa9059cbb000000000000000000000000000000000000000000000000000000008152336004820152602481018490529051600160a060020a0383169163a9059cbb9160448083019260209291908290030181600087803b15801561076457600080fd5b505af1158015610778573d6000803e3d6000fd5b505050506040513d602081101561078e57600080fd5b50505b6001909201916105f4565b60018054829081106107aa57fe5b600091825260209091200154600160a060020a0316905081565b6107cc61089b565b1515610810576040805160e560020a62461bcd0281526020600482018190526024820152600080516020610f52833981519152604482015290519081900360640190fd5b60008054604051600160a060020a03909116907f8be0079c531659141344cd1fd0a4f28419497f9722a3daafe3b4186f6b6457e0908390a36000805473ffffffffffffffffffffffffffffffffffffffff19169055565b60008061087383610dd1565b600154119392505050565b6003805460045490910b9091565b600054600160a060020a031690565b600054600160a060020a0316331490565b6000806108b761089b565b15156108fb576040805160e560020a62461bcd0281526020600482018190526024820152600080516020610f52833981519152604482015290519081900360640190fd5b600160a060020a0383166000908152600260205260408120549250821161096c576040805160e560020a62461bcd02815260206004820152601260248201527f4974277320656d7074792062616c616e63650000000000000000000000000000604482015290519081900360640190fd5b600160a060020a03831660008181526002602052604081205515156109be57604051339083156108fc029084906000818181858888f193505050501580156109b8573d6000803e3d6000fd5b50610598565b50604080517fa9059cbb0000000000000000000000000000000000000000000000000000000081523360048201526024810183905290518391600160a060020a0383169163a9059cbb916044808201926020929091908290030181600087803b158015610a2a57600080fd5b505af1158015610a3e573d6000803e3d6000fd5b505050506040513d6020811015610a5457600080fd5b5050505050565b60026020526000908152604090205481565b6003805460045490910b82565b60005474010000000000000000000000000000000000000000900460ff1681565b600160a060020a031660009081526002602052604090205490565b610abe61089b565b1515610b02576040805160e560020a62461bcd0281526020600482018190526024820152600080516020610f52833981519152604482015290519081900360640190fd5b6003918255600480549190920b63ffffffff1663ffffffff19909116179055565b6000610b2d61089b565b1515610b71576040805160e560020a62461bcd0281526020600482018190526024820152600080516020610f52833981519152604482015290519081900360640190fd5b610b7a82610dd1565b60015490915081141561059a576001805480820182556000919091527fb10e2d527612073b26eecdfd717e6a320cf44b4afac2b0732d9fcbe2b7fa0cf6018054600160a060020a03841673ffffffffffffffffffffffffffffffffffffffff199091161790555050565b60608060606000600180549050604051908082528060200260200182016040528015610c1a578160200160208202803883390190505b509150600090505b600154811015610c845760026000600183815481101515610c3f57fe5b6000918252602080832090910154600160a060020a031683528201929092526040019020548251839083908110610c7257fe5b60209081029091010152600101610c22565b60018281805480602002602001604051908101604052809291908181526020018280548015610cdc57602002820191906000526020600020905b8154600160a060020a03168152600190910190602001808311610cbe575b505050505091509350935050509091565b610cf561089b565b1515610d39576040805160e560020a62461bcd0281526020600482018190526024820152600080516020610f52833981519152604482015290519081900360640190fd5b610d4281610e26565b50565b610d4d61089b565b1515610d91576040805160e560020a62461bcd0281526020600482018190526024820152600080516020610f52833981519152604482015290519081900360640190fd5b60008054911515740100000000000000000000000000000000000000000274ff000000000000000000000000000000000000000019909216919091179055565b6000805b600154811015610e205782600160a060020a0316600182815481101515610df857fe5b600091825260209091200154600160a060020a03161415610e1857610e20565b600101610dd5565b92915050565b600160a060020a0381161515610eac576040805160e560020a62461bcd02815260206004820152602660248201527f4f776e61626c653a206e6577206f776e657220697320746865207a65726f206160448201527f6464726573730000000000000000000000000000000000000000000000000000606482015290519081900360840190fd5b60008054604051600160a060020a03808516939216917f8be0079c531659141344cd1fd0a4f28419497f9722a3daafe3b4186f6b6457e091a36000805473ffffffffffffffffffffffffffffffffffffffff1916600160a060020a0392909216919091179055565b815481835581811115610598576000838152602090206105989181019083016104aa91905b80821115610f4d5760008155600101610f39565b509056004f776e61626c653a2063616c6c6572206973206e6f7420746865206f776e6572a165627a7a723058206fc3d91a1618168f09e7e78ce111053cdf509921ab7ec26707e31672ce2099a90029",
  "source": "pragma solidity ^0.4.26;\r\nimport \"./AddressWhiteList.sol\";\r\nimport \"./SafeMath.sol\";\r\nimport \"./IERC20.sol\";\r\n    /**\r\n     * @dev Implementation of a transaction fee manager.\r\n     */\r\ncontract TransactionFee is AddressWhiteList {\r\n    modifier nonContract() {                // contracts pls go\r\n        require(tx.origin == msg.sender);\r\n        _;\r\n    }\r\n\r\n    using SafeMath for uint256;\r\n    /* represents floting point numbers, where number = value * 10 ** exponent\r\n    i.e 0.1 = 10 * 10 ** -2 */\r\n    struct Number {\r\n        uint256 value;\r\n        int32 exponent;\r\n    }\r\n    event TransferPayback(address indexed recieptor,address indexed collateral,uint256 payback);\r\n    // The total fees accumulated in the contract\r\n    mapping (address => uint256) \tpublic managerFee;\r\n    // Number(3,-3) = 0.3%\r\n    Number public transactionFee = Number(3, -3);\r\n     /**\r\n     * @dev Returns the rate of trasaction fee.\r\n     */   \r\n    function getTransactionFee()public view returns (uint256,int32){\r\n        return (transactionFee.value,transactionFee.exponent);\r\n    }\r\n    /**\r\n     * @dev set the rate of trasaction fee.\r\n     * @param value the significant figures of transaction fee .\r\n     * @param exponent the exponent figures of transaction fee.\r\n     * transaction fee = Number(value,exponent);\r\n     */   \r\n    function setTransactionFee(uint256 value,int32 exponent)public onlyOwner{\r\n        transactionFee.value = value;\r\n        transactionFee.exponent = exponent;\r\n    }\r\n    function getFeeBalance(address settlement)public view returns(uint256){\r\n        return managerFee[settlement];\r\n    }\r\n    function getAllFeeBalances()public view returns(address[],uint256[]){\r\n        uint256[] memory balances = new uint256[](whiteList.length);\r\n        for (uint256 i=0;i<whiteList.length;i++){\r\n            balances[i] = managerFee[whiteList[i]];\r\n        }\r\n        return (whiteList,balances);\r\n    }\r\n    function redeem(address currency)public onlyOwner{\r\n        uint256 fee = managerFee[currency];\r\n        require (fee > 0, \"It's empty balance\");\r\n        managerFee[currency] = 0;\r\n         if (currency == address(0)){\r\n            msg.sender.transfer(fee);\r\n        }else{\r\n        IERC20 currencyToken = IERC20(currency);\r\n           currencyToken.transfer(msg.sender,fee);\r\n        }\r\n    }\r\n    function redeemAll()public onlyOwner{\r\n        for (uint256 i=0;i<whiteList.length;i++){\r\n            uint256 fee = managerFee[whiteList[i]];\r\n            if (fee > 0){\r\n                managerFee[whiteList[i]] = 0;\r\n                IERC20 collateralToken = IERC20(whiteList[i]);\r\n                if (whiteList[i] == address(0)){\r\n                    msg.sender.transfer(fee);\r\n                }else{\r\n                    collateralToken.transfer(msg.sender,fee);\r\n                }\r\n            }\r\n        }\r\n    }\r\n        /**\r\n      * @dev  transfer collateral payback amount;\r\n      * @param recieptor payback recieptor\r\n      * @param collateral collateral address\r\n      * @param payback amount of collateral will payback \r\n      */\r\n    function _transferPayback(address recieptor,address collateral,uint256 payback)internal{\r\n        if (payback == 0){\r\n            return;\r\n        }\r\n        if (collateral == address(0)){\r\n            recieptor.transfer(payback);\r\n        }else{\r\n            IERC20 collateralToken = IERC20(collateral);\r\n            collateralToken.transfer(recieptor,payback);\r\n        }\r\n        emit TransferPayback(recieptor,collateral,payback);\r\n    }\r\n    function _addTransactionFee(address settleMent,uint256 amount) internal {\r\n        managerFee[settleMent] = managerFee[settleMent].add(amount);\r\n    }\r\n    function _calNumberMulUint(Number number,uint256 value) internal pure returns (uint256){\r\n        uint256 result = number.value.mul(value);\r\n        if (number.exponent > 0) {\r\n            result = result.mul(10**uint256(number.exponent));\r\n        } else {\r\n            result = result.div(10**uint256(-1*number.exponent));\r\n        }\r\n        return result;\r\n    }\r\n}",
  "sourcePath": "C:\\work\\solidity\\OptionsContract\\contracts\\TransactionFee.sol",
  "compiler": {
    "name": "solc",
    "version": "0.4.26+commit.4563c3fc.Emscripten.clang"
  },
  "schemaVersion": "3.1.0",
  "updatedAt": "2020-07-11T12:27:47.058Z",
  "devdoc": {
    "methods": {
      "addWhiteList(address)": {
        "details": "Implementation of add an eligible address into the whitelist.\r",
        "params": {
          "addAddress": "new eligible address.\r"
        }
      },
      "getTransactionFee()": {
        "details": "Returns the rate of trasaction fee.\r"
      },
      "getWhiteList()": {
        "details": "Implementation of getting the eligible whitelist.\r"
      },
      "isEligibleAddress(address)": {
        "details": "Implementation of testing whether the input address is eligible.\r",
        "params": {
          "tmpAddress": "input address for testing.\r"
        }
      },
      "isOwner()": {
        "details": "Returns true if the caller is the current owner."
      },
      "owner()": {
        "details": "Returns the address of the current owner."
      },
      "removeWhiteList(address)": {
        "details": "Implementation of revoke an invalid address from the whitelist.\r",
        "params": {
          "removeAddress": "revoked address.\r"
        }
      },
      "renounceOwnership()": {
        "details": "Leaves the contract without owner. It will not be possible to call `onlyOwner` functions anymore. Can only be called by the current owner.     * NOTE: Renouncing ownership will leave the contract without an owner, thereby removing any functionality that is only available to the owner."
      },
      "setTransactionFee(uint256,int32)": {
        "details": "set the rate of trasaction fee.\r",
        "params": {
          "exponent": "the exponent figures of transaction fee.\r transaction fee = Number(value,exponent);\r",
          "value": "the significant figures of transaction fee .\r"
        }
      },
      "transferOwnership(address)": {
        "details": "Transfers ownership of the contract to a new account (`newOwner`). Can only be called by the current owner."
      }
    }
  },
  "userdoc": {
    "methods": {
      "setHalt(bool)": {
        "notice": "function Emergency situation that requires contribution period to stop or not."
      }
    }
  }
}