{
  "contractName": "TransactionFee",
  "abi": [
    {
      "constant": true,
      "inputs": [],
      "name": "getWhiteList",
      "outputs": [
        {
          "name": "",
          "type": "address[]"
        }
      ],
      "payable": false,
      "stateMutability": "view",
      "type": "function"
    },
    {
      "constant": false,
      "inputs": [
        {
          "name": "removeAddress",
          "type": "address"
        }
      ],
      "name": "removeWhiteList",
      "outputs": [],
      "payable": false,
      "stateMutability": "nonpayable",
      "type": "function"
    },
    {
      "constant": true,
      "inputs": [
        {
          "name": "",
          "type": "uint256"
        }
      ],
      "name": "whiteList",
      "outputs": [
        {
          "name": "",
          "type": "address"
        }
      ],
      "payable": false,
      "stateMutability": "view",
      "type": "function"
    },
    {
      "constant": false,
      "inputs": [],
      "name": "renounceOwnership",
      "outputs": [],
      "payable": false,
      "stateMutability": "nonpayable",
      "type": "function"
    },
    {
      "constant": true,
      "inputs": [
        {
          "name": "tmpAddress",
          "type": "address"
        }
      ],
      "name": "isEligibleAddress",
      "outputs": [
        {
          "name": "",
          "type": "bool"
        }
      ],
      "payable": false,
      "stateMutability": "view",
      "type": "function"
    },
    {
      "constant": true,
      "inputs": [],
      "name": "owner",
      "outputs": [
        {
          "name": "",
          "type": "address"
        }
      ],
      "payable": false,
      "stateMutability": "view",
      "type": "function"
    },
    {
      "constant": true,
      "inputs": [],
      "name": "isOwner",
      "outputs": [
        {
          "name": "",
          "type": "bool"
        }
      ],
      "payable": false,
      "stateMutability": "view",
      "type": "function"
    },
    {
      "constant": true,
      "inputs": [
        {
          "name": "",
          "type": "address"
        }
      ],
      "name": "managerFee",
      "outputs": [
        {
          "name": "",
          "type": "uint256"
        }
      ],
      "payable": false,
      "stateMutability": "view",
      "type": "function"
    },
    {
      "constant": true,
      "inputs": [],
      "name": "transactionFee",
      "outputs": [
        {
          "name": "value",
          "type": "uint256"
        },
        {
          "name": "exponent",
          "type": "int32"
        }
      ],
      "payable": false,
      "stateMutability": "view",
      "type": "function"
    },
    {
      "constant": false,
      "inputs": [
        {
          "name": "addAddress",
          "type": "address"
        }
      ],
      "name": "addWhiteList",
      "outputs": [],
      "payable": false,
      "stateMutability": "nonpayable",
      "type": "function"
    },
    {
      "constant": false,
      "inputs": [
        {
          "name": "newOwner",
          "type": "address"
        }
      ],
      "name": "transferOwnership",
      "outputs": [],
      "payable": false,
      "stateMutability": "nonpayable",
      "type": "function"
    },
    {
      "anonymous": false,
      "inputs": [
        {
          "indexed": true,
          "name": "previousOwner",
          "type": "address"
        },
        {
          "indexed": true,
          "name": "newOwner",
          "type": "address"
        }
      ],
      "name": "OwnershipTransferred",
      "type": "event"
    },
    {
      "constant": true,
      "inputs": [],
      "name": "getTransactionFee",
      "outputs": [
        {
          "name": "",
          "type": "uint256"
        },
        {
          "name": "",
          "type": "int32"
        }
      ],
      "payable": false,
      "stateMutability": "view",
      "type": "function"
    },
    {
      "constant": false,
      "inputs": [
        {
          "name": "value",
          "type": "uint256"
        },
        {
          "name": "exponent",
          "type": "int32"
        }
      ],
      "name": "setTransactionFee",
      "outputs": [],
      "payable": false,
      "stateMutability": "nonpayable",
      "type": "function"
    },
    {
      "constant": true,
      "inputs": [
        {
          "name": "settlement",
          "type": "address"
        }
      ],
      "name": "getFeeBalance",
      "outputs": [
        {
          "name": "",
          "type": "uint256"
        }
      ],
      "payable": false,
      "stateMutability": "view",
      "type": "function"
    },
    {
      "constant": true,
      "inputs": [],
      "name": "getAllFeeBalances",
      "outputs": [
        {
          "name": "",
          "type": "address[]"
        },
        {
          "name": "",
          "type": "uint256[]"
        }
      ],
      "payable": false,
      "stateMutability": "view",
      "type": "function"
    },
    {
      "constant": false,
      "inputs": [
        {
          "name": "currency",
          "type": "address"
        }
      ],
      "name": "redeem",
      "outputs": [],
      "payable": false,
      "stateMutability": "nonpayable",
      "type": "function"
    },
    {
      "constant": false,
      "inputs": [],
      "name": "redeemAll",
      "outputs": [],
      "payable": false,
      "stateMutability": "nonpayable",
      "type": "function"
    }
  ],
  "bytecode": "0x60c060408190526003608081905260021960a05280556004805463fffffffd63ffffffff1990911617905560008054600160a060020a0319163317808255600160a060020a0316917f8be0079c531659141344cd1fd0a4f28419497f9722a3daafe3b4186f6b6457e0908290a3610eab8061007b6000396000f3006080604052600436106100f05763ffffffff7c010000000000000000000000000000000000000000000000000000000060003504166309a9d76c81146100f55780632042e5c21461015a5780632f4350c21461017d5780635c475d4214610192578063715018a6146101c6578063817bf86d146101db57806385d79102146102105780638da5cb5b146102435780638f32d59b1461025857806395a2251f1461026d5780639965a4d51461028e5780639ed3edf0146102c1578063c78f6803146102d6578063e4a9d2be146102f7578063e7cd4a0414610315578063f20568cd14610336578063f2fde38b146103e4575b600080fd5b34801561010157600080fd5b5061010a610405565b60408051602080825283518183015283519192839290830191858101910280838360005b8381101561014657818101518382015260200161012e565b505050509050019250505060405180910390f35b34801561016657600080fd5b5061017b600160a060020a0360043516610468565b005b34801561018957600080fd5b5061017b610559565b34801561019e57600080fd5b506101aa600435610757565b60408051600160a060020a039092168252519081900360200190f35b3480156101d257600080fd5b5061017b61077f565b3480156101e757600080fd5b506101fc600160a060020a0360043516610822565b604080519115158252519081900360200190f35b34801561021c57600080fd5b50610225610839565b60408051928352600391820b90910b60208301528051918290030190f35b34801561024f57600080fd5b506101aa610847565b34801561026457600080fd5b506101fc610856565b34801561027957600080fd5b5061017b600160a060020a0360043516610867565b34801561029a57600080fd5b506102af600160a060020a0360043516610a16565b60408051918252519081900360200190f35b3480156102cd57600080fd5b50610225610a28565b3480156102e257600080fd5b506102af600160a060020a0360043516610a35565b34801561030357600080fd5b5061017b60043560243560030b610a50565b34801561032157600080fd5b5061017b600160a060020a0360043516610abd565b34801561034257600080fd5b5061034b610b7e565b604051808060200180602001838103835285818151815260200191508051906020019060200280838360005b8381101561038f578181015183820152602001610377565b50505050905001838103825284818151815260200191508051906020019060200280838360005b838110156103ce5781810151838201526020016103b6565b5050505090500194505050505060405180910390f35b3480156103f057600080fd5b5061017b600160a060020a0360043516610c87565b6060600180548060200260200160405190810160405280929190818152602001828054801561045d57602002820191906000526020600020905b8154600160a060020a0316815260019091019060200180831161043f575b505050505090505b90565b6000610472610856565b15156104b6576040805160e560020a62461bcd0281526020600482018190526024820152600080516020610e60833981519152604482015290519081900360640190fd5b6104bf82610cdf565b60015490915081101561055557600154600019018114610540576001805460001981019081106104eb57fe5b60009182526020909120015460018054600160a060020a03909216918390811061051157fe5b9060005260206000200160006101000a815481600160a060020a030219169083600160a060020a031602179055505b6001805490610553906000198301610e22565b505b5050565b6000806000610566610856565b15156105aa576040805160e560020a62461bcd0281526020600482018190526024820152600080516020610e60833981519152604482015290519081900360640190fd5b600092505b60015483101561055357600260006001858154811015156105cc57fe5b6000918252602080832090910154600160a060020a03168352820192909252604001812054925082111561074c5760006002600060018681548110151561060f57fe5b6000918252602080832090910154600160a060020a03168352820192909252604001902055600180548490811061064257fe5b600091825260208220015460018054600160a060020a039092169350908590811061066957fe5b600091825260209091200154600160a060020a031614156106b757604051339083156108fc029084906000818181858888f193505050501580156106b1573d6000803e3d6000fd5b5061074c565b604080517fa9059cbb000000000000000000000000000000000000000000000000000000008152336004820152602481018490529051600160a060020a0383169163a9059cbb9160448083019260209291908290030181600087803b15801561071f57600080fd5b505af1158015610733573d6000803e3d6000fd5b505050506040513d602081101561074957600080fd5b50505b6001909201916105af565b600180548290811061076557fe5b600091825260209091200154600160a060020a0316905081565b610787610856565b15156107cb576040805160e560020a62461bcd0281526020600482018190526024820152600080516020610e60833981519152604482015290519081900360640190fd5b60008054604051600160a060020a03909116907f8be0079c531659141344cd1fd0a4f28419497f9722a3daafe3b4186f6b6457e0908390a36000805473ffffffffffffffffffffffffffffffffffffffff19169055565b60008061082e83610cdf565b600154119392505050565b6003805460045490910b9091565b600054600160a060020a031690565b600054600160a060020a0316331490565b600080610872610856565b15156108b6576040805160e560020a62461bcd0281526020600482018190526024820152600080516020610e60833981519152604482015290519081900360640190fd5b600160a060020a03831660009081526002602052604081205492508211610927576040805160e560020a62461bcd02815260206004820152601260248201527f4974277320656d7074792062616c616e63650000000000000000000000000000604482015290519081900360640190fd5b600160a060020a038316600081815260026020526040812055151561097957604051339083156108fc029084906000818181858888f19350505050158015610973573d6000803e3d6000fd5b50610553565b50604080517fa9059cbb0000000000000000000000000000000000000000000000000000000081523360048201526024810183905290518391600160a060020a0383169163a9059cbb916044808201926020929091908290030181600087803b1580156109e557600080fd5b505af11580156109f9573d6000803e3d6000fd5b505050506040513d6020811015610a0f57600080fd5b5050505050565b60026020526000908152604090205481565b6003805460045490910b82565b600160a060020a031660009081526002602052604090205490565b610a58610856565b1515610a9c576040805160e560020a62461bcd0281526020600482018190526024820152600080516020610e60833981519152604482015290519081900360640190fd5b6003918255600480549190920b63ffffffff1663ffffffff19909116179055565b6000610ac7610856565b1515610b0b576040805160e560020a62461bcd0281526020600482018190526024820152600080516020610e60833981519152604482015290519081900360640190fd5b610b1482610cdf565b600154909150811415610555576001805480820182556000919091527fb10e2d527612073b26eecdfd717e6a320cf44b4afac2b0732d9fcbe2b7fa0cf6018054600160a060020a03841673ffffffffffffffffffffffffffffffffffffffff199091161790555050565b60608060606000600180549050604051908082528060200260200182016040528015610bb4578160200160208202803883390190505b509150600090505b600154811015610c1e5760026000600183815481101515610bd957fe5b6000918252602080832090910154600160a060020a031683528201929092526040019020548251839083908110610c0c57fe5b60209081029091010152600101610bbc565b60018281805480602002602001604051908101604052809291908181526020018280548015610c7657602002820191906000526020600020905b8154600160a060020a03168152600190910190602001808311610c58575b505050505091509350935050509091565b610c8f610856565b1515610cd3576040805160e560020a62461bcd0281526020600482018190526024820152600080516020610e60833981519152604482015290519081900360640190fd5b610cdc81610d34565b50565b6000805b600154811015610d2e5782600160a060020a0316600182815481101515610d0657fe5b600091825260209091200154600160a060020a03161415610d2657610d2e565b600101610ce3565b92915050565b600160a060020a0381161515610dba576040805160e560020a62461bcd02815260206004820152602660248201527f4f776e61626c653a206e6577206f776e657220697320746865207a65726f206160448201527f6464726573730000000000000000000000000000000000000000000000000000606482015290519081900360840190fd5b60008054604051600160a060020a03808516939216917f8be0079c531659141344cd1fd0a4f28419497f9722a3daafe3b4186f6b6457e091a36000805473ffffffffffffffffffffffffffffffffffffffff1916600160a060020a0392909216919091179055565b8154818355818111156105535760008381526020902061055391810190830161046591905b80821115610e5b5760008155600101610e47565b509056004f776e61626c653a2063616c6c6572206973206e6f7420746865206f776e6572a165627a7a72305820227175b8406290d7fbd4b7c15c7f905dca67fa4401ad9c65be1581fbc61ffaad0029",
  "source": "pragma solidity ^0.4.26;\r\nimport \"./AddressWhiteList.sol\";\r\nimport \"./SafeMath.sol\";\r\nimport \"./IERC20.sol\";\r\n    /**\r\n     * @dev Implementation of a transaction fee manager.\r\n     */\r\ncontract TransactionFee is AddressWhiteList {\r\n    using SafeMath for uint256;\r\n    /* represents floting point numbers, where number = value * 10 ** exponent\r\n    i.e 0.1 = 10 * 10 ** -2 */\r\n    struct Number {\r\n        uint256 value;\r\n        int32 exponent;\r\n    }\r\n    // The total fees accumulated in the contract\r\n    mapping (address => uint256) \tpublic managerFee;\r\n    // Number(3,-3) = 0.3%\r\n    Number public transactionFee = Number(3, -3);\r\n     /**\r\n     * @dev Returns the rate of trasaction fee.\r\n     */   \r\n    function getTransactionFee()public view returns (uint256,int32){\r\n        return (transactionFee.value,transactionFee.exponent);\r\n    }\r\n    /**\r\n     * @dev set the rate of trasaction fee.\r\n     * @param value the significant figures of transaction fee .\r\n     * @param exponent the exponent figures of transaction fee.\r\n     * transaction fee = Number(value,exponent);\r\n     */   \r\n    function setTransactionFee(uint256 value,int32 exponent)public onlyOwner{\r\n        transactionFee.value = value;\r\n        transactionFee.exponent = exponent;\r\n    }\r\n    function getFeeBalance(address settlement)public view returns(uint256){\r\n        return managerFee[settlement];\r\n    }\r\n    function getAllFeeBalances()public view returns(address[],uint256[]){\r\n        uint256[] memory balances = new uint256[](whiteList.length);\r\n        for (uint256 i=0;i<whiteList.length;i++){\r\n            balances[i] = managerFee[whiteList[i]];\r\n        }\r\n        return (whiteList,balances);\r\n    }\r\n    function redeem(address currency)public onlyOwner{\r\n        uint256 fee = managerFee[currency];\r\n        require (fee > 0, \"It's empty balance\");\r\n        managerFee[currency] = 0;\r\n         if (currency == address(0)){\r\n            msg.sender.transfer(fee);\r\n        }else{\r\n        IERC20 currencyToken = IERC20(currency);\r\n           currencyToken.transfer(msg.sender,fee);\r\n        }\r\n    }\r\n    function redeemAll()public onlyOwner{\r\n        for (uint256 i=0;i<whiteList.length;i++){\r\n            uint256 fee = managerFee[whiteList[i]];\r\n            if (fee > 0){\r\n                managerFee[whiteList[i]] = 0;\r\n                IERC20 collateralToken = IERC20(whiteList[i]);\r\n                if (whiteList[i] == address(0)){\r\n                    msg.sender.transfer(fee);\r\n                }else{\r\n                    collateralToken.transfer(msg.sender,fee);\r\n                }\r\n            }\r\n        }\r\n    }\r\n        /**\r\n      * @dev  transfer collateral payback amount;\r\n      * @param recieptor payback recieptor\r\n      * @param collateral collateral address\r\n      * @param payback amount of collateral will payback \r\n      */\r\n    function _transferPayback(address recieptor,address collateral,uint256 payback)internal{\r\n        if (payback == 0){\r\n            return;\r\n        }\r\n        if (collateral == address(0)){\r\n            recieptor.transfer(payback);\r\n        }else{\r\n            IERC20 collateralToken = IERC20(collateral);\r\n            collateralToken.transfer(recieptor,payback);\r\n        }\r\n    }\r\n    function _addTransactionFee(address settleMent,uint256 amount) internal {\r\n        managerFee[settleMent] = managerFee[settleMent].add(amount);\r\n    }\r\n    function _calNumberMulUint(Number number,uint256 value) internal pure returns (uint256){\r\n        uint256 result = number.value.mul(value);\r\n        if (number.exponent > 0) {\r\n            result = result.mul(10**uint256(number.exponent));\r\n        } else {\r\n            result = result.div(10**uint256(-1*number.exponent));\r\n        }\r\n        return result;\r\n    }\r\n}",
  "sourcePath": "C:\\work\\solidity\\OptionsContract\\contracts\\TransactionFee.sol",
  "compiler": {
    "name": "solc",
    "version": "0.4.26+commit.4563c3fc.Emscripten.clang"
  },
  "schemaVersion": "3.1.0",
  "updatedAt": "2020-07-05T09:33:01.562Z",
  "devdoc": {
    "methods": {
      "addWhiteList(address)": {
        "details": "Implementation of add an eligible address into the whitelist.\r",
        "params": {
          "addAddress": "new eligible address.\r"
        }
      },
      "getTransactionFee()": {
        "details": "Returns the rate of trasaction fee.\r"
      },
      "getWhiteList()": {
        "details": "Implementation of getting the eligible whitelist.\r"
      },
      "isEligibleAddress(address)": {
        "details": "Implementation of testing whether the input address is eligible.\r",
        "params": {
          "tmpAddress": "input address for testing.\r"
        }
      },
      "isOwner()": {
        "details": "Returns true if the caller is the current owner."
      },
      "owner()": {
        "details": "Returns the address of the current owner."
      },
      "removeWhiteList(address)": {
        "details": "Implementation of revoke an invalid address from the whitelist.\r",
        "params": {
          "removeAddress": "revoked address.\r"
        }
      },
      "renounceOwnership()": {
        "details": "Leaves the contract without owner. It will not be possible to call `onlyOwner` functions anymore. Can only be called by the current owner.     * NOTE: Renouncing ownership will leave the contract without an owner, thereby removing any functionality that is only available to the owner."
      },
      "setTransactionFee(uint256,int32)": {
        "details": "set the rate of trasaction fee.\r",
        "params": {
          "exponent": "the exponent figures of transaction fee.\r transaction fee = Number(value,exponent);\r",
          "value": "the significant figures of transaction fee .\r"
        }
      },
      "transferOwnership(address)": {
        "details": "Transfers ownership of the contract to a new account (`newOwner`). Can only be called by the current owner."
      }
    }
  },
  "userdoc": {
    "methods": {}
  }
}